:020000040000FA
:10000000F0500020CD62000083E40100A1620000F6
:10001000A1620000A1620000A1620000A1620000D4
:100020000000000000000000000000001D5B000058
:10003000A162000000000000B55A0000A1620000AB
:10004000A95B0000A95B0000A95B0000A95B0000A0
:10005000A95B0000A95B0000A95B0000A95B000090
:10006000A95B0000A95B0000A95B0000A95B000080
:10007000A95B0000A95B0000A95B0000A95B000070
:10008000A95B0000A95B0000A95B0000A95B000060
:10009000A95B0000A95B0000A95B0000A95B000050
:1000A000A95B0000A95B0000A95B0000A95B000040
:1000B000A95B0000A95B0000A95B0000A95B000030
:1000C000A95B0000A95B0000A95B0000A95B000020
:1000D000A95B0000A95B0000A95B0000A95B000010
:1000E000A95B0000A95B0000A95B0000A95B000000
:1000F000A95B0000A95B0000A95B0000A95B0000F0
:10010000A95B0000A95B0000A95B0000A95B0000DF
:10011000A95B0000A95B0000A95B0000A95B0000CF
:10012000A95B0000A95B0000A95B0000A95B0000BF
:10013000A95B0000A95B0000A95B0000A95B0000AF
:10014000A95B0000A95B0000A95B0000A95B00009F
:10015000A95B0000FFFFFFFF81F0004102E000BF4C
:1001600083F0004330B54FEA41044FEA430594EA77
:10017000050F08BF90EA020F1FBF54EA000C55EAB2
:10018000020C7FEA645C7FEA655C00F0E2804FEA83
:100190005454D4EB5555B8BF6D420CDD2C4480EA65
:1001A000020281EA030382EA000083EA010180EA95
:1001B000020281EA0303362D88BF30BD11F0004FE3
:1001C0004FEA01314FF4801C4CEA113102D0404219
:1001D00061EB410113F0004F4FEA03334CEA133354
:1001E00002D0524263EB430394EA050F00F0A7806C
:1001F000A4F10104D5F1200E0DDB02FA0EFC22FA67
:1002000005F2801841F1000103FA0EF2801843FA5A
:1002100005F359410EE0A5F120050EF1200E012A4B
:1002200003FA0EFC28BF4CF0020C43FA05F3C01889
:1002300051EBE37101F0004507D54FF0000EDCF102
:10024000000C7EEB00006EEB0101B1F5801F1BD3AB
:10025000B1F5001F0CD349085FEA30004FEA3C0CAF
:1002600004F101044FEA445212F5800F80F09A80A5
:10027000BCF1004F08BF5FEA500C50F1000041EBA9
:10028000045141EA050130BD5FEA4C0C404141EBAD
:100290000101013C28BFB1F5801FE9D291F0000FA8
:1002A00004BF01460020B1FA81F308BF2033A3F157
:1002B0000B03B3F120020CDA0C3208DD02F1140C4E
:1002C000C2F10C0201FA0CF021FA02F10CE002F189
:1002D0001402D8BFC2F1200C01FA02F120FA0CFC82
:1002E000DCBF41EA0C019040E41AA2BF01EB0451CB
:1002F000294330BD6FEA04041F3C1CDA0C340EDCC9
:1003000004F11404C4F1200220FA04F001FA02F30B
:1003100040EA030021FA04F345EA030130BDC4F1C9
:100320000C04C4F1200220FA02F001FA04F340EABE
:100330000300294630BD21FA04F0294630BD94F06F
:10034000000F83F4801306BF81F480110134013D56
:100350004EE77FEA645C18BF7FEA655C29D094EAC7
:10036000050F08BF90EA020F05D054EA000C04BF45
:100370001946104630BD91EA030F1EBF0021002030
:1003800030BD5FEA545C05D14000494128BF41F0CF
:10039000004130BD14F580043CBF01F5801130BD33
:1003A00001F0004545F0FE4141F470014FF00000BE
:1003B00030BD7FEA645C1ABF194610467FEA655C6F
:1003C0001CBF0B46024650EA013406BF52EA033511
:1003D00091EA030F41F4002130BD00BF90F0000FFF
:1003E00004BF0021704730B54FF4806404F132043B
:1003F0004FF000054FF0000150E700BF90F0000FF4
:1004000004BF0021704730B54FF4806404F132041A
:1004100010F0004548BF40424FF000013EE700BFEA
:1004200042004FEAE2014FEA31014FEA02701FBF7A
:1004300012F07F4393F07F4F81F06051704732F0AC
:100440007F4208BF704793F07F4F04BF41F4002103
:10045000704730B54FF4607401F0004521F0004161
:100460001CE700BF50EA010208BF704730B54FF0EB
:1004700000050AE050EA010208BF704730B511F0EC
:10048000004502D5404261EB41014FF4806404F124
:1004900032045FEA915C3FF4D8AE4FF003025FEAAA
:1004A000DC0C18BF03325FEADC0C18BF033202EB2E
:1004B000DC02C2F1200300FA03FC20FA02F001FA88
:1004C00003FE40EA0E0021FA02F11444BDE600BF2B
:1004D00070B54FF0FF0C4CF4E06C1CEA11541DBFDA
:1004E0001CEA135594EA0C0F95EA0C0F00F0DEF8A5
:1004F0002C4481EA030621EA4C5123EA4C5350EA8A
:10050000013518BF52EA033541F4801143F48013DA
:1005100038D0A0FB02CE4FF00005E1FB02E506F06B
:100520000042E0FB03E54FF00006E1FB03569CF0C0
:10053000000F18BF4EF0010EA4F1FF04B6F5007FC6
:1005400064F5407404D25FEA4E0E6D4146EB060638
:1005500042EAC62141EA55514FEAC52040EA5E50C1
:100560004FEACE2EB4F1FD0C88BFBCF5E06F1ED86B
:10057000BEF1004F08BF5FEA500E50F1000041EBA2
:10058000045170BD06F0004646EA010140EA02004F
:1005900081EA0301B4EB5C04C2BFD4EB0C0541EA71
:1005A000045170BD41F480114FF0000E013C00F386
:1005B000AB8014F1360FDEBF002001F0004170BDAA
:1005C000C4F10004203C35DA0C341BDC04F11404C3
:1005D000C4F1200500FA05F320FA04F001FA05F24F
:1005E00040EA020001F0004221F0004110EBD3701C
:1005F00021FA04F642EB06015EEA430E08BF20EA48
:10060000D37070BDC4F10C04C4F1200500FA04F3EA
:1006100020FA05F001FA04F240EA020001F000417C
:1006200010EBD37041F100015EEA430E08BF20EAEF
:10063000D37070BDC4F1200500FA05F24EEA020E37
:1006400020FA04F301FA05F243EA020321FA04F066
:1006500001F0004121FA04F220EA020000EBD3701D
:100660005EEA430E08BF20EAD37070BD94F0000F1D
:100670000FD101F00046400041EB010111F4801F51
:1006800008BF013CF7D041EA060195F0000F18BF02
:10069000704703F00046520043EB030313F4801F3E
:1006A00008BF013DF7D043EA0603704794EA0C0FF8
:1006B0000CEA135518BF95EA0C0F0CD050EA41060E
:1006C00018BF52EA4306D1D181EA030101F000418B
:1006D0004FF0000070BD50EA410606BF10461946B3
:1006E00052EA430619D094EA0C0F02D150EA0136BF
:1006F00013D195EA0C0F05D152EA03361CBF104600
:1007000019460AD181EA030101F0004141F0FE419E
:1007100041F470014FF0000070BD41F0FE4141F422
:10072000780170BD70B54FF0FF0C4CF4E06C1CEA22
:1007300011541DBF1CEA135594EA0C0F95EA0C0FD7
:1007400000F0A7F8A4EB050481EA030E52EA033592
:100750004FEA013100F088804FEA03334FF08055B3
:1007600045EA131343EA12634FEA022245EA1115E0
:1007700045EA10654FEA00260EF000419D4208BF91
:10078000964244F1FD0404F5407402D25B084FEA3E
:100790003202B61A65EB03055B084FEA32024FF4EA
:1007A00080104FF4002CB6EB020E75EB030E22BF47
:1007B000B61A754640EA0C005B084FEA3202B6EB07
:1007C000020E75EB030E22BFB61A754640EA5C00B6
:1007D0005B084FEA3202B6EB020E75EB030E22BF46
:1007E000B61A754640EA9C005B084FEA3202B6EB47
:1007F000020E75EB030E22BFB61A754640EADC0006
:1008000055EA060E18D04FEA051545EA16754FEA67
:1008100006164FEAC30343EA52734FEAC2025FEA85
:100820001C1CC0D111F4801F0BD141EA00014FF014
:1008300000004FF0004CB6E711F4801F04BF0143E5
:100840000020B4F1FD0C88BFBCF5E06F3FF6AFAE01
:10085000B5EB030C04BFB6EB020C5FEA500C50F191
:10086000000041EB045170BD0EF0004E4EEA113114
:1008700014EB5C04C2BFD4EB0C0541EA045170BD1B
:1008800041F480114FF0000E013C90E645EA060E5F
:100890008DE60CEA135594EA0C0F08BF95EA0C0F8D
:1008A0003FF43BAF94EA0C0F0AD150EA01347FF4D5
:1008B00034AF95EA0C0F7FF425AF104619462CE7AC
:1008C00095EA0C0F06D152EA03353FF4FDAE10460F
:1008D000194622E750EA410618BF52EA43067FF460
:1008E000C5AE50EA41047FF40DAF52EA43057FF4F0
:1008F000EBAE12E74A0011D212F5001211D20DD55B
:100900006FF47873B3EB62520ED44FEAC12343F015
:10091000004343EA505323FA02F070474FF00000BF
:10092000704750EA013002D14FF0FF3070474FF06E
:100930000000704780F0004002E000BF81F00041FD
:1009400042001FBF5FEA410392EA030F7FEA226C75
:100950007FEA236C6AD04FEA1262D2EB1363C1BF05
:10096000D218414048404140B8BF5B42192B88BF74
:10097000704710F0004F40F4000020F07F4018BF97
:10098000404211F0004F41F4000121F07F4118BFB7
:10099000494292EA030F3FD0A2F1010241FA03FC5F
:1009A00010EB0C00C3F1200301FA03F100F0004347
:1009B00002D5494260EB4000B0F5000F13D3B0F10F
:1009C000807F06D340084FEA310102F10102FE2A7E
:1009D00051D2B1F1004F40EBC25008BF20F00100EE
:1009E00040EA03007047490040EB0000013A28BF8D
:1009F000B0F5000FEDD2B0FA80FCACF1080CB2EB10
:100A00000C0200FA0CF0AABF00EBC250524218438D
:100A1000BCBFD0401843704792F0000F81F4000132
:100A200006BF80F400000132013BB5E74FEA410305
:100A30007FEA226C18BF7FEA236C21D092EA030F71
:100A400004D092F0000F08BF0846704790EA010FEB
:100A50001CBF0020704712F07F4F04D1400028BF18
:100A600040F00040704712F100723CBF00F50000FA
:100A7000704700F0004343F0FE4040F40000704730
:100A80007FEA226216BF08467FEA236301464202DC
:100A900006BF5FEA412390EA010F40F480007047EF
:100AA0004FF0000304E000BF10F0004348BF404295
:100AB0005FEA000C08BF704743F0964301464FF0D1
:100AC00000001CE050EA010208BF70474FF000032D
:100AD0000AE000BF50EA010208BF704711F000436E
:100AE00002D5404261EB41015FEA010C02BF84463E
:100AF0000146002043F0B64308BFA3F18053A3F59D
:100B00000003BCFA8CF2083AA3EBC25310DB01FAE3
:100B100002FC634400FA02FCC2F12002BCF1004F67
:100B200020FA02F243EB020008BF20F001007047F8
:100B300002F1200201FA02FCC2F1200250EA4C004C
:100B400021FA02F243EB020008BF20EADC70704792
:100B50004FF0FF0C1CEAD0521EBF1CEAD15392EAA0
:100B60000C0F93EA0C0F6FD01A4480EA010C40027C
:100B700018BF5FEA41211ED04FF0006343EA5010D6
:100B800043EA5111A0FB01310CF00040B1F5000F18
:100B90003EBF490041EAD3715B0040EA010062F1C7
:100BA0007F02FD2A1DD8B3F1004F40EBC25008BFB1
:100BB00020F00100704790F0000F0CF0004C08BFCF
:100BC00049024CEA502040EA51207F3AC2BFD2F19C
:100BD000FF0340EAC250704740F400004FF00003AA
:100BE000013A5DDC12F1190FDCBF00F000407047E4
:100BF000C2F10002410021FA02F1C2F1200200FA22
:100C000002FC5FEA310040F1000053EA4C0308BFE8
:100C100020EADC70704792F0000F00F0004C02BF39
:100C2000400010F4000F013AF9D040EA0C0093F0B4
:100C3000000F01F0004C02BF490011F4000F013B0E
:100C4000F9D041EA0C018FE70CEAD15392EA0C0F7C
:100C500018BF93EA0C0F0AD030F0004C18BF31F0E7
:100C6000004CD8D180EA010000F00040704790F0BD
:100C7000000F17BF90F0004F084691F0000F91F061
:100C8000004F14D092EA0C0F01D142020FD193EA27
:100C90000C0F03D14B0218BF084608D180EA0100AF
:100CA00000F0004040F0FE4040F40000704740F08B
:100CB000FE4040F4400070474FF0FF0C1CEAD05259
:100CC0001EBF1CEAD15392EA0C0F93EA0C0F69D0B5
:100CD000A2EB030280EA010C49024FEA402037D020
:100CE0004FF0805343EA111143EA10130CF0004017
:100CF0008B4238BF5B0042F17D024FF4000C8B4207
:100D000024BF5B1A40EA0C00B3EB510F24BFA3EBE6
:100D1000510340EA5C00B3EB910F24BFA3EB9103B6
:100D200040EA9C00B3EBD10F24BFA3EBD10340EA10
:100D3000DC001B0118BF5FEA1C1CE0D1FD2A3FF656
:100D400050AF8B4240EBC25008BF20F0010070470B
:100D50000CF0004C4CEA50207F32C2BFD2F1FF03AE
:100D600040EAC250704740F400004FF00003013ADF
:100D700037E792F0000F00F0004C02BF400010F483
:100D8000000F013AF9D040EA0C0093F0000F01F097
:100D9000004C02BF490011F4000F013BF9D041EAB9
:100DA0000C0195E70CEAD15392EA0C0F08D14202EC
:100DB0007FF47DAF93EA0C0F7FF470AF084676E7BF
:100DC00093EA0C0F04D14B023FF44CAF08466EE798
:100DD00030F0004C18BF31F0004CCAD130F0004266
:100DE0007FF45CAF31F000437FF43CAF5FE700BFBE
:100DF00053B94AB9002908BF00281CBF4FF0FF3182
:100E00004FF0FF3000F00CB8ADF1080C6DE904CEE6
:100E100000F008F8DDF804E0DDE9022304B07047D3
:100E2000704700BF2DE9F04786468C460846089E6D
:100E3000154674461946002B40F0C1808542B2FA2F
:100E400082F245D94AB1C2F1200300FA02FC954072
:100E500094402EFA03F343EA0C0C4FEA154EA8B265
:100E6000230CBCFBFEF80EFB18CC08FB00F943EA90
:100E70000C43994528D9EB1808F1FF3704D299455E
:100E800002D9A8F102072B44A3EB0903A4B2B3FBD8
:100E9000FEFC0EFB1C330CFB00F044EA0344A042B2
:100EA00014D92C190CF1FF3304D2A04202D9ACF1B1
:100EB00002032C44241A43EA07401EB1D440002305
:100EC00034607360BDE8F0874746DDE76346F1E7CD
:100ED00092BB431B01214FEA154EAFB2200CB3FB6E
:100EE000FEFC0EFB1C330CFB07F840EA034398455D
:100EF00061D9EB180CF1FF3004D2984502D9ACF15E
:100F000002002B44A3EB0803A4B2B3FBFEFC0EFBD0
:100F10001C330CFB07F744EA0344A7424DD92C19B4
:100F20000CF1FF3304D2A74202D9ACF102032C44E6
:100F3000E41B43EA0040C0E7C2F12003954094401F
:100F400020FA03F12EFA03F34FEA154E9040AFB2A8
:100F50000343B1FBFEFC0EFB1C10190C0CFB07F845
:100F600041EA0041884522D969180CF1FF3004D2CA
:100F7000884502D9ACF102002944A1EB08019BB2DB
:100F8000B1FBFEFC0EFB1C110CFB07F743EA01430F
:100F90009F420ED9EB180CF1FF3104D29F4202D9C7
:100FA000ACF102012B44DB1B41EA004193E76046B0
:100FB000E3E76146F7E76046A4E76346B8E78342A4
:100FC00006D916B9002108467CE7C6E900E0F9E732
:100FD000B3FA83F78FB9834201D3724508D8BEEBC9
:100FE000020460EB030301209C461EB9002169E75F
:100FF0003846FAE7C6E9004CF8E7C7F1200CBB40D9
:101000000EFA07F522FA0CF42EFA0CF1BA401C4342
:1010100020FA0CF3B8404FEA144901431FFA84FE4A
:10102000B3FBF9F809FB18300B0C08FB0EFA43EA86
:1010300000439A4540D9E31808F1FF3004D29A459D
:1010400002D9A8F102002344A3EB0A0389B2B3FB3F
:10105000F9F809FB183308FB0EFE41EA03418E45FF
:101060002CD9611808F1FF3304D28E4502D9A8F1BA
:101070000203214443EA0040A1EB0E01A0FB0298C9
:101080004145CE46434602D306D14D4504D20138F0
:10109000B9EB020E68EB0403002EA7D0B5EB0E02ED
:1010A00061EB030101FA0CFC22FA07F3F9404CEA68
:1010B0000303C6E9003199E74046C5E74346D9E74F
:1010C00010F8012B11F8013B012A28BF9A42F7D0F2
:1010D000D01A7047034611F8012B03F8012B002AA0
:1010E000F9D17047034613F8012B002AFBD1181AD7
:1010F0000138704700000000F0B5654D8BB0D5F8A1
:101100006831996811F001011AD140F6034009AA2B
:1011100006F024FC0446002840F0B7800998C36814
:101120001B785BB905F1D403D3E8AF2F02F00902B5
:10113000D3E8EF1FC3E8E42F002CF9D10FF0FEFE37
:10114000002141F2030009AA06F008FC0446002829
:1011500040F09B80099B4F4EDA68D2F80100D2F82C
:10116000051003C618460FF0E9FE214641F20100C2
:1011700009AA06F0F3FB0446002840F0868009988F
:10118000C3685A7885F870205A88A5F872201A79B1
:1011900085F87120B3F80720A5F87420B3F805305E
:1011A000A5F876300FF0CAFE214641F2020009AAE6
:1011B00006F0D4FB0446002867D1099FFA68531C47
:1011C0004132344618685968083303C493422646AE
:1011D000F7D138460FF0B2FE08F090FC0446002824
:1011E00053D195F88A3013F0200318D12A4A2B499D
:1011F000CDE90132009302221DF0DDFA95F87C3032
:1012000013F040034ED1264A1846CDE90132234956
:10121000012200931DF0CFFA6FF0120435E0072190
:1012200040F6334006F04CFB0646002800F03581BE
:1012300007210C300FF0C6FF6FF009030127037080
:101240000623C0F802408471047122464770C370BF
:10125000314640F6334006F081FB0446A8B93946D2
:1012600040F6314006F02CFB0646002800F01581C0
:1012700039460C301FF099FB2246314640F631408A
:1012800006F06CFB04460028B8D020460BB0F0BD39
:1012900038000020B0000020D05E0200F02A0200DA
:1012A000FE5E0200002142F2030009AA06F056FB8E
:1012B00004460028E9D1099BA74EDA68D2F801005C
:1012C000D2F8051003C618460FF038FE214642F248
:1012D000020009AA06F042FB04460028D5D1099C69
:1012E000E368B3F8012091B249B1D97839B1A5F8D2
:1012F0000421DA78114606F1280020F079FD204615
:101300000FF01CFE95F87C6016F0200618D1022123
:1013100040F66D4006F0D4FA0446002800F0BD8087
:1013200002210C300FF04EFF01232146037046705E
:10133000324640F66D4006F011FB04460028A4D169
:1013400095F89C301E0712D5002142F21C0009AA14
:1013500006F004FB0446002897D10998C368D3F827
:101360000120D3F80530C5E938230FF0E7FD95F8E3
:10137000D8305C062AD5022142F22E0006F0A0FAEF
:101380000446002800F0898002210C300FF01AFF7B
:10139000B5F8B83121460380002242F22E0006F053
:1013A000DDFA044600287FF470AF014609AA42F234
:1013B0002A0006F0D3FA044600287FF466AF0998A5
:1013C000C3685B7885F820310FF0B8FD082142F240
:1013D000010006F075FA044600285ED008210C30A2
:1013E0000FF0F0FE95F8D81040F2022311F0400FF4
:1013F00008BF0323024688074CBF43F02C0043F08C
:101400000C008B0695F8D93048BF40F0400013F02F
:10141000090F95F8A23018BF40F4006003F00603EE
:10142000CF0748BF40F01000062B08BF40F4C07043
:1014300000211DF0D7F92146002242F2010006F0FA
:101440008DFA044600287FF420AF95F87C30B5F87B
:1014500004119E0624D4C9B941F2050009AA06F078
:101460007DFA044600287FF410AFB5F80431099CDA
:101470004BB9E368B3F80120A5F804219A883748EE
:10148000114620F0B5FC20460FF058FD082140F62B
:10149000014006F015FA044680B96FF06804F4E6DE
:1014A0000029F3D12E4B0122CDE901032D4903463A
:1014B00000901DF080F96FF00404E6E608210C307E
:1014C0000FF080FE95F8D8300246D9073AD44FF095
:1014D000005125481DF086F92146002240F60140C2
:1014E00006F03CFA044600287FF4CFAE014609AA74
:1014F0004FF6014006F032FA00283BD01B4BCDE9F5
:101500000143234600940222184616491DF053F960
:1015100007F054FF044600287FF4B7AE09F05CFDE5
:10152000044600287FF4B1AEEB79002B40F09E809A
:101530000F4B0322CDE901030A49034600901DF039
:101540003AF9A2E602A1D1E90001C3E7AFF30080B6
:10155000908800020080002010010020400100203F
:10156000225F0200F02A020010880002455F02009C
:1015700019600200099E4149F468B4F80130032B58
:1015800096BF3F4A3F4A52F82320CDE903233E4B02
:101590000322029300231846CDE900331DF00BF916
:1015A000B4F80130B4F80320022B3AD1032A38D81A
:1015B000364B53F82230CDE90332354B03220293E8
:1015C00000232E491846CDE900331DF0F4F8D4F875
:1015D000091063790791B4F80710032B0691A179DC
:1015E0004FF0000496BF2B4A264A52F82320CDE93B
:1015F0000431294B214920460392029303222346BA
:10160000CDE900441DF0D7F830460FF097FC214695
:101610004FF6024009AA06F0A1F9064618B11F4B81
:101620006DE7184BC7E709981D4CC368B3F8013044
:10163000A4F8C1300FF082FC94F8C1305B077FF54D
:1016400067AF31464FF6034009AA06F087F928B183
:10165000144B0096CDE90163334654E70998C368FB
:101660005B7884F8C0300FF069FC51E708210E4820
:101670001DF085F806F08EFF07E600BFF02A020095
:10168000AC33020096590200695F02009C330200ED
:10169000825F02008C3302009A5F0200C75F020083
:1016A00038000020F05F02000C010020014817F014
:1016B000C7B900BF000000204FF4A4720023014806
:1016C00017F03EB90000002038B50446C8070D46A3
:1016D00004D5E10702D5064816F07AFFAA0706D519
:1016E000A30704D5BDE83840024816F071BF38BDE5
:1016F000E8020020F8020020F0B505464FF4F97228
:10170000002187B0344820F0DBFE55F8044C324EFF
:101710002046FFF7E7FC042823D030462F49002459
:10172000FFF7D8FC2E4B2F49032220460293CDE928
:101730000044234603961AF005FF2748FFF7D2FC22
:1017400081B2254800F038FF48B1274B0122CDE98E
:10175000014320462346234900941AF0F3FE07B0C4
:10176000F0BD2378303B012B0BD86378303B012B45
:1017700007D8A378303B012B03D8E378303B012B0B
:1017800002D91A491448CAE70024194F55F8043CF5
:10179000E0B21B5D302B10D11FF04BFCA8B1CDE99E
:1017A0000340144B029300230E4901221846CDE951
:1017B00000331AF0C7FE1049E4E71FF037FC18B1F8
:1017C000CDE903400D4BEDE701200134042C07F86F
:1017D000010BDBD10A49D5E7B02500209A3B020076
:1017E000393C0200782B02004A3C0200B33B020065
:1017F000A2270020CE3B0200233C0200EE3B020069
:101800000D3C02002DE9F04F9A4B8DB01A782AB1A9
:101810000022994808A91A701AF0D6FE0025102453
:10182000964817F00DF9964B28460322CDE900554E
:101830009449029303942B461AF084FE29464FF4F0
:10184000F972914820F03CFE904D14F0030307D04C
:10185000032B42D0022B0CBF01230E23062101E0F3
:10186000042319468DF828304FF000080DF12A06A0
:101870003046DFF81CB21CF05CFEDFF818A20BABA0
:10188000CBF800300DF12E03CAF80030824F9DF8DE
:1018900028302E603E600393804B03220293404623
:1018A0004346CDE9008877491AF04CFE9DF8283070
:1018B000042B00F0D38012D8012B00F0A480022B5F
:1018C00066D00393764B0122029300236D4918469C
:1018D000CDE900331AF036FE88E00223BEE70E2B76
:1018E000EFD1DFF8A4914846FFF7FCFB2B6804908A
:1018F000B3F900001AF0F2FFFEF792FD02460B4624
:10190000DBF80010CDE90623B1F900001AF0E6FF7C
:10191000FEF786FD0F46DAF800100646B1F9000022
:101920001AF0DCFFFEF77CFDDDE90623DDF810A0F0
:10193000CDE90201CA445B495046CDE9006719F080
:101940001DFC594B4F4903224046CDE90183CDF898
:101950000C904346CDF800801AF0F4FD4846FFF79E
:10196000C1FB81B2484600F027FE50B14F4B012227
:10197000CDE90183404643464249CDF800801AF044
:10198000E1FD4FF4F97200213F4820F099FD2DE070
:101990003D4E3046FFF7A6FB29680746B1F9000027
:1019A00000F0C4F9FEF73CFD02460B46DBF80010E0
:1019B000CDE90423B1F9000000F0B8F9FEF730FDDD
:1019C0008946DAF800108046B1F9000000F0AEF95F
:1019D000FEF726FDDDE90423CDE90089CDE902010A
:1019E000334907EB060A504619F0C8FB013CA4B284
:1019F000002C7FF42AAF00220023204816F0A0FF1D
:101A00000DB0BDE8F08F204A1046FFF76BFB296848
:101A10008046B1F9000000F093F9FEF701FDCDE931
:101A20000401DBF80010B1F9000000F089F9FEF7BD
:101A3000F7FC0F46DAF800100646B1F9000000F096
:101A40007FF9114A08EB020AFEF7EAFCDDE90423FC
:101A5000CDE90201CDE900671649C4E73B684FF4C0
:101A6000F9721B68414600930748134B20F08EFB28
:101A7000BCE700BF90070020E01600200000002017
:101A8000713C0200782B0200B0250020DC160020FB
:101A9000D8160020D4160020D0160020FC3C0200EE
:101AA000F43C0200CD3C0200393C0200053D02003E
:101AB0007E3C02009F3C0200C33C02002DE9F04145
:101AC00088B0074600F090F90023054690B1324AED
:101AD0000390029201221846CDE900332F491AF0F3
:101AE00031FD4FF4A4720023384608B0BDE8F04140
:101AF00016F0A0BFDFF8A88046464146A8B200F025
:101B0000E7F9044620B1274B039002930023E1E755
:101B10000135042D08F10208EFD1234D01464FF4A1
:101B2000F972284620F0CCFC204B2146DA78284672
:101B300007929A7806925A7805921B784FF4F972B8
:101B40000493F3880393B3880293738801933388D3
:101B50000093174B20F01AFB164B10490322204626
:101B6000CDE901430395234600941AF0EBFC284687
:101B7000FFF7B8FA81B2284600F01EFD0028B0D069
:101B80000D4B0122CDE90143204623460349009431
:101B90001AF0D8FCA5E700BF223D0200782B020016
:101BA00060250020463D0200B0250020A22700202D
:101BB0006C3D0200393C0200A73D020030B52648CA
:101BC00087B016F03DFF254B4FF4F9721D780021C8
:101BD000B5FA85F4224864091C7020F071FC9DF868
:101BE000113065F3451364F3861313F0200F1C4C7A
:101BF000DDB203D020461B49FFF76CFA6B0603D514
:101C000019491748FFF766FA03940024174B18493F
:101C1000032220460293CDE9004423461AF092FCA9
:101C20000F48FFF75FFA81B20D4800F0C5FC50B1D4
:101C3000104B0390CDE901430122234620460C4975
:101C400000941AF07FFC00220023034807B0BDE88F
:101C5000304016F075BE00BF000000209107002044
:101C6000B0250020C83D0200D53D0200393C0200ED
:101C7000782B0200E23D0200054C08B505490648F4
:101C8000712322461BF04CF9712120461BF041F9CB
:101C9000083E0200F67A0200243E02001FB512F050
:101CA0004DF8044660B1194B039002930023CDE92F
:101CB00000330122184616491AF044FCFFF7DCFFF6
:101CC000144812F075F830B1134B0390CDE901437D
:101CD00000942346EDE700F03DF80028EED10F4ACE
:101CE0000F49104800F0D4FB03460028E6D10E4A05
:101CF0000749CDE90102009003221AF023FC4FF0BE
:101D0000FF314FF0FF3017F0DFFFF8E7413E0200F0
:101D1000782B0200C91600005C3E0200A0020020E1
:101D2000AD160000B9160000813E020008B5FEF7AE
:101D3000BBFE0249FEF70CFF08BD00BF23DB793D67
:101D400008B5FEF7B1FE0249FEF702FF08BD00BF6D
:101D500000008C4270B500261E4D86B055F8060C6A
:101D60001FF0A3FF034690B9142272431A496FF083
:101D700012048A581949126800900392184ACDE952
:101D8000010201221AF0B2FD204606B070BD15F81E
:101D9000013CA3B155F8060C836829461B68984797
:101DA000041E0FDA0F4B012202930023CDE90364D6
:101DB0001846CDE9003309491AF098FDE4E76FF0C1
:101DC0008504EFE70136042E05F11405C6D1002481
:101DD000DAE700BF0E30020008300200A82A020035
:101DE000BA3E0200DD3E02002DE9F04F8DB0142214
:101DF000002107A820F064FB0DF11A0309930223C8
:101E000000240A932B4B0322029320462346CDE95C
:101E1000004429491AF06AFD284DDFF8A480DFF854
:101E2000A4A0254FDFF8A09095F804B02E68CDF857
:101E300010B033680322CDE902A3002339461846C7
:101E4000CDE900331AF052FD6B794BB1012303FA4F
:101E50000BF308932B7C8DF82C306B7C8DF82D3098
:101E6000B36830465B6807A99847061E0EDA174B21
:101E700001220293002310491846CDE9003303964E
:101E80001AF034FD30460DB0BDE8F08FBDF81A30C1
:101E9000032228F8023BCDE9029300233946184675
:101EA000CDE9003301341AF021FD042C05F11405AD
:101EB000BAD1E7E7FE3E0200A82A0200083002007D
:101EC000682500200A3F0200313F02001D3F02004A
:101ED00030B503280D464FF0000485B006D80A4BF4
:101EE00033F8103020462B8005B030BD074B20461C
:101EF000CDE9014301222346054900941AF0F6FC7E
:101F000023466FF01500EEE768250020383F0200F9
:101F1000A82A02001FB50C46F1B9134B0322CDE9E4
:101F2000011320460B46009110491AF0EEFC104BAD
:101F300018681EF03DF80F4B0338C0B218700E4BF6
:101F40000390CDE901432346009402221846074935
:101F50001AF0DBFC04B010BD084B03910293002380
:101F6000CDE90033F1E700BF5C3F0200B02A020078
:101F7000F8160020C6270020703F0200873F0200AD
:101F800030B500240C4B85B00C4D204603910293D4
:101F900003222346CDE9004409491AF0B6FC28681B
:101FA00028B108F08BFA07482C6016F011FB0022CC
:101FB000054B1A7005B030BDA63F0200F816002090
:101FC000B02A0200FC160020C42700202DE9FF41A2
:101FD0000F469046224B1D682E687EB9214B022287
:101FE0000393214B3046CDE9016320493B46CDF8B0
:101FF00000801AF08AFC04B0BDE8F0813046FFF79B
:1020000071F84045024629D83946304620F0E8F8B4
:10201000044618BB164B0322CDE9010313490346BE
:10202000009003961AF071FC2868FFF75BF83918E6
:102030006868FFF74FF86B68204603930D4B032247
:10204000CDE901430949234600941AF05EFC05F1ED
:10205000080004B0BDE8F04116F0BABA1835BBE785
:10206000F4160020E13F0200473C0200B02A0200C3
:10207000BF3F0200D03F020010B5084686B0CDE950
:1020800004230C46FEF7BAF900220B4BFEF720FAA8
:10209000FEF730FC094B0322029300230390CDE9A5
:1020A0000033184606491AF030FC0F2C02BF0122FB
:1020B000044B1A7006B010BD0000F43FF63F02005A
:1020C000B02A0200C427002000B5CB8889B006934F
:1020D0008B88032205934B8804930B88064903934E
:1020E000064B029300231846CDE900331AF00DFC8D
:1020F00009B05DF804FB00BFB02A020037400200BF
:102100001FB503460C4A60B9012111700B4A0C49F6
:10211000CDE90102032200901AF0F7FB05B05DF84B
:1021200004FB00231370074A1846CDE90132044925
:1021300003220093F0E700BFC5270020794002008A
:10214000B02A02008640020030B58BB01CF0C8FEF9
:102150000378044607AD032B21D8DFE803F0021A09
:102160001C1E12492846FEF7B5FFA3790595627833
:102170001E210492A2780E480392E27802922279FC
:102180000192627900920B4A18F0CCFF08480BB01C
:1021900030BD0949E6E70949E4E70949E2E70A21D0
:1021A0002846084A18F0BEFFDFE700BF944002004F
:1021B000A6270020B64002009B400200A240020079
:1021C000AC4002003378020010B586B00C46FFF731
:1021D000BBFF074BCDE903040293002303221846FB
:1021E000CDE9003303491AF090FB06B010BD00BFE3
:1021F000D9400200B02A020010B586B00C46FFF7A5
:10220000A3FF074BCDE903040293002303221846E2
:10221000CDE9003303491AF078FB06B010BD00BFCA
:10222000FC400200B02A02001FB5FFF78DFF074BEC
:1022300003900293002303221846CDE9003304499A
:102240001AF063FB05B05DF804FB00BF1E410200FD
:10225000B02A020010B586B00C46FFF775FF074B99
:10226000CDE903040293002303221846CDE900338D
:1022700003491AF04AFB06B010BD00BF344102000A
:10228000B02A020030B5144687B00D46FFF75CFF58
:102290006CB90E4BCDE90305CDE90143032223467A
:1022A00020460B4900941AF030FB07B030BD094BB3
:1022B00003900293002303221846CDE90454CDE98C
:1022C000003303491AF021FBEFE700BF4941020048
:1022D000B02A0200674102007FB50B78042B96BF3D
:1022E0000C4A0D4B52F823304A78042A96BF09490C
:1022F000094A51F822200949CDE90332084B03224B
:10230000029300231846CDE900331AF0FEFA07B015
:102310005DF804FB583002008B410200B02A020035
:102320009341020030B505460C4687B061B1474B7A
:1023300003910293002301221846CDE9003344495A
:102340001AF0E3FA07B030BD424B0322CDE9011386
:1023500020460B4600913E491AF0D7FA284608F06D
:1023600085F83D4D3D4B3E491C7028601CF00EFE2B
:102370000346002857D03B4B0390CDE9014301228F
:1023800023462046324900941AF0BFFA00214FF448
:10239000804017F099FC344B344928680B600BF0EF
:1023A000A3FF0346002847D0314B0390029300233C
:1023B00002221846CDE9003325491AF0A6FA002179
:1023C0004FF4804017F080FC2A4B286805A905933C
:1023D0001CF088FD50B1284B03900293002301228A
:1023E0001846CDE900331A491AF08FFA00214FF44C
:1023F000804017F069FC214B286805A905931CF063
:1024000081FD50B11E4B0390029300230122184618
:10241000CDE900330E491AF078FA1A4807B0BDE842
:10242000304016F0D5B8184A0949CDE901020090AC
:1024300003221AF06AFAA9E7144A0549CDE9010214
:10244000009003221AF061FAB9E700BFB941020017
:10245000B02A0200D4410200F8160020C427002050
:102460001C070020DE410200151F0000F0160020AE
:1024700032420200FB00904264420200000002026D
:102480008D4202000C1700200B4202004F42020056
:10249000F0B5154684460F46374C384B8DB094E85E
:1024A00007001D6004AE07AD0C3486E807000FCCB2
:1024B0000FC52368614632482B6015F0C3FF3946CB
:1024C000304815F0BFFF304808F090FB2F4808F067
:1024D00055FD044660B12E4B02930023012218469D
:1024E000CDE900332B491AF010FA20460DB0F0BDAB
:1024F000294808F05DFD044608B1284BECE706F0DA
:10250000CFF8044658B1264B039002930023CDE93F
:102510000033012218461F491AF0F7F9E5E7214B6D
:1025200003221C490293019003460090054607468A
:102530001AF0EBF91BF03EFA304602F0EDFE0446CD
:1025400030B1194B0390CDE9015300952B46E0E7DC
:1025500001250222154B1649009507A807F06CF9D2
:1025600004460028C1D0134B2A46CDE901730390DD
:102570003B460097CEE700BF802C0200F4160020F7
:102580000C170020FC160020080300203C0300204C
:10259000AB420200B02A02002C030020D742020006
:1025A00008430200344302004A4302006C30020038
:1025B000743002007843020070B50D46064686B0BE
:1025C00000B171B92A4B0122029300232949184610
:1025D000CDE900331AF099F96FF01505284606B0D9
:1025E00070BD254B1B78002B3FD0244B1B78002B54
:1025F00031D0234B1B788B420DD2CDE90313214BF5
:102600000222029300231B491846CDE900331AF039
:102610007CF90025E2E700241B4B022220460391AF
:10262000029314492346CDE900441AF06EF92A4674
:102630003146204602F07CFE05460028E9D0134BC7
:102640000390CDE901430122234620460949009425
:102650001AF05BF9C2E70E4ACDE9013218460222B0
:10266000044900931AF051F9D3E70A4AF4E700BF8E
:10267000A0430200B02A0200C5270020C427002082
:10268000C6270020C0430200F143020004440200B8
:10269000374402005C44020010B5094C0A449142E0
:1026A00000D110BD11F8013B58400309E35C000163
:1026B000C0B243401809205C1B01DBB25840EEE772
:1026C000A64402002DE9F04F91B0009302F00403FC
:1026D0000293C2F3C2030133840705460E46DDF8B8
:1026E00068800392059340F0F681041D30B10729FC
:1026F00009D86FF01B0011B0BDE8F08F01F007069C
:10270000341DC6F108064FF000094FF0040B009B82
:102710004F46013B01934FF0FF324B46DA46CDF86E
:1027200010900DB1009921600598002800F3D78022
:1027300098480099814203D397488142C0F0CF80E6
:102740000399A4EB050E89074FEA9E0040F1E28051
:102750004FF0000CCCE07A285AD84B280CD84728E8
:1027600056D829282AD8252851D051D8202877D0C2
:1027700023384342434173E04C382E2848D8DFE8E1
:1027800000F06F474747474747474747474749474D
:1027900047474747474747594749495959596F4953
:1027A0006C476F471849184747807D494747494755
:1027B0007D00002000234FF0040B39E001212A386E
:1027C000C0B201FA00F010EA0E0F49D110F0625CBD
:1027D00030D110EA010343D06046013C5C44B4FBB5
:1027E000FBF40BFB04F4002D60D0AAEB050CA44411
:1027F0006645FFF47EAF00286AD1BAF1040F45D1D7
:1028000058F8040B20604FF0040A043428E0013A21
:10281000002325E0019B13F8013C6C2B33D10020F1
:10282000019B13F8023C6C2B0346C4D14FF0080BFC
:10283000DA46D2E708F1070828F00708073424F041
:102840000704F8E802AB35B106982044B0423FF6E1
:1028500050AFC4E900AB002308344FF0080BDA4650
:10286000019911F8010F0191002800F0BC80002BA4
:102870007FF471AF2528F3D1012301324FF0040B0F
:10288000EDE7184696E700200346A6E7BAF1080FE1
:1028900040F09B8008F1070828F00708F8E80201DB
:1028A000C4E900014FF0080A0834D9E780B9BAF149
:1028B000040F02D108F10408A5E7BAF1080F40F0AF
:1028C000848008F1070828F0070808F10808E9E7FC
:1028D00005990139059158F8041B009121E70399E6
:1028E00088074AD54FF0010CA4EB050E4FEA9E0075
:1028F000BEF5007F1ED3294940F27B23284A294890
:102900001AF00EFB28481AF00BFB40F27B212448FA
:102910001AF0FFFA0F2F0FD8002D49D007F1400110
:102920000DEB010C0CF8200C0CF8102C0498013065
:10293000049021E00F2F0CD918494FF42073184A46
:1029400018481AF0EDFA19481AF0EAFA4FF4207113
:10295000DDE7CDB107F140010DEB010EC0B20EF87D
:10296000200C0EF8102CBCF1000FDFD060F07F00BF
:102970000EF8200C09F101090137C5F108014FF6E5
:10298000DA7E043406916BE7BCF1000F10D00136FB
:10299000F2E700BF7426020078A902000589020050
:1029A000B6440200243E0200E44402000545020051
:1029B000029802360028DFD10098CDE90632FEF7F2
:1029C00091FBDDE906320644D6E740F2C523434ACF
:1029D000434944481AF0A4FA514643481AF0A0FA71
:1029E00040F2C52193E7631BB3F5806F0CD33C49DC
:1029F00040F2D123394A3B481AF092FA3B481AF088
:102A00008FFA40F2D12182E71DB9A6F10804E0183F
:102A100071E6029A9B0828602B709DF81030C2B1B5
:102A2000EB7085F80290B9F1000F05D0002208A8DC
:102A3000C5F1010C97420ED14FF0000AC5F1010318
:102A40000DF1200801930DF1300B574512D1601B99
:102A500051E66B70E5E710F8013B190608D504EB69
:102A60000C0E764503F07F03FFF443AE04F8013B00
:102A70000132DFE7B9F1000F03D098F90020002AF6
:102A800017DB029BD3B11AF80B2004F8012B0022AC
:102A9000019B981820448642FFF42BAE98F8000062
:102AA000009904F8010B204603921FF0E2FC039A00
:102AB00014440AF1010A08F10108C6E798F8002059
:102AC00055F822300093029B009845F82230FEF71B
:102AD00009FB421CDCE76FF00D000CE6B644020077
:102AE00005890200243E02001F4502003445020011
:102AF000014B1860704700BF5403002080B50546A5
:102B00000E461746984617F013F903461FF0A8FD26
:102B10000446DFF81890424649F8003039463046FE
:102B2000A84754F8090003F039FC00BF0800000072
:102B3000F8B50F4600293BD006680122304619F04F
:102B4000E6FF01460446304619F0A9FFC3070DD43D
:102B5000AF23184A184919481AF0E2F939461848BB
:102B60001AF0DEF9AF2113481AF0D3F921463046A6
:102B700019F0ABFF251829460022304619F08FFFC7
:102B80002D1AAC420BD0B7230A4A0E490B481AF053
:102B9000C7F939460C481AF0C3F9B721E3E72146D3
:102BA000304619F098FF2146BDE8F8401AF0D4B835
:102BB000F8BD00BF5C4502007D450200243E0200D6
:102BC0008E450200C6450200EC4502002DE9F8439F
:102BD0000F4606681446B2684B1EB2F5004F34BF6C
:102BE000042108213B4010D0C7F1000909EA070978
:102BF000494503F1FF3028BF494618420CD11F4612
:102C0000DCB900252846BDE8F8838F4213D8214659
:102C1000BDE8F8431AF0E2B82E494FF4A2732E4AE9
:102C20002E481AF07DF92E481AF07AF94FF4A27165
:102C300029481AF06EF99946E2E7B2EBD40FE0D9D1
:102C4000E319591A104619F06CFF0146304619F085
:102C5000C2FF80460028D4D0B36809EBC005B3F5A5
:102C6000004F34BF042308231D4435447B1E1D44FC
:102C7000B5FBF7F57D43A5EB09052946304619F06C
:102C800046FF2C44073424F00704A41B8045074664
:102C90004FEAE40408D202464146304619F0D5FF17
:102CA000414630461AF016F83946304619F00DFF05
:102CB0003844844208D239463046224619F0C5FFCE
:102CC000214630461AF006F801223946304619F0FE
:102CD00002FF97E7284602005C450200243E0200FE
:102CE00043460200B2F5802F2DE9F04110D2042AAC
:102CF00028D843494FF4F973424A43481AF010F96F
:102D000042481AF00DF94FF4F9713E481AF001F9F2
:102D10000823D21ACC1D114424F0070421F0070126
:102D2000091B17294FEAD1060ED8394940F2FB1387
:102D3000344A35481AF0F4F834481AF0F1F840F201
:102D4000FB11E2E70423E4E7002704603146304644
:102D5000A660E76019F0EEFE0121421D8046304674
:102D600019F0DFFE9200D51DED082844B0423AD894
:102D7000B8F1FF3F3946A2F1100204F11000B8BFCC
:102D80003A461FF09DFB2A463946204619F0BBFE05
:102D90003B463A463946204619F08CFEA6EB05081C
:102DA00020463946012219F096FE4246294619F07E
:102DB000AAFE2B463A462946204619F07BFE3146AC
:102DC000204619F0A0FE43463A463146204619F007
:102DD00071FE31462046012219F07DFE2946BDE8EC
:102DE000F04119F077BF0B494FF40373054A0648C9
:102DF0001AF096F805481AF093F84FF4037184E737
:102E0000604602005C450200243E0200814602004A
:102E10009A460200C34602002DE9F84F0446A38BF0
:102E200008461907154612D4022803F0070164D199
:102E300020461AF005F888B10138042800F23481E0
:102E4000DFE810F05B0032018100D10001010128B0
:102E50000CBF43F0100143F02001A183143420463D
:102E600014F0ACFD002840F09B819849F023984A6B
:102E700098481AF055F82146B0E003F00702501FB9
:102E800001281ED80020062A2768C4E9000014D1B2
:102E90003A4603E0E08B0130E0831268002AF9D162
:102EA00023F0070343F002022046A28319F0C8FF73
:102EB00090B342F02002A2832EE023F007039AB2DF
:102EC000F2E7042A33D123F007039AB22046A28303
:102ED00019F0B6FF10B142F02002A283A38B03F0D9
:102EE0000709894540F0EA80A18BCA0640F14F816D
:102EF00021F01003A38301F00701D4F81880A38BFD
:102F0000B8F1000FB9DA0022276823F00703C4E9FB
:102F1000002243F00103A383A38B03F00709894533
:102F200040F0CD80002FDFD00026B24644E06A4951
:102F300040F21B13694A674819F0F2FF40F21B1177
:102F4000664819F0E6FF49B165494FF4AB73634A2F
:102F5000604819F0E5FF4FF4AB71F1E723684BB916
:102F6000604940F257135D4A5A4819F0D9FF40F2C0
:102F70005711E5E723691E684EB95B494FF4AD73FD
:102F8000564A544819F0CCFF4FF4AD71D8E70F46BC
:102F900088464FF00609A38B23F0070343F006038E
:102FA0009BB2A383A268002A40F08B80002F40F0E0
:102FB0008B80002E98D0BA4643F0080304F1140B1E
:102FC0005846A38314F0FAFC002840F097803F494C
:102FD000F0233F4A3F4819F0A3FF5946434819F0F0
:102FE0009FFFF021AEE0022909D0414940F25D1374
:102FF0003A4A384819F094FF40F25D11A0E7E78B98
:103000004FB13C494FF4AF73344A324819F088FF4E
:103010004FF4AF7194E723695E684EB9324940F2CC
:1030200061132E4A2B4819F07BFF40F2611187E7AC
:10303000A38BB84623F0070343F004039BB24FF081
:103040000409A383AEE7012909D02B494FF4B273D9
:10305000224A204819F064FF4FF4B27170E72368E8
:103060004BB9204940F265131C4A1A4819F058FF21
:1030700040F2651164E723699E684EB91A494FF41E
:10308000B473164A134819F04BFF4FF4B47157E765
:103090000027A38BB84623F0070343F005039BB238
:1030A0004FF00509A3837DE70B4940F26B130B4AF0
:1030B000084819F035FF40F26B1141E70027002660
:1030C00070E74FF0010A77E7924675E7BE470200C6
:1030D00091470200243E020005890200EE460200EC
:1030E000104702001C4702003F470200D54702007C
:1030F000564702006C4702007B47020085F31188A7
:10310000BFF36F8FBAF1000F1ED1002F2FD116B170
:1031100020462649B0474FF02003EFF3118583F393
:103120001288BFF36F8F584614F03AFC38BB7223F5
:103130001F4A2049204819F0F3FE59461F4819F04C
:10314000EFFE72211A48FCE6A1680029DDD00D6867
:103150000029DAD043464A462046D1F804A0D04799
:103160001DB12B6829461D46F2E72B46FAE7394682
:1031700043464A4620463F6819F08EFEC5E758464A
:1031800014F02AFCA38B23F00803A383ACE68B0680
:103190007FF564AE21F02003A38301F0070147E629
:1031A00085F31188BFF36F8FBDE8F88FC131000040
:1031B00091470200EA470200243E0200FF47020056
:1031C000F8B504460D4600F114064FF02003EFF366
:1031D000118783F31288BFF36F8F304614F0E0FB42
:1031E00068B972230B4A0C490C4819F099FE314614
:1031F0000B4819F095FE7221064819F08AFE3046F8
:1032000014F0EAFBA5613A462046BDE8F8400121EA
:10321000FFF702BE91470200EA470200243E020087
:10322000FF4702002DE9F04704460F4619F024FE3F
:10323000051E67DB04F114094FF02003EFF3118A38
:1032400083F31288BFF36F8F484614F0A9FB8046C2
:1032500060B97223374A3849384819F061FE494647
:10326000374819F05DFE7221324840E0484614F0BC
:10327000B3FB4FF6FF72E38BA68B934206F0070673
:1032800043D0022E13D135460133E383484614F070
:1032900095FB00283FD1F023264A2A49274819F0F8
:1032A0003FFE4946284819F03BFEF021DCE7062E98
:1032B00013D8DFE806F0092D1212090409006FF097
:1032C00085054FF00008E1E700233B60636883B9A0
:1032D000C4E9007786B13546F3E71C4917484FF437
:1032E000E4731B4A19F01CFE4FF4E471184819F0FE
:1032F00010FE1F606760EDE7524602212046FFF78F
:103300008BFD35462846BDE8F0876FF00A05D8E703
:103310006FF00405D5E78AF31188BFF36F8FB8F11A
:10332000000FEFD0002332463946204619F0B4FD95
:10333000E8E700BF91470200EA470200243E02008E
:10334000FF470200BE470200D54702007B4702004C
:10335000EE46020008B54268034602F00302022A64
:1033600081600AD0032A4FF0000103D0012A0AD15C
:10337000596006E01868596008BD186800225A6054
:1033800058B90020F8E7064906484523064A19F0CF
:10339000C7FD4521044819F0BCFD17F049FCF0E7D2
:1033A00005890200243E02001548020008B54309C1
:1033B0000DD0012B1CD01349134840F22F33134A70
:1033C00019F0AEFD40F22F31104819F0A2FD4FF078
:1033D000FF33C340DA07EED50D4B03EB8003D3F880
:1033E000002222F0E04242EA0171C3F8001208BD57
:1033F0004FF6FF7300F01F00C340DB07DBD5054B22
:10340000EBE700BF6B480200243E02003848020090
:10341000002584500028845038B50124134B144DE6
:10342000C3F8004502230321C5F8D0360020FFF77A
:10343000BDFF20460321FFF7B9FFC5F80447214629
:10344000C5F804492120C5F8004BFFF7AFFF21461E
:103450002020FFF7ABFF21460B20FFF7A7FF2146F7
:103460000A20FFF7A3FF002038BD00BF0010005066
:103470000040005007B50DF107001DF0EBFD114BAA
:1034800098421CD14FF480620F4B1049C3F8B82505
:103490004FF40062C3F83C259DF8070010F0A6FE2B
:1034A0000B499DF8070010F089FE01209DF80730B8
:1034B000984010F077FE002003B05DF804FB6FF039
:1034C0000B00F9E70000AD0B00A002502CA0025049
:1034D00028A10250052370B5144D154E2C780134E7
:1034E000B4FBF3F303EB8303E41A1DF08BFD114AE5
:1034F000137823B156F82430C01A072814D94FF096
:103500005023D3F8141141B10021C3F81411D3F89A
:1035100014312C700CB9012313702C781DF072FD3E
:1035200046F82400012070BD0020FCE7C8270020D9
:103530001C170020C727002048B1054B054A1B680F
:10354000B3FBF2F35843044B43F0010318477047B1
:10355000FC05002040420F00702D02007FB50BAB30
:1035600005930393054B0122029300231846CDE9EE
:10357000003301F05DF907B05DF804FB92480200EA
:103580000F2AF8B50446154608461F460BD90F49C1
:103590000F4840F2E7130F4A19F0C2FC40F2E7115E
:1035A0000C4819F0B6FC0FF01DFE0B4EAD000146A5
:1035B0002E4420462FB144F0004410F017FE346032
:1035C000F8BD10F041FE3760FAE700BFEC4802009A
:1035D000243E0200BA48020080A1025070B586B0B5
:1035E00005A811F04DF8264B984245D10FF0D6FFB3
:1035F000041E0FDA9DF8140011F048F8214B012247
:103600000293002320491846CDE900330394FFF7C5
:10361000A5FF2EE040F607031C4D8DF81540AE685F
:10362000ADF816307468059B14B96FF05704E5E7E0
:1036300008212846164AA047041EDFDB3369002B09
:10364000F3D00122082128469847041ED6DB012525
:103650009DF8140005FA00F010F0A4FD2B469DF82B
:1036600017209DF815109DF81400FFF789FF002C16
:10367000C4D1204606B070BD6FF01204BEE700BF93
:103680000000AD0B92480200F02B02008C270200D4
:103690002137000070B5049EC6F30744F5B2C6F3A7
:1036A000072630460FF084FD0F2C01460BD9154933
:1036B000154840F2E113154A19F032FC40F2E111CD
:1036C000124819F026FC284610F0A8FD002201201F
:1036D0000F4BA400E4B21A51A84010F069FD304627
:1036E0000FF07AFF284610F0D1FF0A4B984208D01D
:1036F000094905487523094A19F012FC7521074844
:10370000DFE770BDEC480200243E0200BA48020028
:1037100080A002500000AD0B2E490200F7480200C5
:103720002DE9F743144683681B694BB922492348A6
:10373000CB23234A19F0F4FBCB21214819F0E9FBF4
:103740000022984706460028F0D1C4F307284046D7
:103750000FF062FD5FFA84F941463346220E0746B8
:103760004846FFF70DFF40460FF022FDC4F3074522
:103770000F2D01460AD91349104840F2E113124AAD
:1037800019F0CEFB40F2E1110F48D7E70F4BAD0027
:1037900049F00042EDB25A51484610F00FFD0C4B73
:1037A00007F13202009340463346019452000FF075
:1037B00003FE03B0BDE8F08342490200243E02004C
:1037C000F7480200EC480200BA48020080A002500C
:1037D0009536000010F0C8BB2DE9F7430F460646AA
:1037E0000821C06A19F046FC80463C68DFF8489022
:1037F000241A3C6004EA0905AC4203D8002003B057
:10380000BDE8F08308236A462146304619F096FB4E
:103810000028F4D16946304619F036FC40B1BDF8B5
:103820000230BDF8042005EA090513441D443C603C
:10383000A4EB0804E0E700BF0000FFFF2DE9F0471C
:1038400004468EB000F1140738461EF098FAA06ABC
:103850008368DB6898470346E06230B9904A00907D
:10386000CDE9010201228F490FE0A06A8368DB687D
:1038700098470368013B1F2B0FD98B4B0293002302
:1038800001221846CDE90033864919F0E4FB6FF0B8
:10389000150528460EB0BDE8F087A06A21680BAA7E
:1038A0001DF015FA08B1814BE8E7A5892DB10C9BF5
:1038B000B5FBF3F203FB12550DB17D4BDEE7E38957
:1038C000012B05D87B4B0095CDE901532B46C9E769
:1038D000E36A069593F804904FF0FF334FF0FF3200
:1038E000384614F0A5F80821E06A19F0C3FBA84691
:1038F0000646E3891FFA85FA534508D8E38943450C
:1039000023D1384614F064F96FF02C05C1E7A18982
:103910002B04891B13FA81F14A460823204606919D
:1039200019F05AFB78B1204606A919F015FB08F1E9
:10393000010808234A46204606991FFA88F819F01C
:103940004BFB0028DAD00135D3E753450BD106995C
:1039500008234A462046891B19F03EFB18B9204629
:1039600006A919F0F9FA204606A9FFF735FF054622
:1039700018B1384614F02CF98BE7069B4FEA134830
:103980004FEA08486360C4F80880D4E901139942FB
:103990000FD30823204607AA19F0D0FA05460028BD
:1039A000E7D107AB13F8012B914543D10135082D21
:1039B000F8D1636820461B0C1B0406A9069319F076
:1039C000CBFA4A462046A389069919F005FB051E45
:1039D000CFDB636800F082804FF6FF7906EB0308C7
:1039E000A3891FFA88F29B1B9A42CDF818803DD319
:1039F000314B0322029300232A491846CDE90033B4
:103A000019F029FB2046616819F00BFB05460028D8
:103A1000AFD16368294AA18913400B44A3EB460345
:103A2000636013402046A36019F012FC0546002D88
:103A300070D09EE7204607A919F026FB626810B9EE
:103A4000921B6260A1E7BDF82050BDF81E10E06A2D
:103A5000C4F80880294419F00DFB40449042A0604E
:103A6000EED1002DECD06FF01C0590E0082341460C
:103A7000204609AA19F062FA054600287FF479AFBA
:103A8000204609A919F000FB38B1BDF824304B4598
:103A900003D1BDF82830002B7FD0B044A0E700BF91
:103AA00068490200602B02008A490200A74902000F
:103AB000BF490200D3490200304A02000000FFFF64
:103AC0004A4620465B1A19F087FA051EFFF651AFE9
:103AD00008D0E26AA36812681344A360D4E90131F4
:103AE0008B42EDD86168A38901EB46029A429ED1D0
:103AF000DFF8D480A26801EA08039A4297D02046F2
:103B000019F08FFA054600287FF433AF636803EAA3
:103B10000803A360A389A288A3EB46039A4232D08C
:103B2000384614F055F8012300252374A38928464C
:103B30000493E38903220393244BCDE900550293B8
:103B400023492B4619F087FA636828469AB21B0C62
:103B50000393204B0492CDE9015303222B461C49C9
:103B6000009519F078FAA36828469AB21B0C0393C3
:103B7000194B0492CDE9015303222B4614490095B9
:103B800019F069FA85E6204619F04BFB05463846E0
:103B900014F01EF8002DC6D07BE6104B03222846F9
:103BA000CDE901530A492B46009519F054FA636890
:103BB00020461B0C1B0406A9069319F0CDF92046DC
:103BC000069919F02EFA31E70000FFFFF6490200CE
:103BD000602B02000D4A02001F4A0200574A0200F1
:103BE0002DE9F04F1D46037C0446894690468DB072
:103BF00073B9674A1846CDE901326649012200933C
:103C000019F029FA6FF00C0630460DB0BDE8F08FC0
:103C1000C26A0821104619F02DFA8246294610463C
:103C200019F028FAA3890746A3EB8A03AB42C0F038
:103C3000AB801DB1B8F1000F00F0A6806368079358
:103C4000204608AA07A9DDF81CB019F055FA064667
:103C50000028D9D1BDF820304B4505D06268079BBC
:103C60009A42EDD1E5B9CFE7204608A919F00CFA40
:103C70000028F3D0BDF82200BDF8243075B1AB4266
:103C80000ED14FEA1B41090401442B46424620460F
:103C900019F06FF9002803DC0646B5E7002BB3D016
:103CA000002F3ED104F1140305934FF0FF324FF083
:103CB000FF3304F1140013F0BBFEDFF8DCB0E3893E
:103CC0009E425ED0D4E90123F9188A422CD3ADF884
:103CD0002A30FF230AA88DF82E30ADF82890ADF8D1
:103CE0002C5019F070F92B464246A168204619F075
:103CF0004DFA29468246E06A19F0BCF9A2680244EE
:103D0000A260BAF1000F07D120460AA919F078FA8B
:103D1000002814BF8246AA46059813F059FF56465C
:103D200072E75744BFB2BDE70821E06A19F0A2F973
:103D30004FF6FF730021ADF828308DF82E30A3899F
:103D4000ADF82C10111802EA0B021A44101A606028
:103D50000AA8ADF82A1019F036F90AA9204619F078
:103D60004FFA2046211D19F0F7F86368204603EA50
:103D70000B03A36019F06CFA82460028CCD10136FF
:103D80009DE76FF01B0AC7E76FF015063CE700BF21
:103D900054490200602B02000000FFFF2DE9F047AC
:103DA0001E46037C88B004460F469046BDF84090FE
:103DB0006BB92F4A1846CDE901322E4901220093F2
:103DC00019F049F96FF00C0008B0BDE8F087082140
:103DD000C06A19F04FF9A389A3EB4003B34243D360
:103DE0000025D4F804A0CDF814A04D455146DDF8C7
:103DF00014A009D9636853451ED1BDF81830BB42E1
:103E00001AD06FF00100DFE7204606AA05A919F0D5
:103E100073F90028D8D1BDF81830BB4206D120462E
:103E200006A919F031F908B10135ADB26268059BF8
:103E30009A42DAD15146E0E7BDF81C30002BE0D0C1
:103E4000A945DED8BDF81A00090CB3424FEA01417A
:103E500028BF334601444246204619F06FF8002837
:103E6000B2D1BDF81C00AFE76FF01500ACE700BFA2
:103E700054490200602B02001FB5034660B9114A85
:103E80000090CDE901021049012219F0B9FA6FF052
:103E9000150005B05DF804FB83685BB90B4A184652
:103EA000CDE9013208490122009319F0A9FA6FF017
:103EB0000400EEE71B681BB105B05DF804EB184782
:103EC0001846E6E7734A0200882B0200844A020083
:103ED00030B585B008B101B16AB9134B0122029324
:103EE000002312491846CDE9003319F089FA6FF022
:103EF000150005B030BD84680CB1E56865B90C4BA0
:103F000001220293002309491846CDE9003319F034
:103F100077FA6FF00400ECE741F8040BE36805B0B2
:103F2000BDE83040184700BFA24A0200882B0200BB
:103F3000844A020030B51346044685B060B9194B77
:103F40000090CDE9010301220346174919F058FA00
:103F50006FF0150005B030BD006858B9134B0090E4
:103F6000CDE90103012203460F4919F049FA6FF028
:103F70000100EFE782680AB1956865B90C4B012230
:103F80000293002308491846CDE9003319F038FAA6
:103F90006FF00400DEE70A46AC46616805B0BDE894
:103FA00030406047CE4A0200882B0200DF4A020000
:103FB000844A02000020014B18607047000007206F
:103FC00030B50C460E4985B00291D0F8AC110546CB
:103FD000CDE9003100F1E0014FF0FF33204612F04F
:103FE00013FC50B9012384F86430D5F8A83123B10B
:103FF000204605B0BDE83040184705B030BD00BFD1
:1040000011D5010038B50C461146054619F082FA63
:10401000034638B92846044919F07CFA03460020C3
:10402000236038BD0120FBE72F7C02002DE9F04F13
:10403000012381460569466885B005F55977D7E8BB
:10404000EF2F002A03D1C7E8E13F0029F7D10CBFC9
:104050001A46002240F0B180B368B16A05F5E478F1
:104060001C1F104619F0DBFA84425FD8013A00F0B9
:104070009E80B2FA82F24FF00044D440726820462B
:10408000073222F00302C5F86022B16A19F0C7FABC
:10409000C5F86402B36A40466343033323F0030365
:1040A00002EB4302230103EB4403093323F0030330
:1040B00003EBC403C5F858221A440832C5F8542249
:1040C0007368C5F85C42C5F850323D4BC5E9A96339
:1040D000316800F0BDF9044630BBD9F804A0D9F826
:1040E0001090DAE9073409F5307B012B584608BFF8
:1040F000103C14F073FA0023DAF8240031494FF42D
:10410000806201EB802100935846234614F080FA28
:1041100009F52C702C4914F095F9DAF8140083682D
:104120005C682CB96FF05704002139E0013298E740
:104130004B46264ADAF81810A04704460028F3D167
:10414000DAF8140083681B69002BEBD00122DAF83F
:104150001810984704460028E6D11D4B2846C5F89C
:10416000A8311C4BC5F8AC311B4B0393D5F810326A
:104170000293D5F80832CDE90083D5F86832B26AE7
:10418000D5F8601300F02CF904460028CCD105F1D5
:10419000E00012F0DDFC0028C5F868030ADB02210C
:1041A000384619F0ECF9204605B0BDE8F08F6FF005
:1041B0000B04B9E76FF01504B6E76FF07704F2E788
:1041C00067D50100D82C00204DD5010041D5010054
:1041D000DD410000F5D60100AFD5010013B504465E
:1041E00040B100230122CDE90032074BD0E909128A
:1041F00012F0BEFAA36E1B6823B1E06E02B0BDE8F8
:104200001040184702B010BD2F7C020013B50446C1
:104210000846216901F55971D1E8AF1F022910D173
:1042200093B1A0B10121CDE900311346D0E90912C3
:1042300012F09EFA074B984208BF6FF00B0002B0D5
:1042400010BD6FF00F00FAE76FF04C00F7E76FF06A
:104250000100F4E72EF8FFFF2DE9F74388461546E5
:10426000066906F55973D3E8AF3F022B5FD1136897
:1042700023B96FF0150003B0BDE8F0831B78002B65
:10428000F7D0D6F86093B9F1000F33D106F5D8779F
:104290004FF0FF324FF0FF33384613F0C9FB304682
:1042A0002A6801A9FFF7AEFE019C1CB9384619F037
:1042B00064F9DEE705F10803A3666B6984F864908E
:1042C000E366E46360B1384619F057F92146304699
:1042D000236E2A68FFF774FE0020C8F80040CAE782
:1042E0002022296804F140001DF08CFF384619F0A7
:1042F00044F9F1E730460F4919F00CF9044600285B
:10430000B7D005F1080383666B69C063C3660023F9
:1043100080F864302022296840301DF073FF224667
:104320000121304600F03EF80028D5D0A1E76FF01B
:104330000F00A0E72F7C02002DE9F04F05460E4646
:1043400090460027D0F8B0A085B0AAF5AE742146FB
:104350003046FCF7B5FEE0B9114BA4F1400B0293D7
:10436000DAF810303246CDE9008329464FF0FF33AA
:104370005846AAF5CE7912F047FA60B970230122A7
:1043800003FB079383F86420DAF80C300BB158462E
:104390009847703417B105B0BDE8F08F0127D6E714
:1043A00057D701001FB5144690B18AB1012912D127
:1043B0000A4B00F1E0010293D0F8AC314032019396
:1043C0004FF0FF332046009312F01EFA04B010BDE8
:1043D0006FF01500FAE70020F8E700BF57D701009B
:1043E0002DE9F04387B00E46DDE90E811446DDE984
:1043F00010251F4630B329B3DFF850C000F1E009A3
:10440000002D08BF65469EB9CDE9034400F5CE7482
:10441000204605961DF0DAFB03ABCDE900432A46A2
:104420003B464146484612F0B9FB07B0BDE8F08371
:10443000002241460E9248462A4607B0BDE8F043A6
:1044400012F0D6BC6FF01500EFE700BF3943000053
:10445000F0B50E46044689B000286FD0012302460D
:10446000C3630023D0F89810364F403040F80C7CDE
:1044700042F8301FCDE901334FF0FF330093C36D95
:104480001CF00FFF304A06AB92E8030083E80300FC
:10449000184612F07FF80546D8B904F1340012F03E
:1044A0005BF80546A8B93946284805AA1CF0DBFE8A
:1044B000054670B9059B9A6872B10C33D4F8940024
:1044C000C4F8A03019F078F9C4F8D40030B96FF00E
:1044D0000B05284609B0F0BD0346EFE7D4F8940079
:1044E00019F06AF9C4F8D8000028F0D0D4F88C305C
:1044F000D4F8A010C4F8A8300423C4F8AC30C4F831
:10450000C4300223A362124BB4F89420D4F8D470C0
:10451000C4F8B810C4F8D010D4F89010236204F195
:10452000A403A4F8B020C4F8A470C4F8C010A4F880
:10453000C820C4F8BC00A661E362CAE76FF01505A5
:10454000C7E700BF094B0200A02C0200134B02007A
:10455000B03002002DE9F84FDFF8FCA03F4F814654
:10456000AAEB07039F2B88460BD93D4940F219134C
:104570003C4A3D4818F0D4FC40F21911394818F073
:10458000C8FC3A4819F05AF90646002834D13C468E
:1045900005464FF0010B544527D935494FF4937325
:1045A000304A314818F0BCFC324818F0B9FC4FF4DE
:1045B0009371E3E7237B73B12368DB680BB120467B
:1045C000984723681B6943B9636804222046196829
:1045D00000F008F901361034DDE72046984700283E
:1045E000F2D00BFA06F31D43F4E7E3D3B9F1000F61
:1045F00002D04FF0010A0DB9BDE8F88FA94695FA2F
:10460000A5F4B4FA84F40AFA04F3260107EB0414BF
:104610006FEA030B25EA0305237B5BB1BB591B69DA
:10462000A3B93E44736804222046196809EA0B09BD
:1046300000F0D8F8002DE2D1B8F1000F04D04FF40B
:10464000A470002115F040FB4D46D4E72046984762
:104650000028EFD1E5E700BF082C0200F82B02008C
:10466000484B02001B4B0200243E0200381700207A
:104670006C4B02008D4B0200014B53F82000704739
:10468000DC30020008B5034608462BB1044A13602B
:1046900000F0FEFA002008BD6FF01500FBE700BF38
:1046A000840300200023054A4FF400411370044A9C
:1046B00004481360044A1360FFF7E4BFC9270020D1
:1046C0003017002039D801003417002070B5134D81
:1046D000297809BB0120FFF73DFF114C114EB44270
:1046E00017D911494FF4C473104A114818F018FC37
:1046F000104818F015FC4FF4C4710C4818F009FC70
:1047000063685B791BB1236820469B689847103427
:10471000E5E7F5D301232B7070BD00BFC92700204A
:10472000F82B0200082C02006C4B02001B4B02000D
:10473000243E02008D4B020010B50446064819F0D5
:104740007DF83CB1054BD3E8EF1F0139C3E8E21F08
:10475000002AF8D110BD00BF301700203417002008
:1047600070B5124B05461B689847114C114EA86056
:10477000B44218D9104940F2C513104A104818F035
:10478000CFFB104818F0CCFB40F2C5110B4818F0D5
:10479000C0FB63685B7923B12368294620461B6808
:1047A00098471034E4E7F4D370BD00BF84030020C1
:1047B000F82B0200082C02006C4B02001B4B02007D
:1047C000243E02008D4B0200044A054B9B1AB1EBBC
:1047D000D30F34BF52F8310000207047802A020006
:1047E000F82B02000E4B10B5C31A1B110133DBB2BC
:1047F00048B90C490C48DF230C4A18F091FBDF2123
:104800000A4818F086FB4468237143689A710122B4
:104810004368196043685A71BDE8104019F02CB81C
:10482000F82B0200304C0200243E0200F84B02003C
:104830002DE9F04F85B002AF0446D7E90EA90E4628
:10484000934698463D6BBAF1000F15D0C7F8049017
:10485000CDF800901021534600207A6BFDF732FF0F
:10486000011E0ADA1E4978231E4A1F4818F058FB19
:1048700078211C4818F04DFB51461C4A04F00704EF
:104880000BF0070BE40044EA8B1402EA41221443C4
:1048900044EA055417350D4425F00705ADEB050D29
:1048A00002ADBAF1000F11D0CDF8009053467A6BEB
:1048B00005F11000FDF706FF002807DA08499223EA
:1048C000084A094818F02CFB9221D2E743462246B9
:1048D0003146284618F0D3FF0C37BD46BDE8F08FAF
:1048E0007C4C0200504C0200243E020000FE0F00EF
:1048F0000EB403B503AB53F8042B014604480193EF
:1049000001F082FF02B05DF804EB03B0704700BF16
:10491000B1D80100CA0605D48B064CBF0249034931
:10492000FFF7E6BF704700BF2E7C0200A43D0200E7
:104930002DE9F04F89B09B46DDE914939DF84C704A
:104940000593169B04460D46179E06920493002F6E
:1049500000F09480042F0BD9994940F2BF13994A73
:10496000994818F0DDFA40F2BF11964818F0D1FAD4
:1049700006F00803079318F080FF06F0020A0246CB
:1049800000284AD020469149FFF7B2FF8046BAF18D
:10499000000F08D016F0440F41D12A4620468C491A
:1049A000FFF7A6FF804406F0010353B1894B204670
:1049B00053F82720884B8949002A08BF1A46FFF779
:1049C00097FF06F00803002B55D0854B204653F87F
:1049D00027208449FFF78CFF0546069B2BB11A461A
:1049E00020468149FFF784FF0544BBF1000F05D045
:1049F0005A4620467D49FFF77BFF05444544B9F1FF
:104A0000000F4CD1049B002B61D1F30700F1D28041
:104A100031462046FFF77EFFC6E08046B7E7744B7D
:104A200018680028BED0734B4FF47A7E1B684FF491
:104A30006162B5FBF3F5B5FBF0F300FB13550EFB1C
:104A400005F5B3FBF2FAB5FBF0FC3C2102FB1A3290
:104A500000FB1C55B2FBF1F30EFB05F5B5FBF0F5C1
:104A600001FB132220460092CDE901C5524662495E
:104A7000FFF73EFF96E706F00805AEE7BBF1010F32
:104A800008D1B9F1000F1CD1049B002B00F08C80E1
:104A900000251CE0B9F1000FF6D0584812E0584844
:104AA0004B462246574917F03FFF00280CDA56497B
:104AB00040F21923434A444818F032FA40F21921CF
:104AC00053E74F483D46EBE7049B002B69D0DFF8E6
:104AD0003C91DFF83CA1DDF810803146B8F1100FB1
:104AE000204628BF4FF010084FF0000BFFF712FFD1
:104AF0005D4542DC059B514620461A78FFF7F8FEDB
:104B00004FF0010B1BF0070F03D149462046FFF77A
:104B1000EFFED84538D9059B5146204613F80B20A7
:104B2000FFF7E6FE0BF1010BBBF1100FEAD14FF0DE
:104B3000000B20463749FFF7DBFE5A46059B20460F
:104B40009A5CA2F120015F2928BF2E223249FFF78B
:104B5000CFFE0BF1010BBBF1100F1AD01BF0070FAA
:104B600003D149462046FFF7C3FED8455A46E5D84B
:104B700049462046FFF7BCFEEBE749462046FFF7D3
:104B8000B7FE0BF1010BB3E720462449FFF7B0FE57
:104B9000C8E7059B43440593049BB3EB08030493C8
:104BA00099D1002F7FF431AF204609B0BDE8F04F16
:104BB00018F0A7BE2046084A0849FFF799FE27E7E4
:104BC000BA4C02008B4C0200243E0200C64C02008C
:104BD000CA4C0200EC300200864C0200473C020046
:104BE00000310200EF4C0200F54C0200F94C0200CB
:104BF000401700203C170020D34C0200CDD8010004
:104C0000B1D8010009680000FE4C0200879B020039
:104C1000074D02000D4D02000F4D0200859B020062
:104C20002DE9F0410F884B6805460C4690468E688A
:104C300086B0C7F382175BB1144A9B1A43F3CF01C6
:104C4000002920DB2078C0F3C200FFF7BDFD03463A
:104C5000214651F8102B6088C2F34A22002A01EB4A
:104C6000020408BF00210022C0F30B10CDE90408A4
:104C7000CDE902142846314601970092FFF758FE0D
:104C800006B0BDE8F0810023E2E700BF802A020001
:104C900000210123064A904206D8064A01B90123A1
:104CA0001360054B18607047012140085B00F2E774
:104CB00040420F003C170020401700200122014B0A
:104CC0001A707047CA270020014B002019607047F6
:104CD000581700200122024B02481A7018F011BE2A
:104CE000CB2700203031020010B5064B0C46186867
:104CF000FFF7C2FC2146BDE8104003460F220248E0
:104D0000184700BF5817002030310200F8B5074699
:104D10000E460424174D32463946002012F0AEF8F4
:104D2000C8B101232B70144B1B782BB93046F8BD4A
:104D30005CB92C704FF0FF34002012F00FF90028FE
:104D4000F4D02B78002BF3D1F0E7013C41F288300E
:104D50001CF0A7FFF0E72B7813B1013C04D12C70B5
:104D60002B78002BD7D1E1E741F288301CF099FF76
:104D7000F6E700BFCA270020CB27002070B5114BF3
:104D80000D461C68DCB1104B196800238B4202DB16
:104D90006FF0010070BD224612F8106B864202D0FF
:104DA00014460133F2E7E06810B96FF01200F1E742
:104DB0001CF07BFF0028F8D000202C60EAE76FF0A1
:104DC0000C00E7E7C4030020B831020070B588B0DA
:104DD00005460C46C0B269461646FFF7CFFF0028CD
:104DE0001BDB0098C8B14368226802938368019571
:104DF000CDE903360023CDE906230593C56818F0F5
:104E0000B6FD6DB12846084901AA1BF064FF07985A
:104E100008B9059B236008B070BD6FF01500FAE774
:104E20006FF01200F7E700BF71D901002DE9F041E2
:104E30000F4B05461C680E461746ACB14FF0FF32CB
:104E40004FF0FF330B4812F0F3FD63683246D3F89E
:104E5000088029463B462046C0470446054812F0D4
:104E6000B7FE2046BDE8F0816FF00104F9E700BF0E
:104E70005C1700200809002000230360044B5A68D7
:104E800012B9C3E90000704710605860704700BF56
:104E900060170020014B1860704700BF5C170020AE
:104EA000002330B585B00546CDE9023301904FF0BF
:104EB000FF334FF0FF320B4812F0BAFD0A4B1C686B
:104EC0004CB9284600F0FEF80446064812F080FE71
:104ED000204605B030BD636820461B6801A998478D
:104EE0002468EDE708090020601700201FB5CDE910
:104EF000010103924FF0FF334FF0FF32094812F0E7
:104F000097FD094B1C682CB9064812F061FE20463B
:104F100004B010BD636820461B6801A99847246847
:104F2000F1E700BF08090020601700200022024BB3
:104F3000C3E90022704700BF601700207FB50BABAC
:104F400005930393054B0122029300231846CDE9F4
:104F50000033FFF76DFC07B05DF804FB5D4D020008
:104F60000022024BC3E90022FFF7E0BF68170020D0
:104F70002DE9F74307460C4609B100230B600026D4
:104F8000254DDFF898904D4524D925499423254A8D
:104F9000254817F0C5FF254817F0C2FF9421214886
:104FA00017F0B7FFD5F800803846414601AA18F03F
:104FB00008FD50B116B954B92E4606E0002240460D
:104FC000316818F0FEFC0028F5D11435DBE7019BB1
:104FD0002360F1E7E6D3164B1D68C5B155F8148C74
:104FE0003846414601AA143D18F0EBFC50B116B901
:104FF00054B92E4606E000224046316818F0E1FC24
:105000000028F5D16D69E8E7019B2360F1E73046A0
:1050100003B0BDE8F08300BF082C0200802C020022
:10502000B44D0200824D0200243E02008D4B02006E
:10503000681700202DE9F04188B0DDF8388004467B
:105040000D4616461F460790B8F1000F07D0D8F856
:105050000010F1B9D8F804E0BEF1000F22D12046CB
:1050600007A9FFF785FFC8B1D0F808803B46324654
:1050700029460798C04788B1104BCDE903400293F9
:10508000002301221846CDE900330D49FFF756FFF2
:1050900004E007AA18F095FC0028DBD1002008B036
:1050A000BDE8F081D8F8083032460E9329463B46D9
:1050B000F446079808B0BDE8F04160475D4D020036
:1050C000E02B0200F8B5064600251E4C1E4FBC42E0
:1050D0001FD91E49F4231E4A1E4817F021FF1E48FF
:1050E00017F01EFFF4211A4817F013FF2EB9E368DA
:1050F0005BB9284605461434E9E7002231462068AA
:1051000018F05FFC0028F2D1F3E79847002DF0D1AA
:10511000F0E7EBD3114B1C6894B1143C1EB9E36863
:105120004BB96469F8E700223146206818F049FC61
:105130000028F4D1F5E79847002D08BF0546F0E7B1
:105140002846F8BD082C0200802C0200B44D020055
:10515000824D0200243E02008D4B020068170020A1
:1051600038B50C4D4FF0FF334FF0FF320A4812F0C4
:105170005FFC2B783BB9FFF7F3FE00F06DF80446B7
:1051800010B901232B700024034812F021FD2046A2
:1051900038BD00BFCD270020080900202DE9F047C9
:1051A00080468946048FDFF8ACA0013498B0A4B2E1
:1051B00000F10806651EADB2B5F5004F47D04A2391
:1051C000294605AA304618F014F904F57F543F34F7
:1051D000A4B207462146012330460DF10B0218F018
:1051E00008F9002F014603DC002803DC2C46E1E728
:1051F000002816DCB8F83830AB4209D142466B1EA5
:1052000022F8383F4FF4004102233046FEF7E8FC15
:105210002946304618F0E9F82146304618F0E5F8FE
:10522000E4E707F160030DEB03070023524607F89C
:105230004C3C05A8CDF8009003AB0396ADF81040A8
:10524000FFF7F8FE0028D1D018B0BDE8F0870020A5
:10525000FAE700BF33DA01007FB501256946284629
:105260000195FFF78BFD044660BB284602AA01A901
:10527000FFF7ACFD044610B110F10C0F22D10399D9
:10528000B1F5803F23D200231846009A9468084461
:1052900084421AD30133082BF9D10E4DA982EB8237
:1052A00053682846AB60D368EB6318F05CFC044697
:1052B00040B9094E28466E60FFF7DEFD28466E6055
:1052C000FFF7E8FD204604B070BD9BB2E5E76FF044
:1052D0002004F7E77017002088030020034B9B6829
:1052E0001BB1481E18BF012018477047B017002097
:1052F00010B51C46034B11461B680BB1224698475C
:10530000204610BDB0170020024B5B6803B1184760
:10531000704700BFB017002030B1044B02681A601C
:1053200042685A6082689A6000207047B017002077
:1053300070B50E461546044686B000211822684610
:105340001DF0BEF80B490C4BCDE90116ADF80C5021
:1053500004932CB96946204608F08AFE06B070BD59
:105360000122204608F052FB0028F3D16FF015000F
:10537000F4E700BF68310200095300000449431EEE
:105380000F3013F8012F8A5C83421A70F9D17047ED
:10539000E34D0200F0B50746264E8DB001AD0C4638
:1053A0000FCE0FC50FCE0FC596E8070085E80700A2
:1053B0003846002F39D0002C39D0381F02462146FC
:1053C00010344B780D781B0443EA0563CD78043123
:1053D0002B4311F8025C8C4243EA052342F8043F58
:1053E000EFD10421144C8A07036916D1C3F3074295
:1053F000A55C1A0EA25C42EA0562C3F30725655D4F
:10540000DBB2E35C42EA054242EA032221F00303F5
:1054100030336B4453F82C3C534050F8042F013187
:1054200053402C290361DED101200DB0F0BD204690
:10543000FBE700BFA82C0200E34D02002DE9F04F6E
:10544000002703689DB002934368DFF8BCA1039373
:105450008368DDE902460493C36805930369DDE9C7
:1054600004BE0693436907938369DDE9062C08931C
:10547000C36998460993089B0093CD590CAB2DBA8C
:105480005AF8049BDD514FEAF223A94483EAB21390
:10549000009D83EA72634B4425EA020502EA0C0987
:1054A00085EA09052B44434486EA0B054FEA743824
:1054B00088EAB408254006EA0B0985EA090588EA66
:1054C000B4580437A844402F03EB0E054344DE468E
:1054D000DDF8008040F088804FF0100A4B490A91B7
:1054E00051460AF1010A0DF1700E0AF00F070EEB9A
:1054F000870757F8407C01F00F094FEAB74801973A
:1055000088EAF71801F10E0707F00F070EEB87077F
:1055100057F8407C09314FEAF74E8EEA774ECDF8C6
:105520002CE001F00F010DF1700E0EEB81010EEB7E
:10553000890959F840EC51F8401CBAF1400F714408
:10554000DDF804E088EADE08DDF82CE041448EEA6C
:10555000972E714405EA02084FEAF52E2CEA05075A
:1055600087EA08078EEAB51EDDF828808EEA756E98
:10557000774458F804EF49F8401C77440F440099E9
:105580004FEA733E394484EA0607CDF828808EEA54
:10559000B30E07EA030704EA06088EEAB35E87EA59
:1055A000080777440F4401EB0B0ECDF800C0B3465B
:1055B00022D102993944016003991944049B416046
:1055C00023448360059B3344C360069B734403619B
:1055D000079B2B444361089B13448361099B6344ED
:1055E000C3611DB0BDE8F08FB346CDF800C02646BC
:1055F00094461C462A4640E7944626462A461C46C0
:1056000075463B466CE700BFEC31020028320200D1
:1056100010B50446C8B17022002118F0D2FA0B4B25
:105620000B4A0C49C4E900230B4B0C48C4E9021394
:105630000B4BC4E9040301200A4BA36103F174532B
:10564000A3F52303A3F69243E36110BD85AE67BBC8
:1056500067E6096A72F36E3C3AF54FA57F520E5128
:105660008C68059BABD9831F014815F019BC00BF9E
:10567000EC32020038B5044618B90F4B0F485B688E
:1056800098476168B1F5683F10D0B1F5680F0DD04B
:105690000B4DA9420AD011F46861206807D0014679
:1056A000084811F0CDFF00232360656038BD142247
:1056B0001CF006FFF9E700BFBC060020E34E020025
:1056C0002C5F5CA9BC1C002008B560B34368B3F52F
:1056D000683F0ED0B3F5680F18D0144A934220D01B
:1056E00000684FF0FF324FF0FF3312F0A1F958B1CC
:1056F00015E001220368D3E8EF1F002903D1C3E8B6
:10570000E02F0028F7D10AD1002008BD0368084A1D
:105710001B7803F5807352F82330002BF4D0054832
:10572000F3E70548F1E76FF4E040EEE72C5F5CA992
:1057300000000350E98FFFFFEA8FFFFF08B520B399
:105740004368B3F5683F09D0B3F5680F13D0114A29
:1057500093421DD0006812F03BFA14E00022036867
:10576000D3E8EF1F012903D1C3E8E02F0028F7D1C8
:1057700009D0094808BD00210368084A1B7803F5D1
:10578000807342F823100020F4E76FF4E040F1E763
:105790000348EFE72C5F5CA9E98FFFFF000003508F
:1057A000EA8FFFFF10B5044618B91D4B1D485B6812
:1057B00098476368B3F5683F2FD0B3F5680F2CD0D6
:1057C000194A934219D1236803BB4FF0FF324FF0BF
:1057D000FF332146154811F0C9FE08B923681BB9EB
:1057E0000F4B13485B6898471422002120681CF077
:1057F00067FE4FF46863636008E0B3F5683F0DD857
:105800003A2B03D040F6BA629342DED120681CF0F6
:10581000B6FA636843F03A03636010BD054AF3E7E4
:10582000BC060020E34E02002C5F5CA9BC1C0020DB
:10583000094F02003A00003A08B5064940231422F5
:1058400005481CF078FABDE808400449044815F002
:1058500099BB00BFBC170020BC1C0020F432020022
:1058600008330200014910220A60704710ED00E081
:1058700072B6404080F31188BFF36F8F01B5FDF71A
:1058800029FE00280AD0BFF34F8F30BF00BF00BFF2
:1058900000BF00BF00BF00BF00BF00BFBDE80140A8
:1058A00062B6BFF36F8F704772B6494081F31188BB
:1058B00001B5FDF70FFE00280AD0BFF34F8F20BFC0
:1058C00000BF00BF00BF00BF00BF00BF00BF00BFE0
:1058D000BDE8014080F3118862B6704770B5064696
:1058E0000D4686B0002938D000248B68012205932C
:1058F0004B68204604930B681B4903931B4BCDE96F
:1059000000440293234618F0A4FD6B69012205931D
:105910002B6920460493EB6813490393144B0094BE
:10592000CDE90143234618F094FDEB69012203936E
:10593000104B2046CDE901430B492346009418F053
:1059400088FDAB69012203930B4B2046CDE901434F
:1059500005492346009418F07CFD2946304606B0E0
:10596000BDE8704011F04CBBC82B0200364F02005E
:10597000654F0200944F0200A34F020040B200287E
:1059800007DB01234109034A00F01F00834042F86E
:105990002130704700E100E040B200280CDB01221A
:1059A0000649430900F01F008240203341F82320BC
:1059B000BFF34F8FBFF36F8F704700BF00E100E070
:1059C000054B420953F82220012300F01F0003FA7F
:1059D00000F01040704700BF00E100E038B54B1CFC
:1059E000072B04460D460FD95C23104A1049114875
:1059F00017F096FA294610480723224617F090FA26
:105A00005C210A4817F085FA40B20028ACBF00F1CB
:105A100060400A4A4FEA4313DBB2ABBF00F5614076
:105A200000F00F0080F80033135438BDD14F02004E
:105A300007500200243E02002250020014ED00E054
:105A400030BFFFF7FDBF00BF0B4A08B50B4B22F07C
:105A50007F029A60BFF34F8FBFF36F8FD3F8882018
:105A600022F47002C3F8882011F086FB14F0A0FA2B
:105A700000F020FC11F0CAFB0000000000ED00E087
:105A8000094A0A49936809689867D96708494B68C1
:105A900043F080534B60002383F31188BFF36F8F73
:105AA0009368D86F704700BF34230020203A02006B
:105AB00000ED00E016498A684FF030001044EFF323
:105AC000098C80E8F01F202080F31288BFF36F8FCD
:105AD000104F4FF000664A698A603E604FF07404D0
