:020000040000FA
:10000000A05000204D740000B3FC010021740000DA
:10001000217400002174000021740000217400008C
:100020000000000000000000000000009D6C0000C7
:100030002174000000000000356C000021740000F5
:10004000296D0000296D0000296D0000296D000058
:10005000296D0000296D0000296D0000296D000048
:10006000296D0000296D0000296D0000296D000038
:10007000296D0000296D0000296D0000296D000028
:10008000296D0000296D0000296D0000296D000018
:10009000296D0000296D0000296D0000296D000008
:1000A000296D0000296D0000296D0000296D0000F8
:1000B000296D0000296D0000296D0000296D0000E8
:1000C000296D0000296D0000296D0000296D0000D8
:1000D000296D0000296D0000296D0000296D0000C8
:1000E000296D0000296D0000296D0000296D0000B8
:1000F000296D0000296D0000296D0000296D0000A8
:10010000296D0000296D0000296D0000296D000097
:10011000296D0000296D0000296D0000296D000087
:10012000296D0000296D0000296D0000296D000077
:10013000296D0000296D0000296D0000296D000067
:10014000296D0000296D0000296D0000296D000057
:10015000296D0000FFFFFFFF81F0004102E000BFBA
:1001600083F0004330B54FEA41044FEA430594EA77
:10017000050F08BF90EA020F1FBF54EA000C55EAB2
:10018000020C7FEA645C7FEA655C00F0E2804FEA83
:100190005454D4EB5555B8BF6D420CDD2C4480EA65
:1001A000020281EA030382EA000083EA010180EA95
:1001B000020281EA0303362D88BF30BD11F0004FE3
:1001C0004FEA01314FF4801C4CEA113102D0404219
:1001D00061EB410113F0004F4FEA03334CEA133354
:1001E00002D0524263EB430394EA050F00F0A7806C
:1001F000A4F10104D5F1200E0DDB02FA0EFC22FA67
:1002000005F2801841F1000103FA0EF2801843FA5A
:1002100005F359410EE0A5F120050EF1200E012A4B
:1002200003FA0EFC28BF4CF0020C43FA05F3C01889
:1002300051EBE37101F0004507D54FF0000EDCF102
:10024000000C7EEB00006EEB0101B1F5801F1BD3AB
:10025000B1F5001F0CD349085FEA30004FEA3C0CAF
:1002600004F101044FEA445212F5800F80F09A80A5
:10027000BCF1004F08BF5FEA500C50F1000041EBA9
:10028000045141EA050130BD5FEA4C0C404141EBAD
:100290000101013C28BFB1F5801FE9D291F0000FA8
:1002A00004BF01460020B1FA81F308BF2033A3F157
:1002B0000B03B3F120020CDA0C3208DD02F1140C4E
:1002C000C2F10C0201FA0CF021FA02F10CE002F189
:1002D0001402D8BFC2F1200C01FA02F120FA0CFC82
:1002E000DCBF41EA0C019040E41AA2BF01EB0451CB
:1002F000294330BD6FEA04041F3C1CDA0C340EDCC9
:1003000004F11404C4F1200220FA04F001FA02F30B
:1003100040EA030021FA04F345EA030130BDC4F1C9
:100320000C04C4F1200220FA02F001FA04F340EABE
:100330000300294630BD21FA04F0294630BD94F06F
:10034000000F83F4801306BF81F480110134013D56
:100350004EE77FEA645C18BF7FEA655C29D094EAC7
:10036000050F08BF90EA020F05D054EA000C04BF45
:100370001946104630BD91EA030F1EBF0021002030
:1003800030BD5FEA545C05D14000494128BF41F0CF
:10039000004130BD14F580043CBF01F5801130BD33
:1003A00001F0004545F0FE4141F470014FF00000BE
:1003B00030BD7FEA645C1ABF194610467FEA655C6F
:1003C0001CBF0B46024650EA013406BF52EA033511
:1003D00091EA030F41F4002130BD00BF90F0000FFF
:1003E00004BF0021704730B54FF4806404F132043B
:1003F0004FF000054FF0000150E700BF90F0000FF4
:1004000004BF0021704730B54FF4806404F132041A
:1004100010F0004548BF40424FF000013EE700BFEA
:1004200042004FEAE2014FEA31014FEA02701FBF7A
:1004300012F07F4393F07F4F81F06051704732F0AC
:100440007F4208BF704793F07F4F04BF41F4002103
:10045000704730B54FF4607401F0004521F0004161
:100460001CE700BF50EA010208BF704730B54FF0EB
:1004700000050AE050EA010208BF704730B511F0EC
:10048000004502D5404261EB41014FF4806404F124
:1004900032045FEA915C3FF4D8AE4FF003025FEAAA
:1004A000DC0C18BF03325FEADC0C18BF033202EB2E
:1004B000DC02C2F1200300FA03FC20FA02F001FA88
:1004C00003FE40EA0E0021FA02F11444BDE600BF2B
:1004D00070B54FF0FF0C4CF4E06C1CEA11541DBFDA
:1004E0001CEA135594EA0C0F95EA0C0F00F0DEF8A5
:1004F0002C4481EA030621EA4C5123EA4C5350EA8A
:10050000013518BF52EA033541F4801143F48013DA
:1005100038D0A0FB02CE4FF00005E1FB02E506F06B
:100520000042E0FB03E54FF00006E1FB03569CF0C0
:10053000000F18BF4EF0010EA4F1FF04B6F5007FC6
:1005400064F5407404D25FEA4E0E6D4146EB060638
:1005500042EAC62141EA55514FEAC52040EA5E50C1
:100560004FEACE2EB4F1FD0C88BFBCF5E06F1ED86B
:10057000BEF1004F08BF5FEA500E50F1000041EBA2
:10058000045170BD06F0004646EA010140EA02004F
:1005900081EA0301B4EB5C04C2BFD4EB0C0541EA71
:1005A000045170BD41F480114FF0000E013C00F386
:1005B000AB8014F1360FDEBF002001F0004170BDAA
:1005C000C4F10004203C35DA0C341BDC04F11404C3
:1005D000C4F1200500FA05F320FA04F001FA05F24F
:1005E00040EA020001F0004221F0004110EBD3701C
:1005F00021FA04F642EB06015EEA430E08BF20EA48
:10060000D37070BDC4F10C04C4F1200500FA04F3EA
:1006100020FA05F001FA04F240EA020001F000417C
:1006200010EBD37041F100015EEA430E08BF20EAEF
:10063000D37070BDC4F1200500FA05F24EEA020E37
:1006400020FA04F301FA05F243EA020321FA04F066
:1006500001F0004121FA04F220EA020000EBD3701D
:100660005EEA430E08BF20EAD37070BD94F0000F1D
:100670000FD101F00046400041EB010111F4801F51
:1006800008BF013CF7D041EA060195F0000F18BF02
:10069000704703F00046520043EB030313F4801F3E
:1006A00008BF013DF7D043EA0603704794EA0C0FF8
:1006B0000CEA135518BF95EA0C0F0CD050EA41060E
:1006C00018BF52EA4306D1D181EA030101F000418B
:1006D0004FF0000070BD50EA410606BF10461946B3
:1006E00052EA430619D094EA0C0F02D150EA0136BF
:1006F00013D195EA0C0F05D152EA03361CBF104600
:1007000019460AD181EA030101F0004141F0FE419E
:1007100041F470014FF0000070BD41F0FE4141F422
:10072000780170BD70B54FF0FF0C4CF4E06C1CEA22
:1007300011541DBF1CEA135594EA0C0F95EA0C0FD7
:1007400000F0A7F8A4EB050481EA030E52EA033592
:100750004FEA013100F088804FEA03334FF08055B3
:1007600045EA131343EA12634FEA022245EA1115E0
:1007700045EA10654FEA00260EF000419D4208BF91
:10078000964244F1FD0404F5407402D25B084FEA3E
:100790003202B61A65EB03055B084FEA32024FF4EA
:1007A00080104FF4002CB6EB020E75EB030E22BF47
:1007B000B61A754640EA0C005B084FEA3202B6EB07
:1007C000020E75EB030E22BFB61A754640EA5C00B6
:1007D0005B084FEA3202B6EB020E75EB030E22BF46
:1007E000B61A754640EA9C005B084FEA3202B6EB47
:1007F000020E75EB030E22BFB61A754640EADC0006
:1008000055EA060E18D04FEA051545EA16754FEA67
:1008100006164FEAC30343EA52734FEAC2025FEA85
:100820001C1CC0D111F4801F0BD141EA00014FF014
:1008300000004FF0004CB6E711F4801F04BF0143E5
:100840000020B4F1FD0C88BFBCF5E06F3FF6AFAE01
:10085000B5EB030C04BFB6EB020C5FEA500C50F191
:10086000000041EB045170BD0EF0004E4EEA113114
:1008700014EB5C04C2BFD4EB0C0541EA045170BD1B
:1008800041F480114FF0000E013C90E645EA060E5F
:100890008DE60CEA135594EA0C0F08BF95EA0C0F8D
:1008A0003FF43BAF94EA0C0F0AD150EA01347FF4D5
:1008B00034AF95EA0C0F7FF425AF104619462CE7AC
:1008C00095EA0C0F06D152EA03353FF4FDAE10460F
:1008D000194622E750EA410618BF52EA43067FF460
:1008E000C5AE50EA41047FF40DAF52EA43057FF4F0
:1008F000EBAE12E74A0011D212F5001211D20DD55B
:100900006FF47873B3EB62520ED44FEAC12343F015
:10091000004343EA505323FA02F070474FF00000BF
:10092000704750EA013002D14FF0FF3070474FF06E
:100930000000704780F0004002E000BF81F00041FD
:1009400042001FBF5FEA410392EA030F7FEA226C75
:100950007FEA236C6AD04FEA1262D2EB1363C1BF05
:10096000D218414048404140B8BF5B42192B88BF74
:10097000704710F0004F40F4000020F07F4018BF97
:10098000404211F0004F41F4000121F07F4118BFB7
:10099000494292EA030F3FD0A2F1010241FA03FC5F
:1009A00010EB0C00C3F1200301FA03F100F0004347
:1009B00002D5494260EB4000B0F5000F13D3B0F10F
:1009C000807F06D340084FEA310102F10102FE2A7E
:1009D00051D2B1F1004F40EBC25008BF20F00100EE
:1009E00040EA03007047490040EB0000013A28BF8D
:1009F000B0F5000FEDD2B0FA80FCACF1080CB2EB10
:100A00000C0200FA0CF0AABF00EBC250524218438D
:100A1000BCBFD0401843704792F0000F81F4000132
:100A200006BF80F400000132013BB5E74FEA410305
:100A30007FEA226C18BF7FEA236C21D092EA030F71
:100A400004D092F0000F08BF0846704790EA010FEB
:100A50001CBF0020704712F07F4F04D1400028BF18
:100A600040F00040704712F100723CBF00F50000FA
:100A7000704700F0004343F0FE4040F40000704730
:100A80007FEA226216BF08467FEA236301464202DC
:100A900006BF5FEA412390EA010F40F480007047EF
:100AA0004FF0000304E000BF10F0004348BF404295
:100AB0005FEA000C08BF704743F0964301464FF0D1
:100AC00000001CE050EA010208BF70474FF000032D
:100AD0000AE000BF50EA010208BF704711F000436E
:100AE00002D5404261EB41015FEA010C02BF84463E
:100AF0000146002043F0B64308BFA3F18053A3F59D
:100B00000003BCFA8CF2083AA3EBC25310DB01FAE3
:100B100002FC634400FA02FCC2F12002BCF1004F67
:100B200020FA02F243EB020008BF20F001007047F8
:100B300002F1200201FA02FCC2F1200250EA4C004C
:100B400021FA02F243EB020008BF20EADC70704792
:100B50004FF0FF0C1CEAD0521EBF1CEAD15392EAA0
:100B60000C0F93EA0C0F6FD01A4480EA010C40027C
:100B700018BF5FEA41211ED04FF0006343EA5010D6
:100B800043EA5111A0FB01310CF00040B1F5000F18
:100B90003EBF490041EAD3715B0040EA010062F1C7
:100BA0007F02FD2A1DD8B3F1004F40EBC25008BFB1
:100BB00020F00100704790F0000F0CF0004C08BFCF
:100BC00049024CEA502040EA51207F3AC2BFD2F19C
:100BD000FF0340EAC250704740F400004FF00003AA
:100BE000013A5DDC12F1190FDCBF00F000407047E4
:100BF000C2F10002410021FA02F1C2F1200200FA22
:100C000002FC5FEA310040F1000053EA4C0308BFE8
:100C100020EADC70704792F0000F00F0004C02BF39
:100C2000400010F4000F013AF9D040EA0C0093F0B4
:100C3000000F01F0004C02BF490011F4000F013B0E
:100C4000F9D041EA0C018FE70CEAD15392EA0C0F7C
:100C500018BF93EA0C0F0AD030F0004C18BF31F0E7
:100C6000004CD8D180EA010000F00040704790F0BD
:100C7000000F17BF90F0004F084691F0000F91F061
:100C8000004F14D092EA0C0F01D142020FD193EA27
:100C90000C0F03D14B0218BF084608D180EA0100AF
:100CA00000F0004040F0FE4040F40000704740F08B
:100CB000FE4040F4400070474FF0FF0C1CEAD05259
:100CC0001EBF1CEAD15392EA0C0F93EA0C0F69D0B5
:100CD000A2EB030280EA010C49024FEA402037D020
:100CE0004FF0805343EA111143EA10130CF0004017
:100CF0008B4238BF5B0042F17D024FF4000C8B4207
:100D000024BF5B1A40EA0C00B3EB510F24BFA3EBE6
:100D1000510340EA5C00B3EB910F24BFA3EB9103B6
:100D200040EA9C00B3EBD10F24BFA3EBD10340EA10
:100D3000DC001B0118BF5FEA1C1CE0D1FD2A3FF656
:100D400050AF8B4240EBC25008BF20F0010070470B
:100D50000CF0004C4CEA50207F32C2BFD2F1FF03AE
:100D600040EAC250704740F400004FF00003013ADF
:100D700037E792F0000F00F0004C02BF400010F483
:100D8000000F013AF9D040EA0C0093F0000F01F097
:100D9000004C02BF490011F4000F013BF9D041EAB9
:100DA0000C0195E70CEAD15392EA0C0F08D14202EC
:100DB0007FF47DAF93EA0C0F7FF470AF084676E7BF
:100DC00093EA0C0F04D14B023FF44CAF08466EE798
:100DD00030F0004C18BF31F0004CCAD130F0004266
:100DE0007FF45CAF31F000437FF43CAF5FE700BFBE
:100DF00053B94AB9002908BF00281CBF4FF0FF3182
:100E00004FF0FF3000F00CB8ADF1080C6DE904CEE6
:100E100000F008F8DDF804E0DDE9022304B07047D3
:100E2000704700BF2DE9F04786468C460846089E6D
:100E3000154674461946002B40F0C1808542B2FA2F
:100E400082F245D94AB1C2F1200300FA02FC954072
:100E500094402EFA03F343EA0C0C4FEA154EA8B265
:100E6000230CBCFBFEF80EFB18CC08FB00F943EA90
:100E70000C43994528D9EB1808F1FF3704D299455E
:100E800002D9A8F102072B44A3EB0903A4B2B3FBD8
:100E9000FEFC0EFB1C330CFB00F044EA0344A042B2
:100EA00014D92C190CF1FF3304D2A04202D9ACF1B1
:100EB00002032C44241A43EA07401EB1D440002305
:100EC00034607360BDE8F0874746DDE76346F1E7CD
:100ED00092BB431B01214FEA154EAFB2200CB3FB6E
:100EE000FEFC0EFB1C330CFB07F840EA034398455D
:100EF00061D9EB180CF1FF3004D2984502D9ACF15E
:100F000002002B44A3EB0803A4B2B3FBFEFC0EFBD0
:100F10001C330CFB07F744EA0344A7424DD92C19B4
:100F20000CF1FF3304D2A74202D9ACF102032C44E6
:100F3000E41B43EA0040C0E7C2F12003954094401F
:100F400020FA03F12EFA03F34FEA154E9040AFB2A8
:100F50000343B1FBFEFC0EFB1C10190C0CFB07F845
:100F600041EA0041884522D969180CF1FF3004D2CA
:100F7000884502D9ACF102002944A1EB08019BB2DB
:100F8000B1FBFEFC0EFB1C110CFB07F743EA01430F
:100F90009F420ED9EB180CF1FF3104D29F4202D9C7
:100FA000ACF102012B44DB1B41EA004193E76046B0
:100FB000E3E76146F7E76046A4E76346B8E78342A4
:100FC00006D916B9002108467CE7C6E900E0F9E732
:100FD000B3FA83F78FB9834201D3724508D8BEEBC9
:100FE000020460EB030301209C461EB9002169E75F
:100FF0003846FAE7C6E9004CF8E7C7F1200CBB40D9
:101000000EFA07F522FA0CF42EFA0CF1BA401C4342
:1010100020FA0CF3B8404FEA144901431FFA84FE4A
:10102000B3FBF9F809FB18300B0C08FB0EFA43EA86
:1010300000439A4540D9E31808F1FF3004D29A459D
:1010400002D9A8F102002344A3EB0A0389B2B3FB3F
:10105000F9F809FB183308FB0EFE41EA03418E45FF
:101060002CD9611808F1FF3304D28E4502D9A8F1BA
:101070000203214443EA0040A1EB0E01A0FB0298C9
:101080004145CE46434602D306D14D4504D20138F0
:10109000B9EB020E68EB0403002EA7D0B5EB0E02ED
:1010A00061EB030101FA0CFC22FA07F3F9404CEA68
:1010B0000303C6E9003199E74046C5E74346D9E74F
:1010C00010F8012B11F8013B012A28BF9A42F7D0F2
:1010D000D01A7047034611F8012B03F8012B002AA0
:1010E000F9D17047034613F8012B002AFBD1181AD7
:1010F0000138704700000000F0B5654D8BB0D5F8A1
:101100006831996811F001011AD140F6034009AA2B
:1011100007F084FC0446002840F0B7800998C368B3
:101120001B785BB905F1D403D3E8AF2F02F00902B5
:10113000D3E8EF1FC3E8E42F002CF9D110F05EFFD5
:10114000002141F2030009AA07F068FC04460028C8
:1011500040F09B80099B4F4EDA68D2F80100D2F82C
:10116000051003C6184610F049FF214641F2010060
:1011700009AA07F053FC0446002840F0868009982D
:10118000C3685A7885F870205A88A5F872201A79B1
:1011900085F87120B3F80720A5F87420B3F805305E
:1011A000A5F8763010F02AFF214641F2020009AA84
:1011B00007F034FC0446002867D1099FFA68531CE5
:1011C0004132344618685968083303C493422646AE
:1011D000F7D1384610F012FF09F0F0FC0446002861
:1011E00053D195F88A3013F0200318D12A4A2B499D
:1011F000CDE90132009302221EF0E0FE95F87C302A
:1012000013F040034ED1264A1846CDE90132234956
:10121000012200931EF0D2FE6FF0120435E0072188
:1012200040F6334007F0ACFB0646002800F035815D
:1012300007210C3011F026F86FF009030127037025
:101240000623C0F802408471047122464770C370BF
:10125000314640F6334007F0E1FB0446A8B9394671
:1012600040F6314007F08CFB0646002800F015815F
:1012700039460C3020F09CFF2246314640F6314082
:1012800007F0CCFB04460028B8D020460BB0F0BDD8
:1012900030000020A8000020C5860200F4420200B1
:1012A000F3860200002142F2030009AA07F0B6FB10
:1012B00004460028E9D1099BA74EDA68D2F801005C
:1012C000D2F8051003C6184610F098FE214642F2E7
:1012D000020009AA07F0A2FB04460028D5D1099C08
:1012E000E368B3F8012091B249B1D97839B1A5F8D2
:1012F0000421DA78114606F1280022F07CF9204614
:1013000010F07CFE95F87C6016F0200618D10221C2
:1013100040F66D4007F034FB0446002800F0BD8025
:1013200002210C3010F0AEFF0123214603704670FD
:10133000324640F66D4007F071FB04460028A4D108
:1013400095F89C301E0712D5002142F21C0009AA14
:1013500007F064FB0446002897D10998C368D3F8C6
:101360000120D3F80530C5E9382310F047FE95F881
:10137000D8305C062AD5022142F22E0007F000FB8D
:101380000446002800F0898002210C3010F07AFF1A
:10139000B5F8B83121460380002242F22E0007F052
:1013A0003DFB044600287FF470AF014609AA42F2D3
:1013B0002A0007F033FB044600287FF466AF099843
:1013C000C3685B7885F8203110F018FE082142F2DE
:1013D000010007F0D5FA044600285ED008210C3041
:1013E00010F050FF95F8D81040F2022311F0400F92
:1013F00008BF0323024688074CBF43F02C0043F08C
:101400000C008B0695F8D93048BF40F0400013F02F
:10141000090F95F8A23018BF40F4006003F00603EE
:10142000CF0748BF40F01000062B08BF40F4C07043
:1014300000211EF0DAFD2146002242F2010007F0F1
:10144000EDFA044600287FF420AF95F87C30B5F81B
:1014500004119E0624D4C9B941F2050009AA07F077
:10146000DDFA044600287FF410AFB5F80431099C7A
:101470004BB9E368B3F80120A5F804219A883748EE
:10148000114622F0B8F8204610F0B8FD082140F6C9
:10149000014007F075FA044680B96FF06804F4E67D
:1014A0000029F3D12E4B0122CDE901032D4903463A
:1014B00000901EF083FD6FF00404E6E608210C3076
:1014C00010F0E0FE95F8D8300246D9073AD44FF034
:1014D000005125481EF089FD2146002240F60140BA
:1014E00007F09CFA044600287FF4CFAE014609AA13
:1014F0004FF6014007F092FA00283BD01B4BCDE994
:101500000143234600940222184616491EF056FD58
:1015100008F0B4FF044600287FF4B7AE0AF0BCFD23
:10152000044600287FF4B1AEEB79002B40F09E809A
:101530000F4B0322CDE901030A49034600901EF038
:101540003DFDA2E602A1D1E90001C3E7AFF30080AF
:10155000908800020080002008010020380100204F
:1015600017870200F4420200108800023A87020046
:101570000E880200099E4149F468B4F80130032B3B
:1015800096BF3F4A3F4A52F82320CDE903233E4B02
:101590000322029300231846CDE900331EF00EFD0E
:1015A000B4F80130B4F80320022B3AD1032A38D81A
:1015B000364B53F82230CDE90332354B03220293E8
:1015C00000232E491846CDE900331EF0F7FCD4F86D
:1015D000091063790791B4F80710032B0691A179DC
:1015E0004FF0000496BF2B4A264A52F82320CDE93B
:1015F0000431294B214920460392029303222346BA
:10160000CDE900441EF0DAFC304610F0F7FC21462C
:101610004FF6024009AA07F001FA064618B11F4B1F
:101620006DE7184BC7E709981D4CC368B3F8013044
:10163000A4F8C13010F0E2FC94F8C1305B077FF5EC
:1016400067AF31464FF6034009AA07F0E7F928B122
:10165000144B0096CDE90163334654E70998C368FB
:101660005B7884F8C03010F0C9FC51E708210E48BF
:101670001EF088FC07F0EEFF07E600BFF442020010
:10168000CC4B02008B8102005E870200BC4B020043
:1016900077870200AC4B02008F870200BC870200F4
:1016A00030000020E5870200040100202DE9F04110
:1016B00012F0FC6F1346D0E9014706690ED042498B
:1016C00040F2C733414A42481DF03AF841481DF004
:1016D00037F840F2C7313D481DF02BF802F03002D8
:1016E000302A0CD13C4940F2CA33384A38481DF000
:1016F00027F83A481DF024F840F2CA31EBE7384A9F
:10170000384D1A40AA420CD1374940F2CE332F4A05
:101710002F481DF015F835481DF012F840F2CE3173
:10172000D9E703F00602042A09D1314940F2D13346
:10173000264A27481DF004F840F2D131CBE713F4D4
:10174000402216D09D030CD42A494FF475731F4ACA
:101750001F481CF0F5FF28481CF0F2FF4FF475718C
:10176000B9E7B2F5402F18D0244A9A4301D183F447
:101770004023012524688D40254223F4801219D18D
:101780001F494FF47973114A11481CF0D9FF1D48C5
:101790001CF0D6FF4FF479719DE71B494FF4767327
:1017A0000A4A0B481CF0CCFF18481CF0C9FF4FF444
:1017B000767190E73468DB074CBF2C43AC43346050
:1017C0003B68BDE8F0411847CB5302009A53020032
:1017D000285402004554020069540200A254020039
:1017E0000200030002000100DF540200265502003F
:1017F00075550200A8550200EE55020001001000C8
:1018000096560200D4560200295602006A5602007B
:10181000034670B50A460068197902F4C003B3F5AF
:10182000C00F0569D0E901640ED1284940F26A333E
:10183000274A28481CF084FF27481CF081FF40F20B
:101840006A3123481CF075FF63B9244940F26E33B6
:101850001F4A20481CF074FF21481CF071FF40F221
:101860006E31EEE702F0C863B3F5800F0CD11D496D
:101870004FF45E73164A17481CF062FF1A481CF0BA
:101880005FFF4FF45E71DCE7012336688B40334223
:101890000CD1164940F282330D4A0E481CF050FF1D
:1018A00013481CF04DFF40F28231CAE7160204D5FE
:1018B0002D682B4218BF82F0C062A46902F0C06399
:1018C000A446BDE8704002F0B0726047E6560200E0
:1018D0009A5302002854020027570200535702006F
:1018E0007D570200A8570200F257020096560200E8
:1018F000D456020008B54FF400110448FFF788FFE2
:10190000BDE80840024817F0D9BB00BF18480200E4
:10191000F002002008B54FF400110448FFF778FFEB
:10192000BDE80840024817F0C9BB00BF20480200CC
:10193000E0020020F0B505464FF4F972002187B0AF
:10194000344822F0C0F955F8044C324E2046FFF7D7
:10195000C9FB042823D030462F490024FFF7BAFBE7
:101960002E4B2F49032220460293CDE90044234603
:1019700003961BF05DFB2748FFF7B4FB81B22548B7
:1019800001F092FE48B1274B0122CDE901432046E8
:101990002346234900941BF04BFB07B0F0BD23788E
:1019A000303B012B0BD86378303B012B07D8A37851
:1019B000303B012B03D8E378303B012B02D91A4985
:1019C0001448CAE70024194F55F8043CE0B21B5DE7
:1019D000302B10D120F030FFA8B1CDE90340144BDB
:1019E000029300230E4901221846CDE900331BF073
:1019F0001FFB1049E4E720F01CFF18B1CDE90340BC
:101A00000D4BEDE701200134042C07F8010BDBD16D
:101A10000A49D5E76025002037580200D658020051
:101A20007C430200E7580200505802005227002071
:101A30006B580200C05802008B580200AA580200DE
:101A40001FB54FF0B8611048FFF7E2FE4FF0B861E4
:101A50000E48FFF7DDFE002000F052FE50B10C4BA7
:101A600003900293002301221846CDE9003309496F
:101A70001BF0DEFA4FF4A4720023074805B05DF8AE
:101A800004EB17F0D3BC00BF184802002048020046
:101A90000E5902007C430200000000201FB5012007
:101AA00000F02EFE50B10D4B039002930023012253
:101AB0001846CDE900330A491BF0BAFA4FF4001179
:101AC0000848FFF7A5FE4FF400110748FFF7A0FEF6
:101AD000064805B05DF804EB17F028BD3759020041
:101AE0007C43020020480200184802000000002049
:101AF0002DE9F04F9F4B8FB01A782AB100229E48F3
:101B00000AA91A701BF0EDFC9C4817F00FFD9A48CB
:101B100009A91BF028FF0546C8B1994B0390029311
:101B2000002301221846CDE9003396491BF080FAC4
:101B300001F064F94FF0B8619348FFF769FE0022A5
:101B400000238E4817F072FC0FB0BDE8F08FBDF88F
:101B500024408E4BC4F30804CDE90103032203465D
:101B60008849009003941BF063FA4FF4F9722946F8
:101B7000874822F0A8F8002CDAD07F480CA91BF087
:101B80001AFF58B1834BCDE9034002930023012291
:101B90001846CDE900337B491BF04AFA00257E4EFA
:101BA0007E4F0DF13203DFF8F88133603B600DAA00
:101BB0009DF83030DFF8ECA1C8F800200DF13602B6
:101BC000CAF800200393784B0322029328462B4641
:101BD000CDE900556B491BF02BFA9DF83030042BF2
:101BE00000F0BD8010D8012B00F08F80022B5ED05A
:101BF00003936E4B01220293002362491846CDE9FC
:101C000000331BF015FA7EE00E2BF1D1604F384601
:101C1000FFF768FA33688346B3F900001CF0C7F990
:101C2000FEF7FEFB02460B46D8F80010CDE906236E
:101C3000B1F900001CF0BBF9FEF7F2FB8946DAF8B7
:101C400000108046B1F900001CF0B1F9FEF7E8FB86
:101C5000DDE90623BB44CDE90201CDE90089544901
:101C600058461AF001F8534B464903222846CDE95D
:101C7000015303972B4600951BF0DAF93846FFF71E
:101C800031FA81B2384601F00FFD48B14A4B0122CA
:101C9000CDE9015328462B463A4900951BF0C8F977
:101CA0004FF4F97200213A4822F00DF82BE0DFF8EA
:101CB000E0B05846FFF716FA33680546B3F900005E
:101CC00000F06EFAFEF7ACFBD8F800300646B3F928
:101CD00000000F4600F064FAFEF7A2FBDAF80030CD
:101CE0008046B3F90000894600F05AFAFEF798FBE7
:101CF00032463B46CDE90089CDE902012F495D44DA
:101D0000284619F0B1FF013C35E7DFF884B05846AA
:101D1000FFF7E8F933680546B3F9000000F04AFA26
:101D2000FEF77EFBD8F800300646B3F900000F46F8
:101D300000F040FAFEF774FBDAF800308046B3F9A1
:101D40000000894600F036FAFEF76AFB5D44CDE9F3
:101D5000020132463B46CDE900891949D0E73B688C
:101D60004FF4F9721B68294600930948154B21F07E
:101D700010FEC8E788070020D016002000000020D1
:101D80005C5902007C430200204802007C5902009A
:101D90006025002089590200A41600209816002012
:101DA000A01600209C160020405A0200385A02005B
:101DB000115A0200D6580200495A0200C2590200C4
:101DC000E3590200075A02002DE9F04188B00746A6
:101DD00001F082F80023054690B1324A0390029246
:101DE00001221846CDE900332F491BF021F94FF4A9
:101DF000A4720023384608B0BDE8F04117F090BB4C
:101E0000DFF8A88046464146A8B201F0D9F804465A
:101E100020B1274B039002930023E1E70135042D05
:101E200008F10208EFD1234D01464FF4F97228461C
:101E300021F049FF204B2146DA78284607929A780C
:101E400006925A7805921B784FF4F9720493F3883E
:101E50000393B38802937388019333880093174BDD
:101E600021F097FD164B104903222046CDE901438E
:101E70000395234600941BF0DBF82846FFF732F960
:101E800081B2284601F010FC0028B0D00D4B012291
:101E9000CDE9014320462346034900941BF0C8F8CE
:101EA000A5E700BF665A02007C430200102500200F
:101EB0008A5A02006025002052270020B05A0200F2
:101EC000D6580200EB5A020010B52A4886B017F027
:101ED0002DFB04A928481BF004FB0146B0B1274B99
:101EE000039002930023CDE90033012218462449D0
:101EF0001BF09EF84FF0B8612248FFF789FC0022E2
:101F000000231C4817F092FA06B010BD4FF4F97286
:101F10001D4821F0D8FE9DF811301B4C13F0200F06
:101F200003D020461949FFF7D5F89DF811305B061C
:101F300003D517491448FFF7CDF803940024154B37
:101F40000F49032220460293CDE9004423461BF0AB
:101F50006FF80D48FFF7C6F881B20B4801F0A4FBFB
:101F60000028C7D00C4B0390CDE9014300942346D1
:101F7000BBE700BF00000020D01600200C5B020071
:101F80007C4302001848020060250020315B0200FB
:101F90003E5B0200D65802004B5B0200054C08B5C0
:101FA00005490648712322461CF0CAFB71212046D0
:101FB0001CF0BFFB715B0200EBA202002854020080
:101FC0007FB5384D284621F073FA034660B9364A8A
:101FD000CDE901323549012200931BF029F86FF059
:101FE0001504204604B070BD04212846304AFFF78E
:101FF0005DFB041E0ADA2F4B0293002301221846D0
:10200000CDE9003329491BF013F8EAE74FF0B86136
:102010002948FFF7FDFB041E01DA284BECE72849AD
:10202000284BAE684B6010238B60F36963B9264B75
:102030000293002301221846CDE900331B491AF010
:10204000F7FF6FF00404CCE70122284698470028E8
:10205000EDDB284621F02CFA034608B91B4AB7E706
:1020600005212846124AFFF721FB041E01DA184B0E
:10207000C2E74FF0B8611748FFF7CAFB041E01DA48
:10208000154BB9E71549164B4B6020238B60F3695C
:102090000BB9144BCCE70122284698470028A0DA58
:1020A000F7E700BF603F02008D5B02007C43020047
:1020B00020000100B35B020020480200D45B020054
:1020C000B416002015190000F15B0200125C02003A
:1020D000375C020018480200575C0200A816002076
:1020E000F5180000735C02001FB512F045FC0446B1
:1020F00060B1224B039002930023CDE9003301220B
:1021000018461F491AF094FFFFF748FFFFF758FFE2
:1021100030B11C4B0390CDE9014300942346EEE718
:1021200000F0ACFB0028EFD100F08CFE0028EBD1D2
:10213000012000F0E5FA0028E6D14FF40011124822
:10214000FFF766FB4FF400111048FFF761FB104AE0
:102150001049114801F014FA03460028D4D10F4A5F
:102160000749CDE90102009003221AF061FF4FF008
:10217000FF314FF0FF3018F01DFBF8E7935C0200D1
:102180007C430200AE5C02002048020018480200B6
:10219000980200209D1A0000411A0000D35C020042
:1021A00008B5FEF781FC0249FEF7D2FC08BD00BF6E
:1021B00023DB793D08B5FEF777FC0249FEF7C8FC42
:1021C00008BD00BF00008C4270B58CB00126002510
:1021D000CDE9092307238DF817100DF1170106919A
:1021E00007968DF820508DF82C300B48022283681A
:1021F00006A99C686A23A047044650B1074B039088
:10220000CDE9015332462B462846054900951BF07F
:102210005EFF20460CB070BD08400200015D020068
:10222000844302002DE9F0476B480D468AB0002137
:1022300017461E461AF0A1FF044610B1674B0394DF
:1022400010E01E230146F6B2634807AA8DF81C3041
:102250008DF81D508DF81E601BF095FD044620B1D1
:102260005F4B03900293002324E001465A481BF081
:10227000F8FC044610B15B4B0390F3E7012156488C
:102280001BF012FD044610B1574B0390EAE70821FA
:1022900051481AF072FF044610B1544B0390E1E725
:1022A0004D4808A91BF0BAFA0023044650B1504A21
:1022B0000390029201221846CDE900334D491BF0EC
:1022C00006FF2FE00546DFF81091DFF82CA1DFF8BC
:1022D000248114201BF00AFF484605A91BF08BFA45
:1022E000044610B1454B0390BCE79DF8143013F041
:1022F00001031BD1424A0135CDE901324146032297
:102300000093EDB21BF0E3FE322D17D13D4B0122BD
:102310000293002337491846CDE900331BF0D7FE5E
:102320006FF0730420460AB0BDE8F087034603222D
:102330004146CDE9010A00901BF0C9FE9DF814301A
:10234000DA07C6D5DFF89090DFF8BCA0DFF8A480EC
:10235000484606A91BF05CFD044610B12B4B0390C8
:1023600080E79DF8183013F0010318D1284A013591
:10237000CDE90132414603220093EDB21BF0A7FEE6
:10238000322DC3D09DF81830DB07E1D5002112486B
:102390001BF08AFC044658B11E4B039062E70346CB
:1023A00003224146CDE9010A00901BF090FEE9E7C7
:1023B000014609481AF0E1FE044600287FF43EAFCA
:1023C0003246394604481BF037FC04460028A9D0A1
:1023D000114B039046E700BFD01600201B5D0200A2
:1023E000415D02005D5D0200835D0200A85D0200A8
:1023F000C95D0200844302003E5E0200EF5D020000
:102400000D5E0200265E0200885E02004F5E020042
:102410006D5E02009B5E0200C15E02002DE9F0418C
:1024200013781E228AB08DF81D105C4807A98DF81C
:102430001C208DF81E301BF05AFC044620B1584B6E
:1024400003900293002324E0014654481AF095FEBD
:10245000044610B1534B0394F3E701214F481BF09E
:1024600023FC044610B1504B0390EAE708214B4887
:102470001AF083FE044610B14C4B0390E1E7474845
:1024800008A91BF0CBF90023044650B1484A039039
:10249000029201221846CDE9003346491BF017FE8F
:1024A0002DE005463D4FDFF81081424E14201BF011
:1024B0001DFE384605A91BF09EF9044610B13F4B9E
:1024C0000390BEE79DF8143013F001031BD13C4A82
:1024D0000135CDE90132314603220093EDB21BF004
:1024E000F6FD322D17D1374B0122029300233149DB
:1024F0001846CDE900331BF0EAFD6FF07304204667
:102500000AB0BDE8F081034603223146CDE9010857
:1025100000901BF0DCFD9DF81430DA07C6D51F4F84
:10252000DFF8A480234E14201BF0E0FD384606A9F6
:102530001BF06EFC044610B1244B039081E79DF81C
:10254000183013F0010318D1214A0135CDE90132C9
:10255000314603220093EDB21BF0B9FD322DC2D0FB
:102560009DF81830DB07DED500210C481BF09CFBE2
:10257000044658B1174B039063E7034603223146E4
:10258000CDE9010800901BF0A2FDE9E701460348F0
:102590001AF0F3FD04460028B1D05BE7D016002006
:1025A000E15E02001B5D0200835D0200A85D020087
:1025B000C95D0200844302003E5E0200EF5D02003E
:1025C0000D5E0200265E0200885E02004F5E020081
:1025D0006D5E02009B5E020010B58AB08DF814108B
:1025E0000021C8B2984201F101041ED301339BB20D
:1025F0000893022305AA07928DF824300F48012280
:10260000836807A99C686A23A047044650B10C4B15
:1026100003900293002301221846CDE900330949B3
:102620001BF055FD20460AB010BD00F12801105CDA
:10263000694401F8130C2146D3E700BF08400200AB
:10264000FE5E02008443020070B588B00591014629
:10265000244816461D461BF0E2FB044668B1224B97
:1026600003900293002301221846CDE900331F494D
:102670001BF02DFD204608B070BD059919481BF0D0
:10268000F1FB044610B11A4B0390EAE731461548B6
:102690001BF036FC044610B1164B0390E1E72946C7
:1026A00010481BF040FC044610B1134B0390D8E7D0
:1026B000012D08BF9DF81D300A4804BF43F04003B8
:1026C0008DF81D309DF81D3007A943F020038DF8CB
:1026D0001D301AF089FE04460028CBD0074B03902A
:1026E000BFE700BFD0160020135F02008443020042
:1026F000365F0200595F02007F5F02009C5F0200AC
:1027000030B580F0010585B0002854D04FF00001AD
:102710004A481AF0A6FD044668B1494B039002935B
:10272000002301221846CDE9003346491BF0CFFCB7
:10273000204605B030BD014640481BF0E6F804468F
:1027400010B1414B0390EAE74FF0000160F38201C2
:102750003A481BF064FB044610B13C4B0390DEE7A3
:10276000014636481BF0A0FA044610B1384B0390DE
:10277000D5E700210A2018F01DF821462F481AF04D
:102780002AFD044610B1334B0390C8E701462B489D
:102790001AF0F3FC044610B12F4B0390BFE7294613
:1027A0002E4803F063FB041EC2DA14F1780FBFD089
:1027B0002B4B0394B3E72946284803F057FB041E2C
:1027C00002DA14F1780FF3D108211C481AF0D5FC75
:1027D000044610B1234B0390A1E7082117481AF0D3
:1027E000FAFC044610B1204B039098E701211348EE
:1027F0001BF05AFA044610B11C4B03908FE70121DD
:102800000E481BF082F8044610B1194B039086E77E
:102810004FF0040109481BF002FB044610B1154BB0
:1028200003907CE74FF0010104481AF01AFD0446BA
:1028300000283FF47DAF104B039070E7D0160020C6
:10284000C55F020084430200ED5F020013600200D6
:102850009B5E02003A6002005860020008400200DD
:10286000766002009E600200C0600200E26002002A
:10287000086102002A610200506102002DE9F04364
:10288000AD4BAE4D89B02B60AD4B6B60AD4BAB60CB
:10289000AD4820F00DFE0346A8B10A201BF026FC2F
:1028A000002128461AF045FC00281ADAA74B01221D
:1028B00002930023A6491846CDE900331BF007FC1C
:1028C0006FF0040409E0A34AA149CDE90102009098
:1028D00001221BF0FCFB6FF01204204609B0BDE89A
:1028E000F083284604A91AF041FC044650B19A4BE3
:1028F00001220293002396491846CDE900331BF0CC
:10290000E6FBEAE79DF8103003220393934BCDE9F1
:10291000000002938E49034606461BF0D8FB9DF843
:102920001030702B0CD08E4B2046CDE90143009423
:102930002346012286491BF0CAFB6FF01504CCE741
:10294000042128461AF099FB044658B1854B0390A0
:10295000CDE9016333460096012218467C491BF0FD
:10296000B6FBBAE70746DFF80092DFF8E4812846B5
:102970000DF111011AF0B4FB044630B17B4B03900A
:1029800002930023CDE90033E6E79DF81130CBB187
:10299000774B0137CDE901030322034641460090FE
:1029A000FFB21BF094FB322F13D1724B2046CDE9BE
:1029B000014300942346012265491BF088FB6FF018
:1029C00073048AE703224146CDE9013900931BF0E5
:1029D0007EFB9DF81160002EC9D1012157481AF0E5
:1029E00029FC044610B1644B0390B1E7634F644B7C
:1029F00038467B60634B0DF112013B601BF03BFBE3
:102A0000044660B1604B0122CDE901633046334694
:102A10004F4900961BF05BFB5C4B0394B0E79DF8BD
:102A20001230032203935A4B4949CDE90103009028
:102A300003461BF04CFB9DF81230402B0CD0554B3D
:102A40002046CDE9014300942346012240491BF072
:102A50003EFB6FF01504DFE7012138461BF012FB47
:102A6000044658B13F4B0390CDE9016333460096CD
:102A70000122184636491BF02AFBCDE70120002130
:102A800017F098FEDFF81091DFF8C48038460DF19A
:102A900013011BF00EFB044630B1344B039002933C
:102AA0000023CDE90033E3E79DF81330CBB13B4B76
:102AB0000136CDE901030322034641460090F6B2F8
:102AC0001BF005FB322E13D12A4B2046CDE90143E2
:102AD0000094234601221E491BF0F9FA6FF073049B
:102AE0009AE703224146CDE9013900931BF0EFFA42
:102AF0009DF81350002DC9D1012120481BF0A4FAE4
:102B0000044630B11C4B0390CDE9015300952B4690
:102B1000AEE7012119481BF080FA044610B1204BA2
:102B20000390F1E7014615481BF049FA04460028D6
:102B30003AD01C4B0390E7E7D9250000D0160020BF
:102B4000C9210000EDE00100084002008961020097
:102B50008443020077610200A1610200C4610200A7
:102B6000DB610200F36102005E6202001662020095
:102B70003B620200265E020079620200C01600205D
:102B8000252200001D24000094620200006602005D
:102B9000B4620200C8620200FD620200DD6202004F
:102BA000156302003463020003217B481BF01EFA08
:102BB000044610B1794B0390A6E7102178481AF02B
:102BC0004CFE044610B1774B03909DE701217448F9
:102BD0001AF056FE044610B1734B039094E7082197
:102BE0006F481AF064FE044610B1704B03908BE7F7
:102BF00008216B481AF072FE044610B16C4B03902A
:102C000082E7012166481AF097FE044610B1694B2D
:102C1000039044E7012162481BF09CF9044610B17F
:102C2000654B03903BE701465D481AF06EFE044693
:102C300010B1624B039032E74FF00D0158481AF083
:102C400053FF044610B15E4B039028E7012154481E
:102C50001AF0DBFF044610B15A4B03901FE7042122
:102C60004F481AF0BBFF044610B1574B039016E7CC
:102C700001214B481AF09BFF044610B1534B0390BF
:102C80000DE7042146481AF07BFF044610B1504B73
:102C9000039004E7014642481AF06FFA044610B167
:102CA0004C4B0390FBE646F61E03ADF818300623A6
:102CB000014606AA3A488DF81A301BF064F804461B
:102CC00010B1454B0390EAE60146012234481AF060
:102CD000E0FE044610B1414B0390E0E60621304887
:102CE0001BF02EF8044610B13D4B0390D7E6014689
:102CF0002B481AF0B6FF044610B13A4B0390CEE6CB
:102D0000012127481AF0D0FF044610B1364B03903A
:102D1000C5E69DF81430224843F0400305A98DF81C
:102D200014301AF0FBFA044610B1304B0390B6E6AB
:102D30000322BDF814304FF0000023F4F85323F0C1
:102D40001F03ADF814309DF8163062F304038DF8BC
:102D500016304FF07F0201230599FFF775FC0446FA
:102D600010B1234B03900BE601460D481AF0BFFA51
:102D7000044610B11F4B039002E6042108481AF0E4
:102D80009FFA044610B11C4B0390F9E506A90448CC
:102D90001AF0A7FBA1E500BFC01600205C6302008B
:102DA000D01600207D630200A1630200CD63020003
:102DB000F0630200136402003D6402005C640200E0
:102DC0007B640200A5640200C8640200F46402008F
:102DD00017650200436502006A6502008B65020008
:102DE000AF6502005D5D0200E2600200D165020095
:102DF0002A66020056660200796602001FB50021AD
:102E00000D481AF082FD044658B10C4B0122029382
:102E100000230B491846CDE9003303941BF057F902
:102E200006E0012104481AF070FD04460028ECD1A8
:102E3000204604B010BD00BFD01600205C64020024
:102E40008443020070B500261E4D86B055F8060C6E
:102E500020F02EFB034690B9142272431A496FF0FA
:102E600012048A581949126800900392184ACDE951
:102E7000010201221BF04AF9204606B070BD15F888
:102E8000013CA3B155F8060C836829461B68984796
:102E9000041E0FDA0F4B012202930023CDE90364D5
:102EA0001846CDE9003309491BF030F9E4E76FF02B
:102EB0008504EFE70136042E05F11405C6D1002480
:102EC000DAE700BF2E48020028480200AC420200A8
:102ED000A7660200CA6602002DE9F04F8DB01422E9
:102EE000002107A820F0EFFE0DF11A030993022339
:102EF00000240A932B4B0322029320462346CDE95C
:102F0000004429491BF002F9284DDFF8A480DFF8BE
:102F1000A4A0254FDFF8A09095F804B02E68CDF856
:102F200010B033680322CDE902A3002339461846C6
:102F3000CDE900331BF0EAF86B794BB1012303FABA
:102F40000BF308932B7C8DF82C306B7C8DF82D3097
:102F5000B36830465B6807A99847061E0EDA174B20
:102F600001220293002310491846CDE9003303964D
:102F70001BF0CCF830460DB0BDE8F08FBDF81A302C
:102F8000032228F8023BCDE9029300233946184674
:102F9000CDE9003301341BF0B9F8042C05F1140518
:102FA000BAD1E7E7EB660200AC4202002848020013
:102FB00018250020F76602001E6702000A6702005B
:102FC00030B503280D464FF0000485B006D80A4BF3
:102FD00033F8103020462B8005B030BD074B20461B
:102FE000CDE9014301222346054900941BF08EF8E8
:102FF00023466FF01500EEE7182500202567020034
:10300000AC4202001FB50C46F1B9134B0322CDE9C7
:10301000011320460B46009110491BF086F8104B17
:1030200018681EF0C8FB0F4B0338C0B218700E4B67
:103030000390CDE901432346009402221846074934
:103040001BF073F804B010BD084B039102930023EA
:10305000CDE90033F1E700BF49670200B442020046
:10306000E8160020762700205D67020074670200E2
:1030700030B500240C4B85B00C4D204603910293D3
:1030800003222346CDE9004409491BF04EF8286885
:1030900028B108F073FA07482C6016F00FF80022E8
:1030A000054B1A7005B030BD93670200E81600208A
:1030B000B4420200EC160020742700202DE9FF41E5
:1030C0000F469046224B1D682E687EB9214B022286
:1030D0000393214B3046CDE9016320493B46CDF8AF
:1030E00000801BF022F804B0BDE8F0813046FDF707
:1030F000F9FF4045024629D83946304620F073FC96
:10310000044618BB164B0322CDE9010313490346BD
:10311000009003961BF009F82868FDF7E3FF3918C3
:103120006868FDF7D7FF6B68204603930D4B0322B9
:10313000CDE901430949234600941AF0F6FF05F151
:10314000080004B0BDE8F04115F0B8BF1835BBE782
:10315000E4160020CE670200E4580200B4420200E8
:10316000AC670200BD67020010B5084686B0CDE925
:1031700004230C46FDF742F900220B4BFDF7A8F99A
:10318000FDF7B8FB094B0322029300230390CDE91E
:103190000033184606491AF0C8FF0F2C02BF01225F
:1031A000044B1A7006B010BD0000F43FE367020044
:1031B000B44202007427002000B5CB8889B0069382
:1031C0008B88032205934B8804930B88064903934D
:1031D000064B029300231846CDE900331AF0A5FFF1
:1031E00009B05DF804FB00BFB4420200246802008D
:1031F0001FB503460C4A60B9012111700B4A0C49F6
:10320000CDE90102032200901AF08FFF05B05DF8AE
:1032100004FB00231370074A1846CDE90132044924
:1032200003220093F0E700BF7527002066680200C4
:10323000B44202007368020030B58BB01DF053FA3F
:103240000378044607AD032B21D8DFE803F0021A08
:103250001C1E12492846FDF73DFFA37905956278AB
:103260001E210492A2780E480392E27802922279FB
:103270000192627900920B4A18F0CAFC08480BB020
:1032800030BD0949E6E70949E4E70949E2E70A21CF
:103290002846084A18F0BCFCDFE700BF816802003E
:1032A00056270020A3680200886802008F68020089
:1032B0009968020028A0020010B586B00C46FFF7FE
:1032C000BBFF074BCDE903040293002303221846FA
:1032D000CDE9003303491AF028FF06B010BD00BF46
:1032E000C6680200B442020010B586B00C46FFF773
:1032F000A3FF074BCDE903040293002303221846E2
:10330000CDE9003303491AF010FF06B010BD00BF2D
:10331000E9680200B44202001FB5FFF78DFF074BBA
:1033200003900293002303221846CDE90033044999
:103330001AF0FBFE05B05DF804FB00BF0B6902004C
:10334000B442020010B586B00C46FFF775FF074B7C
:10335000CDE903040293002303221846CDE900338C
:1033600003491AF0E2FE06B010BD00BF2169020059
:10337000B442020030B5144687B00D46FFF75CFF3B
:103380006CB90E4BCDE90305CDE901430322234679
:1033900020460B4900941AF0C8FE07B030BD094B17
:1033A00003900293002303221846CDE90454CDE98B
:1033B000003303491AF0B9FEEFE700BF3669020097
:1033C000B4420200546902007FB50B78042B96BF0B
:1033D0000C4A0D4B52F823304A78042A96BF09490B
:1033E000094A51F822200949CDE90332084B03224A
:1033F000029300231846CDE900331AF096FE07B079
:103400005DF804FB7848020078690200B4420200CB
:103410008069020030B505460C4687B061B1474B64
:1034200003910293002301221846CDE90033444959
:103430001AF07BFE07B030BD424B0322CDE90113E9
:1034400020460B4600913E491AF06FFE284608F0D0
:103450006DF83D4D3D4B3E491C7028601DF099F9BB
:103460000346002857D03B4B0390CDE9014301228E
:1034700023462046324900941AF057FE00214FF4AB
:10348000804017F097F9344B344928680B600BF0F3
:103490008BFF0346002847D0314B03900293002353
:1034A00002221846CDE9003325491AF03EFE0021DC
:1034B0004FF4804017F07EF92A4B286805A9059340
:1034C0001DF013F950B1284B039002930023012201
:1034D0001846CDE900331A491AF027FE00214FF4AF
:1034E000804017F067F9214B286805A905931DF066
:1034F0000CF950B11E4B0390029300230122184691
:10350000CDE900330E491AF010FE1A4807B0BDE8A5
:10351000304015F0D3BD184A0949CDE901020090A9
:1035200003221AF002FEA9E7144A0549CDE9010277
:10353000009003221AF0F9FDB9E700BFA669020066
:10354000B4420200C1690200E8160020742700207E
:1035500014070020CB69020005300000E0160020AF
:103560001F6A0200FB009042516A02000000020242
:103570007A6A0200FC160020F86902003C6A020028
:10358000F0B5154684460F46374C384B8DB094E85D
:1035900007001D6004AE07AD0C3486E807000FCCB1
:1035A0000FC52368614632482B6015F0C1FC3946CF
:1035B000304815F0BDFC304808F078FB2F4808F083
:1035C0003DFD044660B12E4B0293002301221846B4
:1035D000CDE900332B491AF0A8FD20460DB0F0BD0F
:1035E000294808F045FD044608B1284BECE706F0F1
:1035F000B7F8044658B1264B039002930023CDE957
:103600000033012218461F491AF08FFDE5E7214BD0
:1036100003221C4902930190034600900546074689
:103620001AF083FD1BF0DEFD304602F035FF044644
:1036300030B1194B0390CDE9015300952B46E0E7DB
:1036400001250222154B1649009507A807F054F9E9
:1036500004460028C1D0134B2A46CDE901730390DC
:103660003B460097CEE700BF90440200E4160020DE
:10367000FC160020EC16002000030020340300207C
:10368000986A0200B442020024030020C46A0200C7
:10369000F56A0200216B0200376B02008C480200C1
:1036A00094480200656B020070B50D46064686B070
:1036B00000B171B92A4B012202930023294918460F
:1036C000CDE900331AF031FD6FF01505284606B03C
:1036D00070BD254B1B78002B3FD0244B1B78002B53
:1036E00031D0234B1B788B420DD2CDE90313214BF4
:1036F0000222029300231B491846CDE900331AF039
:1037000014FD0025E2E700241B4B02222046039112
:10371000029314492346CDE900441AF006FD2A46D7
:103720003146204602F0C4FE05460028E9D0134B7E
:103730000390CDE901430122234620460949009424
:103740001AF0F3FCC2E70E4ACDE901321846022214
:10375000044900931AF0E9FCD3E70A4AF4E700BFF2
:103760008D6B0200B44202007527002074270020F0
:1037700076270020AD6B0200DE6B0200F16B0200C9
:10378000246C0200496C020010B5094C0A449142B5
:1037900000D110BD11F8013B58400309E35C000162
:1037A000C0B243401809205C1B01DBB25840EEE771
:1037B000936C02002DE9F04F91B0009302F00403E6
:1037C0000293C2F3C2030133840705460E46DDF8B7
:1037D00068800392059340F0F681041D30B10729FB
:1037E00009D86FF01B0011B0BDE8F08F01F007069B
:1037F000341DC6F108064FF000094FF0040B009B82
:103800004F46013B01934FF0FF324B46DA46CDF86D
:1038100010900DB1009921600598002800F3D78021
:1038200098480099814203D397488142C0F0CF80E5
:103830000399A4EB050E89074FEA9E0040F1E28050
:103840004FF0000CCCE07A285AD84B280CD84728E7
:1038500056D829282AD8252851D051D8202877D0C1
:1038600023384342434173E04C382E2848D8DFE8E0
:1038700000F06F474747474747474747474749474C
:1038800047474747474747594749495959596F4952
:103890006C476F471849184747807D494747494754
:1038A0007D00002000234FF0040B39E001212A386D
:1038B000C0B201FA00F010EA0E0F49D110F0625CBC
:1038C00030D110EA010343D06046013C5C44B4FBB4
:1038D000FBF40BFB04F4002D60D0AAEB050CA44410
:1038E0006645FFF47EAF00286AD1BAF1040F45D1D6
:1038F00058F8040B20604FF0040A043428E0013A21
:10390000002325E0019B13F8013C6C2B33D10020F0
:10391000019B13F8023C6C2B0346C4D14FF0080BFB
:10392000DA46D2E708F1070828F00708073424F040
:103930000704F8E802AB35B106982044B0423FF6E0
:1039400050AFC4E900AB002308344FF0080BDA464F
:10395000019911F8010F0191002800F0BC80002BA3
:103960007FF471AF2528F3D1012301324FF0040B0E
:10397000EDE7184696E700200346A6E7BAF1080FE0
:1039800040F09B8008F1070828F00708F8E80201DA
:10399000C4E900014FF0080A0834D9E780B9BAF148
:1039A000040F02D108F10408A5E7BAF1080F40F0AE
:1039B000848008F1070828F0070808F10808E9E7FB
:1039C00005990139059158F8041B009121E70399E5
:1039D00088074AD54FF0010CA4EB050E4FEA9E0074
:1039E000BEF5007F1ED3294940F27B23284A29488F
:1039F0001AF0A6FE28481AF0A3FE40F27B212448C4
:103A00001AF097FE0F2F0FD8002D49D007F1400173
:103A10000DEB010C0CF8200C0CF8102C0498013064
:103A2000049021E00F2F0CD918494FF42073184A45
:103A300018481AF085FE19481AF082FE4FF42071DA
:103A4000DDE7CDB107F140010DEB010EC0B20EF87C
:103A5000200C0EF8102CBCF1000FDFD060F07F00BE
:103A60000EF8200C09F101090137C5F108014FF6E4
:103A7000DA7E043406916BE7BCF1000F10D00136FA
:103A8000F2E700BF783E020048CB0200EC5502008E
:103A9000A36C020028540200D16C0200F26C0200F8
:103AA000029802360028DFD10098CDE90632FDF7F2
:103AB00019FBDDE906320644D6E740F2C523434A46
:103AC000434944481AF03CFE514643481AF038FE38
:103AD00040F2C52193E7631BB3F5806F0CD33C49DB
:103AE00040F2D123394A3B481AF02AFE3B481AF0EB
:103AF00027FE40F2D12182E71DB9A6F10804E018A3
:103B000071E6029A9B0828602B709DF81030C2B1B4
:103B1000EB7085F80290B9F1000F05D0002208A8DB
:103B2000C5F1010C97420ED14FF0000AC5F1010317
:103B30000DF1200801930DF1300B574512D1601B98
:103B400051E66B70E5E710F8013B190608D504EB68
:103B50000C0E764503F07F03FFF443AE04F8013BFF
:103B60000132DFE7B9F1000F03D098F90020002AF5
:103B700017DB029BD3B11AF80B2004F8012B0022AB
:103B8000019B981820448642FFF42BAE98F8000061
:103B9000009904F8010B2046039220F06DF8039A77
:103BA00014440AF1010A08F10108C6E798F8002058
:103BB00055F822300093029B009845F82230FDF71B
:103BC00091FA421CDCE76FF00D000CE6A36C0200DA
:103BD000EC550200285402000C6D0200216D020019
:103BE000014B1860704700BF4C03002080B50546AC
:103BF0000E461746984616F011FE034620F032F99D
:103C00000446DFF81890424649F8003039463046FD
:103C1000A84754F8090003F081FC00BF0800000029
:103C2000F8B50F4600293BD00668012230461AF04D
:103C30007EFB0146044630461AF041FBC3070DD413
:103C4000AF23184A184919481AF07AFD394618481E
:103C50001AF076FDAF2113481AF06BFD214630466D
:103C60001AF043FB25182946002230461AF027FB9C
:103C70002D1AAC420BD0B7230A4A0E490B481AF052
:103C80005FFD39460C481AF05BFDB721E3E721469A
:103C900030461AF030FB2146BDE8F8401AF06CBC03
:103CA000F8BD00BF496D02006A6D02002854020091
:103CB0007B6D0200B36D0200D96D02002DE9F8435F
:103CC0000F4606681446B2684B1EB2F5004F34BF6B
:103CD000042108213B4010D0C7F1000909EA070977
:103CE000494503F1FF3028BF494618420CD11F4611
:103CF000DCB900252846BDE8F8838F4213D8214659
:103D0000BDE8F8431AF07ABC2E494FF4A2732E4A4C
:103D10002E481AF015FD2E481AF012FD4FF4A2712C
:103D200029481AF006FD9946E2E7B2EBD40FE0D934
:103D3000E319591A10461AF004FB014630461AF0EE
:103D40005AFB80460028D4D0B36809EBC005B3F510
:103D5000004F34BF042308231D4435447B1E1D44FB
:103D6000B5FBF7F57D43A5EB0905294630461AF06A
:103D7000DEFA2C44073424F00704A41B80450746D0
:103D80004FEAE40408D20246414630461AF06DFB81
:103D9000414630461AF0AEFB394630461AF0A5FAD5
:103DA0003844844208D23946304622461AF05DFB38
:103DB000214630461AF09EFB0122394630461AF061
:103DC0009AFA97E7156E0200496D02002854020026
:103DD000306E0200B2F5802F2DE9F04110D2042A96
:103DE00028D843494FF4F973424A43481AF0A8FCD3
:103DF00042481AF0A5FC4FF4F9713E481AF099FCBC
:103E00000823D21ACC1D114424F0070421F0070125
:103E1000091B17294FEAD1060ED8394940F2FB1386
:103E2000344A35481AF08CFC34481AF089FC40F2C8
:103E3000FB11E2E70423E4E7002704603146304643
:103E4000A660E7601AF086FA0121421D80463046DE
:103E50001AF077FA9200D51DED082844B0423AD8FE
:103E6000B8F1FF3F3946A2F1100204F11000B8BFCB
:103E70003A461FF028FF2A46394620461AF053FAE0
:103E80003B463A46394620461AF024FAA6EB050886
:103E90002046394601221AF02EFA424629461AF0E7
:103EA00042FA2B463A46294620461AF013FA314682
:103EB00020461AF038FA43463A46314620461AF070
:103EC00009FA3146204601221AF015FA2946BDE8C2
:103ED000F0411AF00FBB0B494FF40373054A064833
:103EE0001AF02EFC05481AF02BFC4FF4037184E7FE
:103EF0004D6E0200496D0200285402006E6E0200F1
:103F0000876E0200B06E02002DE9F84F0446A38BC5
:103F100008461907154612D4022803F0070164D198
:103F200020461AF09DFB88B10138042800F2348144
:103F3000DFE810F05B0032018100D10001010128AF
:103F40000CBF43F0100143F02001A183143420463C
:103F500014F0AAFA002840F09B819849F023984A6F
:103F600098481AF0EDFB2146B0E003F00702501F1D
:103F700001281ED80020062A2768C4E9000014D1B1
:103F80003A4603E0E08B0130E0831268002AF9D161
:103F900023F0070343F002022046A2831AF060FBDD
:103FA00090B342F02002A2832EE023F007039AB2DE
:103FB000F2E7042A33D123F007039AB22046A28302
:103FC0001AF04EFB10B142F02002A283A38B03F043
:103FD0000709894540F0EA80A18BCA0640F14F816C
:103FE00021F01003A38301F00701D4F81880A38BFC
:103FF000B8F1000FB9DA0022276823F00703C4E9FB
:10400000002243F00103A383A38B03F00709894532
:1040100040F0CD80002FDFD00026B24644E06A4950
:1040200040F21B13694A67481AF08AFB40F21B11E1
:1040300066481AF07EFB49B165494FF4AB73634A99
:1040400060481AF07DFB4FF4AB71F1E723684BB980
:10405000604940F257135D4A5A481AF071FB40F22A
:104060005711E5E723691E684EB95B494FF4AD73FC
:10407000564A54481AF064FB4FF4AD71D8E70F4626
:1040800088464FF00609A38B23F0070343F006038D
:104090009BB2A383A268002A40F08B80002F40F0DF
:1040A0008B80002E98D0BA4643F0080304F1140B1D
:1040B0005846A38314F0F8F9002840F097803F4950
:1040C000F0233F4A3F481AF03BFB594643481AF059
:1040D00037FBF021AEE0022909D0414940F25D13DF
:1040E0003A4A38481AF02CFB40F25D11A0E7E78B02
:1040F0004FB13C494FF4AF73344A32481AF020FBB9
:104100004FF4AF7194E723695E684EB9324940F2CB
:1041100061132E4A2B481AF013FB40F2611187E716
:10412000A38BB84623F0070343F004039BB24FF080
:104130000409A383AEE7012909D02B494FF4B273D8
:10414000224A20481AF0FCFA4FF4B27170E7236853
:104150004BB9204940F265131C4A1A481AF0F0FA8C
:1041600040F2651164E723699E684EB91A494FF41D
:10417000B473164A13481AF0E3FA4FF4B47157E7D0
:104180000027A38BB84623F0070343F005039BB237
:104190004FF00509A3837DE70B4940F26B130B4AEF
:1041A00008481AF0CDFA40F26B1141E700270026CB
:1041B00070E74FF0010A77E7924675E7AB6F0200B0
:1041C0007E6F020028540200EC550200DB6E0200F4
:1041D000FD6E0200096F02002C6F0200C26F020028
:1041E000436F0200596F0200686F020085F3118867
:1041F000BFF36F8FBAF1000F1ED1002F2FD116B170
:1042000020462649B0474FF02003EFF3118583F392
:104210001288BFF36F8F584614F038F938BB7223F9
:104220001F4A204920481AF08BFA59461F481AF0B5
:1042300087FA72211A48FCE6A1680029DDD00D68D2
:104240000029DAD043464A462046D1F804A0D04798
:104250001DB12B6829461D46F2E72B46FAE7394681
:1042600043464A4620463F681AF026FAC5E75846B4
:1042700014F028F9A38B23F00803A383ACE68B0684
:104280007FF564AE21F02003A38301F0070147E628
:1042900085F31188BFF36F8FBDE8F88FB14200003E
:1042A0007E6F0200D76F020028540200EC6F0200FC
:1042B000F8B504460D4600F114064FF02003EFF365
:1042C000118783F31288BFF36F8F304614F0DEF846
:1042D00068B972230B4A0C490C481AF031FA31467E
:1042E0000B481AF02DFA722106481AF022FA3046CD
:1042F00014F0E8F8A5613A462046BDE8F8400121EF
:10430000FFF702BE7E6F0200D76F02002854020042
:10431000EC6F02002DE9F04704460F461AF0BCF995
:10432000051E67DB04F114094FF02003EFF3118A37
:1043300083F31288BFF36F8F484614F0A7F88046C6
:1043400060B97223374A384938481AF0F9F94946B2
:1043500037481AF0F5F97221324840E0484614F027
:10436000B1F84FF6FF72E38BA68B934206F0070677
:1043700043D0022E13D135460133E383484614F06F
:1043800093F800283FD1F023264A2A4927481AF0FB
:10439000D7F9494628481AF0D3F9F021DCE7062E70
:1043A00013D8DFE806F0092D1212090409006FF096
:1043B00085054FF00008E1E700233B60636883B99F
:1043C000C4E9007786B13546F3E71C4917484FF436
:1043D000E4731B4A1AF0B4F94FF4E47118481AF068
:1043E000A8F91F606760EDE7524602212046FFF7FB
:1043F0008BFD35462846BDE8F0876FF00A05D8E703
:104400006FF00405D5E78AF31188BFF36F8FB8F119
:10441000000FEFD000233246394620461AF04CF9FF
:10442000E8E700BF7E6F0200D76F02002854020049
:10443000EC6F0200AB6F0200C26F0200686F0200F7
:10444000DB6E020008B54268034602F00302022A4E
:1044500081600AD0032A4FF0000103D0012A0AD15B
:10446000596006E01868596008BD186800225A6053
:1044700058B90020F8E7064906484523064A1AF0CD
:104480005FF9452104481AF054F917F047F9F0E7AD
:10449000EC550200285402000270020008B54309DE
:1044A0000DD0012B1CD01349134840F22F33134A6F
:1044B0001AF046F940F22F3110481AF03AF94FF04D
:1044C000FF33C340DA07EED50D4B03EB8003D3F87F
:1044D000002222F0E04242EA0171C3F8001208BD56
:1044E0004FF6FF7300F01F00C340DB07DBD5054B21
:1044F000EBE700BF5870020028540200257002004C
:10450000002584500028845038B50124134B144DE5
:10451000C3F8004502230321C5F8D0360020FFF779
:10452000BDFF20460321FFF7B9FFC5F80447214628
:10453000C5F804492120C5F8004BFFF7AFFF21461D
:104540002020FFF7ABFF21460B20FFF7A7FF2146F6
:104550000A20FFF7A3FF002038BD00BF0010005065
:104560000040005007B50DF107001EF076F9114B21
:1045700098421CD14FF480620F4B1049C3F8B82504
:104580004FF40062C3F83C259DF8070010F0A4FB2F
:104590000B499DF8070010F087FB01209DF80730BC
:1045A000984010F075FB002003B05DF804FB6FF03D
:1045B0000B00F9E70000AD0B00A002502CA0025048
:1045C00028A10250052370B5144D154E2C780134E6
:1045D000B4FBF3F303EB8303E41A1EF016F9114A5C
:1045E000137823B156F82430C01A072814D94FF095
:1045F0005023D3F8141141B10021C3F81411D3F89A
:1046000014312C700CB9012313702C781EF0FDF8B6
:1046100046F82400012070BD0020FCE77827002028
:104620000C1700207727002048B1054B054A1B686E
:10463000B3FBF2F35843044B43F0010318477047B0
:10464000F405002040420F00804502007FB50BAB0F
:1046500005930393054B0122029300231846CDE9ED
:10466000003301F05DF907B05DF804FB7F700200D4
:104670000F2AF8B50446154608461F460BD90F49C0
:104680000F4840F2E7130F4A1AF05AF840F2E711C8
:104690000C481AF04EF80FF005FE0B4EAD00014627
:1046A0002E4420462FB144F0004410F015FB346036
:1046B000F8BD10F03FFB3760FAE700BFD970020089
:1046C00028540200A770020080A1025070B586B085
:1046D00005A810F04BFD264B984245D10FF0BEFFC8
:1046E000041E0FDA9DF8140010F046FD214B012244
:1046F0000293002320491846CDE900330394FFF7C5
:10470000A5FF2EE040F607031C4D8DF81540AE685E
:10471000ADF816307468059B14B96FF05704E5E7DF
:1047200008212846164AA047041EDFDB3369002B08
:10473000F3D00122082128469847041ED6DB012524
:104740009DF8140005FA00F010F0A2FA2B469DF82F
:1047500017209DF815109DF81400FFF789FF002C15
:10476000C4D1204606B070BD6FF01204BEE700BF92
:104770000000AD0B7F700200F4430200903F020086
:104780001148000070B5049EC6F30744F5B2C6F3A5
:10479000072630460FF06CFD0F2C01460BD915494A
:1047A000154840F2E113154A19F0CAFF40F2E11131
:1047B000124819F0BEFF284610F0A6FA0022012088
:1047C0000F4BA400E4B21A51A84010F067FA30462B
:1047D0000FF062FF284610F0CFFC0A4B984208D039
:1047E000094905487523094A19F0AAFF75210748A8
:1047F000DFE770BDD970020028540200A7700200E4
:1048000080A002500000AD0B1B710200E47002009A
:104810002DE9F743144683681B694BB922492348A5
:10482000CB23234A19F08CFFCB21214819F081FFBB
:104830000022984706460028F0D1C4F307284046D6
:104840000FF04AFD5FFA84F941463346220E0746CF
:104850004846FFF70DFF40460FF00AFDC4F3074539
:104860000F2D01460AD91349104840F2E113124AAC
:1048700019F066FF40F2E1110F48D7E70F4BAD008A
:1048800049F00042EDB25A51484610F00DFA0C4B77
:1048900007F13202009340463346019452000FF074
:1048A000EBFD03B0BDE8F0832F7102002854020035
:1048B000E4700200D9700200A770020080A00250CC
:1048C0008547000010F0C6B82DE9F7430F460646AD
:1048D0000821C06A19F0DEFF80463C68DFF8489086
:1048E000241A3C6004EA0905AC4203D8002003B056
:1048F000BDE8F08308236A462146304619F02EFFB2
:104900000028F4D16946304619F0CEFF40B1BDF819
:104910000230BDF8042005EA090513441D443C603B
:10492000A4EB0804E0E700BF0000FFFF2DE9F0471B
:1049300004468EB000F1140738461EF023FEA06A2C
:104940008368DB6898470346E06230B9904A00907C
:10495000CDE9010201228F490FE0A06A8368DB687C
:1049600098470368013B1F2B0FD98B4B0293002301
:1049700001221846CDE90033864919F07CFF6FF01B
:10498000150528460EB0BDE8F087A06A21680BAA7D
:104990001DF0A0FD08B1814BE8E7A5892DB10C9B66
:1049A000B5FBF3F203FB12550DB17D4BDEE7E38956
:1049B000012B05D87B4B0095CDE901532B46C9E768
:1049C000E36A069593F804904FF0FF334FF0FF32FF
:1049D000384613F0A3FD0821E06A19F05BFFA846F2
:1049E0000646E3891FFA85FA534508D8E38943450B
:1049F00023D1384613F062FE6FF02C05C1E7A18980
:104A00002B04891B13FA81F14A460823204606919C
:104A100019F0F2FE78B1204606A919F0ADFE08F1B2
:104A2000010808234A46204606991FFA88F819F01B
:104A3000E3FE0028DAD00135D3E753450BD10699C0
:104A400008234A462046891B19F0D6FE18B920468D
:104A500006A919F091FE204606A9FFF735FF054685
:104A600018B1384613F02AFE8BE7069B4FEA13482D
:104A70004FEA08486360C4F80880D4E901139942FA
:104A80000FD30823204607AA19F068FE0546002820
:104A9000E7D107AB13F8012B914543D10135082D20
:104AA000F8D1636820461B0C1B0406A9069319F075
:104AB00063FE4A462046A389069919F09DFE051E0D
:104AC000CFDB636800F082804FF6FF7906EB0308C6
:104AD000A3891FFA88F29B1B9A42CDF818803DD318
:104AE000314B0322029300232A491846CDE90033B3
:104AF00019F0C1FE2046616819F0A3FE05460028A2
:104B0000AFD16368294AA18913400B44A3EB460344
:104B1000636013402046A36019F0AAFF0546002DEC
:104B200070D09EE7204607A919F0BEFE626810B952
:104B3000921B6260A1E7BDF82050BDF81E10E06A2C
:104B4000C4F80880294419F0A5FE40449042A060B2
:104B5000EED1002DECD06FF01C0590E0082341460B
:104B6000204609AA19F0FAFD054600287FF479AF1E
:104B7000204609A919F098FE38B1BDF824304B45FC
:104B800003D1BDF82830002B7FD0B044A0E700BF90
:104B900055710200644302007771020094710200B3
:104BA000AC710200C07102001D7202000000FFFF24
:104BB0004A4620465B1A19F01FFE051EFFF651AF4C
:104BC00008D0E26AA36812681344A360D4E90131F3
:104BD0008B42EDD86168A38901EB46029A429ED1CF
:104BE000DFF8D480A26801EA08039A4297D02046F1
:104BF00019F027FE054600287FF433AF636803EA07
:104C00000803A360A389A288A3EB46039A4232D08B
:104C1000384613F053FD012300252374A389284649
:104C20000493E38903220393244BCDE900550293B7
:104C300023492B4619F01FFE636828469AB21B0CC5
:104C40000393204B0492CDE9015303222B461C49C8
:104C5000009519F010FEA36828469AB21B0C039326
:104C6000194B0492CDE9015303222B4614490095B8
:104C700019F001FE85E6204619F0E3FE05463846A8
:104C800013F01CFD002DC6D07BE6104B03222846F6
:104C9000CDE901530A492B46009519F0ECFD6368F4
:104CA00020461B0C1B0406A9069319F065FD20463F
:104CB000069919F0C6FD31E70000FFFFE37102001D
:104CC00064430200FA7102000C7202004472020096
:104CD0002DE9F04F1D46037C0446894690468DB071
:104CE00073B9674A1846CDE901326649012200933B
:104CF00019F0C1FD6FF00C0630460DB0BDE8F08F25
:104D0000C26A0821104619F0C5FD824629461046A0
:104D100019F0C0FDA3890746A3EB8A03AB42C0F09C
:104D2000AB801DB1B8F1000F00F0A6806368079357
:104D3000204608AA07A9DDF81CB019F0EDFD0646CB
:104D40000028D9D1BDF820304B4505D06268079BBB
:104D50009A42EDD1E5B9CFE7204608A919F0A4FDA4
:104D60000028F3D0BDF82200BDF8243075B1AB4265
:104D70000ED14FEA1B41090401442B46424620460E
:104D800019F007FD002803DC0646B5E7002BB3D079
:104D9000002F3ED104F1140305934FF0FF324FF082
:104DA000FF3304F1140013F0B9FBDFF8DCB0E38942
:104DB0009E425ED0D4E90123F9188A422CD3ADF883
:104DC0002A30FF230AA88DF82E30ADF82890ADF8D0
:104DD0002C5019F008FD2B464246A168204619F0D8
:104DE000E5FD29468246E06A19F054FDA2680244B6
:104DF000A260BAF1000F07D120460AA919F010FEEF
:104E0000002814BF8246AA46059813F057FC564660
:104E100072E75744BFB2BDE70821E06A19F03AFDD6
:104E20004FF6FF730021ADF828308DF82E30A3899E
:104E3000ADF82C10111802EA0B021A44101A606027
:104E40000AA8ADF82A1019F0CEFC0AA9204619F0DC
:104E5000E7FD2046211D19F08FFC6368204603EA18
:104E60000B03A36019F004FE82460028CCD1013662
:104E70009DE76FF01B0AC7E76FF015063CE700BF20
:104E800041710200644302000000FFFF2DE9F0477A
:104E90001E46037C88B004460F469046BDF84090FD
:104EA0006BB92F4A1846CDE901322E4901220093F1
:104EB00019F0E1FC6FF00C0008B0BDE8F0870821A4
:104EC000C06A19F0E7FCA389A3EB4003B34243D3C4
:104ED0000025D4F804A0CDF814A04D455146DDF8C6
:104EE00014A009D9636853451ED1BDF81830BB42E0
:104EF0001AD06FF00100DFE7204606AA05A919F0D5
:104F00000BFD0028D8D1BDF81830BB4206D1204691
:104F100006A919F0C9FC08B10135ADB26268059B5C
:104F20009A42DAD15146E0E7BDF81C30002BE0D0C0
:104F3000A945DED8BDF81A00090CB3424FEA014179
:104F400028BF334601444246204619F007FC00289A
:104F5000B2D1BDF81C00AFE76FF01500ACE700BFA1
:104F600041710200644302001FB5034660B9114A53
:104F70000090CDE901021049012219F051FE6FF0B5
:104F8000150005B05DF804FB83685BB90B4A184651
:104F9000CDE9013208490122009319F041FE6FF07A
:104FA0000400EEE71B681BB105B05DF804EB184781
:104FB0001846E6E7607202008C430200717202003C
:104FC00030B585B008B101B16AB9134B0122029323
:104FD000002312491846CDE9003319F021FE6FF085
:104FE000150005B030BD84680CB1E56865B90C4B9F
:104FF00001220293002309491846CDE9003319F034
:105000000FFE6FF00400ECE741F8040BE36805B015
:10501000BDE83040184700BF8F7202008C43020089
:105020007172020030B51346044685B060B9194B61
:105030000090CDE9010301220346174919F0F0FD64
:105040006FF0150005B030BD006858B9134B0090E3
:10505000CDE90103012203460F4919F0E1FD6FF08C
:105060000100EFE782680AB1956865B90C4B01222F
:105070000293002308491846CDE9003319F0D0FD0A
:105080006FF00400DEE70A46AC46616805B0BDE893
:1050900030406047BB7202008C430200CC720200B9
:1050A000717202000020014B186070470000072059
:1050B00030B50C460E4985B00291D0F8AC110546CA
:1050C000CDE9003100F1E0014FF0FF33204612F04E
:1050D00011F950B9012384F86430D5F8A83123B10F
:1050E000204605B0BDE83040184705B030BD00BFD0
:1050F00031ED010038B50C461146054619F01AFE8F
:10510000034638B92846044919F014FE0346002026
:10511000236038BD0120FBE724A402002DE9F04FF5
:10512000012381460569466885B005F55977D7E8BA
:10513000EF2F002A03D1C7E8E13F0029F7D10CBFC8
:105140001A46002240F0B180B368B16A05F5E478F0
:105150001C1F104619F073FE84425FD8013A00F01C
:105160009E80B2FA82F24FF00044D440726820462A
:10517000073222F00302C5F86022B16A19F05FFE1F
:10518000C5F86402B36A40466343033323F0030364
:1051900002EB4302230103EB4403093323F003032F
:1051A00003EBC403C5F858221A440832C5F8542248
:1051B0007368C5F85C42C5F850323D4BC5E9A96338
:1051C000316800F0BDF9044630BBD9F804A0D9F825
:1051D0001090DAE9073409F5307B012B584608BFF7
:1051E000103C13F071FF0023DAF8240031494FF42A
:1051F000806201EB802100935846234613F07EFF26
:1052000009F52C702C4913F093FEDAF8140083682A
:105210005C682CB96FF05704002139E0013298E73F
:105220004B46264ADAF81810A04704460028F3D166
:10523000DAF8140083681B69002BEBD00122DAF83E
:105240001810984704460028E6D11D4B2846C5F89B
:10525000A8311C4BC5F8AC311B4B0393D5F8103269
:105260000293D5F80832CDE90083D5F86832B26AE6
:10527000D5F8601300F02CF904460028CCD105F1D4
:10528000E00012F0DBF90028C5F868030ADB022110
:10529000384619F084FD204605B0BDE8F08F6FF068
:1052A0000B04B9E76FF01504B6E76FF07704F2E787
:1052B00087ED0100882C00206DED010061ED0100FB
:1052C000CD52000015EF0100CFED010013B50446EB
:1052D00040B100230122CDE90032074BD0E9091289
:1052E00011F0BCFFA36E1B6823B1E06E02B0BDE8F5
:1052F0001040184702B010BD24A4020013B50446A4
:105300000846216901F55971D1E8AF1F022910D172
:1053100093B1A0B10121CDE900311346D0E90912C2
:1053200011F09CFF074B984208BF6FF00B0002B0D2
:1053300010BD6FF00F00FAE76FF04C00F7E76FF069
:105340000100F4E72EF8FFFF2DE9F74388461546E4
:10535000066906F55973D3E8AF3F022B5FD1136896
:1053600023B96FF0150003B0BDE8F0831B78002B64
:10537000F7D0D6F86093B9F1000F33D106F5D8779E
:105380004FF0FF324FF0FF33384613F0C7F8304686
:105390002A6801A9FFF7AEFE019C1CB9384619F036
:1053A000FCFCDEE705F10803A3666B6984F86490F2
:1053B000E366E46360B1384619F0EFFC21463046FD
:1053C000236E2A68FFF774FE0020C8F80040CAE781
:1053D0002022296804F140001EF017FB384619F01E
:1053E000DCFCF1E730460F4919F0A4FC0446002824
:1053F000B7D005F1080383666B69C063C3660023F9
:1054000080F864302022296840301EF0FEFA2246DF
:105410000121304600F03EF80028D5D0A1E76FF01A
:105420000F00A0E724A402002DE9F04F05460E4628
:1054300090460027D0F8B0A085B0AAF5AE742146FA
:105440003046FBF73DFEE0B9114BA4F1400B02934F
:10545000DAF810303246CDE9008329464FF0FF33A9
:105460005846AAF5CE7911F045FF60B970230122A4
:1054700003FB079383F86420DAF80C300BB158462D
:105480009847703417B105B0BDE8F08F0127D6E713
:1054900077EF01001FB5144690B18AB1012912D1EE
:1054A0000A4B00F1E0010293D0F8AC314032019395
:1054B0004FF0FF332046009311F01CFF04B010BDE5
:1054C0006FF01500FAE70020F8E700BF77EF010062
:1054D0002DE9F04387B00E46DDE90E811446DDE983
:1054E00010251F4630B329B3DFF850C000F1E009A2
:1054F000002D08BF65469EB9CDE9034400F5CE7482
:10550000204605961DF065FF03ABCDE900432A4612
:105510003B464146484612F0B7F807B0BDE8F08375
:10552000002241460E9248462A4607B0BDE8F043A5
:1055300012F0D4B96FF01500EFE700BF2954000056
:10554000F0B50E46044689B000286FD0012302460C
:10555000C3630023D0F89810364F403040F80C7CDD
:1055600042F8301FCDE901334FF0FF330093C36D94
:105570001DF09AFA304A06AB92E8030083E8030074
:10558000184611F07DFD0546D8B904F1340011F03C
:1055900059FD0546A8B93946284805AA1DF066FAFE
:1055A000054670B9059B9A6872B10C33D4F8940023
:1055B000C4F8A03019F010FDC4F8D40030B96FF071
:1055C0000B05284609B0F0BD0346EFE7D4F8940078
:1055D00019F002FDC4F8D8000028F0D0D4F88C30BF
:1055E000D4F8A010C4F8A8300423C4F8AC30C4F830
:1055F000C4300223A362124BB4F89420D4F8D470C0
:10560000C4F8B810C4F8D010D4F89010236204F194
:10561000A403A4F8B020C4F8A470C4F8C010A4F87F
:10562000C820C4F8BC00A661E362CAE76FF01505A4
:10563000C7E700BFF6720200B04402000073020028
:10564000D04802002DE9F84FDFF8FCA03F4F81461B
:10565000AAEB07039F2B88460BD93D4940F219134B
:105660003C4A3D4819F06CF840F21911394819F0DC
:1056700060F83A4819F0F2FC0646002834D13C465E
:1056800005464FF0010B544527D935494FF4937324
:10569000304A314819F054F8324819F051F84FF4B3
:1056A0009371E3E7237B73B12368DB680BB120467A
:1056B000984723681B6943B9636804222046196828
:1056C00000F008F901361034DDE72046984700283D
:1056D000F2D00BFA06F31D43F4E7E3D3B9F1000F60
:1056E00002D04FF0010A0DB9BDE8F88FA94695FA2E
:1056F000A5F4B4FA84F40AFA04F3260107EB0414BF
:105700006FEA030B25EA0305237B5BB1BB591B69D9
:10571000A3B93E44736804222046196809EA0B09BC
:1057200000F0D8F8002DE2D1B8F1000F04D04FF40A
:10573000A470002115F03EF84D46D4E72046984766
:105740000028EFD1E5E700BF0C440200FC43020053
:105750003573020008730200285402002817002045
:10576000597302007A730200014B53F8200070470E
:10577000FC48020008B5034608462BB1044A1360F2
:1057800000F0FEFA002008BD6FF01500FBE700BF37
:105790007C0300200023054A4FF400411370044AA3
:1057A00004481360044A1360FFF7E4BF7927002020
:1057B0002017002059F001002417002070B5134D68
:1057C000297809BB0120FFF73DFF114C114EB4426F
:1057D00017D911494FF4C473104A114818F0B0FF9B
:1057E000104818F0ADFF4FF4C4710C4818F0A1FF39
:1057F00063685B791BB1236820469B689847103427
:10580000E5E7F5D301232B7070BD00BF7927002099
:10581000FC4302000C4402005973020008730200AA
:10582000285402007A73020010B50446064819F0A5
:1058300015FC3CB1054BD3E8EF1F0139C3E8E21F6B
:10584000002AF8D110BD00BF201700202417002027
:1058500070B5124B05461B689847114C114EA86055
:10586000B44218D9104940F2C513104A104818F034
:1058700067FF104818F064FF40F2C5110B4818F09C
:1058800058FF63685B7923B12368294620461B686B
:1058900098471034E4E7F4D370BD00BF7C030020C8
:1058A000FC4302000C44020059730200087302001A
:1058B000285402007A730200044A054B9B1AB1EB8C
:1058C000D30F34BF52F831000020704784420200E9
:1058D000FC4302000E4B10B5C31A1B110133DBB29F
:1058E00048B90C490C48DF230C4A18F029FFDF2186
:1058F0000A4818F01EFF4468237143689A71012218
:105900004368196043685A71BDE8104019F0C4BB80
:10591000FC4302001D74020028540200E5730200DB
:105920002DE9F04F85B002AF0446D7E90EA90E4627
:10593000934698463D6BBAF1000F15D0C7F8049016
:10594000CDF800901021534600207A6BFDF732FF0E
:10595000011E0ADA1E4978231E4A1F4818F0F0FE7D
:1059600078211C4818F0E5FE51461C4A04F0070453
:105970000BF0070BE40044EA8B1402EA41221443C3
:1059800044EA055417350D4425F00705ADEB050D28
:1059900002ADBAF1000F11D0CDF8009053467A6BEA
:1059A00005F11000FDF706FF002807DA08499223E9
:1059B000084A094818F0C4FE9221D2E7434622461D
:1059C0003146284619F06BFB0C37BD46BDE8F08F19
:1059D000697402003D7402002854020000FE0F00AA
:1059E0000EB403B503AB53F8042B014604480193EE
:1059F00001F0CAFF02B05DF804EB03B0704700BFCE
:105A0000D1F00100CA0605D48B064CBF02490349F8
:105A1000FFF7E6BF704700BF23A40200E85A020068
:105A20002DE9F04F89B09B46DDE914939DF84C7049
:105A30000593169B04460D46179E06920493002F6D
:105A400000F09480042F0BD9994940F2BF13994A72
:105A5000994818F075FE40F2BF11964818F069FE9B
:105A600006F00803079319F018FB06F0020A024635
:105A700000284AD020469149FFF7B2FF8046BAF18C
:105A8000000F08D016F0440F41D12A4620468C4919
:105A9000FFF7A6FF804406F0010353B1894B20466F
:105AA00053F82720884B8949002A08BF1A46FFF778
:105AB00097FF06F00803002B55D0854B204653F87E
:105AC00027208449FFF78CFF0546069B2BB11A4619
:105AD00020468149FFF784FF0544BBF1000F05D044
