:020000040000FA
:10000000A05000204D740000DDFD010021740000AF
:10001000217400002174000021740000217400008C
:100020000000000000000000000000009D6C0000C7
:100030002174000000000000356C000021740000F5
:10004000296D0000296D0000296D0000296D000058
:10005000296D0000296D0000296D0000296D000048
:10006000296D0000296D0000296D0000296D000038
:10007000296D0000296D0000296D0000296D000028
:10008000296D0000296D0000296D0000296D000018
:10009000296D0000296D0000296D0000296D000008
:1000A000296D0000296D0000296D0000296D0000F8
:1000B000296D0000296D0000296D0000296D0000E8
:1000C000296D0000296D0000296D0000296D0000D8
:1000D000296D0000296D0000296D0000296D0000C8
:1000E000296D0000296D0000296D0000296D0000B8
:1000F000296D0000296D0000296D0000296D0000A8
:10010000296D0000296D0000296D0000296D000097
:10011000296D0000296D0000296D0000296D000087
:10012000296D0000296D0000296D0000296D000077
:10013000296D0000296D0000296D0000296D000067
:10014000296D0000296D0000296D0000296D000057
:10015000296D0000FFFFFFFF81F0004102E000BFBA
:1001600083F0004330B54FEA41044FEA430594EA77
:10017000050F08BF90EA020F1FBF54EA000C55EAB2
:10018000020C7FEA645C7FEA655C00F0E2804FEA83
:100190005454D4EB5555B8BF6D420CDD2C4480EA65
:1001A000020281EA030382EA000083EA010180EA95
:1001B000020281EA0303362D88BF30BD11F0004FE3
:1001C0004FEA01314FF4801C4CEA113102D0404219
:1001D00061EB410113F0004F4FEA03334CEA133354
:1001E00002D0524263EB430394EA050F00F0A7806C
:1001F000A4F10104D5F1200E0DDB02FA0EFC22FA67
:1002000005F2801841F1000103FA0EF2801843FA5A
:1002100005F359410EE0A5F120050EF1200E012A4B
:1002200003FA0EFC28BF4CF0020C43FA05F3C01889
:1002300051EBE37101F0004507D54FF0000EDCF102
:10024000000C7EEB00006EEB0101B1F5801F1BD3AB
:10025000B1F5001F0CD349085FEA30004FEA3C0CAF
:1002600004F101044FEA445212F5800F80F09A80A5
:10027000BCF1004F08BF5FEA500C50F1000041EBA9
:10028000045141EA050130BD5FEA4C0C404141EBAD
:100290000101013C28BFB1F5801FE9D291F0000FA8
:1002A00004BF01460020B1FA81F308BF2033A3F157
:1002B0000B03B3F120020CDA0C3208DD02F1140C4E
:1002C000C2F10C0201FA0CF021FA02F10CE002F189
:1002D0001402D8BFC2F1200C01FA02F120FA0CFC82
:1002E000DCBF41EA0C019040E41AA2BF01EB0451CB
:1002F000294330BD6FEA04041F3C1CDA0C340EDCC9
:1003000004F11404C4F1200220FA04F001FA02F30B
:1003100040EA030021FA04F345EA030130BDC4F1C9
:100320000C04C4F1200220FA02F001FA04F340EABE
:100330000300294630BD21FA04F0294630BD94F06F
:10034000000F83F4801306BF81F480110134013D56
:100350004EE77FEA645C18BF7FEA655C29D094EAC7
:10036000050F08BF90EA020F05D054EA000C04BF45
:100370001946104630BD91EA030F1EBF0021002030
:1003800030BD5FEA545C05D14000494128BF41F0CF
:10039000004130BD14F580043CBF01F5801130BD33
:1003A00001F0004545F0FE4141F470014FF00000BE
:1003B00030BD7FEA645C1ABF194610467FEA655C6F
:1003C0001CBF0B46024650EA013406BF52EA033511
:1003D00091EA030F41F4002130BD00BF90F0000FFF
:1003E00004BF0021704730B54FF4806404F132043B
:1003F0004FF000054FF0000150E700BF90F0000FF4
:1004000004BF0021704730B54FF4806404F132041A
:1004100010F0004548BF40424FF000013EE700BFEA
:1004200042004FEAE2014FEA31014FEA02701FBF7A
:1004300012F07F4393F07F4F81F06051704732F0AC
:100440007F4208BF704793F07F4F04BF41F4002103
:10045000704730B54FF4607401F0004521F0004161
:100460001CE700BF50EA010208BF704730B54FF0EB
:1004700000050AE050EA010208BF704730B511F0EC
:10048000004502D5404261EB41014FF4806404F124
:1004900032045FEA915C3FF4D8AE4FF003025FEAAA
:1004A000DC0C18BF03325FEADC0C18BF033202EB2E
:1004B000DC02C2F1200300FA03FC20FA02F001FA88
:1004C00003FE40EA0E0021FA02F11444BDE600BF2B
:1004D00070B54FF0FF0C4CF4E06C1CEA11541DBFDA
:1004E0001CEA135594EA0C0F95EA0C0F00F0DEF8A5
:1004F0002C4481EA030621EA4C5123EA4C5350EA8A
:10050000013518BF52EA033541F4801143F48013DA
:1005100038D0A0FB02CE4FF00005E1FB02E506F06B
:100520000042E0FB03E54FF00006E1FB03569CF0C0
:10053000000F18BF4EF0010EA4F1FF04B6F5007FC6
:1005400064F5407404D25FEA4E0E6D4146EB060638
:1005500042EAC62141EA55514FEAC52040EA5E50C1
:100560004FEACE2EB4F1FD0C88BFBCF5E06F1ED86B
:10057000BEF1004F08BF5FEA500E50F1000041EBA2
:10058000045170BD06F0004646EA010140EA02004F
:1005900081EA0301B4EB5C04C2BFD4EB0C0541EA71
:1005A000045170BD41F480114FF0000E013C00F386
:1005B000AB8014F1360FDEBF002001F0004170BDAA
:1005C000C4F10004203C35DA0C341BDC04F11404C3
:1005D000C4F1200500FA05F320FA04F001FA05F24F
:1005E00040EA020001F0004221F0004110EBD3701C
:1005F00021FA04F642EB06015EEA430E08BF20EA48
:10060000D37070BDC4F10C04C4F1200500FA04F3EA
:1006100020FA05F001FA04F240EA020001F000417C
:1006200010EBD37041F100015EEA430E08BF20EAEF
:10063000D37070BDC4F1200500FA05F24EEA020E37
:1006400020FA04F301FA05F243EA020321FA04F066
:1006500001F0004121FA04F220EA020000EBD3701D
:100660005EEA430E08BF20EAD37070BD94F0000F1D
:100670000FD101F00046400041EB010111F4801F51
:1006800008BF013CF7D041EA060195F0000F18BF02
:10069000704703F00046520043EB030313F4801F3E
:1006A00008BF013DF7D043EA0603704794EA0C0FF8
:1006B0000CEA135518BF95EA0C0F0CD050EA41060E
:1006C00018BF52EA4306D1D181EA030101F000418B
:1006D0004FF0000070BD50EA410606BF10461946B3
:1006E00052EA430619D094EA0C0F02D150EA0136BF
:1006F00013D195EA0C0F05D152EA03361CBF104600
:1007000019460AD181EA030101F0004141F0FE419E
:1007100041F470014FF0000070BD41F0FE4141F422
:10072000780170BD70B54FF0FF0C4CF4E06C1CEA22
:1007300011541DBF1CEA135594EA0C0F95EA0C0FD7
:1007400000F0A7F8A4EB050481EA030E52EA033592
:100750004FEA013100F088804FEA03334FF08055B3
:1007600045EA131343EA12634FEA022245EA1115E0
:1007700045EA10654FEA00260EF000419D4208BF91
:10078000964244F1FD0404F5407402D25B084FEA3E
:100790003202B61A65EB03055B084FEA32024FF4EA
:1007A00080104FF4002CB6EB020E75EB030E22BF47
:1007B000B61A754640EA0C005B084FEA3202B6EB07
:1007C000020E75EB030E22BFB61A754640EA5C00B6
:1007D0005B084FEA3202B6EB020E75EB030E22BF46
:1007E000B61A754640EA9C005B084FEA3202B6EB47
:1007F000020E75EB030E22BFB61A754640EADC0006
:1008000055EA060E18D04FEA051545EA16754FEA67
:1008100006164FEAC30343EA52734FEAC2025FEA85
:100820001C1CC0D111F4801F0BD141EA00014FF014
:1008300000004FF0004CB6E711F4801F04BF0143E5
:100840000020B4F1FD0C88BFBCF5E06F3FF6AFAE01
:10085000B5EB030C04BFB6EB020C5FEA500C50F191
:10086000000041EB045170BD0EF0004E4EEA113114
:1008700014EB5C04C2BFD4EB0C0541EA045170BD1B
:1008800041F480114FF0000E013C90E645EA060E5F
:100890008DE60CEA135594EA0C0F08BF95EA0C0F8D
:1008A0003FF43BAF94EA0C0F0AD150EA01347FF4D5
:1008B00034AF95EA0C0F7FF425AF104619462CE7AC
:1008C00095EA0C0F06D152EA03353FF4FDAE10460F
:1008D000194622E750EA410618BF52EA43067FF460
:1008E000C5AE50EA41047FF40DAF52EA43057FF4F0
:1008F000EBAE12E74A0011D212F5001211D20DD55B
:100900006FF47873B3EB62520ED44FEAC12343F015
:10091000004343EA505323FA02F070474FF00000BF
:10092000704750EA013002D14FF0FF3070474FF06E
:100930000000704780F0004002E000BF81F00041FD
:1009400042001FBF5FEA410392EA030F7FEA226C75
:100950007FEA236C6AD04FEA1262D2EB1363C1BF05
:10096000D218414048404140B8BF5B42192B88BF74
:10097000704710F0004F40F4000020F07F4018BF97
:10098000404211F0004F41F4000121F07F4118BFB7
:10099000494292EA030F3FD0A2F1010241FA03FC5F
:1009A00010EB0C00C3F1200301FA03F100F0004347
:1009B00002D5494260EB4000B0F5000F13D3B0F10F
:1009C000807F06D340084FEA310102F10102FE2A7E
:1009D00051D2B1F1004F40EBC25008BF20F00100EE
:1009E00040EA03007047490040EB0000013A28BF8D
:1009F000B0F5000FEDD2B0FA80FCACF1080CB2EB10
:100A00000C0200FA0CF0AABF00EBC250524218438D
:100A1000BCBFD0401843704792F0000F81F4000132
:100A200006BF80F400000132013BB5E74FEA410305
:100A30007FEA226C18BF7FEA236C21D092EA030F71
:100A400004D092F0000F08BF0846704790EA010FEB
:100A50001CBF0020704712F07F4F04D1400028BF18
:100A600040F00040704712F100723CBF00F50000FA
:100A7000704700F0004343F0FE4040F40000704730
:100A80007FEA226216BF08467FEA236301464202DC
:100A900006BF5FEA412390EA010F40F480007047EF
:100AA0004FF0000304E000BF10F0004348BF404295
:100AB0005FEA000C08BF704743F0964301464FF0D1
:100AC00000001CE050EA010208BF70474FF000032D
:100AD0000AE000BF50EA010208BF704711F000436E
:100AE00002D5404261EB41015FEA010C02BF84463E
:100AF0000146002043F0B64308BFA3F18053A3F59D
:100B00000003BCFA8CF2083AA3EBC25310DB01FAE3
:100B100002FC634400FA02FCC2F12002BCF1004F67
:100B200020FA02F243EB020008BF20F001007047F8
:100B300002F1200201FA02FCC2F1200250EA4C004C
:100B400021FA02F243EB020008BF20EADC70704792
:100B50004FF0FF0C1CEAD0521EBF1CEAD15392EAA0
:100B60000C0F93EA0C0F6FD01A4480EA010C40027C
:100B700018BF5FEA41211ED04FF0006343EA5010D6
:100B800043EA5111A0FB01310CF00040B1F5000F18
:100B90003EBF490041EAD3715B0040EA010062F1C7
:100BA0007F02FD2A1DD8B3F1004F40EBC25008BFB1
:100BB00020F00100704790F0000F0CF0004C08BFCF
:100BC00049024CEA502040EA51207F3AC2BFD2F19C
:100BD000FF0340EAC250704740F400004FF00003AA
:100BE000013A5DDC12F1190FDCBF00F000407047E4
:100BF000C2F10002410021FA02F1C2F1200200FA22
:100C000002FC5FEA310040F1000053EA4C0308BFE8
:100C100020EADC70704792F0000F00F0004C02BF39
:100C2000400010F4000F013AF9D040EA0C0093F0B4
:100C3000000F01F0004C02BF490011F4000F013B0E
:100C4000F9D041EA0C018FE70CEAD15392EA0C0F7C
:100C500018BF93EA0C0F0AD030F0004C18BF31F0E7
:100C6000004CD8D180EA010000F00040704790F0BD
:100C7000000F17BF90F0004F084691F0000F91F061
:100C8000004F14D092EA0C0F01D142020FD193EA27
:100C90000C0F03D14B0218BF084608D180EA0100AF
:100CA00000F0004040F0FE4040F40000704740F08B
:100CB000FE4040F4400070474FF0FF0C1CEAD05259
:100CC0001EBF1CEAD15392EA0C0F93EA0C0F69D0B5
:100CD000A2EB030280EA010C49024FEA402037D020
:100CE0004FF0805343EA111143EA10130CF0004017
:100CF0008B4238BF5B0042F17D024FF4000C8B4207
:100D000024BF5B1A40EA0C00B3EB510F24BFA3EBE6
:100D1000510340EA5C00B3EB910F24BFA3EB9103B6
:100D200040EA9C00B3EBD10F24BFA3EBD10340EA10
:100D3000DC001B0118BF5FEA1C1CE0D1FD2A3FF656
:100D400050AF8B4240EBC25008BF20F0010070470B
:100D50000CF0004C4CEA50207F32C2BFD2F1FF03AE
:100D600040EAC250704740F400004FF00003013ADF
:100D700037E792F0000F00F0004C02BF400010F483
:100D8000000F013AF9D040EA0C0093F0000F01F097
:100D9000004C02BF490011F4000F013BF9D041EAB9
:100DA0000C0195E70CEAD15392EA0C0F08D14202EC
:100DB0007FF47DAF93EA0C0F7FF470AF084676E7BF
:100DC00093EA0C0F04D14B023FF44CAF08466EE798
:100DD00030F0004C18BF31F0004CCAD130F0004266
:100DE0007FF45CAF31F000437FF43CAF5FE700BFBE
:100DF00053B94AB9002908BF00281CBF4FF0FF3182
:100E00004FF0FF3000F00CB8ADF1080C6DE904CEE6
:100E100000F008F8DDF804E0DDE9022304B07047D3
:100E2000704700BF2DE9F04786468C460846089E6D
:100E3000154674461946002B40F0C1808542B2FA2F
:100E400082F245D94AB1C2F1200300FA02FC954072
:100E500094402EFA03F343EA0C0C4FEA154EA8B265
:100E6000230CBCFBFEF80EFB18CC08FB00F943EA90
:100E70000C43994528D9EB1808F1FF3704D299455E
:100E800002D9A8F102072B44A3EB0903A4B2B3FBD8
:100E9000FEFC0EFB1C330CFB00F044EA0344A042B2
:100EA00014D92C190CF1FF3304D2A04202D9ACF1B1
:100EB00002032C44241A43EA07401EB1D440002305
:100EC00034607360BDE8F0874746DDE76346F1E7CD
:100ED00092BB431B01214FEA154EAFB2200CB3FB6E
:100EE000FEFC0EFB1C330CFB07F840EA034398455D
:100EF00061D9EB180CF1FF3004D2984502D9ACF15E
:100F000002002B44A3EB0803A4B2B3FBFEFC0EFBD0
:100F10001C330CFB07F744EA0344A7424DD92C19B4
:100F20000CF1FF3304D2A74202D9ACF102032C44E6
:100F3000E41B43EA0040C0E7C2F12003954094401F
:100F400020FA03F12EFA03F34FEA154E9040AFB2A8
:100F50000343B1FBFEFC0EFB1C10190C0CFB07F845
:100F600041EA0041884522D969180CF1FF3004D2CA
:100F7000884502D9ACF102002944A1EB08019BB2DB
:100F8000B1FBFEFC0EFB1C110CFB07F743EA01430F
:100F90009F420ED9EB180CF1FF3104D29F4202D9C7
:100FA000ACF102012B44DB1B41EA004193E76046B0
:100FB000E3E76146F7E76046A4E76346B8E78342A4
:100FC00006D916B9002108467CE7C6E900E0F9E732
:100FD000B3FA83F78FB9834201D3724508D8BEEBC9
:100FE000020460EB030301209C461EB9002169E75F
:100FF0003846FAE7C6E9004CF8E7C7F1200CBB40D9
:101000000EFA07F522FA0CF42EFA0CF1BA401C4342
:1010100020FA0CF3B8404FEA144901431FFA84FE4A
:10102000B3FBF9F809FB18300B0C08FB0EFA43EA86
:1010300000439A4540D9E31808F1FF3004D29A459D
:1010400002D9A8F102002344A3EB0A0389B2B3FB3F
:10105000F9F809FB183308FB0EFE41EA03418E45FF
:101060002CD9611808F1FF3304D28E4502D9A8F1BA
:101070000203214443EA0040A1EB0E01A0FB0298C9
:101080004145CE46434602D306D14D4504D20138F0
:10109000B9EB020E68EB0403002EA7D0B5EB0E02ED
:1010A00061EB030101FA0CFC22FA07F3F9404CEA68
:1010B0000303C6E9003199E74046C5E74346D9E74F
:1010C00010F8012B11F8013B012A28BF9A42F7D0F2
:1010D000D01A7047034611F8012B03F8012B002AA0
:1010E000F9D17047034613F8012B002AFBD1181AD7
:1010F0000138704700000000F0B5654D8BB0D5F8A1
:101100006831996811F001011AD140F6034009AA2B
:1011100007F084FC0446002840F0B7800998C368B3
:101120001B785BB905F1D403D3E8AF2F02F00902B5
:10113000D3E8EF1FC3E8E42F002CF9D110F05EFFD5
:10114000002141F2030009AA07F068FC04460028C8
:1011500040F09B80099B4F4EDA68D2F80100D2F82C
:10116000051003C6184610F049FF214641F2010060
:1011700009AA07F053FC0446002840F0868009982D
:10118000C3685A7885F870205A88A5F872201A79B1
:1011900085F87120B3F80720A5F87420B3F805305E
:1011A000A5F8763010F02AFF214641F2020009AA84
:1011B00007F034FC0446002867D1099FFA68531CE5
:1011C0004132344618685968083303C493422646AE
:1011D000F7D1384610F012FF09F0F0FC0446002861
:1011E00053D195F88A3013F0200318D12A4A2B499D
:1011F000CDE90132009302221EF075FF95F87C3094
:1012000013F040034ED1264A1846CDE90132234956
:10121000012200931EF067FF6FF0120435E00721F2
:1012200040F6334007F0ACFB0646002800F035815D
:1012300007210C3011F026F86FF009030127037025
:101240000623C0F802408471047122464770C370BF
:10125000314640F6334007F0E1FB0446A8B9394671
:1012600040F6314007F08CFB0646002800F015815F
:1012700039460C3021F031F82246314640F63140F3
:1012800007F0CCFB04460028B8D020460BB0F0BDD8
:1012900030000020A80000203786020074420200BF
:1012A00065860200002142F2030009AA07F0B6FB9E
:1012B00004460028E9D1099BA74EDA68D2F801005C
:1012C000D2F8051003C6184610F098FE214642F2E7
:1012D000020009AA07F0A2FB04460028D5D1099C08
:1012E000E368B3F8012091B249B1D97839B1A5F8D2
:1012F0000421DA78114606F1280022F011FA20467E
:1013000010F07CFE95F87C6016F0200618D10221C2
:1013100040F66D4007F034FB0446002800F0BD8025
:1013200002210C3010F0AEFF0123214603704670FD
:10133000324640F66D4007F071FB04460028A4D108
:1013400095F89C301E0712D5002142F21C0009AA14
:1013500007F064FB0446002897D10998C368D3F8C6
:101360000120D3F80530C5E9382310F047FE95F881
:10137000D8305C062AD5022142F22E0007F000FB8D
:101380000446002800F0898002210C3010F07AFF1A
:10139000B5F8B83121460380002242F22E0007F052
:1013A0003DFB044600287FF470AF014609AA42F2D3
:1013B0002A0007F033FB044600287FF466AF099843
:1013C000C3685B7885F8203110F018FE082142F2DE
:1013D000010007F0D5FA044600285ED008210C3041
:1013E00010F050FF95F8D81040F2022311F0400F92
:1013F00008BF0323024688074CBF43F02C0043F08C
:101400000C008B0695F8D93048BF40F0400013F02F
:10141000090F95F8A23018BF40F4006003F00603EE
:10142000CF0748BF40F01000062B08BF40F4C07043
:1014300000211EF06FFE2146002242F2010007F05B
:10144000EDFA044600287FF420AF95F87C30B5F81B
:1014500004119E0624D4C9B941F2050009AA07F077
:10146000DDFA044600287FF410AFB5F80431099C7A
:101470004BB9E368B3F80120A5F804219A883748EE
:10148000114622F04DF9204610F0B8FD082140F633
:10149000014007F075FA044680B96FF06804F4E67D
:1014A0000029F3D12E4B0122CDE901032D4903463A
:1014B00000901EF018FE6FF00404E6E608210C30E0
:1014C00010F0E0FE95F8D8300246D9073AD44FF034
:1014D000005125481EF01EFE2146002240F6014024
:1014E00007F09CFA044600287FF4CFAE014609AA13
:1014F0004FF6014007F092FA00283BD01B4BCDE994
:101500000143234600940222184616491EF0EBFDC3
:1015100008F0B4FF044600287FF4B7AE0AF0BCFD23
:10152000044600287FF4B1AEEB79002B40F09E809A
:101530000F4B0322CDE901030A49034600901EF038
:10154000D2FDA2E602A1D1E90001C3E7AFF300801A
:10155000908800020080002008010020380100204F
:10156000898602007442020010880002AC860200E4
:1015700080870200099E4149F468B4F80130032BCA
:1015800096BF3F4A3F4A52F82320CDE903233E4B02
:101590000322029300231846CDE900331EF0A3FD79
:1015A000B4F80130B4F80320022B3AD1032A38D81A
:1015B000364B53F82230CDE90332354B03220293E8
:1015C00000232E491846CDE900331EF08CFDD4F8D7
:1015D000091063790791B4F80710032B0691A179DC
:1015E0004FF0000496BF2B4A264A52F82320CDE93B
:1015F0000431294B214920460392029303222346BA
:10160000CDE900441EF06FFD304610F0F7FC214696
:101610004FF6024009AA07F001FA064618B11F4B1F
:101620006DE7184BC7E709981D4CC368B3F8013044
:10163000A4F8C13010F0E2FC94F8C1305B077FF5EC
:1016400067AF31464FF6034009AA07F0E7F928B122
:10165000144B0096CDE90163334654E70998C368FB
:101660005B7884F8C03010F0C9FC51E708210E48BF
:101670001EF01DFD07F0EEFF07E600BF74420200FA
:101680004C4B0200FD800200D08602003C4B020061
:10169000E98602002C4B0200018702002E8702001F
:1016A0003000002057870200040100202DE9F0419E
:1016B00012F0FC6F1346D0E9014706690ED042498B
:1016C00040F2C733414A42481DF0CFF841481DF06F
:1016D000CCF840F2C7313D481DF0C0F802F03002AE
:1016E000302A0CD13C4940F2CA33384A38481DF000
:1016F000BCF83A481DF0B9F840F2CA31EBE7384A75
:10170000384D1A40AA420CD1374940F2CE332F4A05
:101710002F481DF0AAF835481DF0A7F840F2CE3149
:10172000D9E703F00602042A09D1314940F2D13346
:10173000264A27481DF099F840F2D131CBE713F43F
:10174000402216D09D030CD42A494FF475731F4ACA
:101750001F481DF08AF828481DF087F84FF475716E
:10176000B9E7B2F5402F18D0244A9A4301D183F447
:101770004023012524688D40254223F4801219D18D
:101780001F494FF47973114A11481DF06EF81D4836
:101790001DF06BF84FF479719DE71B494FF4767398
:1017A0000A4A0B481DF061F818481DF05EF84FF426
:1017B000767190E73468DB074CBF2C43AC43346050
:1017C0003B68BDE8F04118474B5302001A53020032
:1017D000A8530200C5530200E9530200225402003C
:1017E00002000300020001005F540200A654020040
:1017F000F5540200285502006E5502000100100049
:101800001656020054560200A9550200EA5502007D
:10181000034670B50A460068197902F4C003B3F5AF
:10182000C00F0569D0E901640ED1284940F26A333E
:10183000274A28481DF019F827481DF016F840F2ED
:101840006A3123481DF00AF863B9244940F26E3327
:101850001F4A20481DF009F821481DF006F840F203
:101860006E31EEE702F0C863B3F5800F0CD11D496D
:101870004FF45E73164A17481CF0F7FF1A481CF025
:10188000F4FF4FF45E71DCE7012336688B4033428E
:101890000CD1164940F282330D4A0E481CF0E5FF88
:1018A00013481CF0E2FF40F28231CAE7160204D569
:1018B0002D682B4218BF82F0C062A46902F0C06399
:1018C000A446BDE8704002F0B07260476656020060
:1018D0001A530200A8530200A7560200D356020072
:1018E000FD560200285702007257020016560200E9
:1018F0005456020008B54FF400110448FFF788FF62
:10190000BDE80840024817F0D9BB00BF9847020065
:10191000F002002008B54FF400110448FFF778FFEB
:10192000BDE80840024817F0C9BB00BFA04702004D
:10193000E0020020F0B505464FF4F972002187B0AF
:10194000344822F03FFA55F8044C324E2046FFF757
:10195000C9FB042823D030462F490024FFF7BAFBE7
:101960002E4B2F49032220460293CDE90044234603
:1019700003961BF0F2FB2748FFF7B4FB81B2254822
:1019800001F08EFE48B1274B0122CDE901432046EC
:101990002346234900941BF0E0FB07B0F0BD2378F9
:1019A000303B012B0BD86378303B012B07D8A37851
:1019B000303B012B03D8E378303B012B02D91A4985
:1019C0001448CAE70024194F55F8043CE0B21B5DE7
:1019D000302B10D120F0C5FFA8B1CDE90340144B46
:1019E000029300230E4901221846CDE900331BF073
:1019F000B4FB1049E4E720F0B1FF18B1CDE9034092
:101A00000D4BEDE701200134042C07F8010BDBD16D
:101A10000A49D5E760250020B75702005658020052
:101A2000FC42020067580200D057020052270020F3
:101A3000EB570200405802000B5802002A580200DF
:101A40001FB54FF0B8611048FFF7E2FE4FF0B861E4
:101A50000E48FFF7DDFE002000F048FE50B10C4BB1
:101A600003900293002301221846CDE9003309496F
:101A70001BF073FB4FF4A4720023074805B05DF818
:101A800004EB17F0D3BC00BF98470200A047020048
:101A90008E580200FC420200000000201FB5012009
:101AA00000F024FE50B10D4B03900293002301225D
:101AB0001846CDE900330A491BF04FFB4FF40011E3
:101AC0000848FFF7A5FE4FF400110748FFF7A0FEF6
:101AD000064805B05DF804EB17F028BDB7580200C2
:101AE000FC420200A04702009847020000000020CC
:101AF0002DE9F04F9D4B8FB01A782AB100229C48F7
:101B00000AA91A701BF082FD9A4817F00FFD984839
:101B100009A91BF0BDFF0546C8B1974B039002937E
:101B2000002301221846CDE9003394491BF015FB30
:101B300001F060F94FF0B8619148FFF769FE0022AB
:101B400000238C4817F072FC0FB0BDE8F08FBDF891
:101B500024408C4BC4F30804CDE90103032203465F
:101B60008649009003941BF0F8FA4FF4F972294665
:101B7000854822F027F9002CDAD07D480CA91BF00B
:101B8000AFFF58B1814BCDE90340029300230122FE
:101B90001846CDE9003379491BF0DFFA00257C4E69
:101BA0007C4F0DF13203DFF8F08133603B600DAA0A
:101BB0009DF83030DFF8E4A1C8F800200DF13602BE
:101BC000CAF800200393764B0322029328462B4643
:101BD000CDE9005569491BF0C0FA9DF83030042B5F
:101BE00000F0BD8010D8012B00F08F80022B5ED05A
:101BF00003936C4B01220293002360491846CDE900
:101C000000331BF0AAFA7EE00E2BF1D15E4F38466E
:101C1000FFF768FA33688346B3F900001CF05CFAFA
:101C2000FEF7FEFB02460B46D8F80010CDE906236E
:101C3000B1F900001CF050FAFEF7F2FB8946DAF821
:101C400000108046B1F900001CF046FAFEF7E8FBF0
:101C5000DDE90623BB44CDE90201CDE90089524903
:101C600058461AF001F8514B444903222846CDE961
:101C7000015303972B4600951BF06FFA3846FFF788
:101C800031FA81B2384601F00BFD48B1484B0122D0
:101C9000CDE9015328462B46384900951BF05DFAE3
:101CA0004FF4F9720021384822F08CF82BE0DFF86D
:101CB000D8B05846FFF716FA33680546B3F9000066
:101CC00000F064FAFEF7ACFBD8F800300646B3F932
:101CD00000000F4600F05AFAFEF7A2FBDAF80030D7
:101CE0008046B3F90000894600F050FAFEF798FBF1
:101CF00032463B46CDE90089CDE902012D495D44DC
:101D0000284619F0B1FF013C35E7DFF87CB05846B2
:101D1000FFF7E8F933680546B3F9000000F040FA30
:101D2000FEF77EFBD8F800300646B3F900000F46F8
:101D300000F036FAFEF774FBDAF800308046B3F9AB
:101D40000000894600F02CFAFEF76AFB5D44CDE9FD
:101D5000020132463B46CDE900891749D0E73B688E
:101D600016491A68084819F07FFFCCE78807002059
:101D7000D016002000000020DC580200FC420200C7
:101D8000A0470200FC58020060250020095902000B
:101D9000A416002098160020A01600209C160020F3
:101DA000C0590200B8590200915902005658020069
:101DB000C9590200425902006359020087590200C2
:101DC0002DE9F04186B0074601F082F80023054670
:101DD00090B12F4A0390029201221846CDE90033B8
:101DE0002C491BF0BAF94FF4A4720023384606B010
:101DF000BDE8F04117F094BBDFF89C8046464146B1
:101E0000A8B201F0D9F8044620B1244B0390029304
:101E10000023E1E70135042D08F10208EFD1204D40
:101E200001464FF4F972284621F0CCFF1D4B1E49A4
:101E3000DA78284605929A7804925A7803921B78A9
:101E40000293F3880193B38800937388328819F062
:101E50000BFF164B0F4903222046CDE901430395A2
:101E6000234600941BF079F92846FFF73BF981B22D
:101E7000284601F015FC0028B5D00D4B0122CDE914
:101E8000014320462346034900941BF066F9AAE764
:101E9000E6590200FC420200102500200A5A020006
:101EA0006025002052270020305A020056580200B8
:101EB0006B5A020010B52A4886B017F037FB04A908
:101EC00028481BF0A3FB0146B0B1274B03900293B7
:101ED0000023CDE900330122184624491BF03DF9C7
:101EE0004FF0B8612248FFF793FC002200231C4802
:101EF00017F09CFA06B010BD4FF4F9721D4821F09E
:101F000061FF9DF811301B4C13F0200F03D02046C9
:101F10001949FFF7DFF89DF811305B0603D5174923
:101F20001448FFF7D7F803940024154B0F490322F8
:101F300020460293CDE9004423461BF00EF90D48DC
:101F4000FFF7D0F881B20B4801F0AAFB0028C7D0F8
:101F50000C4B0390CDE9014300942346BBE700BF3F
:101F600000000020D01600208C5A0200FC42020023
:101F70009847020060250020B15A0200BE5A0200B4
:101F800056580200CB5A0200054C08B505490648D0
:101F9000712322461CF069FC712120461CF05EFC76
:101FA000F15A02005DA20200A85302007FB5384D2D
:101FB000284621F012FB034660B9364ACDE90132CA
:101FC0003549012200931BF0C8F86FF01504204634
:101FD00004B070BD04212846304AFFF767FB041E99
:101FE0000ADA2F4B0293002301221846CDE9003371
:101FF00029491BF0B2F8EAE74FF0B8612948FFF72A
:1020000007FC041E01DA284BECE72849284BAE6890
:102010004B6010238B60F36963B9264B0293002356
:1020200001221846CDE900331B491BF096F86FF0EA
:102030000404CCE70122284698470028EDDB284617
:1020400021F0CBFA034608B91B4AB7E70521284619
:10205000124AFFF72BFB041E01DA184BC2E74FF0C0
:10206000B8611748FFF7D4FB041E01DA154BB9E736
:102070001549164B4B6020238B60F3690BB9144B49
:10208000CCE70122284698470028A0DAF7E700BFEE
:10209000E03E0200FF5A0200FC4202002000010064
:1020A000255B0200A0470200465B0200B416002038
:1020B00015190000635B0200845B0200A95B02004B
:1020C00098470200C95B0200A8160020F51800001E
:1020D000E55B02001FB512F04FFC044660B1224BD5
:1020E000039002930023CDE90033012218461F49D3
:1020F0001BF033F8FFF748FFFFF758FF30B11C4BD8
:102100000390CDE9014300942346EEE700F0B2FBD3
:102110000028EFD100F092FE0028EBD1012000F062
:10212000E5FA0028E6D14FF400111248FFF770FBE2
:102130004FF400111048FFF76BFB104A104911488B
:1021400001F01AFA03460028D4D10F4A0749CDE915
:102150000102009003221BF000F84FF0FF314FF016
:10216000FF3018F027FBF8E7055C0200FC42020094
:10217000205C0200A047020098470200980200205D
:102180009D1A0000411A0000455C020008B5FEF7E8
:102190008BFC0249FEF7DCFC08BD00BF23DB793D68
:1021A00008B5FEF781FC0249FEF7D2FC08BD00BF6E
:1021B00000008C4270B58CB001260025CDE90923C2
:1021C00007238DF817100DF11701069107968DF86A
:1021D00020508DF82C300B480222836806A99C6899
:1021E0006A23A047044650B1074B0390CDE9015341
:1021F00032462B462846054900951BF0FDFF204638
:102200000CB070BD883F0200735C02000443020002
:102210002DE9F0476B480D468AB0002117461E464F
:102220001BF040F8044610B1674B039410E01E23E6
:102230000146F6B2634807AA8DF81C308DF81D5090
:102240008DF81E601BF034FE044620B15F4B0390F6
:102250000293002324E001465A481BF097FD0446F0
:1022600010B15B4B0390F3E7012156481BF0B1FD21
:10227000044610B1574B0390EAE7082151481BF080
:1022800011F8044610B1544B0390E1E74D4808A9FA
:102290001BF059FB0023044650B1504A03900292B0
:1022A00001221846CDE900334D491BF0A5FF2FE070
:1022B0000546DFF81091DFF82CA1DFF82481142007
:1022C0001BF0A9FF484605A91BF02AFB044610B1E4
:1022D000454B0390BCE79DF8143013F001031BD16C
:1022E000424A0135CDE90132414603220093EDB265
:1022F0001BF082FF322D17D13D4B012202930023A8
:1023000037491846CDE900331BF076FF6FF07304B0
:1023100020460AB0BDE8F087034603224146CDE9D6
:10232000010A00901BF068FF9DF81430DA07C6D54B
:10233000DFF89090DFF8BCA0DFF8A480484606A93B
:102340001BF0FBFD044610B12B4B039080E79DF87A
:10235000183013F0010318D1284A0135CDE90132B4
:10236000414603220093EDB21BF046FF322DC3D04D
:102370009DF81830DB07E1D5002112481BF029FD3C
:10238000044658B11E4B039062E7034603224146C0
:10239000CDE9010A00901BF02FFFE9E7014609484B
:1023A0001AF080FF044600287FF43EAF32463946DB
:1023B00004481BF0D6FC04460028A9D0114B03901A
:1023C00046E700BFD01600208D5C0200B35C02001F
:1023D000CF5C0200F55C02001A5D02003B5D02006A
:1023E00004430200B05D0200615D02007F5D0200F7
:1023F000985D0200FA5D0200C15D0200DF5D02002F
:102400000D5E0200335E02002DE9F04113781E22BA
:102410008AB08DF81D105C4807A98DF81C208DF836
:102420001E301BF0F9FC044620B1584B0390029378
:10243000002324E0014654481AF034FF044610B14A
:10244000534B0394F3E701214F481BF0C2FC0446B1
:1024500010B1504B0390EAE708214B481AF022FFD5
:10246000044610B14C4B0390E1E7474808A91BF024
:102470006AFA0023044650B1484A039002920122AE
:102480001846CDE9003346491BF0B6FE2DE005465F
:102490003D4FDFF81081424E14201BF0BCFE384641
:1024A00005A91BF03DFA044610B13F4B0390BEE76F
:1024B0009DF8143013F001031BD13C4A0135CDE9DE
:1024C0000132314603220093EDB21BF095FE322D0E
:1024D00017D1374B01220293002331491846CDE929
:1024E00000331BF089FE6FF0730420460AB0BDE88C
:1024F000F081034603223146CDE9010800901BF02C
:102500007BFE9DF81430DA07C6D51F4FDFF8A48094
:10251000234E14201BF07FFE384606A91BF00DFD4C
:10252000044610B1244B039081E79DF8183013F056
:10253000010318D1214A0135CDE901323146032288
:102540000093EDB21BF058FE322DC2D09DF818302A
:10255000DB07DED500210C481BF03BFC044658B1DC
:10256000174B039063E7034603223146CDE9010888
:1025700000901BF041FEE9E7014603481AF092FE85
:1025800004460028B1D05BE7D0160020535E02005D
:102590008D5C0200F55C02001A5D02003B5D0200EA
:1025A00004430200B05D0200615D02007F5D020035
:1025B000985D0200FA5D0200C15D0200DF5D02006D
:1025C0000D5E020010B58AB08DF814100021C8B25B
:1025D000984201F101041ED301339BB208930223F8
:1025E00005AA07928DF824300F480122836807A9B5
:1025F0009C686A23A047044650B10C4B0390029399
:10260000002301221846CDE9003309491BF0F4FDEF
:1026100020460AB010BD00F12801105C694401F8A1
:10262000130C2146D3E700BF883F0200705E020012
:102630000443020070B588B005910146244816464F
:102640001D461BF081FC044668B1224B03900293A7
:10265000002301221846CDE900331F491BF0CCFDB1
:10266000204608B070BD059919481BF090FC04463F
:1026700010B11A4B0390EAE7314615481BF0D5FC20
:10268000044610B1164B0390E1E7294610481BF0B1
:10269000DFFC044610B1134B0390D8E7012D08BFAF
:1026A0009DF81D300A4804BF43F040038DF81D30EB
:1026B0009DF81D3007A943F020038DF81D301AF056
:1026C00028FF04460028CBD0074B0390BFE700BF8C
:1026D000D0160020855E020004430200A85E0200BE
:1026E000CB5E0200F15E02000E5F020030B580F0AA
:1026F000010585B0002854D04FF000014D481AF074
:1027000045FE044668B14C4B03900293002301221E
:102710001846CDE9003349491BF06EFD204605B04F
:1027200030BD014643481BF085F9044610B1444BC7
:102730000390EAE74FF0000160F382013D481BF08F
:1027400003FC044610B13F4B0390DEE701463948D5
:102750001BF03FFB044610B13B4B0390D5E7002133
:102760000A2018F027F8214632481AF0C9FD04461D
:1027700010B1364B0390C8E701462E481AF092FD7F
:10278000044610B1324B0390BFE72946314803F0AD
:102790006DFB041EC2DA14F1780FBFD02E4B0394E8
:1027A000B3E729462B4803F061FB041E02DA14F15B
:1027B000780FF3D108211F481AF074FD044610B1B8
:1027C000264B0390A1E708211A481AF099FD044608
:1027D00010B1234B039098E7002140F63E2017F0FC
:1027E000E9FF012113481BF0F4FA044610B11D4B18
:1027F00003908AE701210F481BF01CF9044610B131
:10280000194B039081E74FF004010A481BF09CFB31
:10281000044610B1154B039077E74FF001010548CE
:102820001AF0B4FD044600283FF478AF104B039033
:102830006BE700BFD0160020375F020004430200A0
:102840005F5F0200855F02000D5E0200AC5F020068
:10285000CA5F0200883F0200E85F020010600200C9
:1028600032600200546002007A6002009C60020044
:10287000C26002002DE9F043AD4BAE4D89B02B6034
:10288000AD4B6B60AD4BAB60AD4820F0A6FE034690
:10289000A8B10A201BF0BFFC002128461AF0DEFC7C
:1028A00000281ADAA74B012202930023A6491846F2
:1028B000CDE900331BF0A0FC6FF0040409E0A34A4B
:1028C000A149CDE90102009001221BF095FC6FF0B7
:1028D0001204204609B0BDE8F083284604A91AF086
:1028E000DAFC044650B19A4B012202930023964928
:1028F0001846CDE900331BF07FFCEAE79DF8103065
:1029000003220393934BCDE9000002938E490346C3
:1029100006461BF071FC9DF81030702B0CD08E4BCE
:102920002046CDE9014300942346012286491BF04D
:1029300063FC6FF01504CCE7042128461AF032FC42
:10294000044658B1854B0390CDE9016333460096A8
:10295000012218467C491BF04FFCBAE70746DFF816
:102960000092DFF8E48128460DF111011AF04DFCC8
:10297000044630B17B4B039002930023CDE9003332
:10298000E6E79DF81130CBB1774B0137CDE9010374
:102990000322034641460090FFB21BF02DFC322F6C
:1029A00013D1724B2046CDE9014300942346012206
:1029B00065491BF021FC6FF073048AE7032241464E
:1029C000CDE9013900931BF017FC9DF81160002E32
:1029D000C9D1012157481AF0C2FC044610B1644B1A
:1029E0000390B1E7634F644B38467B60634B0DF156
:1029F00012013B601BF0D4FB044660B1604B012226
:102A0000CDE90163304633464F4900961BF0F4FB95
:102A10005C4B0394B0E79DF81230032203935A4BAA
:102A20004949CDE90103009003461BF0E5FB9DF801
:102A30001230402B0CD0554B2046CDE90143009479
:102A40002346012240491BF0D7FB6FF01504DFE756
:102A5000012138461BF0ABFB044658B13F4B0390B5
:102A6000CDE90163334600960122184636491BF032
:102A7000C3FBCDE70120002117F09CFEDFF8109189
:102A8000DFF8C48038460DF113011BF0A7FB0446A4
:102A900030B1344B039002930023CDE90033E3E7D8
:102AA0009DF81330CBB13B4B0136CDE90103032236
:102AB000034641460090F6B21BF09EFB322E13D126
:102AC0002A4B2046CDE901430094234601221E49AA
:102AD0001BF092FB6FF073049AE703224146CDE9A5
:102AE000013900931BF088FB9DF81350002DC9D1CC
:102AF000012120481BF03DFB044630B11C4B0390E4
:102B0000CDE9015300952B46AEE7012119481BF092
:102B100019FB044610B1204B0390F1E7014615481C
:102B20001BF0E2FA044600283AD01C4B0390E7E77A
:102B3000C5250000D0160020B521000017E20100D5
:102B4000883F0200FB60020004430200E9600200CB
:102B500013610200366102004D61020065610200EE
:102B6000D061020088610200AD610200985D020040
:102B7000EB610200C01600201122000009240000B1
:102B80000662020072650200266202003A620200DA
:102B90006F6202004F62020087620200A6620200BA
:102BA00003217B481BF0B7FA044610B1794B039020
:102BB000A6E7102178481AF0E5FE044610B1774BDD
:102BC00003909DE7012174481AF0EFFE044610B10E
:102BD000734B039094E708216F481AF0FDFE0446FA
:102BE00010B1704B03908BE708216B481AF00BFF74
:102BF000044610B16C4B039082E7012166481AF03D
:102C000030FF044610B1694B039044E7012162484C
:102C10001BF035FA044610B1654B03903BE70146C3
:102C20005D481AF007FF044610B1624B039032E78B
:102C30004FF00D0158481AF0ECFF044610B15E4BFE
:102C4000039028E7012154481BF074F8044610B1A2
:102C50005A4B03901FE704214F481BF054F80446D9
:102C600010B1574B039016E701214B481BF034F885
:102C7000044610B1534B03900DE7042146481BF066
:102C800014F8044610B1504B039004E70146424843
:102C90001AF008FB044610B14C4B0390FBE646F6D5
:102CA0001E03ADF818300623014606AA3A488DF8EF
:102CB0001A301BF0FDF8044610B1454B0390EAE6CC
:102CC0000146012234481AF079FF044610B1414B05
:102CD0000390E0E6062130481BF0C7F8044610B127
:102CE0003D4B0390D7E601462B481BF04FF80446B6
:102CF00010B13A4B0390CEE6012127481BF069F84A
:102D0000044610B1364B0390C5E69DF814302248B6
:102D100043F0400305A98DF814301AF094FB0446E3
:102D200010B1304B0390B6E60322BDF814304FF0DB
:102D3000000023F4F85323F01F03ADF814309DF87E
:102D4000163062F304038DF816304FF07F02012332
:102D50000599FFF76FFC044610B1234B03900BE677
:102D600001460D481AF058FB044610B11F4B039062
:102D700002E6042108481AF038FB044610B11C4B47
:102D80000390F9E506A904481AF040FCA1E500BF4C
:102D9000C0160020CE620200D0160020EF620200B2
:102DA000136302003F630200626302008563020056
:102DB000AF630200CE630200ED63020017640200FD
:102DC0003A6402006664020089640200B56402008D
:102DD000DC640200FD64020021650200CF5C020099
:102DE00054600200436502009C650200C865020051
:102DF000EB6502001FB500210D481AF01BFE0446CA
:102E000058B10C4B0122029300230B491846CDE91F
:102E1000003303941BF0F0F906E0012104481AF096
:102E200009FE04460028ECD1204604B010BD00BFC6
:102E3000D0160020CE6302000443020070B50026C5
:102E40001E4D86B055F8060C20F0C7FB034690B91E
:102E5000142272431A496FF012048A5819491268F1
:102E600000900392184ACDE9010201221BF0E3F918
:102E7000204606B070BD15F8013CA3B155F8060C0C
:102E8000836829461B689847041E0FDA0F4B0122FE
:102E900002930023CDE903641846CDE900330949C4
:102EA0001BF0C9F9E4E76FF08504EFE70136042E63
:102EB00005F11405C6D10024DAE700BFAE470200D1
:102EC000A84702002C420200196602003C6602007C
:102ED0002DE9F04F8DB01422002107A820F072FFD9
:102EE0000DF11A030993022300240A932B4B0322AA
:102EF000029320462346CDE9004429491BF09BF963
:102F0000284DDFF8A480DFF8A4A0254FDFF8A090BB
:102F100095F804B02E68CDF810B033680322CDE9DF
:102F200002A3002339461846CDE900331BF083F98C
:102F30006B794BB1012303FA0BF308932B7C8DF8CB
:102F40002C306B7C8DF82D30B36830465B6807A958
:102F50009847061E0EDA174B0122029300231049F0
:102F60001846CDE9003303961BF065F930460DB0E5
:102F7000BDE8F08FBDF81A30032228F8023BCDE9F6
:102F80000293002339461846CDE9003301341BF083
:102F900052F9042C05F11405BAD1E7E75D66020089
:102FA0002C420200A8470200182500206966020092
:102FB000906602007C66020030B503280D464FF093
:102FC000000485B006D80A4B33F8103020462B8019
:102FD00005B030BD074B2046CDE901430122234611
:102FE000054900941BF027F923466FF01500EEE722
:102FF00018250020976602002C4202001FB50C46DF
:10300000F1B9134B0322CDE9011320460B46009181
:1030100010491BF01FF9104B18681EF061FC0F4B94
:103020000338C0B218700E4B0390CDE9014323461C
:1030300000940222184607491BF00CF904B010BD99
:10304000084B039102930023CDE90033F1E700BF61
:10305000BB66020034420200E816002076270020FA
:10306000CF660200E666020030B500240C4B85B046
:103070000C4D20460391029303222346CDE90044E0
:1030800009491BF0E7F8286828B108F077FA0748E3
:103090002C6016F013F80022054B1A7005B030BDF5
:1030A00005670200E816002034420200EC160020FA
:1030B000742700202DE9FF410F469046224B1D68E2
:1030C0002E687EB9214B02220393214B3046CDE975
:1030D000016320493B46CDF800801BF0BBF804B0EB
:1030E000BDE8F0813046FDF7FDFF4045024629D896
:1030F0003946304620F0F3FC044618BB164B032239
:10310000CDE9010313490346009003961BF0A2F892
:103110002868FDF7E7FF39186868FDF7DBFF6B6883
:10312000204603930D4B0322CDE901430949234671
:1031300000941BF08FF805F1080004B0BDE8F041E1
:1031400015F0BCBF1835BBE7E4160020406702004D
:1031500064580200344202001E6702002F6702001A
:1031600010B5084686B0CDE904230C46FDF746F9B4
:1031700000220B4BFDF7ACF9FDF7BCFB094B03221A
:10318000029300230390CDE90033184606491BF053
:1031900061F80F2C02BF0122044B1A7006B010BD5B
:1031A0000000F43F556702003442020074270020FB
:1031B00000B5CB8889B006938B88032205934B8892
:1031C00004930B8806490393064B02930023184689
:1031D000CDE900331BF03EF809B05DF804FB00BFF9
:1031E00034420200966702001FB503460C4A60B9DC
:1031F000012111700B4A0C49CDE901020322009014
:103200001BF028F805B05DF804FB00231370074A93
:103210001846CDE90132044903220093F0E700BFCC
:1032200075270020D867020034420200E5670200DB
:1032300030B58BB01DF0ECFA0378044607AD032BD4
:1032400021D8DFE803F0021A1C1E12492846FDF7B8
:1032500041FFA379059562781E210492A2780E4859
:103260000392E278029222790192627900920B4AEB
:1032700018F0CEFC08480BB030BD0949E6E7094913
:10328000E4E70949E2E70A212846084A18F0C0FCA9
:10329000DFE700BFF3670200562700201568020031
:1032A000FA670200016802000B6802009A9F0200A0
:1032B00010B586B00C46FFF7BBFF074BCDE9030402
:1032C0000293002303221846CDE9003303491AF084
:1032D000C1FF06B010BD00BF3868020034420200D2
:1032E00010B586B00C46FFF7A3FF074BCDE90304EA
:1032F0000293002303221846CDE9003303491AF054
:10330000A9FF06B010BD00BF5B6802003442020096
:103310001FB5FFF78DFF074B039002930023032295
:103320001846CDE9003304491AF094FF05B05DF862
:1033300004FB00BF7D6802003442020010B586B075
:103340000C46FFF775FF074BCDE9030402930023FA
:1033500003221846CDE9003303491AF07BFF06B07B
:1033600010BD00BF936802003442020030B514461D
:1033700087B00D46FFF75CFF6CB90E4BCDE9030536
:10338000CDE901430322234620460B4900941AF05D
:1033900061FF07B030BD094B039002930023032265
:1033A0001846CDE90454CDE9003303491AF052FF21
:1033B000EFE700BFA868020034420200C6680200BE
:1033C0007FB50B78042B96BF0C4A0D4B52F8233077
:1033D0004A78042A96BF0949094A51F82220094926
:1033E000CDE90332084B0322029300231846CDE9AE
:1033F00000331AF02FFF07B05DF804FBF847020016
:10340000EA68020034420200F268020030B5054664
:103410000C4687B061B1474B039102930023012210
:103420001846CDE9003344491AF014FF07B030BD07
:10343000424B0322CDE9011320460B4600913E4941
:103440001AF008FF284608F071F83D4D3D4B3E4903
:103450001C7028601DF032FA0346002857D03B4B01
:103460000390CDE9014301222346204632490094CE
:103470001AF0F0FE00214FF4804017F09BF9344B16
:10348000344928680B600BF08FFF0346002847D0B3
:10349000314B03900293002302221846CDE90033FA
:1034A00025491AF0D7FE00214FF4804017F082F929
:1034B0002A4B286805A905931DF0ACF950B1284B9B
:1034C00003900293002301221846CDE900331A49E4
:1034D0001AF0C0FE00214FF4804017F06BF9214B29
:1034E000286805A905931DF0A5F950B11E4B03905E
:1034F0000293002301221846CDE900330E491AF049
:10350000A9FE1A4807B0BDE8304015F0D7BD184AEB
:103510000949CDE90102009003221AF09BFEA9E7B8
:10352000144A0549CDE90102009003221AF092FEE7
:10353000B9E700BF18690200344202003369020093
:10354000E816002074270020140700203D690200BF
:10355000FD2F0000E016002091690200FB00904260
:10356000C369020000000202EC690200FC160020A0
:103570006A690200AE690200F0B5154684460F463E
:10358000374C384B8DB094E807001D6004AE07AD92
:103590000C3486E807000FCC0FC52368614632481B
:1035A0002B6015F0C5FC3946304815F0C1FC304899
:1035B00008F07CFB2F4808F041FD044660B12E4B1B
:1035C0000293002301221846CDE900332B491AF05B
:1035D00041FE20460DB0F0BD294808F049FD0446E3
:1035E00008B1284BECE706F0BBF8044658B1264B6F
:1035F000039002930023CDE90033012218461F49AE
:103600001AF028FEE5E7214B03221C4902930190A2
:1036100003460090054607461AF01CFE1BF077FE95
:10362000304602F039FF044630B1194B0390CDE922
:10363000015300952B46E0E701250222154B164960
:10364000009507A807F058F904460028C1D0134B8D
:103650002A46CDE9017303903B460097CEE700BFB1
:1036600010440200E4160020FC160020EC16002096
:1036700000030020340300200A6A020034420200E2
:1036800024030020366A0200676A0200936A02007F
:10369000A96A02000C48020014480200D76A02001E
:1036A00070B50D46064686B000B171B92A4B0122AD
:1036B0000293002329491846CDE900331AF0CAFDC8
:1036C0006FF01505284606B070BD254B1B78002B02
:1036D0003FD0244B1B78002B31D0234B1B788B42DF
:1036E0000DD2CDE90313214B0222029300231B4983
:1036F0001846CDE900331AF0ADFD0025E2E70024BD
:103700001B4B022220460391029314492346CDE924
:1037100000441AF09FFD2A463146204602F0C8FEBA
:1037200005460028E9D0134B0390CDE9014301225F
:1037300023462046094900941AF08CFDC2E70E4A40
:10374000CDE9013218460222044900931AF082FDA5
:10375000D3E70A4AF4E700BFFF6A020034420200DE
:103760007527002074270020762700201F6B020099
:10377000506B0200636B0200966B0200BB6B020091
:1037800010B5094C0A44914200D110BD11F8013B1B
:1037900058400309E35C0001C0B243401809205CB3
:1037A0001B01DBB25840EEE7056C02002DE9F04F3B
:1037B00091B0009302F004030293C2F3C2030133F9
:1037C000840705460E46DDF868800392059340F0B5
:1037D000F681041D30B1072909D86FF01B0011B024
:1037E000BDE8F08F01F00706341DC6F108064FF062
:1037F00000094FF0040B009B4F46013B01934FF033
:10380000FF324B46DA46CDF810900DB10099216099
:103810000598002800F3D78098480099814203D387
:1038200097488142C0F0CF800399A4EB050E890729
:103830004FEA9E0040F1E2804FF0000CCCE07A2885
:103840005AD84B280CD8472856D829282AD82528B2
:1038500051D051D8202877D023384342434173E0D8
:103860004C382E2848D8DFE800F06F4747474747D5
:1038700047474747474749474747474747474759C4
:103880004749495959596F496C476F471849184773
:1038900047807D49474749477D00002000234FF07E
:1038A000040B39E001212A38C0B201FA00F010EA15
:1038B0000E0F49D110F0625C30D110EA010343D001
:1038C0006046013C5C44B4FBFBF40BFB04F4002DAC
:1038D00060D0AAEB050CA4446645FFF47EAF002837
:1038E0006AD1BAF1040F45D158F8040B20604FF0AB
:1038F000040A043428E0013A002325E0019B13F870
:10390000013C6C2B33D10020019B13F8023C6C2B43
:103910000346C4D14FF0080BDA46D2E708F1070896
:1039200028F00708073424F00704F8E802AB35B1A3
:1039300006982044B0423FF650AFC4E900AB0023E4
:1039400008344FF0080BDA46019911F8010F019184
:10395000002800F0BC80002B7FF471AF2528F3D144
:10396000012301324FF0040BEDE7184696E70020E3
:103970000346A6E7BAF1080F40F09B8008F107085C
:1039800028F00708F8E80201C4E900014FF0080A2E
:103990000834D9E780B9BAF1040F02D108F104085C
:1039A000A5E7BAF1080F40F0848008F1070828F075
:1039B000070808F10808E9E705990139059158F861
:1039C000041B009121E7039988074AD54FF0010CA9
:1039D000A4EB050E4FEA9E00BEF5007F1ED32949D9
:1039E00040F27B23284A29481AF03FFF28481AF062
:1039F0003CFF40F27B2124481AF030FF0F2F0FD8F4
:103A0000002D49D007F140010DEB010C0CF8200C02
:103A10000CF8102C04980130049021E00F2F0CD9E1
:103A200018494FF42073184A18481AF01EFF194815
:103A30001AF01BFF4FF42071DDE7CDB107F1400113
:103A40000DEB010EC0B20EF8200C0EF8102CBCF1DC
:103A5000000FDFD060F07F000EF8200C09F10109A3
:103A60000137C5F108014FF6DA7E043406916BE7A1
:103A7000BCF1000F10D00136F2E700BFF83D0200A4
:103A8000BCCB02006C550200156C0200A85302006A
:103A9000436C0200646C0200029802360028DFD1F9
:103AA0000098CDE90632FDF71DFBDDE9063206443C
:103AB000D6E740F2C523434A434944481AF0D5FEAD
:103AC000514643481AF0D1FE40F2C52193E7631BEB
:103AD000B3F5806F0CD33C4940F2D123394A3B48BF
:103AE0001AF0C3FE3B481AF0C0FE40F2D12182E733
:103AF0001DB9A6F10804E01871E6029A9B08286037
:103B00002B709DF81030C2B1EB7085F80290B9F1BE
:103B1000000F05D0002208A8C5F1010C97420ED174
:103B20004FF0000AC5F101030DF1200801930DF1DA
:103B3000300B574512D1601B51E66B70E5E710F86A
:103B4000013B190608D504EB0C0E764503F07F0304
:103B5000FFF443AE04F8013B0132DFE7B9F1000F97
:103B600003D098F90020002A17DB029BD3B11AF882
:103B70000B2004F8012B0022019B98182044864258
:103B8000FFF42BAE98F80000009904F8010B2046D2
:103B9000039220F0F0F8039A14440AF1010A08F1A4
:103BA0000108C6E798F8002055F822300093029BE0
:103BB000009845F82230FDF795FA421CDCE76FF0DB
:103BC0000D000CE6156C02006C550200A8530200B3
:103BD0007E6C0200936C0200014B1860704700BFBE
:103BE0004C03002080B505460E461746984616F051
:103BF00015FE034620F0F6F80446DFF8189042461A
:103C000049F8003039463046A84754F8090003F017
:103C100085FC00BF08000000F8B50F4600293BD026
:103C20000668012230461AF017FC01460446304669
:103C30001AF0DAFBC3070DD4AF23184A1849194804
:103C40001AF013FE394618481AF00FFEAF21134838
:103C50001AF004FE214630461AF0DCFB25182946EE
:103C6000002230461AF0C0FB2D1AAC420BD0B7230D
:103C70000A4A0E490B481AF0F8FD39460C481AF06A
:103C8000F4FDB721E3E7214630461AF0C9FB21468F
:103C9000BDE8F8401AF005BDF8BD00BFBB6C0200DE
:103CA000DC6C0200A8530200ED6C0200256D0200DE
:103CB0004B6D02002DE9F8430F4606681446B268C2
:103CC0004B1EB2F5004F34BF042108213B4010D0F9
:103CD000C7F1000909EA0709494503F1FF3028BF88
:103CE000494618420CD11F46DCB900252846BDE8DC
:103CF000F8838F4213D82146BDE8F8431AF013BD6C
:103D00002E494FF4A2732E4A2E481AF0AEFD2E48CB
:103D10001AF0ABFD4FF4A27129481AF09FFD9946A5
:103D2000E2E7B2EBD40FE0D9E319591A10461AF0C2
:103D30009DFB014630461AF0F3FB80460028D4D0A4
:103D4000B36809EBC005B3F5004F34BF0423082363
:103D50001D4435447B1E1D44B5FBF7F57D43A5EBA3
:103D60000905294630461AF077FB2C44073424F025
:103D70000704A41B804507464FEAE40408D2024624
:103D8000414630461AF006FC414630461AF047FCE0
:103D9000394630461AF03EFB3844844208D2394650
:103DA000304622461AF0F6FB214630461AF037FC20
:103DB0000122394630461AF033FB97E7876D02003F
:103DC000BB6C0200A8530200A26D0200B2F5802F66
:103DD0002DE9F04110D2042A28D843494FF4F97351
:103DE000424A43481AF041FD42481AF03EFD4FF462
:103DF000F9713E481AF032FD0823D21ACC1D114445
:103E000024F0070421F00701091B17294FEAD10606
:103E10000ED8394940F2FB13344A35481AF025FDD3
:103E200034481AF022FD40F2FB11E2E70423E4E7F4
:103E30000027046031463046A660E7601AF01FFB99
:103E40000121421D804630461AF010FB9200D51D1C
:103E5000ED082844B0423AD8B8F1FF3F3946A2F104
:103E6000100204F11000B8BF3A461FF0ABFF2A461B
:103E7000394620461AF0ECFA3B463A463946204687
:103E80001AF0BDFAA6EB05082046394601221AF0C1
:103E9000C7FA424629461AF0DBFA2B463A4629462B
:103EA00020461AF0ACFA314620461AF0D1FA4346C1
:103EB0003A46314620461AF0A2FA314620460122FF
:103EC0001AF0AEFA2946BDE8F0411AF0A8BB0B493A
:103ED0004FF40373054A06481AF0C7FC05481AF068
:103EE000C4FC4FF4037184E7BF6D0200BB6C020099
:103EF000A8530200E06D0200F96D0200226E02007C
:103F00002DE9F84F0446A38B08461907154612D42D
:103F1000022803F0070164D120461AF036FC88B16C
:103F20000138042800F23481DFE810F05B00320130
:103F30008100D100010101280CBF43F0100143F0C2
:103F40002001A1831434204614F0AEFA002840F07A
:103F50009B819849F023984A98481AF086FC21469C
:103F6000B0E003F00702501F01281ED80020062AE7
:103F70002768C4E9000014D13A4603E0E08B013021
:103F8000E0831268002AF9D123F0070343F002020C
:103F90002046A2831AF0F9FB90B342F02002A283DC
:103FA0002EE023F007039AB2F2E7042A33D123F07C
:103FB00007039AB22046A2831AF0E7FB10B142F041
:103FC0002002A283A38B03F00709894540F0EA8011
:103FD000A18BCA0640F14F8121F01003A38301F0A9
:103FE0000701D4F81880A38BB8F1000FB9DA0022CA
:103FF000276823F00703C4E9002243F00103A383E9
:10400000A38B03F00709894540F0CD80002FDFD056
:104010000026B24644E06A4940F21B13694A6748E9
:104020001AF023FC40F21B1166481AF017FC49B144
:1040300065494FF4AB73634A60481AF016FC4FF4BD
:10404000AB71F1E723684BB9604940F257135D4A01
:104050005A481AF00AFC40F25711E5E723691E6836
:104060004EB95B494FF4AD73564A54481AF0FDFB04
:104070004FF4AD71D8E70F4688464FF00609A38B81
:1040800023F0070343F006039BB2A383A268002A30
:1040900040F08B80002F40F08B80002E98D0BA46E5
:1040A00043F0080304F1140B5846A38314F0FCF901
:1040B000002840F097803F49F0233F4A3F481AF0DC
:1040C000D4FB594643481AF0D0FBF021AEE0022958
:1040D00009D0414940F25D133A4A38481AF0C5FB0D
:1040E00040F25D11A0E7E78B4FB13C494FF4AF734D
:1040F000344A32481AF0B9FB4FF4AF7194E72369A0
:104100005E684EB9324940F261132E4A2B481AF0CC
:10411000ACFB40F2611187E7A38BB84623F007039D
:1041200043F004039BB24FF00409A383AEE70129D7
:1041300009D02B494FF4B273224A20481AF095FB5C
:104140004FF4B27170E723684BB9204940F2651310
:104150001C4A1A481AF089FB40F2651164E723698A
:104160009E684EB91A494FF4B473164A13481AF0B0
:104170007CFB4FF4B47157E70027A38BB84623F0BC
:10418000070343F005039BB24FF00509A3837DE7C6
:104190000B4940F26B130B4A08481AF066FB40F2D9
:1041A0006B1141E70027002670E74FF0010A77E71F
:1041B000924675E71D6F0200F06E0200A8530200E0
:1041C0006C5502004D6E02006F6E02007B6E0200A5
:1041D0009E6E0200346F0200B56E0200CB6E0200CC
:1041E000DA6E020085F31188BFF36F8FBAF1000F0A
:1041F0001ED1002F2FD116B120462649B0474FF0CF
:104200002003EFF3118583F31288BFF36F8F5846B5
:1042100014F03CF938BB72231F4A204920481AF099
:1042200024FB59461F481AF020FB72211A48FCE66D
:10423000A1680029DDD00D680029DAD043464A463E
:104240002046D1F804A0D0471DB12B6829461D4651
:10425000F2E72B46FAE7394643464A4620463F688E
:104260001AF0BFFAC5E7584614F02CF9A38B23F0D7
:104270000803A383ACE68B067FF564AE21F0200330
:10428000A38301F0070147E685F31188BFF36F8F21
:10429000BDE8F88FA9420000F06E0200496F0200ED
:1042A000A85302005E6F0200F8B504460D4600F107
:1042B00014064FF02003EFF3118783F31288BFF346
:1042C0006F8F304614F0E2F868B972230B4A0C493C
:1042D0000C481AF0CAFA31460B481AF0C6FA722195
:1042E00006481AF0BBFA304614F0ECF8A5613A46DD
:1042F0002046BDE8F8400121FFF702BEF06E020043
:10430000496F0200A85302005E6F02002DE9F047DA
:1043100004460F461AF055FA051E67DB04F114092E
:104320004FF02003EFF3118A83F31288BFF36F8FEE
:10433000484614F0ABF8804660B97223374A3849D2
:1043400038481AF092FA494637481AF08EFA722124
:10435000324840E0484614F0B5F84FF6FF72E38B60
:10436000A68B934206F0070643D0022E13D13546A2
:104370000133E383484614F097F800283FD1F02337
:10438000264A2A4927481AF070FA494628481AF05E
:104390006CFAF021DCE7062E13D8DFE806F0092DD1
:1043A0001212090409006FF085054FF00008E1E7DB
:1043B00000233B60636883B9C4E9007786B1354662
:1043C000F3E71C4917484FF4E4731B4A1AF04DFAFF
:1043D0004FF4E47118481AF041FA1F606760EDE786
:1043E000524602212046FFF78BFD35462846BDE8A0
:1043F000F0876FF00A05D8E76FF00405D5E78AF378
:104400001188BFF36F8FB8F1000FEFD00023324651
:10441000394620461AF0E5F9E8E700BFF06E0200E1
:10442000496F0200A85302005E6F02001D6F020078
:10443000346F0200DA6E02004D6E020008B5426869
:10444000034602F00302022A81600AD0032A4FF0D9
:10445000000103D0012A0AD1596006E018685960AA
:1044600008BD186800225A6058B90020F8E70649CC
:1044700006484523064A1AF0F8F9452104481AF07F
:10448000EDF917F04BF9F0E76C550200A853020064
:10449000746F020008B543090DD0012B1CD01349DD
:1044A000134840F22F33134A1AF0DFF940F22F314C
:1044B00010481AF0D3F94FF0FF33C340DA07EED5B6
:1044C0000D4B03EB8003D3F8002222F0E04242EAD6
:1044D0000171C3F8001208BD4FF6FF7300F01F0012
:1044E000C340DB07DBD5054BEBE700BFCA6F02001B
:1044F000A8530200976F02000025845000288450C2
:1045000038B50124134B144DC3F800450223032191
:10451000C5F8D0360020FFF7BDFF20460321FFF786
:10452000B9FFC5F804472146C5F804492120C5F85C
:10453000004BFFF7AFFF21462020FFF7ABFF2146DE
:104540000B20FFF7A7FF21460A20FFF7A3FF00205B
:1045500038BD00BF001000500040005007B50DF1FD
:1045600007001EF00FFA114B98421CD14FF48062E5
:104570000F4B1049C3F8B8254FF40062C3F83C252F
:104580009DF8070010F0A8FB0B499DF8070010F0FC
:104590008BFB01209DF80730984010F079FB00203C
:1045A00003B05DF804FB6FF00B00F9E70000AD0B02
:1045B00000A002502CA0025028A10250052370B583
:1045C000144D154E2C780134B4FBF3F303EB830345
:1045D000E41A1EF0AFF9114A137823B156F82430CB
:1045E000C01A072814D94FF05023D3F8141141B141
:1045F0000021C3F81411D3F814312C700CB9012325
:1046000013702C781EF096F946F82400012070BD36
:104610000020FCE7782700200C17002077270020D7
:1046200048B1054B054A1B68B3FBF2F35843044BF2
:1046300043F0010318477047F405002040420F0083
:10464000004502007FB50BAB05930393054B012298
:10465000029300231846CDE9003301F05DF907B05D
:104660005DF804FBF16F02000F2AF8B50446154609
:1046700008461F460BD90F490F4840F2E7130F4A6F
:104680001AF0F3F840F2E7110C481AF0E7F80FF0CF
:1046900009FE0B4EAD0001462E4420462FB144F0DA
:1046A000004410F019FB3460F8BD10F043FB376094
:1046B000FAE700BF4B700200A85302001970020015
:1046C00080A1025070B586B005A810F04FFD264BB2
:1046D000984245D10FF0C2FF041E0FDA9DF8140076
:1046E00010F04AFD214B0122029300232049184675
:1046F000CDE900330394FFF7A5FF2EE040F6070352
:104700001C4D8DF81540AE68ADF816307468059BE9
:1047100014B96FF05704E5E708212846164AA04768
:10472000041EDFDB3369002BF3D001220821284669
:104730009847041ED6DB01259DF8140005FA00F009
:1047400010F0A6FA2B469DF817209DF815109DF83D
:104750001400FFF789FF002CC4D1204606B070BDBD
:104760006FF01204BEE700BF0000AD0BF16F020056
:1047700074430200103F02000948000070B5049E17
:10478000C6F30744F5B2C6F3072630460FF070FDB6
:104790000F2C01460BD91549154840F2E113154A73
:1047A0001AF063F840F2E11112481AF057F828465F
:1047B00010F0AAFA002201200F4BA400E4B21A5113
:1047C000A84010F06BFA30460FF066FF284610F054
:1047D000D3FC0A4B984208D0094905487523094A79
:1047E0001AF043F875210748DFE770BD4B700200EF
:1047F000A85302001970020080A002500000AD0B07
:104800008D700200567002002DE9F743144683684C
:104810001B694BB922492348CB23234A1AF025F8B8
:10482000CB2121481AF01AF80022984706460028A2
:10483000F0D1C4F3072840460FF04EFD5FFA84F92B
:1048400041463346220E07464846FFF70DFF4046D5
:104850000FF00EFDC4F307450F2D01460AD9134989
:10486000104840F2E113124A19F0FFFF40F2E11143
:104870000F48D7E70F4BAD0049F00042EDB25A5157
:10488000484610F011FA0C4B07F1320200934046F3
:104890003346019452000FF0EFFD03B0BDE8F08302
:1048A000A1700200A8530200567002004B70020073
:1048B0001970020080A002507D47000010F0CAB8B5
:1048C0002DE9F7430F4606460821C06A1AF077F82B
:1048D00080463C68DFF84890241A3C6004EA0905E9
:1048E000AC4203D8002003B0BDE8F08308236A4639
:1048F0002146304619F0C7FF0028F4D169463046FA
:104900001AF067F840B1BDF80230BDF8042005EA9E
:10491000090513441D443C60A4EB0804E0E700BF14
:104920000000FFFF2DE9F04704468EB000F11407A8
:1049300038461EF0BCFEA06A8368DB6898470346D1
:10494000E06230B9904A0090CDE9010201228F491E
:104950000FE0A06A8368DB6898470368013B1F2B60
:104960000FD98B4B0293002301221846CDE9003367
:1049700086491AF015F86FF0150528460EB0BDE807
:10498000F087A06A21680BAA1DF039FE08B1814B9F
:10499000E8E7A5892DB10C9BB5FBF3F203FB12559B
:1049A0000DB17D4BDEE7E389012B05D87B4B0095EC
:1049B000CDE901532B46C9E7E36A069593F80490C5
:1049C0004FF0FF334FF0FF32384613F0A7FD0821B8
:1049D000E06A19F0F4FFA8460646E3891FFA85FA53
:1049E000534508D8E389434523D1384613F066FE82
:1049F0006FF02C05C1E7A1892B04891B13FA81F103
:104A00004A4608232046069119F08BFF78B12046CC
:104A100006A919F046FF08F1010808234A46204676
:104A200006991FFA88F819F07CFF0028DAD00135C2
:104A3000D3E753450BD1069908234A462046891BE4
:104A400019F06FFF18B9204606A919F02AFF204671
:104A500006A9FFF735FF054618B1384613F02EFEBC
:104A60008BE7069B4FEA13484FEA08486360C4F897
:104A70000880D4E9011399420FD30823204607AADE
:104A800019F001FF05460028E7D107AB13F8012B09
:104A9000914543D10135082DF8D1636820461B0CA0
:104AA0001B0406A9069319F0FCFE4A462046A3897A
:104AB000069919F036FF051ECFDB636800F082808F
:104AC0004FF6FF7906EB0308A3891FFA88F29B1BB8
:104AD0009A42CDF818803DD3314B03220293002334
:104AE0002A491846CDE9003319F05AFF204661687B
:104AF00019F03CFF05460028AFD16368294AA18917
:104B000013400B44A3EB4603636013402046A360AD
:104B10001AF043F80546002D70D09EE7204607A9FD
:104B200019F057FF626810B9921B6260A1E7BDF8E7
:104B30002050BDF81E10E06AC4F80880294419F01E
:104B40003EFF40449042A060EED1002DECD06FF0CB
:104B50001C0590E008234146204609AA19F093FE5F
:104B6000054600287FF479AF204609A919F031FFE6
:104B700038B1BDF824304B4503D1BDF82830002BA7
:104B80007FD0B044A0E700BFC7700200E44202003B
:104B9000E9700200067102001E710200327102000B
:104BA0008F7102000000FFFF4A4620465B1A19F091
:104BB000B8FE051EFFF651AF08D0E26AA36812687E
:104BC0001344A360D4E901318B42EDD86168A38915
:104BD00001EB46029A429ED1DFF8D480A26801EA36
:104BE00008039A4297D0204619F0C0FE05460028D7
:104BF0007FF433AF636803EA0803A360A389A28844
:104C0000A3EB46039A4232D0384613F057FD0123F6
:104C100000252374A38928460493E3890322039380
:104C2000244BCDE90055029323492B4619F0B8FED9
:104C3000636828469AB21B0C0393204B0492CDE97B
:104C4000015303222B461C49009519F0A9FEA368C5
:104C500028469AB21B0C0393194B0492CDE90153D9
:104C600003222B461449009519F09AFE85E620464A
:104C700019F07CFF0546384613F020FD002DC6D004
:104C80007BE6104B03222846CDE901530A492B4607
:104C9000009519F085FE636820461B0C1B0406A9CD
:104CA000069319F0FEFD2046069919F05FFE31E7E4
:104CB0000000FFFF55710200E44202006C71020027
:104CC0007E710200B67102002DE9F04F1D46037C93
:104CD0000446894690468DB073B9674A1846CDE9B7
:104CE000013266490122009319F05AFE6FF00C065A
:104CF00030460DB0BDE8F08FC26A0821104619F0A9
:104D00005EFE82462946104619F059FEA3890746E1
:104D1000A3EB8A03AB42C0F0AB801DB1B8F1000F2A
:104D200000F0A68063680793204608AA07A9DDF86B
:104D30001CB019F086FE06460028D9D1BDF82030F7
:104D40004B4505D06268079B9A42EDD1E5B9CFE7A4
:104D5000204608A919F03DFE0028F3D0BDF8220036
:104D6000BDF8243075B1AB420ED14FEA1B410904A6
:104D700001442B464246204619F0A0FD002803DCE2
:104D80000646B5E7002BB3D0002F3ED104F1140343
:104D900005934FF0FF324FF0FF3304F1140013F08E
:104DA000BDFBDFF8DCB0E3899E425ED0D4E901238D
:104DB000F9188A422CD3ADF82A30FF230AA88DF8BF
:104DC0002E30ADF82890ADF82C5019F0A1FD2B46EF
:104DD0004246A168204619F07EFE29468246E06AD6
:104DE00019F0EDFDA2680244A260BAF1000F07D1EC
:104DF00020460AA919F0A9FE002814BF8246AA4637
:104E0000059813F05BFC564672E75744BFB2BDE706
:104E10000821E06A19F0D3FD4FF6FF730021ADF8C9
:104E200028308DF82E30A389ADF82C10111802EA25
:104E30000B021A44101A60600AA8ADF82A1019F083
:104E400067FD0AA9204619F080FE2046211D19F0B1
:104E500028FD6368204603EA0B03A36019F09DFE5A
:104E600082460028CCD101369DE76FF01B0AC7E7C8
:104E70006FF015063CE700BFB3700200E442020089
:104E80000000FFFF2DE9F0471E46037C88B0044672
:104E90000F469046BDF840906BB92F4A1846CDE9B1
:104EA00001322E490122009319F07AFD6FF00C00B7
:104EB00008B0BDE8F0870821C06A19F080FDA38919
:104EC000A3EB4003B34243D30025D4F804A0CDF8AC
:104ED00014A04D455146DDF814A009D96368534527
:104EE0001ED1BDF81830BB421AD06FF00100DFE7C9
:104EF000204606AA05A919F0A4FD0028D8D1BDF8BE
:104F00001830BB4206D1204606A919F062FD08B14F
:104F10000135ADB26268059B9A42DAD15146E0E7AD
:104F2000BDF81C30002BE0D0A945DED8BDF81A0032
:104F3000090CB3424FEA014128BF334601444246BF
:104F4000204619F0A0FC0028B2D1BDF81C00AFE744
:104F50006FF01500ACE700BFB3700200E44202003E
:104F60001FB5034660B9114A0090CDE9010210490E
:104F7000012219F0EAFE6FF0150005B05DF804FBA0
:104F800083685BB90B4A1846CDE901320849012212
:104F9000009319F0DAFE6FF00400EEE71B681BB116
:104FA00005B05DF804EB18471846E6E7D271020039
:104FB0000C430200E371020030B585B008B101B1C5
:104FC0006AB9134B01220293002312491846CDE916
:104FD000003319F0BAFE6FF0150005B030BD8468DB
:104FE0000CB1E56865B90C4B012202930023094915
:104FF0001846CDE9003319F0A8FE6FF00400ECE785
:1050000041F8040BE36805B0BDE83040184700BF25
:10501000017202000C430200E371020030B5134636
:10502000044685B060B9194B0090CDE90103012217
:105030000346174919F089FE6FF0150005B030BD21
:10504000006858B9134B0090CDE9010301220346D3
:105050000F4919F07AFE6FF00100EFE782680AB19C
:10506000956865B90C4B0122029300230849184644
:10507000CDE9003319F069FE6FF00400DEE70A465F
:10508000AC46616805B0BDE8304060472D72020053
:105090000C4302003E720200E37102000020014B4B
:1050A000186070470000072030B50C460E4985B0E7
:1050B0000291D0F8AC110546CDE9003100F1E001D4
:1050C0004FF0FF33204612F015F950B9012384F850
:1050D0006430D5F8A83123B1204605B0BDE8304092
:1050E000184705B030BD00BF5BEE010038B50C4677
:1050F0001146054619F0B3FE034638B9284604495F
:1051000019F0ADFE03460020236038BD0120FBE707
:1051100096A302002DE9F04F0123814605694668F8
:1051200085B005F55977D7E8EF2F002A03D1C7E8F6
:10513000E13F0029F7D10CBF1A46002240F0B180B0
:10514000B368B16A05F5E4781C1F104619F00CFF2E
:1051500084425FD8013A00F09E80B2FA82F24FF0AA
:105160000044D44072682046073222F00302C5F89A
:105170006022B16A19F0F8FEC5F86402B36A4046CD
:105180006343033323F0030302EB4302230103EBE6
:105190004403093323F0030303EBC403C5F8582287
:1051A0001A440832C5F854227368C5F85C42C5F841
:1051B00050323D4BC5E9A963316800F0BDF90446A2
:1051C00030BBD9F804A0D9F81090DAE9073409F512
:1051D000307B012B584608BF103C13F075FF0023AD
:1051E000DAF8240031494FF4806201EB802100930A
:1051F0005846234613F082FF09F52C702C4913F012
:1052000097FEDAF8140083685C682CB96FF05704D5
:10521000002139E0013298E74B46264ADAF81810A7
:10522000A04704460028F3D1DAF8140083681B690C
:10523000002BEBD00122DAF818109847044600281A
:10524000E6D11D4B2846C5F8A8311C4BC5F8AC313A
:105250001B4B0393D5F810320293D5F80832CDE9F1
:105260000083D5F86832B26AD5F8601300F02CF9E3
:1052700004460028CCD105F1E00012F0DFF9002847
:10528000C5F868030ADB0221384619F01DFE2046E6
:1052900005B0BDE8F08F6FF00B04B9E76FF01504AF
:1052A000B6E76FF07704F2E7B1EE0100882C00203A
:1052B00097EE01008BEE0100C55200003FF00100A7
:1052C000F9EE010013B5044640B100230122CDE9F7
:1052D0000032074BD0E9091211F0C0FFA36E1B6822
:1052E00023B1E06E02B0BDE81040184702B010BD17
:1052F00096A3020013B504460846216901F55971C9
:10530000D1E8AF1F022910D193B1A0B10121CDE99D
:1053100000311346D0E9091211F0A0FF074B984263
:1053200008BF6FF00B0002B010BD6FF00F00FAE77E
:105330006FF04C00F7E76FF00100F4E72EF8FFFF85
:105340002DE9F74388461546066906F55973D3E8F3
:10535000AF3F022B5FD1136823B96FF0150003B084
:10536000BDE8F0831B78002BF7D0D6F86093B9F135
:10537000000F33D106F5D8774FF0FF324FF0FF33EF
:10538000384613F0CBF830462A6801A9FFF7AEFE85
:10539000019C1CB9384619F095FDDEE705F10803BC
:1053A000A3666B6984F86490E366E46360B1384691
:1053B00019F088FD21463046236E2A68FFF774FEF7
:1053C0000020C8F80040CAE72022296804F1400004
:1053D0001EF097FB384619F075FDF1E730460F498E
:1053E00019F03DFD04460028B7D005F10803836697
:1053F0006B69C063C366002380F86430202229688B
:1054000040301EF07EFB22460121304600F03EF87F
:105410000028D5D0A1E76FF00F00A0E796A3020007
:105420002DE9F04F05460E4690460027D0F8B0A073
:1054300085B0AAF5AE7421463046FBF741FEE0B9CF
:10544000114BA4F1400B0293DAF810303246CDE94B
:10545000008329464FF0FF335846AAF5CE7911F064
:1054600049FF60B97023012203FB079383F864208E
:10547000DAF80C300BB158469847703417B105B0C4
:10548000BDE8F08F0127D6E7A1F001001FB5144653
:1054900090B18AB1012912D10A4B00F1E0010293C7
:1054A000D0F8AC31403201934FF0FF3320460093E7
:1054B00011F020FF04B010BD6FF01500FAE70020D6
:1054C000F8E700BFA1F001002DE9F04387B00E46D8
:1054D000DDE90E811446DDE910251F4630B329B3FE
:1054E000DFF850C000F1E009002D08BF65469EB905
:1054F000CDE9034400F5CE74204605961DF0FEFF6D
:1055000003ABCDE900432A463B464146484612F0EC
:10551000BBF807B0BDE8F083002241460E92484632
:105520002A4607B0BDE8F04312F0D8B96FF0150075
:10553000EFE700BF21540000F0B50E46044689B0E5
:1055400000286FD001230246C3630023D0F89810CF
:10555000364F403040F80C7C42F8301FCDE9013323
:105560004FF0FF330093C36D1DF033FB304A06ABA1
:1055700092E8030083E80300184611F081FD054618
:10558000D8B904F1340011F05DFD0546A8B93946DB
:10559000284805AA1DF0FFFA054670B9059B9A68D0
:1055A00072B10C33D4F89400C4F8A03019F0A9FDFE
:1055B000C4F8D40030B96FF00B05284609B0F0BD2F
:1055C0000346EFE7D4F8940019F09BFDC4F8D80027
:1055D0000028F0D0D4F88C30D4F8A010C4F8A8304B
:1055E0000423C4F8AC30C4F8C4300223A362124BC5
:1055F000B4F89420D4F8D470C4F8B810C4F8D0101B
:10560000D4F89010236204F1A403A4F8B020C4F8E5
:10561000A470C4F8C010A4F8C820C4F8BC00A661E7
:10562000E362CAE76FF01505C7E700BF68720200C2
:105630003044020072720200504802002DE9F84F17
:10564000DFF8FCA03F4F8146AAEB07039F2B88465B
:105650000BD93D4940F219133C4A3D4819F005F970
:1056600040F21911394819F0F9F83A4819F08BFD50
:105670000646002834D13C4605464FF0010B544500
:1056800027D935494FF49373304A314819F0EDF872
:10569000324819F0EAF84FF49371E3E7237B73B1D2
:1056A0002368DB680BB12046984723681B6943B920
:1056B000636804222046196800F008F901361034A6
:1056C000DDE7204698470028F2D00BFA06F31D4389
:1056D000F4E7E3D3B9F1000F02D04FF0010A0DB99E
:1056E000BDE8F88FA94695FAA5F4B4FA84F40AFA4D
:1056F00004F3260107EB04146FEA030B25EA030504
:10570000237B5BB1BB591B69A3B93E447368042278
:105710002046196809EA0B0900F0D8F8002DE2D1FB
:10572000B8F1000F04D04FF4A470002115F042F836
:105730004D46D4E7204698470028EFD1E5E700BF63
:105740008C4302007C430200A77202007A720200BE
:10575000A853020028170020CB720200EC7202004E
:10576000014B53F8200070477C48020008B50346FF
:1057700008462BB1044A136000F002FB002008BD6C
:105780006FF01500FBE700BF7C0300200023054AF3
:105790004FF400411370044A04481360044A136034
:1057A000FFF7E4BF792700202017002083F10100D4
:1057B0002417002070B5134D297809BB0120FFF78D
:1057C0003DFF114C114EB44217D911494FF4C47327
:1057D000104A114819F049F8104819F046F84FF4EA
:1057E000C4710C4819F03AF863685B791BB12368FF
:1057F00020469B6898471034E5E7F5D301232B70CA
:1058000070BD00BF792700207C4302008C4302005A
:10581000CB7202007A720200A8530200EC720200FE
:1058200010B50446064819F0AEFC3CB1054BD3E870
:10583000EF1F0139C3E8E21F002AF8D110BD00BFF5
:10584000201700202417002070B5124B05461B6856
:105850009847114C114EA860B44218D9104940F233
:10586000C513104A104819F000F8104818F0FDFF51
:1058700040F2C5110B4818F0F1FF63685B7923B162
:105880002368294620461B6898471034E4E7F4D380
:1058900070BD00BF7C0300207C4302008C430200EB
:1058A000CB7202007A720200A8530200EC7202006E
:1058B000044A054B9B1AB1EBD30F34BF52F83100A9
:1058C00000207047044202007C4302000E4B10B5DA
:1058D000C31A1B110133DBB248B90C490C48DF2352
:1058E0000C4A18F0C2FFDF210A4818F0B7FF4468DD
:1058F000237143689A7101224368196043685A71A1
:10590000BDE8104019F05DBC7C4302008F730200BB
:10591000A8530200577302002DE9F04F85B002AF83
:105920000446D7E90EA90E46934698463D6BBAF158
:10593000000F15D0C7F80490CDF800901021534601
:1059400000207A6BFDF732FF011E0ADA1E49782328
:105950001E4A1F4818F089FF78211C4818F07EFF66
:1059600051461C4A04F007040BF0070BE40044EA1C
:105970008B1402EA4122144344EA055417350D44BE
:1059800025F00705ADEB050D02ADBAF1000F11D002
:10599000CDF8009053467A6B05F11000FDF706FF35
:1059A000002807DA08499223084A094818F05DFFE1
:1059B0009221D2E7434622463146284619F004FC9C
:1059C0000C37BD46BDE8F08FDB730200AF730200F9
:1059D000A853020000FE0F000EB403B503AB53F84A
:1059E000042B01460448019301F0CEFF02B05DF89C
:1059F00004EB03B0704700BFFBF10100CA0605D4F9
:105A00008B064CBF02490349FFF7E6BF704700BF52
:105A100095A30200685A02002DE9F04F89B09B4619
:105A2000DDE914839DF84C700593169B04460D46E2
:105A3000179E06920493002F00F09480042F0BD938
:105A40009A4940F2BF139A4A9A4818F00EFF40F262
:105A5000BF11974818F002FF06F00803079319F0EA
:105A6000B1FB06F0020A024600284AD020469249BD
:105A7000FFF7B2FF8146BAF1000F08D016F0440FCD
:105A800041D12A4620468D49FFF7A6FF814406F002
:105A9000010353B18A4B204653F82720894B8A498A
:105AA000002A08BF1A46FFF797FF06F00803002BED
:105AB00055D0864B204653F827208549FFF78CFFA9
:105AC0000546069B2BB11A4620468249FFF784FF04
:105AD0000544BBF1000F05D05A4620467E49FFF72A
