:020000040000FA
:10000000384A0020213F0000E3450100F53E000092
:10001000F53E0000F53E0000F53E0000F53E000014
:100020000000000000000000000000004D3B000048
:10003000F53E000000000000E53A0000F53E00003B
:10004000D93B0000D93B0000D93B0000D93B000060
:10005000D93B0000D93B0000D93B0000D93B000050
:10006000D93B0000D93B0000D93B0000D93B000040
:10007000D93B0000D93B0000D93B0000D93B000030
:10008000D93B0000D93B0000D93B0000D93B000020
:10009000D93B0000D93B0000D93B0000D93B000010
:1000A000D93B0000D93B0000D93B0000D93B000000
:1000B000D93B0000D93B0000D93B0000D93B0000F0
:1000C000D93B0000D93B0000D93B0000D93B0000E0
:1000D000D93B0000D93B0000D93B0000D93B0000D0
:1000E000D93B0000D93B0000D93B0000D93B0000C0
:1000F000D93B0000D93B0000D93B0000D93B0000B0
:10010000D93B0000D93B0000D93B0000D93B00009F
:10011000D93B0000D93B0000D93B0000D93B00008F
:10012000D93B0000D93B0000D93B0000D93B00007F
:10013000D93B0000D93B0000D93B0000D93B00006F
:10014000D93B0000D93B0000D93B0000D93B00005F
:10015000D93B0000FFFFFFFF81F0004102E000BF3C
:1001600083F0004330B54FEA41044FEA430594EA77
:10017000050F08BF90EA020F1FBF54EA000C55EAB2
:10018000020C7FEA645C7FEA655C00F0E2804FEA83
:100190005454D4EB5555B8BF6D420CDD2C4480EA65
:1001A000020281EA030382EA000083EA010180EA95
:1001B000020281EA0303362D88BF30BD11F0004FE3
:1001C0004FEA01314FF4801C4CEA113102D0404219
:1001D00061EB410113F0004F4FEA03334CEA133354
:1001E00002D0524263EB430394EA050F00F0A7806C
:1001F000A4F10104D5F1200E0DDB02FA0EFC22FA67
:1002000005F2801841F1000103FA0EF2801843FA5A
:1002100005F359410EE0A5F120050EF1200E012A4B
:1002200003FA0EFC28BF4CF0020C43FA05F3C01889
:1002300051EBE37101F0004507D54FF0000EDCF102
:10024000000C7EEB00006EEB0101B1F5801F1BD3AB
:10025000B1F5001F0CD349085FEA30004FEA3C0CAF
:1002600004F101044FEA445212F5800F80F09A80A5
:10027000BCF1004F08BF5FEA500C50F1000041EBA9
:10028000045141EA050130BD5FEA4C0C404141EBAD
:100290000101013C28BFB1F5801FE9D291F0000FA8
:1002A00004BF01460020B1FA81F308BF2033A3F157
:1002B0000B03B3F120020CDA0C3208DD02F1140C4E
:1002C000C2F10C0201FA0CF021FA02F10CE002F189
:1002D0001402D8BFC2F1200C01FA02F120FA0CFC82
:1002E000DCBF41EA0C019040E41AA2BF01EB0451CB
:1002F000294330BD6FEA04041F3C1CDA0C340EDCC9
:1003000004F11404C4F1200220FA04F001FA02F30B
:1003100040EA030021FA04F345EA030130BDC4F1C9
:100320000C04C4F1200220FA02F001FA04F340EABE
:100330000300294630BD21FA04F0294630BD94F06F
:10034000000F83F4801306BF81F480110134013D56
:100350004EE77FEA645C18BF7FEA655C29D094EAC7
:10036000050F08BF90EA020F05D054EA000C04BF45
:100370001946104630BD91EA030F1EBF0021002030
:1003800030BD5FEA545C05D14000494128BF41F0CF
:10039000004130BD14F580043CBF01F5801130BD33
:1003A00001F0004545F0FE4141F470014FF00000BE
:1003B00030BD7FEA645C1ABF194610467FEA655C6F
:1003C0001CBF0B46024650EA013406BF52EA033511
:1003D00091EA030F41F4002130BD00BF90F0000FFF
:1003E00004BF0021704730B54FF4806404F132043B
:1003F0004FF000054FF0000150E700BF90F0000FF4
:1004000004BF0021704730B54FF4806404F132041A
:1004100010F0004548BF40424FF000013EE700BFEA
:1004200042004FEAE2014FEA31014FEA02701FBF7A
:1004300012F07F4393F07F4F81F06051704732F0AC
:100440007F4208BF704793F07F4F04BF41F4002103
:10045000704730B54FF4607401F0004521F0004161
:100460001CE700BF50EA010208BF704730B54FF0EB
:1004700000050AE050EA010208BF704730B511F0EC
:10048000004502D5404261EB41014FF4806404F124
:1004900032045FEA915C3FF4D8AE4FF003025FEAAA
:1004A000DC0C18BF03325FEADC0C18BF033202EB2E
:1004B000DC02C2F1200300FA03FC20FA02F001FA88
:1004C00003FE40EA0E0021FA02F11444BDE600BF2B
:1004D00080F0004002E000BF81F0004142001FBFF9
:1004E0005FEA410392EA030F7FEA226C7FEA236C02
:1004F0006AD04FEA1262D2EB1363C1BFD2184140F7
:1005000048404140B8BF5B42192B88BF704710F08C
:10051000004F40F4000020F07F4018BF404211F02F
:10052000004F41F4000121F07F4118BF494292EA97
:10053000030F3FD0A2F1010241FA03FC10EB0C00C3
:10054000C3F1200301FA03F100F0004302D5494250
:1005500060EB4000B0F5000F13D3B0F1807F06D3FD
:1005600040084FEA310102F10102FE2A51D2B1F1F5
:10057000004F40EBC25008BF20F0010040EA0300EA
:100580007047490040EB0000013A28BFB0F5000F6A
:10059000EDD2B0FA80FCACF1080CB2EB0C0200FA20
:1005A0000CF0AABF00EBC25052421843BCBFD0406F
:1005B0001843704792F0000F81F4000106BF80F4E9
:1005C00000000132013BB5E74FEA41037FEA226CAC
:1005D00018BF7FEA236C21D092EA030F04D092F077
:1005E000000F08BF0846704790EA010F1CBF0020AB
:1005F000704712F07F4F04D1400028BF40F0004008
:10060000704712F100723CBF00F50000704700F027
:10061000004343F0FE4040F4000070477FEA22624E
:1006200016BF08467FEA23630146420206BF5FEA1F
:10063000412390EA010F40F4800070474FF000031F
:1006400004E000BF10F0004348BF40425FEA000CE6
:1006500008BF704743F0964301464FF000001CE08E
:1006600050EA010208BF70474FF000030AE000BFE4
:1006700050EA010208BF704711F0004302D5404222
:1006800061EB41015FEA010C02BF84460146002094
:1006900043F0B64308BFA3F18053A3F50003BCFAAF
:1006A0008CF2083AA3EBC25310DB01FA02FC63445C
:1006B00000FA02FCC2F12002BCF1004F20FA02F263
:1006C00043EB020008BF20F00100704702F1200256
:1006D00001FA02FCC2F1200250EA4C0021FA02F2B7
:1006E00043EB020008BF20EADC7070474FF0FF0CBC
:1006F0001CEAD0521EBF1CEAD15392EA0C0F93EAB7
:100700000C0F6FD01A4480EA010C400218BF5FEA58
:1007100041211ED04FF0006343EA501043EA5111CB
:10072000A0FB01310CF00040B1F5000F3EBF4900C5
:1007300041EAD3715B0040EA010062F17F02FD2AC9
:100740001DD8B3F1004F40EBC25008BF20F00100AC
:10075000704790F0000F0CF0004C08BF49024CEAC3
:10076000502040EA51207F3AC2BFD2F1FF0340EA55
:10077000C250704740F400004FF00003013A5DDCC6
:1007800012F1190FDCBF00F000407047C2F1000207
:10079000410021FA02F1C2F1200200FA02FC5FEAF4
:1007A000310040F1000053EA4C0308BF20EADC703E
:1007B000704792F0000F00F0004C02BF400010F4B0
:1007C000000F013AF9D040EA0C0093F0000F01F05D
:1007D000004C02BF490011F4000F013BF9D041EA7F
:1007E0000C018FE70CEAD15392EA0C0F18BF93EA81
:1007F0000C0F0AD030F0004C18BF31F0004CD8D1AB
:1008000080EA010000F00040704790F0000F17BF31
:1008100090F0004F084691F0000F91F0004F14D077
:1008200092EA0C0F01D142020FD193EA0C0F03D1CF
:100830004B0218BF084608D180EA010000F00040D2
:1008400040F0FE4040F40000704740F0FE4040F4AD
:10085000400070474FF0FF0C1CEAD0521EBF1CEA4C
:10086000D15392EA0C0F93EA0C0F69D0A2EB03026A
:1008700080EA010C49024FEA402037D04FF0805304
:1008800043EA111143EA10130CF000408B4238BFC9
:100890005B0042F17D024FF4000C8B4224BF5B1AD7
:1008A00040EA0C00B3EB510F24BFA3EB510340EA25
:1008B0005C00B3EB910F24BFA3EB910340EA9C00D3
:1008C000B3EBD10F24BFA3EBD10340EADC001B0143
:1008D00018BF5FEA1C1CE0D1FD2A3FF650AF8B42E7
:1008E00040EBC25008BF20F0010070470CF0004CF4
:1008F0004CEA50207F32C2BFD2F1FF0340EAC2501F
:10090000704740F400004FF00003013A37E792F0DF
:10091000000F00F0004C02BF400010F4000F013A3D
:10092000F9D040EA0C0093F0000F01F0004C02BF38
:10093000490011F4000F013BF9D041EA0C0195E7A1
:100940000CEAD15392EA0C0F08D142027FF47DAF3A
:1009500093EA0C0F7FF470AF084676E793EA0C0F2A
:1009600004D14B023FF44CAF08466EE730F0004C28
:1009700018BF31F0004CCAD130F000427FF45CAFB8
:1009800031F000437FF43CAF5FE700BF53B94AB991
:10099000002908BF00281CBF4FF0FF314FF0FF3087
:1009A00000F00CB8ADF1080C6DE904CE00F008F8C9
:1009B000DDF804E0DDE9022304B07047704700BFB2
:1009C0002DE9F04786468C460846089E1546744633
:1009D0001946002B40F0C1808542B2FA82F245D917
:1009E0004AB1C2F1200300FA02FC954094402EFA6D
:1009F00003F343EA0C0C4FEA154EA8B2230CBCFBE0
:100A0000FEF80EFB18CC08FB00F943EA0C439945AD
:100A100028D9EB1808F1FF3704D2994502D9A8F17B
:100A200002072B44A3EB0903A4B2B3FBFEFC0EFBAD
:100A30001C330CFB00F044EA0344A04214D92C19E7
:100A40000CF1FF3304D2A04202D9ACF102032C44D2
:100A5000241A43EA07401EB1D44000233460736077
:100A6000BDE8F0874746DDE76346F1E792BB431BED
:100A700001214FEA154EAFB2200CB3FBFEFC0EFB7A
:100A80001C330CFB07F840EA0343984561D9EB1887
:100A90000CF1FF3004D2984502D9ACF102002B448E
:100AA000A3EB0803A4B2B3FBFEFC0EFB1C330CFB50
:100AB00007F744EA0344A7424DD92C190CF1FF3340
:100AC00004D2A74202D9ACF102032C44E41B43EA4E
:100AD0000040C0E7C2F120039540944020FA03F1A2
:100AE0002EFA03F34FEA154E9040AFB20343B1FB29
:100AF000FEFC0EFB1C10190C0CFB07F841EA004130
:100B0000884522D969180CF1FF3004D2884502D9F2
:100B1000ACF102002944A1EB08019BB2B1FBFEFC41
:100B20000EFB1C110CFB07F743EA01439F420ED951
:100B3000EB180CF1FF3104D29F4202D9ACF1020153
:100B40002B44DB1B41EA004193E76046E3E7614643
:100B5000F7E76046A4E76346B8E7834206D916B9CB
:100B6000002108467CE7C6E900E0F9E7B3FA83F71D
:100B70008FB9834201D3724508D8BEEB020460EB03
:100B8000030301209C461EB9002169E73846FAE7B5
:100B9000C6E9004CF8E7C7F1200CBB400EFA07F598
:100BA00022FA0CF42EFA0CF1BA401C4320FA0CF392
:100BB000B8404FEA144901431FFA84FEB3FBF9F829
:100BC00009FB18300B0C08FB0EFA43EA00439A4568
:100BD00040D9E31808F1FF3004D29A4502D9A8F1B0
:100BE00002002344A3EB0A0389B2B3FBF9F809FB23
:100BF000183308FB0EFE41EA03418E452CD96118DB
:100C000008F1FF3304D28E4502D9A8F10203214432
:100C100043EA0040A1EB0E01A0FB02984145CE46FD
:100C2000434602D306D14D4504D20138B9EB020E3A
:100C300068EB0403002EA7D0B5EB0E0261EB0301B5
:100C400001FA0CFC22FA07F3F9404CEA0303C6E967
:100C5000003199E74046C5E74346D9E710F8012B34
:100C600011F8013B012A28BF9A42F7D0D01A7047E9
:100C7000034611F8012B03F8012B002AF9D1704724
:100C8000034613F8012B002AFBD1181A01387047CC
:100C9000F7B55A4DD5F86431996811F001011AD1B0
:100CA00040F6034001AA03F0E3FF0446002840F0A9
:100CB000A1800198C3681B785BB905F1D403D3E820
:100CC000AF2F02F00902D3E8EF1FC3E8E42F002C96
:100CD000F9D109F09DFE002141F2030001AA03F0C1
:100CE000C7FF0446002840F08580019B444EDA6827
:100CF000D2F80100D2F8051003C6184609F088FEA4
:100D0000214641F2010001AA03F0B2FF0446002887
:100D100070D10198C3685A7885F870205A88A5F870
:100D200072201A7985F87120B3F80720A5F874208D
:100D3000B3F80530A5F8763009F06AFE214641F295
:100D4000020001AA03F094FF0446002852D1019F3B
:100D5000FA68531C4132344618685968083303C492
:100D600093422646F7D1384609F052FE05F0C0FA04
:100D7000044600283ED195F88A309B0634D50721D9
:100D800040F6334003F03AFF0646002800F0358174
:100D900007210C3017F0C2F86FF009030127037028
:100DA0000623C0F802408471047122464770C37064
:100DB000314640F6334003F05BFF0446D0B9394674
:100DC00040F6314003F01AFF0646002800F0158176
:100DD00039460C3017F0B1F82246314640F6314022
:100DE00003F046FF044628B995F87C305F0609D425
:100DF0006FF01204204603B0F0BD00BF30000020A9
:100E0000A8000020002142F2030001AA03F030FFF5
:100E100004460028EED1019BAF4EDA68D2F80100FB
:100E2000D2F8051003C6184609F0F2FD214642F239
:100E3000020001AA03F01CFF04460028DAD1019C3D
:100E4000E368B3F8012091B249B1D97839B1A5F876
:100E50000421DA78114606F1280018F0B8FD204682
:100E600009F0D6FD95F87C6016F0200618D1022115
:100E700040F66D4003F0C2FE0446002800F0BD803D
:100E800002210C3017F04AF8012321460370467006
:100E9000324640F66D4003F0EBFE04460028A9D12F
:100EA00095F89C301E0712D5002142F21C0001AAC1
:100EB00003F0DEFE044600289CD10198C368D3F8F5
:100EC0000120D3F80530C5E9382309F0A1FD95F8D4
:100ED000D8305C062AD5022142F22E0003F08EFEA5
:100EE0000446002800F0898002210C3017F016F823
:100EF000B5F8B03121460380002242F22E0003F003
:100F0000B7FE044600287FF475AF014601AA42F2FD
:100F10002A0003F0ADFE044600287FF46BAF019871
:100F2000C3685B7885F8203109F072FD082142F230
:100F3000010003F063FE044600285ED008210C3057
:100F400016F0ECFF95F8D81040F2022311F0400F94
:100F500008BF0323024688074CBF43F02C0043F030
:100F60000C0095F8D9308F0648BF40F0400013F0D0
:100F7000090F95F8A23018BF40F4006003F0060393
:100F8000CE0748BF40F01000062B08BF40F4C070E9
:100F9000002113F025FD2146002242F2010003F05A
:100FA00067FE044600287FF425AF95F87C30B5F83D
:100FB0000411980624D4C9B941F2050001AA03F02E
:100FC00057FE044600287FF415AFB5F80431019CA4
:100FD0004BB9E368B3F80120A5F804219A883F488B
:100FE000114618F0F4FC204609F012FD082140F6E5
:100FF000014003F003FE044638B96FF06804F9E6D7
:101000000029F3D16FF00404F4E608210C3016F047
:1010100085FF95F8D8300246D90752D44FF00051D9
:101020002F4813F0DDFC2146002240F6014003F07A
:101030001FFE044600287FF4DDAE014601AA4FF6EC
:10104000014003F015FE044620BB019809F0E0FCC6
:1010500021464FF6024001AA03F00AFE0446C8B931
:101060000198C368B3F80130A5F8C13009F0D0FC8D
:1010700095F8C1305B070DD521464FF6034001AA14
:1010800003F0F6FD30B90198C3685B7885F8C0308D
:1010900009F0BEFC04F066FE044600287FF4AAAE08
:1010A00005F0F0FF044600287FF4A4AEEB79002B96
:1010B0003FF4A0AE08210B4813F0C8FB04F066F91A
:1010C00098E603A1D1E90001ABE700BFAFF30080D0
:1010D00090880002008000200801002038010020D4
:1010E000108800020401002008B54FF400110448E4
:1010F00010F0E4FABDE8084002480DF0C9BF00BF97
:1011000098AE0100E802002008B54FF40011044831
:1011100010F0D4FABDE8084002480DF0B9BF00BF96
:10112000A0AE0100D802002007B5194818F024FD30
:101130006946184810F03BFD0146D8B94FF4F972E2
:10114000154819F003FA9DF801309A0603D51349A2
:101150001148FFF78DFD9DF801305B0603D510495E
:101160000D48FFF785FD0C48FFF78AFD81B20A485C
:1011700000F040FF4FF0B8610A4810F09FFA0022DB
:10118000002303480EF02AF803B05DF804FB00BF0B
:101190000000002028160020A82300202AB9010002
:1011A00037B9010098AE0100F0B587B0064600F0EF
:1011B000B3FD044600282BD11A4F3D463946A0B254
:1011C00000F0DCFD014618BB0134042C07F10207D6
:1011D000F4D14FF4F972144819F0B8F9134B1449CB
:1011E000DA78114805929A7804925A7803921B781B
:1011F0000293EB880193AB8800936B882A880EF0EA
:10120000E5FF0948FFF73CFD81B2074800F0F2FE18
:101210004FF4A4720023304607B0BDE8F0400EF052
:1012200011B800BF58230020A82300209A250020D1
:1012300044B901002DE9F04F6D4B8DB01A782AB1F9
:1012400000226C4808A91A7010F0B1FC6A4818F026
:1012500093FC07A9674810F0ECFE014670B100F05E
:1012600029FD4FF0B861654810F028FA00220023EC
:1012700061480DF0B3FF0DB0BDE8F08F4FF4F97287
:101280005F48BDF81C4019F061F95E4DDFF878A1A8
:10129000C4F30804002CE2D056480AA910F0F1FE6D
:1012A0000BAB2B600DF12E03CAF800309DF82830EF
:1012B000042B00F0968006D8012B6AD0022B3ED07A
:1012C000013CA4B2E6E70E2BFAD1DFF834814046A8
:1012D000FFF7D6FC8146BDF92A0011F0CEF9FFF7E1
:1012E0009FF802460B462968CDE90423B1F90000B6
:1012F00011F0C3F9FFF794F80F46DAF8001006462C
:10130000B1F9000011F0B9F9FFF78AF8DDE904231B
:10131000C144CDE90201CDE900673C4948460EF0E1
:1013200055FF4046FFF7ACFC81B2404600F062FE3C
:101330004FF4F9720021404619F008F9C0E7304E29
:101340003046FFF79DFC8346BDF92A0000F072F994
:10135000FFF766F82A68CDE90401B2F9000000F051
:1013600069F9FFF75DF8DAF800208046B2F900006D
:10137000894600F05FF9FFF753F8DDE90423CDE972
:101380000089CDE902012249B34458460EF01EFF00
:1013900096E71B4B1846FFF773FC8346BDF92A00FE
:1013A00000F052F9FFF73CF82A688046B2F90000D5
:1013B000894600F049F9FFF733F8DAF800200646CD
:1013C000B2F900000F4600F03FF90D4B9B44FFF7C8
:1013D00027F84246CDE902014B46CDE900670D49A9
:1013E000D3E7DDF82A200C4905480EF0EFFE67E749
:1013F0006C0700202816002000000020A0AE01008D
:10140000A8230020FC150020F8150020CEB901000B
:101410007FB90100A0B90100C4B9010008B50120DD
:1014200000F050FA4FF40011064810F047F94FF45D
:101430000011054810F042F9BDE80840034818F0D3
:101440009BBB00BFA0AE010098AE010000000020D1
:1014500010B54FF0B861094810F030F94FF0B8619D
:10146000074810F02BF9002000F02CFABDE81040DE
:101470004FF4A472002303480DF0B0BE98AE0100F3
:10148000A0AE010000000020F8B506464FF4F97246
:101490000021224819F05AF856F8044C2046FFF76C
:1014A000EFFB04280CD01E491C48FFF7E1FB1B484A
:1014B000FFF7E6FBBDE8F84081B2184800F09ABD9E
:1014C0002378303B012B0BD86378303B012B07D8B6
:1014D000A378303B012B03D8E378303B012B01D9B3
:1014E0001049E1E7002401270F4D56F8043CE0B213
:1014F0001B5D302B0AD117F043F960B92870013415
:10150000042C05F10105F0D10849CDE717F035F9B4
:1015100008B92F70F3E70649C6E700BFA8230020EB
:10152000F5B901000EBA01009A25002029BA010080
:101530003FBA010070B5224D284618F0CAF818B914
:101540006FF01504204670BD1E4810F0D0F8041E40
:10155000F8DB4FF0B8611B4810F0B0F8041EF1DB67
:1015600019491A4BAE684B6010238B60F36923B1A5
:10157000012228469847002802DA6FF00404E1E7C8
:10158000284618F0A6F80028DAD0114810F0AFF875
:10159000041ED7DB4FF0B8610D4810F08FF8041E21
:1015A000D0DB0C490C4B4B6020238B60F369002B84
:1015B000E3D00122284698470028C3DADDE700BFC0
:1015C00048A60100A0AE01000C1600200911000081
:1015D00098AE010000160020E910000008B50AF0DE
:1015E0001BFFFFF7A7FF00F0E3F900F073FB0120FA
:1015F00000F068F94FF40011094810F05FF84FF45B
:101600000011084810F05AF8074A0849084800F045
:101610009FFC4FF0FF314FF0FF300EF0DBF8F8E7A2
:10162000A0AE010098AE0100900200201D14000041
:101630005114000008B5FFF705F80249FFF756F806
:1016400008BD00BF23DB793D08B5FEF7FBFF02496B
:10165000FFF74CF808BD00BF00008C4210B588B001
:101660008DF807100DF1070102910121CDE9052345
:101670000391072300218DF81C308DF810100448C9
:101680000222836802A99C686A23A04708B010BDA3
:10169000F0A60100F0B532480E4687B0002115468D
:1016A0001C4610F0D0F8002852D11E230146E4B2A7
:1016B0002B4803AA8DF80C308DF80D608DF80E4084
:1016C00010F0C7FE002843D10146254810F02FFE38
:1016D00000283DD10121224810F04CFE002837D1CE
:1016E00008211F4810F0AFF890BB1D4804A910F066
:1016F000FBFB68BB06461A4F142011F04EF8384623
:1017000001A910F0DEFB18BB9DF80430DA0719D5EB
:10171000134F384602A910F0E1FEC8B99DF8083011
:10172000DB0717D501460E4810F024FE80B90146AC
:101730000B4810F088F858B922462946084810F09E
:10174000E1FD05E00136F6B2322ED5D16FF073001F
:1017500007B0F0BD0136F6B2322EDAD1F6E700BF9F
:101760002816002030B513781E2287B08DF80D1092
:10177000284803A98DF80C208DF80E3010F01DFEBE
:10178000002840D10146234810F05DF800283AD1E6
:101790000121204810F0EEFD002834D108211D4819
:1017A00010F051F878BB1B4804A910F09DFB50BB0A
:1017B0000446184D142010F0F0FF284601A910F03F
:1017C00080FB00BB9DF80430DA0716D5114D1420BC
:1017D00010F0E3FF284602A910F080FE98B99DF8AA
:1017E0000830DB0711D501460A4810F0C3FD50B997
:1017F0000146084810F027F805E00134E4B2322C25
:10180000D8D16FF0730007B030BD0134E4B2322C90
:10181000DDD1F6E72816002010B586B08DF804104B
:101820000021C8B2984201F1010410D301339BB2E8
:101830000493022301AA03928DF814300848012270
:10184000836803A99C686A23A04706B010BD00F115
:101850001801105C694401F8130C2146E1E700BF50
:10186000F0A6010030B585B0019101461448154637
:101870001C4610F03AFE08BB0199114810F058FEC2
:10188000E0B929460E4810F0A1FEB8B921460C482F
:1018900010F0AFFE90B9012C08BF9DF80D3008483C
:1018A00004BF43F040038DF80D309DF80D3003A9BF
:1018B00043F020038DF80D3010F0FCF805B030BD7A
:1018C0002816002038B580F00105002836D04FF0EA
:1018D0000001354810F02BF8044600285ED101467F
:1018E000314810F078FB0446002857D14FF0000132
:1018F00060F382012C4810F0F8FD044600284DD119
:101900000146294810F036FD0446002846D1002142
:101910000A200DF05FFF214623480FF0C2FF044666
:1019200000283BD1014620480FF08DFF0446A8BB9C
:101930002946BDE838401D4801F0E2BA29461B4857
:1019400001F0DEFA041E2BDB082117480FF07BFFA5
:10195000044618BB082114480FF0A3FF0446E8B959
:10196000002140F63E200DF035FF01210E4810F019
:1019700001FD044690B901210B4810F02CFB0446F0
:1019800060B94FF00401084810F0AFFD044628B9D3
:101990004FF0010104480FF0CAFF0446204638BD4D
:1019A00014F1780FFAD1CFE728160020F0A6010035
:1019B0007FB5B84DB84B2B60B84B6B60B84BAB6084
:1019C000B84817F086FE002800F05E810A2010F06B
:1019D000E4FE002128460FF012FF0028C0F25781D4
:1019E000694628460FF028FF044628B99DF80030C4
:1019F000702B04D06FF01504204604B070BD042194
:101A000028460FF0A0FE04460028F5D132262846CD
:101A10000DF101010FF0CAFE04460028ECD19DF83B
:101A20000130002B40F0228101219A480FF068FF1D
:101A300004460028E0D19C4E9C4B304673609C4B82
:101A40000DF10201336010F07CFE04460028D3D172
:101A50009DF80230402BCDD10121304610F078FEA8
:101A600004460028C8D1012000210DF0B3FE322524
:101A700030460DF1030110F082FE04460028BBD170
:101A80009DF80330002B40F0F9800121864810F0CA
:101A900041FE04460028AFD10121834810F023FE07
:101AA00004460028A8D101467F4810F0EEFD044608
:101AB0000028A1D103217C4810F0FEFD0446002837
:101AC0009AD11021734810F02EFA0446002893D1C1
:101AD0000121704810F03AFA044600288CD1082100
:101AE0006C4810F04AFA0446002885D1082169485C
:101AF00010F05AFA044600287FF47EAF01216548B1
:101B000010F080FA044600287FF476AF0121614886
:101B100010F086FD044600287FF46EAF01465D4854
:101B200010F059FA044600287FF466AF4FF00D011B
:101B3000584810F03FFB044600287FF45DAF0121B8
:101B4000544810F0C8FB044600287FF455AF042128
:101B5000504810F0A9FB044600287FF44DAF012146
:101B60004C4810F08AFB044600287FF445AF04215E
:101B7000484810F06BFB044600287FF43DAF014657
:101B800044480FF060FE044600287FF435AF46F667
:101B90001E03ADF808300623014602AA3D488DF821
:101BA0000A3010F056FC044600287FF425AF0122CD
:101BB0000021384810F0D3FA044600287FF41CAF07
:101BC0000621344810F022FC044600287FF414AFAC
:101BD0000146304810F0ABFB044600287FF40CAF00
:101BE00001212C4810F0C6FB044600287FF404AF06
:101BF0009DF80430274843F0400301A98DF80430D4
:101C00000FF0F2FE044600287FF4F6AE0322BDF882
:101C100004304FF0000023F4F85323F01F03ADF815
:101C200004309DF8063062F304038DF806304FF05F
:101C30007F0201230199FFF715FE044600287FF477
:101C4000DBAE014613480FF0B8FE044600287FF4CF
:101C5000D3AE04210F480FF099FE044600287FF40C
:101C6000CBAE02A90B480FF0A2FFC5E6013E16F06D
:101C7000FF067FF4CCAE6FF07304BDE6013D15F0B6
:101C8000FF057FF4F5AEF6E76FF01204B4E66FF0EF
:101C90000404B1E628160020191800005D160000A3
:101CA0009B270100F0A601001816002095160000E1
:101CB0006517000008B50021054810F08CF928B917
:101CC000BDE808400121024810F085B908BD00BFF9
:101CD0002816002038B504250E4C54F8060C17F0D1
:101CE000F8FC80B114F8013C83B154F8060C836809
:101CF00021461B689847002804DB013D04F11404C9
:101D0000EBD1284638BD6FF01200FBE76FF085007D
:101D1000F8E700BFAEAE0100F0B587B01422002195
:101D200001A818F013FC0DF1020303930223002510
:101D30000127104C104E049363794BB1237907FAB5
:101D400003F30293237C8DF81430637C8DF81530F7
:101D50002068836801A95B689847002808DBBDF804
:101D600002300135042D26F8023B04F11404E3D1BE
:101D700007B0F0BDA8AE01006023002003288BBF90
:101D80000023044B6FF0150033F8103098BF00208B
:101D90000B807047602300200F2902BF0122014BF6
:101DA0001A707047BC250020B0FA80F0014B400942
:101DB00018707047BD2500202DE9F0410E46904671
:101DC0000E4B1C6827680FB9BDE8F0813846FEF756
:101DD00057FF804505460FD302463146384618F076
:101DE00042FA48B960687119FEF742FF04F1080031
:101DF000BDE8F0410DF04CB91834E3E73C16002083
:101E000010B5074C206830B113F083FB0023054860
:101E100023600DF03DF90022034B1A7010BD00BF86
:101E20004016002044160020BC25002008B531B91A
:101E3000034B186814F02DFF024B0338187008BDCF
:101E400040160020BE25002030B58BB013F02DFCCD
:101E50000378044607AD032B20D8DFE803F002190E
:101E60001B1D11492846FEF703FFA37905956278EB
:101E70001E210492A2780D480392E2780292227900
:101E80000192627900920A4A0EF074F90BB030BDEB
:101E90000849E7E70849E5E70849E3E70A21284652
:101EA000074A0EF067F9E0E784BA01009E2500209A
:101EB000ADBA01008BBA010092BA01009CBA0100D0
:101EC000A6BA010037B50D4600292FD113F00DFB3E
:101ED000174C184B184920601D7013F03CFC002172
:101EE0004FF480400DF076FC1449154B20680B60D0
:101EF00007F0DEF800214FF480400DF06BFC114B31
:101F0000206801A9019313F0D2FB00214FF4804017
:101F10000DF060FC0C4B206801A9019313F0D7FB76
:101F20000A4803B0BDE830400DF0B2B803B030BD90
:101F300040160020BC250020F8060020381600209E
:101F40002D1E0000FB0090420000020254160020EB
:101F5000F0B5154684460F461D4C1E4B8BB094E8D9
:101F600007001D6002AE05AD0C3486E807000FCCFB
:101F70000FC52368614618482B6017F0ABFD394642
:101F8000164817F0A7FD164804F0D6FE154805F0D0
:101F90004BF80346C0B9144805F060F8034698B9F9
:101FA00003F006FA034678B911F08AFD304601F0D5
:101FB00037FA034640B90123022200930B490C4B28
:101FC00005A804F091F8034618460BB0F0BD00BF19
:101FD00050AB01003C16002054160020441600208F
:101FE000F80200202C0300201C03002000AF010099
:101FF000F8AE01000A46014668B162B1084B187894
:1020000060B1084B187848B1074B00201B78934209
:1020100004D301F011BA6FF015007047704700BF8C
:10202000BD250020BC250020BE25002010B5094C90
:102030000A44914200D110BD11F8013B58400309F8
:10204000E35C0001C0B243401809205C1B01DBB215
:102050005840EEE7E8BA0100014B1B68184700BF83
:102060004403002030B585B004460D4610220021FF
:10207000684618F06BFA02238DF80230044B2A46AA
:102080002146684601930EF0C7F905B030BD00BF88
:102090005920000080B505460E46174698460DF0BB
:1020A000B3FB034618F062FA0446DFF81890424684
:1020B00049F8003039463046A84754F8090001F085
:1020C000A9FF00BF080000002DE9F047058B04467A
:1020D0002807904611D4022905F0070540F0CD806D
:1020E000204610F0ABFE78B10138218B042811D8BE
:1020F000DFE800F0C3106D85950001290CBF45F0A5
:10210000100545F02005258388F31188BFF36F8FF4
:10211000BDE8F08701F0070AAA4500F0A680002775
:10212000B9463E46A368002B00F0BD8041F008018F
:10213000218388F31188BFF36F8FA168002900F015
:10214000BB800D68002900F0B78033465246204618
:10215000D1F80480C047002D76D02B6829461D4653
:10216000F0E701F007035A1F012A1BD8002221F0D3
:102170000701062B276889B2C4E9002209D13B4632
:1021800003E0628B013262831B68002BF9D141F0BE
:1021900002012046218310F051FE00287BD041F03F
:1021A000200177E0042B0AD121F0070189B22046F3
:1021B000218310F043FE10B141F020012183218BD7
:1021C00001F0070AAA4550D00027B946AAE72369BB
:1021D00021F0070141F00601062DD3F8009021837C
:1021E0002DD1B9F1000F40D041F00801218388F3CF
:1021F0001188BFF36F8F20463949C84729E021F085
:102200000701236941F0040189B2042DD3F8049039
:102210002183E6D000274FF0040A3E4682E721F0F2
:102220000701236941F0050189B2052DD3F8089013
:102230002183D6D000274FF0050A3E4672E70027DB
:102240004FF0060A3E466DE72B4687E7B9F1000FCF
:10225000D1D14FF02003EFF3118883F31288BFF33D
:102260006F8F238B23F008032383258BEA062ED55B
:1022700025F01003238305F007056669218B002EE6
:10228000BFF66FAF00232768C4E9003321F00701D0
:1022900041F001012183218B4FF0000901F0070A71
:1022A000AA457FF43FAF002F9BD041F00801218366
:1022B00088F31188BFF36F8F002FC7D03D68394670
:1022C00033465246204610F0E5FD2F46F4E7AB06B4
:1022D0007FF51AAF25F02003238305F00705FFE6FD
:1022E000C12E0100044608B54FF02002EFF3118320
:1022F00082F31288BFF36F8F0AF056F8204601F080
:102300003FFE034810F0E0FA01F036FBFCE700BFA7
:1023100009BB010000F01F0240090DD001280DD1BA
:10232000094B03EB8203D3F8002222F0E04242EA99
:102330000171C3F800127047044BF2E700238032AA
:1023400053F82230FFDE00BF00288450002584505F
:1023500038B50124134B144DC3F800450223032163
:10236000C5F8D0360020FFF7D5FF20460321FFF740
:10237000D1FFC5F804472146C5F804492120C5F816
:10238000004BFFF7C7FF21462020FFF7C3FF214680
:102390000B20FFF7BFFF21460A20FFF7BBFF0020FD
:1023A00038BD00BF001000500040005007B50DF1CF
:1023B000070016F004FA114B98421CD14FF48062CA
:1023C0000F4B1049C3F8B8254FF40062C3F83C2501
:1023D0009DF8070016F0EEF90B499DF8070016F07E
:1023E000E4F901209DF8073098400AF06BF90020CD
:1023F00003B05DF804FB6FF00B00F9E70000AD0BD4
:1024000000A002502CA0025028A10250052370B554
:10241000144D154E2C780134B4FBF3F303EB830316
:10242000E41A16F081F9114A137823B156F82430D2
:10243000C01A072814D94FF05023D3F8141141B112
:102440000021C3F81411D3F814312C700CB90123F6
:1024500013702C7816F068F946F82400012070BD3E
:102460000020FCE7C025002064160020BF250020C6
:1024700048B1054B054A1B68B3FBF2F35843044BC4
:1024800043F0010318477047D805002040420F0071
:1024900000AC010009F0F8BF2DE9F7430F460646EE
:1024A0000821C06A10F04DFE80463C68DFF8489075
:1024B000241A3C6004EA0905AC4203D8002003B0AA
:1024C000BDE8F08308236A462146304610F0ACFD93
:1024D0000028F4D16946304610F03DFE40B1BDF809
:1024E0000230BDF8042005EA090513441D443C6090
:1024F000A4EB0804E0E700BF0000FFFF2DE9F04770
:10250000044688B000F11407384617F0C2F9A06AF3
:102510008368DB689847E06228B96FF015052846A4
:1025200008B0BDE8F087A06A8368DB689847036855
:10253000013B1F2BF1D8A06A216805AA15F098FF6E
:102540000028EAD1A589002DE7D0069BB5FBF3F260
:1025500003FB1255002DE0D1E389012BDDD9E36A9D
:10256000009593F804904FF0FF334FF0FF32384658
:102570000CF028FB0821E06A10F0E3FDA8460646AF
:10258000E3891FFA85FA534508D8E389434523D1E7
:1025900038460CF091FB6FF02C05C0E7A1892B04A5
:1025A000891B13FA81F14A4608232046009110F056
:1025B00089FD78B16946204610F044FD08F1010814
:1025C00008234A46204600991FFA88F810F07AFD41
:1025D0000028DAD00135D3E753450BD10099082301
:1025E0004A462046891B10F06DFD18B96946204601
:1025F00010F028FD69462046FFF74EFF054618B14A
:1026000038460CF059FB8AE7009B4FEA13484FEA23
:1026100008486360C4F80880D4E9011399420FD3D5
:102620000823204601AA10F0FFFC05460028E7D148
:1026300001AB13F8012B914533D10135082DF8D1A9
:10264000636869461B0C1B042046009310F0FAFCDB
:102650004A462046A389009910F034FD051ECFDBC1
:10266000636876D04FF6FF7906EB0308A3891FFA5B
:1026700088F29B1B9A42CDF800802ED3002361681C
:10268000002B43D0090C090420460091694610F044
:10269000D9FC2046009910F03AFD0546002D74D073
:1026A000AEE7204601A910F056FD626810B9921BF2
:1026B0006260B1E7BDF80850BDF80610E06AC4F8E2
:1026C0000880294410F03DFD40449042A060EED1C6
:1026D000002DECD06FF01C0568E008234146204631
:1026E00003AA10F0A1FC0546002889D1204603A9C1
:1026F00010F031FD30B1BDF80C304B4502D1BDF8C2
:1027000010300BB1B044B1E70123B8E7204610F018
:10271000FEFC054600287FF473AF6368264AA18952
:1027200013400B44A3EB4603636013402046A360B1
:1027300010F0F5FDB1E74A4620465B1A10F0C2FCE6
:10274000051EFFF65DAF08D0E26AA3681268134465
:10275000A360D4E901318B42EDD86168A38901EB14
:1027600046029A429AD1DFF85080A26801EA080333
:102770009A4293D0204610F0CAFC054600287FF408
:102780003FAF636803EA0803A360A389A288A3EBB1
:1027900046039A4206D038460CF08EFA01230025F3
:1027A0002374BCE6204610F0A3FD054638460CF025
:1027B00083FA002DF2D0B2E60000FFFF2DE9F04FC2
:1027C0001D46037C04468946904689B0002B00F0E4
:1027D000BF80C26A0821104610F0B3FC8246294629
:1027E000104610F0AEFCA3890746A3EB8A039D4276
:1027F00000F2B1801DB1B8F1000F00F0AC80636849
:102800000393204604AA03A9DDF80CB010F0DBFC0A
:102810000646002865D1BDF810304B4505D06268EA
:10282000039B9A42EDD1E5B95BE0204604A910F084
:1028300092FC0028F3D0BDF81200BDF8143075B139
:102840009D420ED14FEA1B41090401442B464246EA
:10285000204610F004FC002803DC064641E0002B73
:102860003FD0002F41D104F1140301934FF0FF3208
:102870004FF0FF3304F114000CF0A4F9DFF8DCB0E2
:10288000E3899E4261D0D4E90123F9188A422FD30B
:10289000ADF81A30FF2306A88DF81E30ADF8189059
:1028A000ADF81C5010F005FC2B464246A1682046AE
:1028B00010F0D3FC29468246E06A10F042FCA26880
:1028C0000244A260BAF1000F07D1204606A910F019
:1028D000FEFC002814BF8246AA4601980CF0ECF9D1
:1028E0005646304609B0BDE8F08F5744BFB2BAE74C
:1028F0000821E06A10F025FC4FF6FF730021ADF8C7
:1029000018308DF81E30A389ADF81C10111802EA9A
:102910000B021A44101A606006A8ADF81A1010F0E5
:10292000C8FB06A9204610F0D2FC2046211D10F05D
:1029300089FB6368204603EA0B03A36010F0EFFCF9
:1029400082460028C9D101369AE76FF01B0AC4E716
:102950006FF00C06C5E76FF01506C2E70000FFFF39
:102960000020014B186070470000072030B50C466E
:102970000E4985B00291D0F8AC110546CDE9003181
:1029800000F1E0014FF0FF3320460BF0DBFC50B9C3
:10299000012384F86430D5F8A83123B1204605B06E
:1029A000BDE83040184705B030BD00BFF536010026
:1029B00038B50C461146054610F09EFE034638B960
:1029C0002846044910F098FE03460020236038BDD5
:1029D0000120FBE77EB901002DE9F04F012381467C
:1029E0000569466885B005F55977D7E8EF2F002AC5
:1029F00003D1C7E8E13F0029F7D10CBF1A460022F6
:102A000040F0B180B368B16A05F5E4781C1F104648
:102A100010F0F7FE84425FD8013A00F09E80B2FACF
:102A200082F24FF00044D44072682046073222F010
:102A30000302C5F86022B16A10F0E3FEC5F8640233
:102A4000B36A40466343033323F0030302EB4302BC
:102A5000230103EB4403093323F0030303EBC40313
:102A6000C5F858221A440832C5F854227368C5F8CC
:102A70005C42C5F850323D4BC5E9A963316800F0AE
:102A8000BDF9044630BBD9F804A0D9F81090DAE9B2
:102A9000073409F5307B012B584608BF103C17F06E
:102AA00057F80023DAF8240031494FF4806201EB33
:102AB00080210093584623460CF0F0FA09F52C705B
:102AC0002C4917F007F8DAF8140083685C682CB911
:102AD0006FF05704002139E0013298E74B46264A4F
:102AE000DAF81810A04704460028F3D1DAF81400E9
:102AF00083681B69002BEBD00122DAF81810984785
:102B000004460028E6D11D4B2846C5F8A8311C4BC9
:102B1000C5F8AC311B4B0393D5F810320293D5F8AE
:102B20000832CDE90083D5F86832B26AD5F860136F
:102B300000F02CF904460028CCD105F1E0000BF0A0
:102B4000AFFC0028C5F868030ADB0221384610F004
:102B500008FE204605B0BDE8F08F6FF00B04B9E722
:102B60006FF01504B6E76FF07704F2E74B3701001A
:102B7000202600203137010025370100892B000075
:102B8000D93801009337010013B5044640B1002342
:102B90000122CDE90032074BD0E909120BF086FB88
:102BA000A36E1B6823B1E06E02B0BDE81040184769
:102BB00002B010BD7EB9010013B504460846216974
:102BC00001F55971D1E8AF1F022910D193B1A0B11D
:102BD0000121CDE900311346D0E909120BF066FB63
:102BE000074B984208BF6FF00B0002B010BD6FF0AA
:102BF0000F00FAE76FF04C00F7E76FF00100F4E721
:102C00002EF8FFFF2DE9F74388461546066906F5BD
:102C10005973D3E8AF3F022B5FD1136823B96FF02C
:102C2000150003B0BDE8F0831B78002BF7D0D6F871
:102C30006093B9F1000F33D106F5D8774FF0FF322A
:102C40004FF0FF3338460BF0BDFF30462A6801A92C
:102C5000FFF7AEFE019C1CB9384610F080FDDEE7A0
:102C600005F10803A3666B6984F86490E366E46386
:102C700060B1384610F073FD21463046236E2A6855
:102C8000FFF774FE0020C8F80040CAE72022296838
:102C900004F1400017F0F9FA384610F060FDF1E752
:102CA00030460F4910F028FD04460028B7D005F142
:102CB000080383666B69C063C366002380F86430D1
:102CC00020222968403017F0E0FA224601213046E0
:102CD00000F03EF80028D5D0A1E76FF00F00A0E784
:102CE0007EB901002DE9F04F05460E4690460027BB
:102CF000D0F8B0A085B0AAF5AE7421463046FDF7F5
:102D0000ADFFE0B9114BA4F1400B0293DAF810309B
:102D10003246CDE9008329464FF0FF335846AAF5E5
:102D2000CE790BF00FFB60B97023012203FB0793F0
:102D300083F86420DAF80C300BB1584698477034A9
:102D400017B105B0BDE8F08F0127D6E73B39010088
:102D50001FB5144690B18AB1012912D10A4B00F176
:102D6000E0010293D0F8AC31403201934FF0FF33D1
:102D7000204600930BF0E6FA04B010BD6FF015008A
:102D8000FAE70020F8E700BF3B3901002DE9F043E6
:102D900087B00E46DDE90E811446DDE910251F4699
:102DA00030B329B3DFF850C000F1E009002D08BFAF
:102DB00065469EB9CDE9034400F5CE7420460596DC
:102DC00016F06DFC03ABCDE900432A463B46414675
:102DD00048460BF08BFB07B0BDE8F083002241466C
:102DE0000E9248462A4607B0BDE8F0430BF0A8BC57
:102DF0006FF01500EFE700BFE52C0000F0B50E46C0
:102E0000044689B000286FD001230246C363002323
:102E1000D0F89810364F403040F80C7C42F8301F04
:102E2000CDE901334FF0FF330093C36D15F0F7FE8A
:102E3000304A06AB92E8030083E8030018460BF023
:102E400047F90546D8B904F134000BF023F90546DB
:102E5000A8B93946284805AA15F0BDFE054670B93F
:102E6000059B9A6872B10C33D4F89400C4F8A03072
:102E700010F094FDC4F8D40030B96FF00B0528466B
:102E800009B0F0BD0346EFE7D4F8940010F086FDDA
:102E9000C4F8D8000028F0D0D4F88C30D4F8A010B2
:102EA000C4F8A8300423C4F8AC30C4F8C4300223FA
:102EB000A362124BB4F89420D4F8D470C4F8B810BC
:102EC000C4F8D010D4F89010236204F1A403A4F83D
:102ED000B020C4F8A470C4F8C010A4F8C820C4F886
:102EE000BC00A661E362CAE76FF01505C7E700BF43
:102EF0004EBB010070AB010058BB01003CAF0100AC
:102F000070B5446903460D468CB310F0AEFD88BB26
:102F10001D48227A465CB2422FD01C48405C904249
:102F20002ED11846E2689047002811DA022D0DD004
:102F3000032D0CD110F1860F08D0231DD3E8EF1F0D
:102F400041F00201C3E8E21F002AF7D1267270BDEA
:102F5000022D267201D00020F9E70434D4E8EF3FB7
:102F600023F00203C4E8E23F002AF4D0F6E76FF052
:102F70005700ECE74FF0FF30E9E76FF07700E6E746
:102F80006FF08500E3E700BF83BB01007FBB01005A
:102F900070B5114B0D461C68DCB1104B196800234D
:102FA0008B4202DB6FF0010070BD224612F8106BFD
:102FB000864202D014460133F2E7E06810B96FF0A0
:102FC0001200F1E716F085FB0028F8D000202C60F5
:102FD000EAE76FF00C00E7E7B0030020E0AF010084
:102FE00070B588B005460C46C0B269461646FFF774
:102FF000CFFF00281BDB0098C8B14368226802930A
:1030000083680195CDE903360023CDE906230593B6
:10301000C56810F032FD6DB12846084901AA15F0C7
:103020002BFA079808B9059B236008B070BD6FF0B4
:103030001500FAE76FF01200F7E700BF7D3A0100D4
:103040002DE9F0410F4B05461C680E461746ACB102
:103050004FF0FF324FF0FF330B480BF0B3FD6368C6
:103060003246D3F8088029463B462046C0470446EE
:1030700005480BF021FE2046BDE8F0816FF0010409
:10308000F9E700BF78160020BC0800200023036089
:10309000044B5A6812B9C3E90000704710605860C9
:1030A000704700BF7C160020014B1860704700BFBE
:1030B00078160020002330B585B00546CDE90233EF
:1030C00001904FF0FF334FF0FF320B480BF07AFDC9
:1030D0000A4B1C684CB9284600F08EF80446064896
:1030E0000BF0EAFD204605B030BD636820461B6842
:1030F00001A998472468EDE7BC0800207C16002051
:103100001FB5CDE9010103924FF0FF334FF0FF32BD
:1031100009480BF057FD094B1C682CB906480BF009
:10312000CBFD204604B010BD636820461B6801A992
:1031300098472468F1E700BFBC0800207C160020F7
:103140000022024BC3E90022704700BF7C1600201A
:103150000022024BC3E90022FFF7F2BF84160020D1
:103160002DE9F74307460C4609B100230B60002602
:103170001E4DDFF87C904D450FD31E4B1D6885B367
:1031800055F8148C3846414601AA143D10F09FFCB6
:1031900010B3D6B914BB2E461EE0D5F800803846D1
:1031A000414601AA10F093FC50B116B954B92E460D
:1031B00006E000224046316810F089FC0028F5D175
:1031C0001435D8E7019B2360F1E7002240463168BF
:1031D00010F07DFC0028DDD16D69D0E7019B2360F4
:1031E000D9E7304603B0BDE8F08300BFD4AA0100A0
:1031F0004CAB010084160020F8B506460025174C9C
:10320000174FBC4208D3174B1C682CB3143CB6B9FB
:10321000E368E3B96469F8E72EB9E3685BB9284667
:1032200005461434EDE700223146206810F04FFCCB
:103230000028F2D1F3E79847002DF0D1F0E7002203
:103240003146206810F043FC0028E1D1E2E79847BE
:10325000002D08BF0546DDE72846F8BDD4AA0100C9
:103260004CAB01008416002038B50C4D4FF0FF33F5
:103270004FF0FF320A480BF0A5FC2B783BB9FFF763
:1032800067FF00F06DF8044610B901232B7000248D
:1032900003480BF011FD204638BD00BFC1250020BA
:1032A000BC0800202DE9F04780468946048FDFF8EE
:1032B000ACA0013498B0A4B200F10806651EADB20E
:1032C000B5F5004F47D04A23294605AA304610F0ED
:1032D00057F904F57F543F34A4B207462146012331
:1032E00030460DF10B0210F04BF9002F014603DCC4
:1032F000002803DC2C46E1E7002816DCB8F838305B
:10330000AB4209D142466B1E22F8383F4FF40041D0
:1033100002233046FFF752FA2946304610F0CCF827
:103320002146304610F0C8F8E4E707F160030DEBE2
:1033300003070023524607F84C3C05A8CDF800903F
:1033400003AB0396ADF8104010F0F7FB0028D1D086
:1033500018B0BDE8F0870020FAE700BFA93B0100E4
:103360007FB50125694628460195FFF711FE044601
:1033700060BB284602AA01A9FFF732FE044610B13D
:1033800010F10C0F22D10399B1F5803F23D2002315
:103390001846009A9468084484421AD30133082BD3
:1033A000F9D10E4DA982EB8253682846AB60D368F1
:1033B000EB6310F093FC044640B9094E28466E605A
:1033C000FFF764FE28466E60FFF76EFE204604B0ED
:1033D00070BD9BB2E5E76FF02004F7E78C16002084
:1033E00074030020034B9B681BB1481E18BF0120CB
:1033F00018477047CC16002010B51C46034B1146E9
:103400001B680BB122469847204610BDCC16002001
:10341000024B5B6803B11847704700BFCC16002011
:1034200030B1044B02681A6042685A6082689A6040
:1034300000207047CC16002070B50E461546044695
:1034400086B000211822684617F080F80B490C4B13
:10345000CDE90116ADF80C5004932CB9694620460D
:1034600005F026FD06B070BD0122204613F04DFC8C
:103470000028F3D16FF01500F4E700BF90AF010012
:10348000113400000449431E0F3013F8012F8A5CE9
:1034900083421A70F9D170478EBB0100F0B5074620
:1034A000264E8DB001AD0C460FCE0FC50FCE0FC509
:1034B00096E8070085E807003846002F39D0002C31
:1034C00039D0381F0246214610344B780D781B0442
:1034D00043EA0563CD7804312B4311F8025C8C423A
:1034E00043EA052342F8043FEFD10421144C8A0734
:1034F000036916D1C3F30742A55C1A0EA25C42EA27
:103500000562C3F30725655DDBB2E35C42EA054271
:1035100042EA032221F0030330336B4453F82C3C7E
:10352000534050F8042F013153402C290361DED160
:1035300001200DB0F0BD2046FBE700BF78AB0100D5
:103540008EBB01002DE9F04F002703689DB0029368
:103550004368DFF8BCA103938368DDE90246049366
:10356000C36805930369DDE904BE069343690793C5
:103570008369DDE9062C0893C36998460993089B83
:103580000093CD590CAB2DBA5AF8049BDD514FEA8C
:10359000F223A94483EAB213009D83EA72634B4489
:1035A00025EA020502EA0C0985EA09052B44434491
:1035B00086EA0B054FEA743888EAB408254006EA23
:1035C0000B0985EA090588EAB4580437A844402F56
:1035D00003EB0E054344DE46DDF8008040F08880B2
:1035E0004FF0100A4B490A9151460AF1010A0DF1B8
:1035F000700E0AF00F070EEB870757F8407C01F0BA
:103600000F094FEAB748019788EAF71801F10E074A
:1036100007F00F070EEB870757F8407C09314FEA98
:10362000F74E8EEA774ECDF82CE001F00F010DF148
:10363000700E0EEB81010EEB890959F840EC51F840
:10364000401CBAF1400F7144DDF804E088EADE085E
:10365000DDF82CE041448EEA972E714405EA020819
:103660004FEAF52E2CEA050787EA08078EEAB51E11
:10367000DDF828808EEA756E774458F804EF49F833
:10368000401C77440F4400994FEA733E394484EA62
:103690000607CDF828808EEAB30E07EA030704EA8E
:1036A00006088EEAB35E87EA080777440F4401EB09
:1036B0000B0ECDF800C0B34622D102993944016007
:1036C00003991944049B416023448360059B334460
:1036D000C360069B73440361079B2B444361089BB3
:1036E00013448361099B6344C3611DB0BDE8F08F3F
:1036F000B346CDF800C0264694461C462A4640E70D
:10370000944626462A461C4675463B466CE700BF53
:1037100014B0010050B0010010B50446C8B17022C9
:10372000002110F009FB0B4B0B4A0C49C4E90023A4
:103730000B4B0C48C4E902130B4BC4E904030120F2
:103740000A4BA36103F17453A3F52303A3F6924339
:10375000E36110BD85AE67BB67E6096A72F36E3C34
:103760003AF54FA57F520E518C68059BABD9831F4C
:1037700001480CF0BDBB00BF14B1010038B50446D0
:1037800018B90F4B0F485B6898476168B1F5683FFF
:1037900010D0B1F5680F0DD00B4DA9420AD011F42D
:1037A0006861206807D00146084816F02DF800230C
:1037B0002360656038BD142216F0C8FEF9E700BF2B
:1037C000980600208EBC01002C5F5CA9D81B00204D
:1037D00008B560B34368B3F5683F0ED0B3F5680F22
:1037E00018D0144A934220D000684FF0FF324FF0B7
:1037F000FF330BF0E7F958B115E001220368D3E875
:10380000EF1F002903D1C3E8E02F0028F7D10AD128
:10381000002008BD0368084A1B7803F5807352F83E
:103820002330002BF4D00548F3E70548F1E76FF4A7
:10383000E040EEE72C5F5CA900000350E98FFFFF3A
:10384000EA8FFFFF08B520B34368B3F5683F09D09E
:10385000B3F5680F13D0114A93421DD000680BF0E6
:103860002BFA14E000220368D3E8EF1F012903D1EB
:10387000C3E8E02F0028F7D109D0094808BD00218E
:103880000368084A1B7803F5807342F82310002070
:10389000F4E76FF4E040F1E70348EFE72C5F5CA941
:1038A000E98FFFFF00000350EA8FFFFF10B50446C9
:1038B00018B91D4B1D485B6898476368B3F5683FAE
:1038C0002FD0B3F5680F2CD0194A934219D1236831
:1038D00003BB4FF0FF324FF0FF33214615480BF08A
:1038E0007DF808B923681BB90F4B13485B689847EC
:1038F00014220021206816F029FE4FF468636360EB
:1039000008E0B3F5683F0DD83A2B03D040F6BA6211
:103910009342DED1206815F0BCFF636843F03A03A0
:10392000636010BD054AF3E7980600208EBC0100D5
:103930002C5F5CA9D81B0020B4BC01003A00003AFF
:1039400008B5064940231422054815F04FFFBDE88D
:103950000840044904480CF03DBB00BFD8160020C5
:10396000D81B00201CB1010030B101000149102218
:103970000A60704710ED00E072B6404080F3118895
:10398000BFF36F8F01B5FEF741FD00280AD0BFF3EA
:103990004F8F30BF00BF00BF00BF00BF00BF00BFE0
:1039A00000BF00BFBDE8014062B6BFF36F8F704734
:1039B00072B6494081F3118801B5FEF727FD002852
:1039C0000AD0BFF34F8F20BF00BF00BF00BF00BFB2
:1039D00000BF00BF00BF00BFBDE8014080F31188F9
:1039E00062B6704740B2002807DB01234109034A51
:1039F00000F01F00834042F82130704700E100E0F2
:103A000040B200280CDB01220649430900F01F00E8
:103A10008240203341F82320BFF34F8FBFF36F8FD5
:103A2000704700BF00E100E0054B420953F8222037
:103A3000012300F01F0003FA00F01040704700BFA0
:103A400000E100E040B2002801F10101ACBF00F14B
:103A50006040064B4FEA4111C9B2ABBF00F561406F
:103A600000F00F0080F800131954704714ED00E0C7
:103A700030BFFFF7FDBF00BF0B4A08B50B4B22F06C
:103A80007F029A60BFF34F8FBFF36F8FD3F8882008
:103A900022F47002C3F888200AF0C2FE0BF02CFF5B
:103AA00000F032FA0AF006FF0000000000ED00E02E
:103AB000094A0A49936809689867D96708494B68B1
:103AC00043F080534B60002383F31188BFF36F8F63
:103AD0009368D86F704700BF48210020C4B7010029
:103AE00000ED00E016498A684FF030001044EFF313
:103AF000098C80E8F01F202080F31288BFF36F8FBD
:103B0000104F4FF000664A698A603E604FF07404BF
:103B1000141920680C4C2060906F0023936780F389
:103B2000118802F1300090E8F01F8CF3098802F14F
:103B3000000004B510F05CFDBDE8044070470000D3
:103B40004821002004ED00E0F41B00201EF0040FCB
:103B50000CBFEFF30880EFF30980816911F8021CB4
:103B60000229FFD001B510F034FD01BD42F8203C20
:103B7000009B0B4942F81C3C019B21F0010142F8DB
:103B8000183C029B42F8081C42F8143C4FF080732A
:103B900042F8043C0023203A02658367704700BF67
:103BA000952000000A4B446F98600A4B1C60436EDE
:103BB00083F30B88104681F30988002163B681F3F3
:103BC0001188BFF36F8F00220023FEF763FA00BF56
:103BD00048210020F41B002001B5EFF30580A0F17F
:103BE00010004FEAC0000449014409C99847BDE8E4
:103BF000014002490847000008A701005D3C0000A1
:103C0000114B124A2DE9F041D518013DB5FBF3F5F2
:103C1000DFF83C805D430F4B074608EB0304013C93
:103C2000B4FBF3F403FB04540E1B30460A4916F0B0
:103C300066FC701942460021083E16F087FC7E673C
:103C400004F10800BDE8F081010000000000000060
:103C500008000000040000004CAB0100044B996810
:103C60005869884203D003494FF080520A60704778
:103C70004821002004ED00E0154B9A6A12F0007F05
:103C80009A6A14BF1E201D2012F0807F9A6A18BF06
:103C90001F2012F4801F9A6A18BF022012F4002F0E
:103CA0009A6A18BF212012F4802F9A6A18BF222026
:103CB00012F4003F9A6A18BF232012F4803F9A6AD8
:103CC00018BF24206FEA02426FEA12429A627047DC
:103CD00000ED00E010B5194B0246986A9C6A10F49A
:103CE000805F14BF1720162014F4006F9C6A18BF61
:103CF0001820A40509D5986B986A000404D51AB158
:103D00009A6A22F400429A6219200C4B9A6A12F4C1
:103D1000806F9A6A18BF1A20D2050CD49B6A13F4DC
:103D2000005F18BF1C20054A936A43F47F439362E7
:103D300000230B7010BD1B20F5E700BF00ED00E075
:103D400010B51C4B0246986A9C6A10F0100F14BF05
:103D50001120102014F0080F9C6A18BF1220A4072D
:103D600009D5586B986A000604D51AB19A6A22F0F0
:103D700080029A6213200F4B9A6A12F0010F9A6A1E
:103D800018BF142012F0200F9A6A18BF1520D4060D
:103D900058BF9B6A074B9A6A920642BF5A6A22F43E
:103DA00000525A629A6A42F0FF029A6200230B7034
:103DB00010BD00BF00ED00E0F0B5474B04465B6866
:103DC00000258BB0C3F3080385F31188BFF36F8F11
:103DD00002F07F40B0F17F4F11D102F00C000828B3
:103DE0000DD010074CBF0C4601250022033B8DF877
:103DF0000720032B05D8DFE803F02462665F2C461A
:103E0000F3E700239DF80720CAB902AE04F12007AA
:103E1000324620686168083403C2BC421646F7D1B6
:103E2000099A002D53D0C2F3080121B96FEA52223A
:103E30006FEA42220992184602A910F0C8FB0BB0A3
:103E4000F0BD254BDA6A9107DBD4DA6A002AD8DBA9
:103E5000DA6A5200D5D55A69A16942F480725A6172
:103E6000BFF34F8FBFF36F8F5A6931F8021C22F4F2
:103E700080725A61BFF34F8FBFF36F8F4DF602729E
:103E8000914209D09A6AD2B242B101200DF10701E4
:103E9000FFF756FF0346B5E72368B3E79A6A12F4C3
:103EA0007F4F05D001200DF10701FFF713FFF1E768
:103EB0009B6AB3F5803FA4D3FFF7DEFEEAE700205C
:103EC0000DF10701E4E700200DF10701EDE722F411
:103ED000FF7222F00102ADE700ED00E0044B5A69E9
:103EE00042F010025A615A6942F480625A61704786
:103EF00000ED00E0EFF30880EFF3098101B57246B1
:103F0000FFF75AFF01BD00BF002320210348C2185C
:103F10000133452B82F80013F9D1704700E100E02E
:103F2000002080F31488BFF36F8F002080F30A888D
:103F300080F30B88FEF7AEFA00200E490860BFF34D
:103F40004F8F0D4880F3088800F03EF8202080F362
:103F500011880A484FF40061401880F30988EFF394
:103F600014800221084380F31488BFF36F8FFFF79A
:103F700083FD000094ED00E0384A0020783C0020EA
:103F8000BFF34F8F0549064BCA6802F4E062134342
:103F9000CB60BFF34F8F00BFFDE700BF00ED00E037
:103FA0000400FA05002318460649D1F89020C2F310
:103FB0000722934200DB7047C1F89830C1F8A00097
:103FC0000133F6E700ED00E010B572B6002484F38B
:103FD0001388FFF7E7FF23464FF0FF300C4A03F149
:103FE00020010133102B42F82100F8D100234FF0BB
:103FF000FF30074A03F160010133102B42F8210022
:10400000F8D162B6BFF34F8FBFF36F8F10BD00BF03
:1040100000E100E0084B9B6883420BD1EFF305837E
:1040200043B1064B5A6842F080525A605A6A22F4F1
:1040300000425A620BF0EEBB4821002000ED00E088
:104040001FB5094C094A23460121094800F0EAF846
:1040500000230393074B0121E41A01A80193029462
:1040600000F0EAF804B010BD0000072000000020B6
:1040700040B10100780A002010B50C7A0B6804F0FA
:104080001F0223F01F031A43CB68640923F01F03A8
:10409000054943EA440343F00103C1F89800C1F81D
:1040A0009C20C1F8A03010BD00ED00E02DE9F04FDC
:1040B0000F46144606464FF000084E4D85B0B845F1
:1040C00080F29480D6F80490B9F1000F36D0B9F19F
:1040D0001F0F40F2898019F01F0F40F08580D6F83D
:1040E00000A01AF01F0F7FD1504610F085FA8346CA
:1040F00009EB0A00013810F07FFA834574D11BF1F7
:10410000160F71D05C456FDDC5F898B0D5F89C10DE
:10411000C5F898B0D5F8A03021F01F0143F01F0A70
:10412000D6E900321A44994202F1FF391ED1CA453C
:1041300008D131465FFA8BF010F067FA08F10108F8
:104140000C36BCE73146C5F898B0D5F89C3022F063
:104150001F0203F01F031343C5F89C30E0B210F0B8
:1041600054FA10F1160F3FD0441CE7E7C5F898B099
:10417000D5F8A020013B23F01F0302F01F021343D8
:10418000CA453146E0B2C5F8A030E8D010F03DFA9B
:1041900010F1160F28D0C5F898B0D5F89C209DF8DE
:1041A00008300AF1FF3A62F304038DF80830D5F8BD
:1041B000A0309DF808205B0863F347128DF80820B3
:1041C000D6E900321344009323F01F03411C5344EB
:1041D000A3EB0903C8B223F01F030728039303D8F6
:1041E0006946FFF749FFBFE76FF01504204605B0A9
:1041F000BDE8F08F00ED00E00522044BC3F89420E9
:10420000BFF34F8FBFF36F8F704700BF00ED00E02B
:10421000BFF35F8F0022024BC3F89420704700BFAA
:1042200000ED00E010B5034C2278FFF73FFF20704F
:1042300010BD00BFC22500202DE9F74F294D8A4649
:1042400006464FF00008AB46274FD0451BDAD6F89C
:104250000490B9F1000F3FD031680846019110F089
:10426000CBF90199044609EB0100013810F0C4F9BB
:1042700084424FF014021D4B08D002FB08F36FF08C
:1042800015024BF8032003B0BDE8F08F14F1160FB0
:104290002C60F8D01978A142F5DD02FB08B0C7F810
:1042A0009840C7F89840D7F89C4000F10801007B7F
:1042B00064F304000871D7F8A0000C79400860F39B
:1042C00047140C71D7F89C1021F01F016960D7F8D2
:1042D000A01021F01F01296108F1010814350C36E6
:1042E000B3E700BFF81B002000ED00E0C22500206E
:1042F00038B50E4D2C68082C15D80020FFF788FF24
:104300000B4B0C4AC3F8C020844205D10A4B002055
:104310001C70FFF771FF38BD696801EB0011FFF7F2
:10432000ABFE0130F0E74FF0FF30F4E74CB1010095
:1043300000ED00E0AAFF4400C225002008B50448B3
:104340000EF0C2FA404080F311884FF0020002DF05
:10435000E5BC010008B50649064821F00701C1F196
:10436000005202F5E0220EF011FD002008BD00BF52
:104370009F8A0020385A00201022174B70B5C3F8CE
:1043800040244FF47F03D3F83021D3F83431072A87
:104390001BD1023B032B02D8104AD35CABB14FF0C8
:1043A0005024012600250520C4F81866C4F81456C8
:1043B00014F0F9F93046C4F8146614F0F4F9C4F8AE
:1043C0001456C4F81856002070BD4FF05023002238
:1043D000C3F81426F7E700BF0030005012BD0100FB
:1043E0002DE9F341054616461F46234CD4E8AF3F5E
:1043F000DA0728D520B96FF0010002B0BDE8F081DE
:1044000001A90FF088FB1D4980460246284615F099
:104410002AFFD0B9D4E8AF3FC3F3C0081B0712D4BA
:10442000A4F1D405072229463846B047062887BF9D
:104430000723B0FBF3F044F8D48C85F8078094BFD1
:10444000C5F80380E8710020D7E7284642460C49AA
:1044500015F009FF05460028CDD11022384604F199
:104460009401B0470F28EED81022294604F1940099
:1044700016F06CF8E7E700BF0401002099BA0100CC
:1044800050BD01002DE9F04188B0DDF838809C79FD
:104490005D791E79DF7893F802C093F801E01B780C
:1044A000B8F1000F0ED0CDE90638CDE904CE1346A1
:1044B000CDE90267CDE90045084A0BF05BFE08B084
:1044C000BDE8F081CDE905E3CDE9037C1346CDE9F4
:1044D0000156034A00940BF04DFEF0E754BD010075
:1044E00078BD010070B504461E4615468CB0A2B1D9
:1044F00029B10A4602A804210EF06BF902A9009125
:104500002B462246242103A8FFF7BCFF3146109A10
:1045100003A8FEF795FD0CB070BD03462421044AA4
:1045200003A80BF027FE0028F0DA6FF01500F2E781
:1045300099BD010007B5064B0648DA79C2EBC20205
:10454000009200221146FFF7CDFF03B05DF804FB97
:104550003000002099BA010007B5074B0748A3F5C2
:10456000B472D2791201009200221146FFF7BAFF0D
:1045700003B05DF804FB00BF9801002050BD0100AE
:1045800030B5044615468DB092B129B10A4602A84D
:1045900004210EF01EF902A900912B462246242187
:1045A00003A8FFF76FFF03A80FF08DFA0DB030BD21
:1045B00003462421044A03A80BF0DCFD0028F2DAAC
:1045C0006FF01500F2E700BF99BD010007B5009339
:1045D00013460A4601460348FFF784FF03B05DF81F
:1045E00004FB00BFE0BF01000A4601460148FFF797
:1045F000C7BF00BFE0BF010007B5009313460A46DE
:1046000001460348FFF76EFF03B05DF804FB00BFEF
:10461000DABF010007B5009313460A460146034876
:10462000FFF760FF03B05DF804FB00BFCBBF0100E4
:104630000A4601460148FFF7A3BF00BFCBBF0100F8
:1046400007B500220346009103481146FFF74AFFD1
:1046500003B05DF804FB00BFD2BF010008B50248FB
:104660000AF016FD002008BDE403002008B502484A
:104670000AF00EFD002008BDD403002070B5164CD2
:10468000D4E8AF3F13F0010F254618D014F8CD3C05
:10469000A4F1D406ABB1D4E8AF3F5A0701D400F07F
:1046A00075FED5E8EF3F23F48032C5E8E12F0029FD
:1046B000F7D1DB0303D5FFF7D1FFFFF7D7FF0020CA
:1046C00009E001F01DFA30B9F379002BE3D101F0D4
:1046D0008BFA0028DFD070BD0401002007B50093DD
:1046E00013460A4601460348FFF7FCFE03B05DF897
:1046F00004FB00BF47C001000A4601460148FFF71E
:104700003FBF00BF47C0010030B50024094D0A4B30
:1047100085B028460293039415F01AFA02AB284696
:1047200000934FF4A3620A2304490AF0B7FC204621
:1047300005B030BDE80D0020AEBD0100202A0020EC
:10474000014601480AF020BDE80D0020037830B58D
:10475000012B13D0022B27D07BB90A46184B03F14B
:10476000100453F8045BA34242F8045BF9D11B78B0
:10477000137043884B731B0A8B7330BD0A46104B72
:1047800003F1100453F8045BA34242F8045BF9D12F
:104790001B7813704368C3F307224B731B0CCB7356
:1047A0001B0A8A730B74E8E700F1100350F8042B1E
:1047B000984241F8042BF9D103780B70DDE700BF74
:1047C000B7BD0100012838B505460CBF06480748AB
:1047D00013F03EFB044620B101210C3013F09AFB8C
:1047E0002576204638BD00BFC809002044090020B6
:1047F0000246002070B50B460A49D1E8EF4FC1E8E8
:10480000E50F002DF9D124B9BDE870400120FFF774
:10481000D9BF01212082217604F10C0013F07AFB2C
:10482000204670BD7001002070B504460F2C0D4667
:104830001046194605D80D2C0DD9BDE87040FFF77C
:10484000D7BF132C07D10C4813F002FB044638B92C
:104850000024204670BD02460B4645B10748F3E7E9
:1048600001210C3013F056FB01232376F1E70120E0
:10487000BDE87040FFF7A6BF4C0A00209C0900204D
:1048800038B5C368B3F801401B786BB90F212046D7
:1048900002F0F6F8054640B9084B1A8822B96FEACB
:1048A00004506FEA1050188038BD012102F030F832
:1048B0002846BDE8384010F02CBE00BF6823002019
:1048C000F8B506460F4602F05DFA044640B183781B
:1048D000012B24D0132110F05BFE204610F019FEAE
:1048E0003946304605F03EFF054628BB394630467E
:1048F00004F04CFD144B1B6823B31C6804B10C3C42
:1049000053F8043C13B1394630469847D4B1234696
:10491000E4689B68A4B10C3C002BF4D1F7E70023BA
:10492000D0F8B4501321C0F8B43010F031FE204656
:1049300010F0EFFD002DD3D0284613F07CF9D5E719
:10494000002BE0D1F8BD00BF381D002010B5084C89
:104950000146052294F86F0002F02EFA38B994F857
:104960006F000422BDE81040024902F025BA10BDD4
:10497000300000202FBD010010B5012104460C308D
:1049800013F006FB2146BDE810400A23014A0078D7
:1049900010F006B80CB20100F8B53F4813F075FAF4
:1049A0000446002876D0037E012B44D0032B22D16D
:1049B000038A032B0CD84FF40073384A384939481E
:1049C0000EF024FB404080F311884FF0030002DF1B
:1049D000042104F10C0013F0DBFA47880688204616
:1049E00005F070FF304DC6F30B0325F81030238A15
:1049F0002046BB4202D006F00BF811E005F062FF42
:104A00000F2135F8100002F03BF8054608B92046A2
:104A1000F1E72146320B10F01BFD284610F079FD1E
:104A2000224BD3F84431002B34D0BDE8F840204964
:104A3000204815F07CB8038A012B0CD840F65D2382
:104A4000164A174917480EF0E1FA404080F31188E2
:104A50004FF0030002DF022104F10C0013F098FA7A
:104A6000054600780FF0C7FE83070CD440F661239B
:104A70000A4A11490B480EF0C9FA404080F31188E8
:104A80004FF0030002DF062321460C4A28780FF07E
:104A900087FFBCE7F8BD00BF74010020D0BD010056
:104AA00004BE01001DBE01006A230020300000206A
:104AB00030040020080F00203ABE0100DCB10100E4
:104AC000F8B50746907A0E46144605F0F3FE284BDB
:104AD00083424BD1204605F0F5FE0C23254D03FB08
:104AE00000504388BB4241D1234FD7F8400120B149
:104AF00005F08EFF0023C7F84031204605F0E2FEA6
:104B00000C2707FB005043689BB196B9204605F07F
:104B1000D9FE012107FB00504268D2E90003127A56
:104B200003F01F07B9405B09D2B100EB83000FF01F
:104B30008DFE204605F0C6FE0C2707FB005083685B
:104B4000A3B1204605F0BEFE78432E54204605F062
:104B5000B9FE07FB0055A868BDE8F8400AF01CB98B
:104B6000C94300EB83000FF032FFE2E7F8BD00BF5E
:104B7000200A00200C1C00203000002038B5042141
:104B800004460C3013F004FA457801782246408838
:104B9000FFF796FF25B1BDE8384002480AF0FCB89F
:104BA00038BD00BF5801002038B5032104460C3041
:104BB00013F0EEF9E368057822461978B0F80100A1
:104BC000FFF77EFF25B1BDE8384002480AF0E4B89F
:104BD00038BD00BF5801002010B5C1E900239DF881
:104BE00008300C460B7205F06DFE0C22024B02FBE6
:104BF00000335C6010BD00BF0C1C00202DE9F047A5
:104C00004FF0FF324FF0FF33064617480F4613F0C0
:104C10001FF94FF00008044600F10C0A012150462C
:104C200013F078F9204684F8188005F04BFE4FF019
:104C30000C090E4D09FB00504680204605F042FE4F
:104C400009FB0050C0F80880204605F03BFE09FB38
:104C5000005503215046C5F8048013F05FF9068023
:104C600087702046BDE8F087200A00200C1C002039
:104C70002DE9F041074615460C4686B021B9FFF7ED
:104C8000BDFF044600284DD001220021684614F0E3
:104C90009EFE204605F016FE0C23DFF8948003FBF1
:104CA0000080C0F808D0204613F008F901462148DA
:104CB00013F002F94FF4A022002368460AF092F89C
:104CC000064688B14FF4A9731B4A1C491C480EF0D4
:104CD0009DF9324639461B480EF098F9404080F362
:104CE00011884FF0030002DF204605F0EBFD0C2396
:104CF000584318F800606EB1204605F089FE092E71
:104D000013D00D2E0CBF6FF00B006FF0040006B037
:104D1000BDE8F08115B12C600020F8E7204605F0D1
:104D200077FEF9E76FF06800F1E76FF06E00EEE7ED
:104D30000C1C00207C010020D0BD010068BE0100D9
:104D40001DBE010071BE0100F7B5144B054693F975
:104D50009B300C46002B1DDA14B9204603B0F0BD81
:104D6000082C4FF0000142F2180001AA264628BF85
:104D70000826FFF77DFF0028F0D1019F3246F96831
:104D80002846013115F0BBFB384605F041FE35449D
:104D9000A41BE1E76FF08500E0E700BF30000020D2
:104DA0000138C0B202289ABF014B185C002070473E
:104DB000ECBE01002DE9FF4105460026794BB0F815
:104DC0000180198848F47042914204BF1E80012678
:104DD00000F0E2FC2C78BCB13C2C35D101F05CF841
:104DE0006FF0800110300FF0F2FD0020FFF7AEFDF4
:104DF000054648B30473002101F08AFD284604B03B
:104E0000BDE8F04110F085BBEB782F1D012B08BFEA
:104E1000654B384608BF93F86F400FF0E8FC394601
:104E2000A8B102A80FF0D8FC05F111010DF10100A5
:104E30000FF08CFD01238DF80030EB78012B12D0A0
:104E4000132140460FF065FE04B0BDE8F081204616
:104E500010F0D3F8014602A80FF07DFD39466846F0
:104E60000FF079FDE9E702A8FFF770FDEB78044643
:104E7000012B0AD101F010F807466FF080011030C5
:104E80000FF0A5FD384610F052FA002CD8D020467D
:104E9000B5F8013002A920F8883B0FF05CFDB5F8A9
:104EA0001730A4F89E30B5F81930A4F8A430B5F83E
:104EB0001B30A4F8A630002395F8038023733B4BE6
:104EC000B8F1010FC4F8B83003F14703C4F8BC309F
:104ED0004FF4A47384F80380A4F8C03023D169464A
:104EE00004F18F000FF037FD00F0D6FF1030D0E84E
:104EF000AF3F13F4005F2C4F4AD10B3506222846F2
:104F00002B4984F8968015F09EF9034604F197002A
:104F1000002B3AD029460FF019FDD7F8E430590696
:104F200001D501F04FF90721204601F0F1FC1EB137
:104F30000121204601F0ECFC204610F020FB637BB1
:104F4000072B1ED1231DD3E8AF3F9A0419D4E37871
:104F500023B1154B93F8D8301B0712D5022142F22A
:104F60001600FFF74BFE054658B102210C3012F037
:104F7000D5FF238800220380294642F21600FFF75E
:104F800077FE204610F0C5FA5EE707F16901C2E737
:104F9000217A04F19600C1EBC10139440FF0DBFC2A
:104FA000BBE700BF682300203000002001011B0088
:104FB00043BD010000B5C16889B00B7801A88DF828
:104FC0000030B1F801300431ADF8013011F8013C86
:104FD0008DF80330B1F80730ADF81730B1F809306B
:104FE000ADF81930B1F80B30ADF81B304B7B8DF8B4
:104FF0001D300FF0B0FC0DF10B0007490FF0A6FCBF
:1050000006490DF111000FF0A1FC6846FFF7D2FE32
:1050100009B05DF804FB00BF9900002043BD01000A
:1050200037B504460D468DF80700A0B929B107220F
:1050300028460A4915F007F940B9002008490DF142
:10504000070205F0F9FA002003B030BD29462046DA
:10505000FFF736FCF7E76FF01500F5E736BD010006
:105060008F48010029289ABF014B185C092070471E
:10507000C2BE0100024BD3F864315B69184700BF20
:105080003000002038B505460C4619B9FFF7B6FDCB
:10509000044698B140F635439D4209D12046FFF7BA
:1050A000E9FF054640B1204605F0B2FC284638BD70
:1050B0002146044812F000FF0025F7E76FF068056D
:1050C000F4E700BF7C010020F8B5044605F0FAFBC8
:1050D0001D4B33F81050A07A05F0ECFB214614F07C
:1050E00068FC1A4B93F88A309B062CD50F21284672
:1050F00001F0C6FC38B3437B073B012B03D9BDE865
:10510000F84010F006BA10F004FA052140F63540D8
:10511000FFF774FD0446B0B100F10C0701213846D9
:1051200012F0FCFE012604210670384612F0F6FE4D
:10513000002305808670C3702146BDE8F84040F624
:105140003540FFF79FBFF8BD6A23002030000020E4
:105150002DE9F0473C4FDFF8F48007F11409FB68B4
:1051600048466FF39433FB6001F08AFB451C4FF017
:10517000FF324FF0FF33294633480AF0B9FD60B1E2
:1051800040F6DE234246324932480DF03FFF4040B0
:1051900080F311884FF0030002DF2B4E15B90AF09F
:1051A00097FADCE7F368C3F38633042B42D1337BF1
:1051B000002B42D100220023274812F04EFE044665
:1051C00060B94FF427634246244922480DF01EFF80
:1051D000404080F311884FF0030002DFDFF880A029
:1051E0004FF0FF324FF0FF331E4809F0FBFDDAF8B5
:1051F000400120B105F00CFC0023CAF840312046E4
:1052000012F05CFECAF840012046FFF733FF88B178
:10521000144809F0C1FD204605F054FB0C22124B46
:105220001F2102FB003022464088FFF749FC204640
:1052300005F0EEFB1436013DB0E7012BFAD13069E1
:10524000383801F067FEF5E7F4030020D0BD010017
:1052500068BE01001DBE01007C01002072C001007B
:1052600030000020580100200C1C00202DE9F041E6
:10527000044600F10C06304612F09AFEB4F8108095
:105280000546B8F1010F0CD840F685631B4A1C494E
:105290001C480DF0BBFE404080F311884FF0030026
:1052A00002DF3046022112F073FE074600780FF04D
:1052B000A2FAC20706460CD440F689630F4A124987
:1052C00010480DF0A3FE404080F311884FF003001A
:1052D00002DF052321460D4A38780FF061FBB30742
:1052E00007D56369A4F8108013FA85F5E560BDE879
:1052F000F0812046BDE8F04105F08ABBD0BD010039
:1053000004BE01001DBE01009DBE0100B4B101003C
:1053100038B5037E0446012B0AD0032B16D1214653
:105320000D4812F09CFD0D490D4814F000FC0BE0F7
:10533000C36818780FF05FFAC207054602D5204609
:10534000FFF794FFAB07EAD4002038BD05F060FBFF
:105350006FF01500F9E700BF740100203004002051
:10536000080F0020084A0346D2F8640130B9D96812
:1053700039B1596929B1C2F8643170476FF07700CB
:1053800070476FF01500704730000020042101487D
:105390000FF05CBA0401002010B5FBF779FC034B59
:1053A0001B6813B1BDE81040184710BD841C0020D5
:1053B00070B5314D0646D5F8643188B0002B54D015
:1053C0006FF0020105F1D4000FF001FB01210FF095
:1053D0003DFAC3074CD40FF0A1F90446002841D18F
:1053E000264B1E60012205F59470114614F0EFFA69
:1053F00005F5A67014F0C6FA00220023CDE90623B5
:105400006FF008034FF48062CDE90243CDE9004418
:105410001B4B1C4904941C4809F04CFB1B491A48BF
:1054200014F01EFA1A4814F093FB6FF0070340F6CD
:10543000980218491648009409F030FE164914489D
:1054400014F00EFAD5F86431DB689847044648B981
:1054500026B908B0BDE87040FBF71ABC05F1C400DE
:1054600009F016FE204608B070BD6FF01204F9E78F
:105470006FF07704F6E700BF30000020841C0020A6
:1054800051510000382F0020880E0020B6BE0100C8
:10549000080F002038330020BCBE010000487047D0
:1054A000D0BA0100F8B506460024094DEF79E3B201
:1054B0009F4202D86FF0010007E0294630460FF006
:1054C000D9FC0735631C08B12046F8BD1C46EEE741
:1054D000300000204FF47A7370B540F2E7304FF49B
:1054E00000460021094D4FF47A72B5F8B0415C4393
:1054F0000023E4FB0601FBF749FA02460B4605F5DB
:10550000C070BDE8704009F069BE00BF30000020E7
:10551000064BD3E8EF1F21F40051C3E8E21F002A35
:10552000F7D10021024800F0B1BC00BF0401002007
:10553000CF4F0100F8B50F46154670BB272142F248
:105540002700FFF75BFB064650B327210C3012F013
:10555000E5FC2A46044639460FF0B4FCC31D05F1AC
:10556000100152F8040B8A4243F8040BF9D10E4D96
:1055700004F1170305F110042A4603CAA242186079
:105580005960154603F10803F6D13146BDE8F840ED
:10559000002242F22700FFF76BBB6FF01500F8BD49
:1055A0006FF06800FBE700BF980100202DE9FF4184
:1055B000064614460D46002939D0284636490FF0D4
:1055C00059FCA0BB2946354BC6EBC60018440FF06A
:1055D00079FC4FF010084FF4B475002318FB065502
:1055E0002E4FCDE90033CDE902333D44A4B342460A
:1055F0006946204614F027FE002836D004EB080246
:105600002B4620686168083403C394421D46F7D1D5
:10561000062303FB0670224900F5BC700FF04DFC19
:1056200020480FF02FFC430731D400201AE06846D1
:105630000FF0C4F8B0B96846FFF734FF0028F6DA77
:10564000164BC6EBC600694618440FF03BFC002D14
:10565000BFD001462846BAE74146284600F05EFE24
:105660000028D5D004B0BDE8F0814146284600F0BE
:1056700055FE0028F6D105F110022B4603CB9342CC
:10568000206061601D4604F10804F6D1C0E7FEF712
:10569000E5FFFEF7EBFFC8E736BD01003000002054
:1056A0003DBD01000401002038B506221149054620
:1056B00014F0C9FDC8B1062142F20500FFF79EFAB9
:1056C0000446A0B1062229460C3012F02DFC00221F
:1056D000214642F20500FFF7CBFA38B905482946C2
:1056E0000FF0EBFB012300F8013C002038BD6FF008
:1056F0006800FBE79900002013B5F0B910480FF0DF
:10570000C1FB830417D469460E480EF0CCFF044653
:1057100020B1FFF7DFFE204602B010BD6846FFF75C
:10572000C3FF04460028F4D14FF4005104480FF0A1
:10573000F3FBFFF7CFFE0024EDE76FF01504EAE777
:105740000401002098010020002313B510480DF13A
:1057500007018DF8073000F099FB9DF80740FFF72F
:10576000D7FE24B102B0BDE810400FF05ABC094882
:105770000FF088FBC104F5D406480FF083FB420606
:1057800004D504480FF07EFBC305EBD402B010BD76
:10579000994E010004010020084BD3E8EF2F22F4BA
:1057A0000041C3E8E01F0028F7D1130404D500220C
:1057B0000220034904F062BF704700BF04010020CB
:1057C00091500100002307B50549CDE900036A4661
:1057D000022004F053FF019803B05DF804FB00BF02
:1057E000534F0100F7B5044670B1434D95F82021A1
:1057F00095F821310AB19A4208D2013385F8213156
:10580000237A43F00403237203B0F0BD0021062283
:10581000084601F0D1FA064678B105F1D4004FF4FC
:1058200000410FF079FB3046237A43F001032372E5
:1058300003B0BDE8F0400FF06CBE01462F4800F009
:1058400025FB95F82131B3B995F8212195F8203140
:105850009A421FD1002242F229001146FFF708FAAE
:1058600070B995F82131013385F82131237A43F05D
:105870000403237204E030460FF036FB0028E3D027
:1058800001200FF031FB00211D4803B0BDE8F040BE
:1058900000F0FCBA2246671C394612F82A0BFFF7C3
:1058A00049FE06460028EBD195F82131013385F8F1
:1058B0002131237A43F00403237295F8A7305B0764
:1058C000DED5394668460FF0FDFA0123082142F281
:1058D0004E008DF80730FFF791F904460028CFD02D
:1058E000694608220C3012F01FFB3246214642F274
:1058F0004E00FFF7BDF9C3E730000020294F01003B
:10590000A94F01002DE9F041044630B3394D95F817
:10591000202195F82131C2B10132934216DC0021D9
:105920000622084601F048FA0646C0B105F1D40047
:105930004FF400410FF0F0FA237A304643F00203AF
:105940002372BDE8F0410FF0E4BD13B1013B85F8CF
:105950002131237A23F004032372BDE8F08101464C
:10596000254800F093FA30460FF0BEFA074688B992
:1059700095F8213195F820219A4217D2013B85F8FC
:105980002131237A024623F0040302201B492372AB
:1059900004F074FE95F8213113B101200FF0A4FA40
:1059A000BDE8F0410021164800F070BA072142F22C
:1059B0002800FFF723F904F1010806460028E9D082
:1059C00007210C3012F0AAFA41460FF07BFA3A4652
:1059D000314642F22800FFF74BF90028DAD195F85A
:1059E0002131013B85F82131237A23F0040323720E
:1059F000D0E700BF30000020294F0100D34E010046
:105A0000A94F0100F0B50E46044685B080B1234988
:105A10000FF030FA60B92378012B25D1A37903F078
:105A2000C003C02B20D12046FFF73CFD00282EDA12
:105A30001B4DEB79012B2DD005F1D4000FF022FA8C
:105A400010F0010014D1CDE90000CDE902005CB1F5
:105A5000204612490FF00EFA30B92EB110226946D5
:105A6000304614F0F0FB18B96FF0150005B0F0BD2A
:105A7000EF7932467B1C21463846EB71FFF796FDE5
:105A800008B93846F2E7EB79013BEB71EEE76FF0CE
:105A90007700EBE76FF00B00E8E700BF36BD0100D1
:105AA00030000020F7B50446C8B1002141F20900DA
:105AB00001AAFFF7DDF8064688B9019F0622FD68B6
:105AC0000D490135284614F0BEFB28B106222846B0
:105AD0000A4914F0B8FB28B9384604F099FF0020B1
