:020000040000FA
:10000000A0500020C16E000041F80100956E000074
:10001000956E0000956E0000956E0000956E0000D4
:100020000000000000000000000000001167000058
:10003000956E000000000000A9660000956E0000AB
:100040009D6700009D6700009D6700009D670000A0
:100050009D6700009D6700009D6700009D67000090
:100060009D6700009D6700009D6700009D67000080
:100070009D6700009D6700009D6700009D67000070
:100080009D6700009D6700009D6700009D67000060
:100090009D6700009D6700009D6700009D67000050
:1000A0009D6700009D6700009D6700009D67000040
:1000B0009D6700009D6700009D6700009D67000030
:1000C0009D6700009D6700009D6700009D67000020
:1000D0009D6700009D6700009D6700009D67000010
:1000E0009D6700009D6700009D6700009D67000000
:1000F0009D6700009D6700009D6700009D670000F0
:100100009D6700009D6700009D6700009D670000DF
:100110009D6700009D6700009D6700009D670000CF
:100120009D6700009D6700009D6700009D670000BF
:100130009D6700009D6700009D6700009D670000AF
:100140009D6700009D6700009D6700009D6700009F
:100150009D670000FFFFFFFF81F0004102E000BF4C
:1001600083F0004330B54FEA41044FEA430594EA77
:10017000050F08BF90EA020F1FBF54EA000C55EAB2
:10018000020C7FEA645C7FEA655C00F0E2804FEA83
:100190005454D4EB5555B8BF6D420CDD2C4480EA65
:1001A000020281EA030382EA000083EA010180EA95
:1001B000020281EA0303362D88BF30BD11F0004FE3
:1001C0004FEA01314FF4801C4CEA113102D0404219
:1001D00061EB410113F0004F4FEA03334CEA133354
:1001E00002D0524263EB430394EA050F00F0A7806C
:1001F000A4F10104D5F1200E0DDB02FA0EFC22FA67
:1002000005F2801841F1000103FA0EF2801843FA5A
:1002100005F359410EE0A5F120050EF1200E012A4B
:1002200003FA0EFC28BF4CF0020C43FA05F3C01889
:1002300051EBE37101F0004507D54FF0000EDCF102
:10024000000C7EEB00006EEB0101B1F5801F1BD3AB
:10025000B1F5001F0CD349085FEA30004FEA3C0CAF
:1002600004F101044FEA445212F5800F80F09A80A5
:10027000BCF1004F08BF5FEA500C50F1000041EBA9
:10028000045141EA050130BD5FEA4C0C404141EBAD
:100290000101013C28BFB1F5801FE9D291F0000FA8
:1002A00004BF01460020B1FA81F308BF2033A3F157
:1002B0000B03B3F120020CDA0C3208DD02F1140C4E
:1002C000C2F10C0201FA0CF021FA02F10CE002F189
:1002D0001402D8BFC2F1200C01FA02F120FA0CFC82
:1002E000DCBF41EA0C019040E41AA2BF01EB0451CB
:1002F000294330BD6FEA04041F3C1CDA0C340EDCC9
:1003000004F11404C4F1200220FA04F001FA02F30B
:1003100040EA030021FA04F345EA030130BDC4F1C9
:100320000C04C4F1200220FA02F001FA04F340EABE
:100330000300294630BD21FA04F0294630BD94F06F
:10034000000F83F4801306BF81F480110134013D56
:100350004EE77FEA645C18BF7FEA655C29D094EAC7
:10036000050F08BF90EA020F05D054EA000C04BF45
:100370001946104630BD91EA030F1EBF0021002030
:1003800030BD5FEA545C05D14000494128BF41F0CF
:10039000004130BD14F580043CBF01F5801130BD33
:1003A00001F0004545F0FE4141F470014FF00000BE
:1003B00030BD7FEA645C1ABF194610467FEA655C6F
:1003C0001CBF0B46024650EA013406BF52EA033511
:1003D00091EA030F41F4002130BD00BF90F0000FFF
:1003E00004BF0021704730B54FF4806404F132043B
:1003F0004FF000054FF0000150E700BF90F0000FF4
:1004000004BF0021704730B54FF4806404F132041A
:1004100010F0004548BF40424FF000013EE700BFEA
:1004200042004FEAE2014FEA31014FEA02701FBF7A
:1004300012F07F4393F07F4F81F06051704732F0AC
:100440007F4208BF704793F07F4F04BF41F4002103
:10045000704730B54FF4607401F0004521F0004161
:100460001CE700BF50EA010208BF704730B54FF0EB
:1004700000050AE050EA010208BF704730B511F0EC
:10048000004502D5404261EB41014FF4806404F124
:1004900032045FEA915C3FF4D8AE4FF003025FEAAA
:1004A000DC0C18BF03325FEADC0C18BF033202EB2E
:1004B000DC02C2F1200300FA03FC20FA02F001FA88
:1004C00003FE40EA0E0021FA02F11444BDE600BF2B
:1004D00070B54FF0FF0C4CF4E06C1CEA11541DBFDA
:1004E0001CEA135594EA0C0F95EA0C0F00F0DEF8A5
:1004F0002C4481EA030621EA4C5123EA4C5350EA8A
:10050000013518BF52EA033541F4801143F48013DA
:1005100038D0A0FB02CE4FF00005E1FB02E506F06B
:100520000042E0FB03E54FF00006E1FB03569CF0C0
:10053000000F18BF4EF0010EA4F1FF04B6F5007FC6
:1005400064F5407404D25FEA4E0E6D4146EB060638
:1005500042EAC62141EA55514FEAC52040EA5E50C1
:100560004FEACE2EB4F1FD0C88BFBCF5E06F1ED86B
:10057000BEF1004F08BF5FEA500E50F1000041EBA2
:10058000045170BD06F0004646EA010140EA02004F
:1005900081EA0301B4EB5C04C2BFD4EB0C0541EA71
:1005A000045170BD41F480114FF0000E013C00F386
:1005B000AB8014F1360FDEBF002001F0004170BDAA
:1005C000C4F10004203C35DA0C341BDC04F11404C3
:1005D000C4F1200500FA05F320FA04F001FA05F24F
:1005E00040EA020001F0004221F0004110EBD3701C
:1005F00021FA04F642EB06015EEA430E08BF20EA48
:10060000D37070BDC4F10C04C4F1200500FA04F3EA
:1006100020FA05F001FA04F240EA020001F000417C
:1006200010EBD37041F100015EEA430E08BF20EAEF
:10063000D37070BDC4F1200500FA05F24EEA020E37
:1006400020FA04F301FA05F243EA020321FA04F066
:1006500001F0004121FA04F220EA020000EBD3701D
:100660005EEA430E08BF20EAD37070BD94F0000F1D
:100670000FD101F00046400041EB010111F4801F51
:1006800008BF013CF7D041EA060195F0000F18BF02
:10069000704703F00046520043EB030313F4801F3E
:1006A00008BF013DF7D043EA0603704794EA0C0FF8
:1006B0000CEA135518BF95EA0C0F0CD050EA41060E
:1006C00018BF52EA4306D1D181EA030101F000418B
:1006D0004FF0000070BD50EA410606BF10461946B3
:1006E00052EA430619D094EA0C0F02D150EA0136BF
:1006F00013D195EA0C0F05D152EA03361CBF104600
:1007000019460AD181EA030101F0004141F0FE419E
:1007100041F470014FF0000070BD41F0FE4141F422
:10072000780170BD70B54FF0FF0C4CF4E06C1CEA22
:1007300011541DBF1CEA135594EA0C0F95EA0C0FD7
:1007400000F0A7F8A4EB050481EA030E52EA033592
:100750004FEA013100F088804FEA03334FF08055B3
:1007600045EA131343EA12634FEA022245EA1115E0
:1007700045EA10654FEA00260EF000419D4208BF91
:10078000964244F1FD0404F5407402D25B084FEA3E
:100790003202B61A65EB03055B084FEA32024FF4EA
:1007A00080104FF4002CB6EB020E75EB030E22BF47
:1007B000B61A754640EA0C005B084FEA3202B6EB07
:1007C000020E75EB030E22BFB61A754640EA5C00B6
:1007D0005B084FEA3202B6EB020E75EB030E22BF46
:1007E000B61A754640EA9C005B084FEA3202B6EB47
:1007F000020E75EB030E22BFB61A754640EADC0006
:1008000055EA060E18D04FEA051545EA16754FEA67
:1008100006164FEAC30343EA52734FEAC2025FEA85
:100820001C1CC0D111F4801F0BD141EA00014FF014
:1008300000004FF0004CB6E711F4801F04BF0143E5
:100840000020B4F1FD0C88BFBCF5E06F3FF6AFAE01
:10085000B5EB030C04BFB6EB020C5FEA500C50F191
:10086000000041EB045170BD0EF0004E4EEA113114
:1008700014EB5C04C2BFD4EB0C0541EA045170BD1B
:1008800041F480114FF0000E013C90E645EA060E5F
:100890008DE60CEA135594EA0C0F08BF95EA0C0F8D
:1008A0003FF43BAF94EA0C0F0AD150EA01347FF4D5
:1008B00034AF95EA0C0F7FF425AF104619462CE7AC
:1008C00095EA0C0F06D152EA03353FF4FDAE10460F
:1008D000194622E750EA410618BF52EA43067FF460
:1008E000C5AE50EA41047FF40DAF52EA43057FF4F0
:1008F000EBAE12E74A0011D212F5001211D20DD55B
:100900006FF47873B3EB62520ED44FEAC12343F015
:10091000004343EA505323FA02F070474FF00000BF
:10092000704750EA013002D14FF0FF3070474FF06E
:100930000000704753B94AB9002908BF00281CBFFE
:100940004FF0FF314FF0FF3000F00CB8ADF1080C64
:100950006DE904CE00F008F8DDF804E0DDE90223DB
:1009600004B07047704700BF2DE9F04786468C46BB
:100970000846089E154674461946002B40F0C18073
:100980008542B2FA82F245D94AB1C2F1200300FA97
:1009900002FC954094402EFA03F343EA0C0C4FEA14
:1009A000154EA8B2230CBCFBFEF80EFB18CC08FBBE
:1009B00000F943EA0C43994528D9EB1808F1FF37B1
:1009C00004D2994502D9A8F102072B44A3EB0903ED
:1009D000A4B2B3FBFEFC0EFB1C330CFB00F044EA9C
:1009E0000344A04214D92C190CF1FF3304D2A042C5
:1009F00002D9ACF102032C44241A43EA07401EB189
:100A0000D440002334607360BDE8F0874746DDE7DB
:100A10006346F1E792BB431B01214FEA154EAFB28B
:100A2000200CB3FBFEFC0EFB1C330CFB07F840EA6A
:100A30000343984561D9EB180CF1FF3004D2984577
:100A400002D9ACF102002B44A3EB0803A4B2B3FB20
:100A5000FEFC0EFB1C330CFB07F744EA0344A742E1
:100A60004DD92C190CF1FF3304D2A74202D9ACF1B5
:100A700002032C44E41B43EA0040C0E7C2F1200318
:100A80009540944020FA03F12EFA03F34FEA154EF5
:100A90009040AFB20343B1FBFEFC0EFB1C10190CDF
:100AA0000CFB07F841EA0041884522D969180CF18E
:100AB000FF3004D2884502D9ACF102002944A1EBF1
:100AC00008019BB2B1FBFEFC0EFB1C110CFB07F7EF
:100AD00043EA01439F420ED9EB180CF1FF3104D2D7
:100AE0009F4202D9ACF102012B44DB1B41EA0041D9
:100AF00093E76046E3E76146F7E76046A4E76346AD
:100B0000B8E7834206D916B9002108467CE7C6E952
:100B100000E0F9E7B3FA83F78FB9834201D3724556
:100B200008D8BEEB020460EB030301209C461EB90B
:100B3000002169E73846FAE7C6E9004CF8E7C7F153
:100B4000200CBB400EFA07F522FA0CF42EFA0CF139
:100B5000BA401C4320FA0CF3B8404FEA1449014351
:100B60001FFA84FEB3FBF9F809FB18300B0C08FBE5
:100B70000EFA43EA00439A4540D9E31808F1FF30E2
:100B800004D29A4502D9A8F102002344A3EB0A0338
:100B900089B2B3FBF9F809FB183308FB0EFE41EAF2
:100BA00003418E452CD9611808F1FF3304D28E45DC
:100BB00002D9A8F10203214443EA0040A1EB0E014F
:100BC000A0FB02984145CE46434602D306D14D458F
:100BD00004D20138B9EB020E68EB0403002EA7D053
:100BE000B5EB0E0261EB030101FA0CFC22FA07F3EC
:100BF000F9404CEA0303C6E9003199E74046C5E7EE
:100C00004346D9E710F8012B11F8013B012A28BF10
:100C10009A42F7D0D01A7047034611F8012B03F817
:100C2000012B002AF9D17047034613F8012B002A43
:100C3000FBD1181A01387047F0B5654D8BB0D5F867
:100C40006831996811F001011AD140F6034009AAF0
:100C500007F01EFC0446002840F0B7800998C368DE
:100C60001B785BB905F1D403D3E8AF2F02F009027A
:100C7000D3E8EF1FC3E8E42F002CF9D110F0F8FE01
:100C8000002141F2030009AA07F002FC04460028F3
:100C900040F09B80099B4F4EDA68D2F80100D2F8F1
:100CA000051003C6184610F0E3FE214641F201008C
:100CB00009AA07F0EDFB0446002840F08680099859
:100CC000C3685A7885F870205A88A5F872201A7976
:100CD00085F87120B3F80720A5F87420B3F8053023
:100CE000A5F8763010F0C4FE214641F2020009AAB0
:100CF00007F0CEFB0446002867D1099FFA68531C11
:100D00004132344618685968083303C49342264672
:100D1000F7D1384610F0ACFE09F08AFC04460028F2
:100D200053D195F88A3013F0200318D12A4A2B4961
:100D3000CDE90132009302221EF007FF95F87C30C6
:100D400013F040034ED1264A1846CDE9013223491B
:100D5000012200931EF0F9FE6FF0120435E0072126
:100D600040F6334007F046FB0646002800F0358188
:100D700007210C3010F0C0FF6FF00903012703704A
:100D80000623C0F802408471047122464770C37084
:100D9000314640F6334007F07BFB0446A8B939469C
:100DA00040F6314007F026FB0646002800F015818A
:100DB00039460C3020F0C3FF2246314640F6314020
:100DC00007F066FB04460028B8D020460BB0F0BD03
:100DD00030000020A800002069800200D83C0200FA
:100DE00097800200002142F2030009AA07F050FB9D
:100DF00004460028E9D1099BA74EDA68D2F8010021
:100E0000D2F8051003C6184610F032FE214642F211
:100E1000020009AA07F03CFB04460028D5D1099C32
:100E2000E368B3F8012091B249B1D97839B1A5F896
:100E30000421DA78114606F1280022F0A3F92046B1
:100E400010F016FE95F87C6016F0200618D10221ED
:100E500040F66D4007F0CEFA0446002800F0BD8051
:100E600002210C3010F048FF012321460370467028
:100E7000324640F66D4007F00BFB04460028A4D133
:100E800095F89C301E0712D5002142F21C0009AAD9
:100E900007F0FEFA0446002897D10998C368D3F8F2
:100EA0000120D3F80530C5E9382310F0E1FD95F8AD
:100EB000D8305C062AD5022142F22E0007F09AFAB9
:100EC0000446002800F0898002210C3010F014FF45
:100ED000B5F8B83121460380002242F22E0007F017
:100EE000D7FA044600287FF470AF014609AA42F2FF
:100EF0002A0007F0CDFA044600287FF466AF09986F
:100F0000C3685B7885F8203110F0B2FD082142F209
:100F1000010007F06FFA044600285ED008210C306B
:100F200010F0EAFE95F8D81040F2022311F0400FBD
:100F300008BF0323024688074CBF43F02C0043F050
:100F40000C008B0695F8D93048BF40F0400013F0F4
:100F5000090F95F8A23018BF40F4006003F00603B3
:100F6000CF0748BF40F01000062B08BF40F4C07008
:100F700000211EF001FE2146002242F2010007F08E
:100F800087FA044600287FF420AF95F87C30B5F846
:100F900004119E0624D4C9B941F2050009AA07F03C
:100FA00077FA044600287FF410AFB5F80431099CA5
:100FB0004BB9E368B3F80120A5F804219A883748B3
:100FC000114622F0DFF8204610F052FD082140F6CD
:100FD000014007F00FFA044680B96FF06804F4E6A8
:100FE0000029F3D12E4B0122CDE901032D490346FF
:100FF00000901EF0AAFD6FF00404E6E608210C3014
:1010000010F07AFE95F8D8300246D9073AD44FF05E
:10101000005125481EF0B0FD2146002240F6014057
:1010200007F036FA044600287FF4CFAE014609AA3D
:101030004FF6014007F02CFA00283BD01B4BCDE9BE
:101040000143234600940222184616491EF07DFDF6
:1010500008F04EFF044600287FF4B7AE0AF056FDB4
:10106000044600287FF4B1AEEB79002B40F09E805F
:101070000F4B0322CDE901030A49034600901EF0FD
:1010800064FDA2E602A1D1E90001C3E7AFF300804D
:101090009088000200800020080100203801002014
:1010A000BB800200D83C020010880002DE800200F3
:1010B000B2810200099E4149F468B4F80130032B63
:1010C00096BF3F4A3F4A52F82320CDE903233E4BC7
:1010D0000322029300231846CDE900331EF035FDAC
:1010E000B4F80130B4F80320022B3AD1032A38D8DF
:1010F000364B53F82230CDE90332354B03220293AD
:1011000000232E491846CDE900331EF01EFDD4F809
:10111000091063790791B4F80710032B0691A179A0
:101120004FF0000496BF2B4A264A52F82320CDE9FF
:101130000431294B2149204603920293032223467E
:10114000CDE900441EF001FD304610F091FC21462F
:101150004FF6024009AA07F09BF9064618B11F4B4B
:101160006DE7184BC7E709981D4CC368B3F8013009
:10117000A4F8C13010F07CFC94F8C1305B077FF517
:1011800067AF31464FF6034009AA07F081F928B14D
:10119000144B0096CDE90163334654E70998C368C0
:1011A0005B7884F8C03010F063FC51E708210E48EA
:1011B0001EF0AFFC07F088FF07E600BFD83C020036
:1011C000AC4502002F7B0200028102009C45020018
:1011D0001B8102008C450200338102006081020005
:1011E0003000002089810200040100202DE9F04137
:1011F00012F0FC6F1346D0E9014706690ED0424950
:1012000040F2C733414A42481DF061F841481DF0A1
:101210005EF840F2C7313D481DF052F802F030024E
:10122000302A0CD13C4940F2CA33384A38481DF0C4
:101230004EF83A481DF04BF840F2CA31EBE7384A15
:10124000384D1A40AA420CD1374940F2CE332F4ACA
:101250002F481DF03CF835481DF039F840F2CE31EA
:10126000D9E703F00602042A09D1314940F2D1330B
:10127000264A27481DF02BF840F2D131CBE713F472
:10128000402216D09D030CD42A494FF475731F4A8F
:101290001F481DF01CF828481DF019F84FF475710F
:1012A000B9E7B2F5402F18D0244A9A4301D183F40C
:1012B0004023012524688D40254223F4801219D152
:1012C0001F494FF47973114A11481DF000F81D4869
:1012D0001CF0FDFF4FF479719DE71B494FF47673C5
:1012E0000A4A0B481CF0F3FF18481CF0F0FF4FF4BB
:1012F000767190E73468DB074CBF2C43AC43346015
:101300003B68BDE8F0411847AB4D02007A4D020042
:10131000084E0200254E0200494E0200824E020095
:101320000200030002000100BF4E0200064F02004F
:10133000554F0200884F0200CE4F020001001000FE
:1013400076500200B4500200095002004A500200D8
:10135000034670B50A460068197902F4C003B3F574
:10136000C00F0569D0E901640ED1284940F26A3303
:10137000274A28481CF0ABFF27481CF0A8FF40F282
:101380006A3123481CF09CFF63B9244940F26E3354
:101390001F4A20481CF09BFF21481CF098FF40F298
:1013A0006E31EEE702F0C863B3F5800F0CD11D4932
:1013B0004FF45E73164A17481CF089FF1A481CF058
:1013C00086FF4FF45E71DCE7012336688B403342C1
:1013D0000CD1164940F282330D4A0E481CF077FFBB
:1013E00013481CF074FF40F28231CAE7160204D59C
:1013F0002D682B4218BF82F0C062A46902F0C0635E
:10140000A446BDE8704002F0B0726047C6500200CA
:101410007A4D0200084E02000751020033510200CB
:101420005D51020088510200D25102007650020044
:10143000B450020008B54FF400110448FFF788FFCC
:10144000BDE80840024817F073BB00BFF841020036
:10145000F002002008B54FF400110448FFF778FFB0
:10146000BDE80840024817F063BB00BF004202001D
:10147000E0020020F0B505464FF4F972002187B074
:10148000344822F0D1F955F8044C324E2046FFF78B
:10149000CBFB042823D030462F490024FFF7BCFBA8
:1014A0002E4B2F49032220460293CDE900442346C8
:1014B00003961BF08CFB2748FFF7B6FB81B225484B
:1014C00001F028FE48B1274B0122CDE90143204617
:1014D0002346234900941BF07AFB07B0F0BD237824
:1014E000303B012B0BD86378303B012B07D8A37816
:1014F000303B012B03D8E378303B012B02D91A494A
:101500001448CAE70024194F55F8043CE0B21B5DAB
:10151000302B10D120F057FFA8B1CDE90340144B78
:10152000029300230E4901221846CDE900331BF037
:101530004EFB1049E4E720F043FF18B1CDE903402A
:101540000D4BEDE701200134042C07F8010BDBD132
:101550000A49D5E76025002017520200B652020062
:10156000603D0200C75202003052020052270020A4
:101570004B520200A05202006B5202008A5202003B
:101580001FB54FF0B8611048FFF7E2FE4FF0B861A9
:101590000E48FFF7DDFE002000F0E8FD50B10C4BD7
:1015A00003900293002301221846CDE90033094934
:1015B0001BF00DFB4FF4A4720023074805B05DF843
:1015C00004EB17F06DBC00BFF841020000420200BE
:1015D000EE520200603D0200000000201FB5012015
:1015E00000F0C4FD50B10D4B039002930023012283
:1015F0001846CDE900330A491BF0E9FA4FF400110F
:101600000848FFF7A5FE4FF400110748FFF7A0FEBA
:10161000064805B05DF804EB17F0C2BC1753020092
:10162000603D020000420200F8410200000000207C
:101630002DE9F04F77488BB017F0B2FC764807A938
:101640001BF060FF0446C8B1744B03900293002363
:1016500001221846CDE9003371491BF0B8FA01F0B8
:1016600003F94FF0B8616F48FFF772FE00220023C4
:10167000684817F015FC0BB0BDE8F08FBDF81C50A2
:10168000694BC5F30805CDE901030322034664490C
:10169000009003951BF09BFA4FF4F97221466348C2
:1016A00022F0C2F8DFF888B15D4F002DD7D05A483C
:1016B00008A91BF04FFF58B10023CDE903500122C8
:1016C00039461846CDE90033CDF808B01BF07FFA53
:1016D0000024DFF86091584E0DF12203DFF85CA181
:1016E000C9F80030336009AA9DF82030DFF8508136
:1016F000CAF800200DF12602C8F800200393514BD0
:1017000003220293394623462046CDE900441BF0CC
:101710005EFA9DF82030042B75D00FD8012B5FD0D6
:10172000022B46D00393484B0122029300233946F3
:101730001846CDE900331BF04AFA4FE00E2BF1D1E9
:101740003A4E3046FFF770FAD8F80010DAF8003059
:10175000D9F80020B1F90010B3F90030B2F9002037
:1017600030440091394919F0B9FF394B3946032209
:101770002046CDE901430396234600941BF027FA47
:101780003046FFF751FA81B2304601F0C3FC48B150
:10179000304B0122CDE901432046234620490094E5
:1017A0001BF015FA4FF4F9720021204822F03CF8A2
:1017B00014E01E4C2046FFF737FAD8F80010DAF88C
:1017C0000030D9F80020B1F90010B3F90030B2F9B7
:1017D000002000912049204419F080FF013D64E77A
:1017E000124C2046FFF720FAD8F80010DAF8003043
:1017F000D9F80020B1F90010B3F90030B2F9002097
:1018000000911649E7E7336815491A68074819F047
:1018100065FFE3E700000020D01600203C530200E3
:10182000603D0200004202005C530200602500207F
:1018300069530200A416002098160020A01600206C
:101840009C160020F2530200EA530200D553020016
:10185000B6520200FB530200A2530200B65302002C
:10186000CB5302002DE9F04186B0074601F06AF83B
:101870000023054690B12F4A039002920122184698
:10188000CDE900332C491BF0A2F94FF4A4720023D8
:10189000384606B0BDE8F04117F07CBBDFF89C800D
:1018A00046464146A8B201F0C1F8044620B1244B97
:1018B000039002930023E1E70135042D08F10208AB
:1018C000EFD1204D01464FF4F972284621F0ACFFCC
:1018D0001D4B1E49DA78284605929A7804925A7868
:1018E00003921B780293F3880193B3880093738863
:1018F000328819F0F3FE164B0F4903222046CDE93A
:1019000001430395234600941BF061F92846FFF735
:101910008BF981B2284601F0FDFB0028B5D00D4BB4
:101920000122CDE9014320462346034900941BF0E0
:101930004EF9AAE718540200603D0200102500206D
:101940003C5402006025002052270020625402000F
:10195000B65202009D54020010B52A4886B017F016
:101960001FFB04A928481BF08BFB0146B0B1274B95
:10197000039002930023CDE9003301221846244945
:101980001BF025F94FF0B8612248FFF7E1FC002277
:1019900000231C4817F084FA06B010BD4FF4F9720A
:1019A0001D4821F041FF9DF811301B4C13F0200F12
:1019B00003D020461949FFF72FF99DF811305B0637
:1019C00003D517491448FFF727F903940024154B52
:1019D0000F49032220460293CDE9004423461BF021
:1019E000F6F80D48FFF720F981B20B4801F092FBA1
:1019F0000028C7D00C4B0390CDE901430094234647
:101A0000BBE700BF00000020D0160020BE5402003B
:101A1000603D0200F841020060250020E35402000E
:101A2000F0540200B6520200FD540200054C08B505
:101A300005490648712322461CF049FC71212046C5
:101A40001CF03EFC235502008F9C0200084E020051
:101A50007FB5384D284621F0F2FA034660B9364A80
:101A6000CDE901323549012200931BF0B0F86FF047
:101A70001504204604B070BD04212846304AFFF703
:101A8000B5FB041E0ADA2F4B0293002301221846ED
:101A9000CDE9003329491BF09AF8EAE74FF0B86125
:101AA0002948FFF755FC041E01DA284BECE72849CA
:101AB000284BAE684B6010238B60F36963B9264BEB
:101AC0000293002301221846CDE900331B491BF085
:101AD0007EF86FF00404CCE70122284698470028DE
:101AE000EDDB284621F0ABFA034608B91B4AB7E7FD
:101AF00005212846124AFFF779FB041E01DA184B2C
:101B0000C2E74FF0B8611748FFF722FC041E01DA64
:101B1000154BB9E71549164B4B6020238B60F369D1
:101B20000BB9144BCCE70122284698470028A0DACD
:101B3000F7E700BF4439020031550200603D020062
:101B400020000100575502000042020078550200B3
:101B5000B41600205514000095550200B655020039
:101B6000DB550200F8410200FB550200A8160020D8
:101B700035140000175602001FB512F037FC04465A
:101B800060B1234B039002930023CDE9003301227F
:101B9000184620491BF01BF8FFF748FFFFF758FFD6
:101BA00030B11D4B0390CDE9014300942346EEE78D
:101BB00000F09EFB0028EFD100F07AFE0028EBD168
:101BC000164A1749174801F011FA0028E4D10120FC
:101BD00000F0CCFA04460028DED14FF40011124880
:101BE000FFF7B6FB4FF400111048FFF7B1FB104BA5
:101BF0000322CDE9014320462346064900941AF00A
:101C0000E6FF4FF0FF314FF0FF3018F00DFBF8E723
:101C100037560200603D0200525602009802002032
:101C2000DD1500008115000000420200F8410200AD
:101C30007756020070B58CB001260025CDE9092346
:101C400007238DF817100DF11701069107968DF8EF
:101C500020508DF82C300B480222836806A99C681E
:101C60006A23A047044650B1074B0390CDE90153C6
:101C700032462B462846054900951BF0EFFF2046CB
:101C80000CB070BDEC390200A5560200683D0200A0
:101C90002DE9F0476B480D468AB0002117461E46D5
:101CA0001BF03AF8044610B1674B039410E01E2372
:101CB0000146F6B2634807AA8DF81C308DF81D5016
:101CC0008DF81E601BF02EFE044620B15F4B039082
:101CD0000293002324E001465A481BF091FD04467C
:101CE00010B15B4B0390F3E7012156481BF0ABFDAD
:101CF000044610B1574B0390EAE7062151481BF008
:101D00000BF8044610B1544B0390E1E74D4808A985
:101D10001BF053FB0023044650B1504A039002923B
:101D200001221846CDE900334D491BF097FF2FE003
:101D30000546DFF81091DFF82CA1DFF8248114208C
:101D40001BF09BFF484605A91BF024FB044610B17D
:101D5000454B0390BCE79DF8143013F001031BD1F1
:101D6000424A0135CDE90132414603220093EDB2EA
:101D70001BF074FF322D17D13D4B0122029300233B
:101D800037491846CDE900331BF068FF6FF0730444
:101D900020460AB0BDE8F087034603224146CDE95C
:101DA000010A00901BF05AFF9DF81430DA07C6D5DF
:101DB000DFF89090DFF8BCA0DFF8A480484606A9C1
:101DC0001BF0F5FD044610B12B4B039080E79DF806
:101DD000183013F0010318D1284A0135CDE901323A
:101DE000414603220093EDB21BF038FF322DC3D0E1
:101DF0009DF81830DB07E1D5002112481BF023FDC8
:101E0000044658B11E4B039062E703460322414645
:101E1000CDE9010A00901BF021FFE9E701460948DE
:101E20001AF07AFF044600287FF43EAF3246394666
:101E300004481BF0D0FC04460028A9D0114B0390A5
:101E400046E700BFD0160020BF560200E55602004C
:101E500001570200275702004C5702006D5702003D
:101E6000683D0200E257020093570200B15702009A
:101E7000CA5702002C580200F35702001158020002
:101E80003F580200655802002DE9F04113781E22E8
:101E90008AB08DF81D105C4807A98DF81C208DF8BC
:101EA0001E301BF0F3FC044620B1584B0390029304
:101EB000002324E0014654481AF02EFF044610B1D6
:101EC000534B0394F3E701214F481BF0BCFC04463D
:101ED00010B1504B0390EAE706214B481AF01CFF63
:101EE000044610B14C4B0390E1E7474808A91BF0AA
:101EF00064FA0023044650B1484A0390029201223A
:101F00001846CDE9003346491BF0A8FE2DE00546F2
:101F10003D4FDFF81081424E14201BF0AEFE3846D4
:101F200005A91BF037FA044610B13F4B0390BEE7FA
:101F30009DF8143013F001031BD13C4A0135CDE963
:101F40000132314603220093EDB21BF087FE322DA1
:101F500017D1374B01220293002331491846CDE9AE
:101F600000331BF07BFE6FF0730420460AB0BDE81F
:101F7000F081034603223146CDE9010800901BF0B1
:101F80006DFE9DF81430DA07C6D51F4FDFF8A48028
:101F9000234E14201BF071FE384606A91BF007FDE6
:101FA000044610B1244B039081E79DF8183013F0DC
:101FB000010318D1214A0135CDE90132314603220E
:101FC0000093EDB21BF04AFE322DC2D09DF81830BE
:101FD000DB07DED500210C481BF035FC044658B168
:101FE000174B039063E7034603223146CDE901080E
:101FF00000901BF033FEE9E7014603481AF08CFE1F
:1020000004460028B1D05BE7D016002085580200B6
:10201000BF560200275702004C5702006D570200BE
:10202000683D0200E257020093570200B1570200D8
:10203000CA5702002C580200F35702001158020040
:102040003F58020010B58AB08DF814100021C8B2B4
:10205000984201F101041ED301339BB2089302237D
:1020600005AA07928DF824300F480122836807A93A
:102070009C686A23A047044650B10C4B039002931E
:10208000002301221846CDE9003309491BF0E6FD83
:1020900020460AB010BD00F12801105C694401F827
:1020A000130C2146D3E700BFEC390200A25802000E
:1020B000683D020070B588B0059101462448164677
:1020C0001D461BF07BFC044668B1224B0390029333
:1020D000002301221846CDE900331F491BF0BEFD45
:1020E000204608B070BD059919481BF08AFC0446CB
:1020F00010B11A4B0390EAE7314615481BF0CFFCAC
:10210000044610B1164B0390E1E7294610481BF036
:10211000D9FC044610B1134B0390D8E7012D08BF3A
:102120009DF81D300A4804BF43F040038DF81D3070
:102130009DF81D3007A943F020038DF81D301AF0DB
:1021400022FF04460028CBD0074B0390BFE700BF17
:10215000D0160020B7580200683D0200DA5802008D
:10216000FD580200235902004059020030B580F0AA
:10217000010585B0002854D04FF000014C481AF0FA
:102180003FFE044668B14B4B0390029300230122AB
:102190001846CDE9003348491BF060FD204605B0E4
:1021A00030BD014642481BF07FF9044610B1434B55
:1021B0000390EAE74FF0000160F382013C481BF016
:1021C000FDFB044610B13E4B0390DEE70146384864
:1021D0001BF039FB044610B13A4B0390D5E70021C0
:1021E0000A2018F021F8214631481AF0C3FD0446B0
:1021F00010B1354B0390C8E701462D481AF08CFD0D
:10220000044610B1314B0390BFE72946304803F034
:1022100067FB041EC2DA14F1780FBFD02D4B039474
:10222000B3E729462A4803F05BFB041E02DA14F1E7
:10223000780FF3D10A201BF020FD06211C481AF06C
:102240006BFD044610B1244B03909EE7062118480D
:102250001AF090FD044610B1204B039095E7012140
:1022600013481BF0F0FA044610B11D4B03908CE7A5
:1022700001210F481BF018F9044610B1194B0390C7
:1022800083E74FF004010A481BF098FB044610B1A5
:10229000154B039079E74FF0010105481AF0B0FDA6
:1022A000044600283FF47AAF104B03906DE700BF5F
:1022B000D016002069590200683D020091590200C1
:1022C000B75902003F580200DE590200FC590200D3
:1022D000EC3902001A5A0200425A0200645A020003
:1022E000865A0200AC5A0200CE5A0200F45A02008A
:1022F0002DE9F043AD4BAE4D89B02B60AD4B6B601B
:10230000AD4BAB60AD4820F09AFE0346A8B10A2061
:102310001BF0B3FC002128461AF0DAFC00281ADA78
:10232000A74B012202930023A6491846CDE90033AA
:102330001BF094FC6FF0040409E0A34AA149CDE925
:102340000102009001221BF089FC6FF0120420466C
:1023500009B0BDE8F083284605A91AF0D6FC04466A
:1023600050B19A4B01220293002396491846CDE9B9
:1023700000331BF073FCEAE79DF81430032203934B
:10238000934BCDE9000002938E49034606461BF0AD
:1023900065FC9DF81430702B0CD08E4B2046CDE997
:1023A000014300942346012286491BF057FC6FF03D
:1023B0001504CCE7042128461AF02EFC044658B137
:1023C000854B0390CDE90163334600960122184600
:1023D0007C491BF043FCBAE70746DFF80092DFF8C0
:1023E000E48128460DF115011AF049FC044630B18C
:1023F0007B4B039002930023CDE90033E6E79DF881
:102400001530CBB1774B0137CDE9010303220346E9
:1024100041460090FFB21BF021FC322F13D1724BCA
:102420002046CDE9014300942346012265491BF073
:1024300015FC6FF073048AE703224146CDE90139A8
:1024400000931BF00BFC9DF81560002EC9D10121F3
:1024500057481AF0BEFC044610B1644B0390B1E734
:10246000634F644B38467B60634B0DF116013B6054
:102470001BF0C8FB044660B1604B0122CDE901634B
:10248000304633464F4900961BF0E8FB5C4B039403
:10249000B0E79DF81630032203935A4B4949CDE922
:1024A0000103009003461BF0D9FB9DF81630402B2A
:1024B0000CD0554B2046CDE9014300942346012220
:1024C00040491BF0CBFB6FF01504DFE701213846D4
:1024D0001BF09FFB044658B13F4B0390CDE90163CD
:1024E000334600960122184636491BF0B7FBCDE76C
:1024F0000120002117F098FEDFF81091DFF8C4806A
:1025000038460DF117011BF09BFB044630B1344BEC
:10251000039002930023CDE90033E3E79DF81730E1
:10252000CBB13B4B0136CDE90103032203464146C3
:102530000090F6B21BF092FB322E13D12A4B2046AC
:10254000CDE901430094234601221E491BF086FB7E
:102550006FF073049AE703224146CDE901390093F5
:102560001BF07CFB9DF81750002DC9D1012120489C
:102570001BF031FB044630B11C4B0390CDE90153F5
:1025800000952B46AEE7012119481BF00DFB0446D0
:1025900010B1204B0390F1E7014615481BF0D6FA25
:1025A000044600283AD01C4B0390E7E74520000082
:1025B000D0160020351C00007BDC0100EC39020045
:1025C0002D5B0200683D02001B5B0200455B0200C0
:1025D000685B02007F5B0200975B0200025C020006
:1025E000BA5B0200DF5B0200CA5702001D5C0200FA
:1025F000C0160020911C0000891E0000385C0200FB
:10260000A45F0200585C02006C5C0200A15C020046
:10261000815C0200B95C0200D85C020003217948A9
:102620001BF0ABFA044610B1774B0390A6E71021DC
:1026300076481AF0E1FE044610B1754B03909DE711
:10264000012172481AF0EBFE044610B1714B039061
:1026500094E705216D481AF0F9FE044610B16E4B5F
:1026600003908BE7052169481AF007FF044610B173
:102670006A4B039082E7012164481AF02CFF04465C
:1026800010B1674B039044E7012160481BF031FA19
:10269000044610B1634B03903BE701465B481AF0D8
:1026A00003FF044610B1604B039032E74FF00D0179
:1026B00056481AF0E8FF044610B15C4B039028E737
:1026C000012152481BF070F8044610B1584B03909A
:1026D0001FE704214D481BF050F8044610B1554B3C
:1026E000039016E7012149481BF030F8044610B169
:1026F000514B03900DE7042144481BF010F80446A9
:1027000010B14E4B039004E7014640481AF004FB19
:10271000044610B14A4B0390FBE646F61E03ADF8A3
:102720001C300623014607AA38488DF81E301BF0DE
:10273000F9F8044610B1434B0390EAE60146012242
:1027400032481AF075FF044610B13F4B0390E0E6A3
:1027500003212E481BF0C3F8044610B13B4B0390F5
:10276000D7E6014629481BF04BF8044610B1384B18
:102770000390CEE6012125481BF065F8044610B110
:10278000344B0390C5E69DF81830204843F04003D1
:1027900006A98DF818301AF090FB044610B12E4BA4
:1027A0000390B6E60322BDF81C304FF0000023F47E
:1027B000F85323F01F03ADF81C309DF81E3062F370
:1027C00004038DF81E304FF07F0201230799FFF7B5
:1027D00071FC044610B1214B03900BE601460B48F7
:1027E0001AF054FB044610B11D4B039002E604217D
:1027F00006481AF034FB044600283FF4A8AD194BF4
:102800000390F7E5C0160020005D0200D0160020FE
:10281000215D0200455D0200715D0200945D0200D1
:10282000B75D0200E15D0200005E02001F5E020073
:10283000495E02006C5E0200985E0200BB5E020010
:10284000E75E02000E5F02002F5F0200535F02008E
:1028500001570200865A0200755F0200CE5F020037
:10286000FA5F02001D6002001FB500210D481AF03A
:102870001BFE044658B10C4B0122029300230B4966
:102880001846CDE9003303941BF0E8F906E0012176
:1028900004481AF009FE04460028ECD1204604B092
:1028A00010BD00BFD0160020005E0200683D02008F
:1028B00070B500261E4D86B055F8060C20F0BFFB03
:1028C000034690B9142272431A496FF012048A58D1
:1028D0001949126800900392184ACDE901020122B9
:1028E0001BF0DBF9204606B070BD15F8013CA3B122
:1028F00055F8060C836829461B689847041E0FDAB2
:102900000F4B012202930023CDE903641846CDE961
:10291000003309491BF0C1F9E4E76FF08504EFE7E4
:102920000136042E05F11405C6D10024DAE700BFF4
:102930000E42020008420200903C02004B6002007E
:102940006E6002002DE9F04F8DB01422002107A81F
:1029500020F06AFF0DF11A030993022300240A9361
:102960002B4B0322029320462346CDE900442949FC
:102970001BF093F9284DDFF8A480DFF8A4A0254FC1
:10298000DFF8A09095F804B02E68CDF810B0336849
:102990000322CDE902A3002339461846CDE90033CE
:1029A0001BF07BF96B794BB1012303FA0BF308930E
:1029B0002B7C8DF82C306B7C8DF82D30B368304635
:1029C0005B6807A99847061E0EDA174B012202938F
:1029D000002310491846CDE9003303961BF05DF93A
:1029E00030460DB0BDE8F08FBDF81A30032228F84C
:1029F000023BCDE90293002339461846CDE9003366
:102A000001341BF04AF9042C05F11405BAD1E7E7AB
:102A10008F600200903C020008420200182500204E
:102A20009B600200C2600200AE60020030B5032865
:102A30000D464FF0000485B006D80A4B33F810302D
:102A400020462B8005B030BD074B2046CDE9014321
:102A500001222346054900941BF01FF923466FF01D
:102A60001500EEE718250020C9600200903C020026
:102A70001FB50C46F1B9134B0322CDE901132046D3
:102A80000B46009110491BF017F9104B18681EF007
:102A900059FC0F4B0338C0B218700E4B0390CDE9B0
:102AA0000143234600940222184607491BF004F90B
:102AB00004B010BD084B039102930023CDE900330D
:102AC000F1E700BFED600200983C0200E81600202C
:102AD00076270020016102001861020030B5002451
:102AE0000C4B85B00C4D20460391029303222346E4
:102AF000CDE9004409491BF0DFF8286828B108F047
:102B000077FA07482C6016F013F80022054B1A706C
:102B100005B030BD37610200E8160020983C020085
:102B2000EC160020742700202DE9FF410F46904647
:102B3000224B1D682E687EB9214B02220393214B44
:102B40003046CDE9016320493B46CDF800801BF0BB
:102B5000B3F804B0BDE8F0813046FEF765F84045B3
:102B6000024629D83946304620F0EBFC044618BB13
:102B7000164B0322CDE90103134903460090039647
:102B80001BF09AF82868FEF74FF839186868FEF7C6
:102B900043F86B68204603930D4B0322CDE90143B4
:102BA0000949234600941BF087F805F1080004B09A
:102BB000BDE8F04115F0BCBF1835BBE7E4160020B6
:102BC00072610200C4520200983C0200506102008F
:102BD0006161020010B5084686B0CDE904230C46B9
:102BE000FDF70CFC00220B4BFDF772FCFDF782FE9B
:102BF000094B0322029300230390CDE900331846CA
:102C000006491BF059F80F2C02BF0122044B1A7021
:102C100006B010BD0000F43F87610200983C02003E
:102C20007427002000B5CB8889B006938B880322D7
:102C300005934B8804930B8806490393064B029334
:102C400000231846CDE900331BF036F809B05DF8D3
:102C500004FB00BF983C0200C86102001FB5034698
:102C60000C4A60B9012111700B4A0C49CDE90102EF
:102C7000032200901BF020F805B05DF804FB002350
:102C80001370074A1846CDE9013204490322009324
:102C9000F0E700BF752700200A620200983C02009E
:102CA0001762020030B58BB01DF0E4FA03780446D9
:102CB00007AD032B21D8DFE803F0021A1C1E1249CE
:102CC0002846FDF7A9FFA379059562781E21049295
:102CD000A2780E480392E2780292227901926279F8
:102CE00000920B4A18F0CEFC08480BB030BD0949E1
:102CF000E6E70949E4E70949E2E70A212846084AE4
:102D000018F0C0FCDFE700BF256202005627002054
:102D1000476202002C620200336202003D62020040
:102D2000CC99020010B586B00C46FFF7BBFF074BED
:102D3000CDE903040293002303221846CDE90033B2
:102D400003491AF0B9FF06B010BD00BF6A62020065
:102D5000983C020010B586B00C46FFF7A3FF074B66
:102D6000CDE903040293002303221846CDE9003382
:102D700003491AF0A1FF06B010BD00BF8D6202002A
:102D8000983C02001FB5FFF78DFF074B039002939D
:102D9000002303221846CDE9003304491AF08CFFC2
:102DA00005B05DF804FB00BFAF620200983C020072
:102DB00010B586B00C46FFF775FF074BCDE903044D
:102DC0000293002303221846CDE9003303491AF089
:102DD00073FF06B010BD00BFC5620200983C020040
:102DE00030B5144687B00D46FFF75CFF6CB90E4B4B
:102DF000CDE90305CDE901430322234620460B49D3
:102E000000941AF059FF07B030BD094B03900293AC
:102E1000002303221846CDE90454CDE900330349C9
:102E20001AF04AFFEFE700BFDA620200983C0200A6
:102E3000F86202007FB50B78042B96BF0C4A0D4B4D
:102E400052F823304A78042A96BF0949094A51F8B2
:102E500022200949CDE90332084B032202930023C3
:102E60001846CDE900331AF027FF07B05DF804FBE0
:102E7000584202001C630200983C020024630200D6
:102E800030B505460C4687B061B1474B03910293BC
:102E9000002301221846CDE9003344491AF00CFF03
:102EA00007B030BD424B0322CDE9011320460B464B
:102EB00000913E491AF000FF284608F071F83D4D98
:102EC0003D4B3E491C7028601DF02AFA034600283D
:102ED00057D03B4B0390CDE90143012223462046C6
:102EE000324900941AF0E8FE00214FF4804017F0B8
:102EF0009BF9344B344928680B600BF08FFF034675
:102F0000002847D0314B0390029300230222184639
:102F1000CDE9003325491AF0CFFE00214FF480405F
:102F200017F082F92A4B286805A905931DF0A4F92A
:102F300050B1284B03900293002301221846CDE99B
:102F400000331A491AF0B8FE00214FF4804017F000
:102F50006BF9214B286805A905931DF09DF950B127
:102F60001E4B03900293002301221846CDE9003343
:102F70000E491AF0A1FE1A4807B0BDE8304015F01E
:102F8000D7BD184A0949CDE90102009003221AF081
:102F900093FEA9E7144A0549CDE9010200900322F6
:102FA0001AF08AFEB9E700BF4A630200983C0200AB
:102FB00065630200E8160020742700201407002033
:102FC0006F630200712A0000E0160020C363020054
:102FD000FB009042F5630200000002021E64020042
:102FE000FC1600209C630200E0630200F0B5154669
:102FF00084460F46374C384B8DB094E807001D606F
:1030000004AE07AD0C3486E807000FCC0FC523686B
:10301000614632482B6015F0C5FC3946304815F042
:10302000C1FC304808F07CFB2F4808F041FD044605
:1030300060B12E4B0293002301221846CDE90033E4
:103040002B491AF039FE20460DB0F0BD294808F092
:1030500049FD044608B1284BECE706F0BBF80446EE
:1030600058B1264B039002930023CDE9003301228F
:1030700018461F491AF020FEE5E7214B03221C49A0
:103080000293019003460090054607461AF014FE8D
:103090001BF06FFE304602F039FF044630B1194B89
:1030A0000390CDE9015300952B46E0E7012502226C
:1030B000154B1649009507A807F058F90446002853
:1030C000C1D0134B2A46CDE9017303903B460097CC
:1030D000CEE700BF703E0200E4160020FC16002080
:1030E000EC16002000030020340300203C640200A2
:1030F000983C0200240300206864020099640200E6
:10310000C5640200DB6402006C42020074420200EB
:103110000965020070B50D46064686B000B171B96A
:103120002A4B01220293002329491846CDE9003396
:103130001AF0C2FD6FF01505284606B070BD254B8C
:103140001B78002B3FD0244B1B78002B31D0234B16
:103150001B788B420DD2CDE90313214B022202933F
:1031600000231B491846CDE900331AF0A5FD0025C0
:10317000E2E700241B4B02222046039102931449EC
:103180002346CDE900441AF097FD2A4631462046F1
:1031900002F0C8FE05460028E9D0134B0390CDE9A4
:1031A0000143012223462046094900941AF084FD78
:1031B000C2E70E4ACDE901321846022204490093C3
:1031C0001AF07AFDD3E70A4AF4E700BF316502003E
:1031D000983C0200752700207427002076270020E5
:1031E000516502008265020095650200C865020013
:1031F000ED65020010B5094C0A44914200D110BDA2
:1032000011F8013B58400309E35C0001C0B24340A0
:103210001809205C1B01DBB25840EEE7376602005C
:103220002DE9F04F91B0009302F004030293C2F332
:10323000C2030133840705460E46DDF86880039219
:10324000059340F0F681041D30B1072909D86FF0CD
:103250001B0011B0BDE8F08F01F00706341DC6F168
:1032600008064FF000094FF0040B009B4F46013B4E
:1032700001934FF0FF324B46DA46CDF810900DB176
:10328000009921600598002800F3D780984800999C
:10329000814203D397488142C0F0CF800399A4EBC9
:1032A000050E89074FEA9E0040F1E2804FF0000CC6
:1032B000CCE07A285AD84B280CD8472856D8292849
:1032C0002AD8252851D051D8202877D023384342F6
:1032D000434173E04C382E2848D8DFE800F06F47B0
:1032E000474747474747474747474947474747476C
:1032F000474747594749495959596F496C476F479B
:103300001849184747807D49474749477D000020B5
:1033100000234FF0040B39E001212A38C0B201FA32
:1033200000F010EA0E0F49D110F0625C30D110EAC3
:10333000010343D06046013C5C44B4FBFBF40BFB4F
:1033400004F4002D60D0AAEB050CA4446645FFF4FC
:103350007EAF00286AD1BAF1040F45D158F8040BAA
:1033600020604FF0040A043428E0013A002325E0ED
:10337000019B13F8013C6C2B33D10020019B13F807
:10338000023C6C2B0346C4D14FF0080BDA46D2E75F
:1033900008F1070828F00708073424F00704F8E8C4
:1033A00002AB35B106982044B0423FF650AFC4E9B5
:1033B00000AB002308344FF0080BDA46019911F8EE
:1033C000010F0191002800F0BC80002B7FF471AF49
:1033D0002528F3D1012301324FF0040BEDE7184605
:1033E00096E700200346A6E7BAF1080F40F09B805D
:1033F00008F1070828F00708F8E80201C4E900010D
:103400004FF0080A0834D9E780B9BAF1040F02D1A5
:1034100008F10408A5E7BAF1080F40F0848008F12C
:10342000070828F0070808F10808E9E705990139B5
:10343000059158F8041B009121E7039988074AD5A4
:103440004FF0010CA4EB050E4FEA9E00BEF5007F85
:103450001ED3294940F27B23284A29481AF037FF16
:1034600028481AF034FF40F27B2124481AF028FF44
:103470000F2F0FD8002D49D007F140010DEB010CA3
:103480000CF8200C0CF8102C04980130049021E06A
:103490000F2F0CD918494FF42073184A18481AF006
:1034A00016FF19481AF013FF4FF42071DDE7CDB174
:1034B00007F140010DEB010EC0B20EF8200C0EF822
:1034C000102CBCF1000FDFD060F07F000EF8200C54
:1034D00009F101090137C5F108014FF6DA7E04341C
:1034E00006916BE7BCF1000F10D00136F2E700BF88
:1034F0005C380200ECC50200CC4F020047660200B7
:10350000084E0200756602009666020002980236B6
:103510000028DFD10098CDE90632FDF785FBDDE913
:1035200006320644D6E740F2C523434A434944489D
:103530001AF0CDFE514643481AF0C9FE40F2C521AB
:1035400093E7631BB3F5806F0CD33C4940F2D12362
:10355000394A3B481AF0BBFE3B481AF0B8FE40F22D
:10356000D12182E71DB9A6F10804E01871E6029A9C
:103570009B0828602B709DF81030C2B1EB7085F865
:103580000290B9F1000F05D0002208A8C5F1010C86
:1035900097420ED14FF0000AC5F101030DF120084A
:1035A00001930DF1300B574512D1601B51E66B7042
:1035B000E5E710F8013B190608D504EB0C0E76453B
:1035C00003F07F03FFF443AE04F8013B0132DFE771
:1035D000B9F1000F03D098F90020002A17DB029BF5
:1035E000D3B11AF80B2004F8012B0022019B981884
:1035F00020448642FFF42BAE98F80000009904F8AE
:10360000010B2046039220F0E8F8039A14440AF1D3
:10361000010A08F10108C6E798F8002055F82230A1
:103620000093029B009845F82230FDF7FDFA421CFA
:10363000DCE76FF00D000CE647660200CC4F02009D
:10364000084E0200B0660200C5660200014B186019
:10365000704700BF4C03002080B505460E46174654
:10366000984616F015FE034620F0EEF80446DFF803
:103670001890424649F8003039463046A84754F879
:10368000090003F085FC00BF08000000F8B50F46F4
:1036900000293BD00668012230461AF00FFC014693
:1036A000044630461AF0D2FBC3070DD4AF23184AA4
:1036B000184919481AF00BFE394618481AF007FE47
:1036C000AF2113481AF0FCFD214630461AF0D4FB16
:1036D00025182946002230461AF0B8FB2D1AAC42B4
:1036E0000BD0B7230A4A0E490B481AF0F0FD3946B1
:1036F0000C481AF0ECFDB721E3E7214630461AF0FA
:10370000C1FB2146BDE8F8401AF0FDBCF8BD00BF82
:10371000ED6602000E670200084E02001F670200FD
:10372000576702007D6702002DE9F8430F460668DF
:103730001446B2684B1EB2F5004F34BF0421082175
:103740003B4010D0C7F1000909EA0709494503F1D8
:10375000FF3028BF494618420CD11F46DCB900256E
:103760002846BDE8F8838F4213D82146BDE8F843C8
:103770001AF00BBD2E494FF4A2732E4A2E481AF0B0
:10378000A6FD2E481AF0A3FD4FF4A27129481AF0A5
:1037900097FD9946E2E7B2EBD40FE0D9E319591A45
:1037A00010461AF095FB014630461AF0EBFB8046B6
:1037B0000028D4D0B36809EBC005B3F5004F34BF7F
:1037C000042308231D4435447B1E1D44B5FBF7F537
:1037D0007D43A5EB0905294630461AF06FFB2C44C2
:1037E000073424F00704A41B804507464FEAE4048D
:1037F00008D20246414630461AF0FEFB41463046AA
:103800001AF03FFC394630461AF036FB3844844201
:1038100008D23946304622461AF0EEFB21463046A1
:103820001AF02FFC0122394630461AF02BFB97E79D
:10383000B9670200ED660200084E0200D46702007C
:10384000B2F5802F2DE9F04110D2042A28D843493F
:103850004FF4F973424A43481AF039FD42481AF0CE
:1038600036FD4FF4F9713E481AF02AFD0823D21AAA
:10387000CC1D114424F0070421F00701091B17296E
:103880004FEAD1060ED8394940F2FB13344A354885
:103890001AF01DFD34481AF01AFD40F2FB11E2E760
:1038A0000423E4E70027046031463046A660E76061
:1038B0001AF017FB0121421D804630461AF008FB22
:1038C0009200D51DED082844B0423AD8B8F1FF3F28
:1038D0003946A2F1100204F11000B8BF3A461FF0B9
:1038E000A3FF2A46394620461AF0E4FA3B463A46F8
:1038F000394620461AF0B5FAA6EB050820463946A7
:1039000001221AF0BFFA424629461AF0D3FA2B4692
:103910003A46294620461AF0A4FA314620461AF0C3
:10392000C9FA43463A46314620461AF09AFA3146D9
:10393000204601221AF0A6FA2946BDE8F0411AF005
:10394000A0BB0B494FF40373054A06481AF0BFFCAD
:1039500005481AF0BCFC4FF4037184E7F1670200DC
:10396000ED660200084E0200126802002B68020099
:10397000546802002DE9F84F0446A38B0846190746
:10398000154612D4022803F0070164D120461AF02C
:103990002EFC88B10138042800F23481DFE810F0F1
:1039A0005B0032018100D100010101280CBF43F00E
:1039B000100143F02001A1831434204614F0AEFA24
:1039C000002840F09B819849F023984A98481AF0C3
:1039D0007EFC2146B0E003F00702501F01281ED8EC
:1039E0000020062A2768C4E9000014D13A4603E003
:1039F000E08B0130E0831268002AF9D123F007033D
:103A000043F002022046A2831AF0F1FB90B342F089
:103A10002002A2832EE023F007039AB2F2E7042AE1
:103A200033D123F007039AB22046A2831AF0DFFBBA
:103A300010B142F02002A283A38B03F0070989454D
:103A400040F0EA80A18BCA0640F14F8121F01003BB
:103A5000A38301F00701D4F81880A38BB8F1000FFD
:103A6000B9DA0022276823F00703C4E9002243F0F3
:103A70000103A383A38B03F00709894540F0CD80A0
:103A8000002FDFD00026B24644E06A4940F21B1303
:103A9000694A67481AF01BFC40F21B1166481AF08D
:103AA0000FFC49B165494FF4AB73634A60481AF0A3
:103AB0000EFC4FF4AB71F1E723684BB9604940F25B
:103AC00057135D4A5A481AF002FC40F25711E5E7D5
:103AD00023691E684EB95B494FF4AD73564A54488A
:103AE0001AF0F5FB4FF4AD71D8E70F4688464FF05A
:103AF0000609A38B23F0070343F006039BB2A383BD
:103B0000A268002A40F08B80002F40F08B80002EAE
:103B100098D0BA4643F0080304F1140B5846A38327
:103B200014F0FCF9002840F097803F49F0233F4A09
:103B30003F481AF0CCFB594643481AF0C8FBF02125
:103B4000AEE0022909D0414940F25D133A4A3848B3
:103B50001AF0BDFB40F25D11A0E7E78B4FB13C4985
:103B60004FF4AF73344A32481AF0B1FB4FF4AF71DF
:103B700094E723695E684EB9324940F261132E4AD8
:103B80002B481AF0A4FB40F2611187E7A38BB846DB
:103B900023F0070343F004039BB24FF00409A3830F
:103BA000AEE7012909D02B494FF4B273224A2048CD
:103BB0001AF08DFB4FF4B27170E723684BB92049BE
:103BC00040F265131C4A1A481AF081FB40F2651155
:103BD00064E723699E684EB91A494FF4B473164AD4
:103BE00013481AF074FB4FF4B47157E70027A38B06
:103BF000B84623F0070343F005039BB24FF00509D5
:103C0000A3837DE70B4940F26B130B4A08481AF077
:103C10005EFB40F26B1141E70027002670E74FF092
:103C2000010A77E7924675E74F69020022690200B0
:103C3000084E0200CC4F02007F680200A16802001B
:103C4000AD680200D068020066690200E768020001
:103C5000FD6802000C69020085F31188BFF36F8FC5
:103C6000BAF1000F1ED1002F2FD116B120462649E0
:103C7000B0474FF02003EFF3118583F31288BFF3B1
:103C80006F8F584614F03CF938BB72231F4A204905
:103C900020481AF01CFB59461F481AF018FB7221E5
:103CA0001A48FCE6A1680029DDD00D680029DAD0A9
:103CB00043464A462046D1F804A0D0471DB12B68A0
:103CC00029461D46F2E72B46FAE7394643464A465F
:103CD00020463F681AF0B7FAC5E7584614F02CF9A9
:103CE000A38B23F00803A383ACE68B067FF564AEB9
:103CF00021F02003A38301F0070147E685F3118833
:103D0000BFF36F8FBDE8F88F1D3D000022690200F0
:103D10007B690200084E020090690200F8B5044673
:103D20000D4600F114064FF02003EFF3118783F3E3
:103D30001288BFF36F8F304614F0E2F868B972232F
:103D40000B4A0C490C481AF0C2FA31460B481AF0DB
:103D5000BEFA722106481AF0B3FA304614F0ECF8B5
:103D6000A5613A462046BDE8F8400121FFF702BEB2
:103D7000226902007B690200084E0200906902007D
:103D80002DE9F04704460F461AF04DFA051E67DB91
:103D900004F114094FF02003EFF3118A83F3128822
:103DA000BFF36F8F484614F0ABF8804660B97223BA
:103DB000374A384938481AF08AFA494637481AF0DB
:103DC00086FA7221324840E0484614F0B5F84FF6C2
:103DD000FF72E38BA68B934206F0070643D0022EB8
:103DE00013D135460133E383484614F097F8002891
:103DF0003FD1F023264A2A4927481AF068FA494653
:103E000028481AF064FAF021DCE7062E13D8DFE820
:103E100006F0092D1212090409006FF085054FF014
:103E20000008E1E700233B60636883B9C4E90077D9
:103E300086B13546F3E71C4917484FF4E4731B4A33
:103E40001AF045FA4FF4E47118481AF039FA1F6075
:103E50006760EDE7524602212046FFF78BFD3546AD
:103E60002846BDE8F0876FF00A05D8E76FF0040533
:103E7000D5E78AF31188BFF36F8FB8F1000FEFD049
:103E800000233246394620461AF0DDF9E8E700BF44
:103E9000226902007B690200084E0200906902005C
:103EA0004F690200666902000C6902007F68020027
:103EB00008B54268034602F00302022A81600AD074
:103EC000032A4FF0000103D0012A0AD1596006E00D
:103ED0001868596008BD186800225A6058B9002057
:103EE000F8E7064906484523064A1AF0F0F9452145
:103EF00004481AF0E5F917F04BF9F0E7CC4F02004F
:103F0000084E0200A669020008B543090DD0012B36
:103F10001CD01349134840F22F33134A1AF0D7F933
:103F200040F22F3110481AF0CBF94FF0FF33C34065
:103F3000DA07EED50D4B03EB8003D3F8002222F015
:103F4000E04242EA0171C3F8001208BD4FF6FF7368
:103F500000F01F00C340DB07DBD5054BEBE700BFDC
:103F6000FC690200084E0200C96902000025845065
:103F70000028845038B50124134B144DC3F8004574
:103F800002230321C5F8D0360020FFF7BDFF2046ED
:103F90000321FFF7B9FFC5F804472146C5F80449D6
:103FA0002120C5F8004BFFF7AFFF21462020FFF787
:103FB000ABFF21460B20FFF7A7FF21460A20FFF7A2
:103FC000A3FF002038BD00BF00100050004000508B
:103FD00007B50DF107001EF007FA114B98421CD1EE
:103FE0004FF480620F4B1049C3F8B8254FF40062BC
:103FF000C3F83C259DF8070010F0A8FB0B499DF87D
:10400000070010F08BFB01209DF80730984010F05E
:1040100079FB002003B05DF804FB6FF00B00F9E7BB
:104020000000AD0B00A002502CA0025028A10250AD
:10403000052370B5144D154E2C780134B4FBF3F301
:1040400003EB8303E41A1EF0A7F9114A137823B196
:1040500056F82430C01A072814D94FF05023D3F84B
:10406000141141B10021C3F81411D3F814312C708C
:104070000CB9012313702C781EF08EF946F8240039
:10408000012070BD0020FCE7782700200C170020DD
:104090007727002048B1054B054A1B68B3FBF2F3B4
:1040A0005843044B43F0010318477047F4050020C0
:1040B00040420F00603F02007FB50BAB05930393B6
:1040C000054B0122029300231846CDE9003301F08D
:1040D0005DF907B05DF804FB236A02000F2AF8B50A
:1040E0000446154608461F460BD90F490F4840F2B3
:1040F000E7130F4A1AF0EBF840F2E7110C481AF0F8
:10410000DFF80FF009FE0B4EAD0001462E442046AD
:104110002FB144F0004410F019FB3460F8BD10F0EA
:1041200043FB3760FAE700BF7D6A0200084E0200D9
:104130004B6A020080A1025070B586B005A810F04D
:104140004FFD264B984245D10FF0C2FF041E0FDAF7
:104150009DF8140010F04AFD214B01220293002328
:1041600020491846CDE900330394FFF7A5FF2EE060
:1041700040F607031C4D8DF81540AE68ADF81630BB
:104180007468059B14B96FF05704E5E708212846C9
:10419000164AA047041EDFDB3369002BF3D001224F
:1041A000082128469847041ED6DB01259DF81400F7
:1041B00005FA00F010F0A6FA2B469DF817209DF89E
:1041C00015109DF81400FFF789FF002CC4D120467C
:1041D00006B070BD6FF01204BEE700BF0000AD0B6B
:1041E000236A0200D83D0200743902007D420000BB
:1041F00070B5049EC6F30744F5B2C6F307263046F1
:104200000FF070FD0F2C01460BD91549154840F2EF
:10421000E113154A1AF05BF840F2E11112481AF066
:104220004FF8284610F0AAFA002201200F4BA400F4
:10423000E4B21A51A84010F06BFA30460FF066FF56
:10424000284610F0D3FC0A4B984208D0094905488B
:104250007523094A1AF03BF875210748DFE770BD5E
:104260007D6A0200084E02004B6A020080A00250E4
:104270000000AD0BBF6A0200886A02002DE9F74317
:10428000144683681B694BB922492348CB23234A30
:104290001AF01DF8CB2121481AF012F80022984795
:1042A00006460028F0D1C4F3072840460FF04EFD23
:1042B0005FFA84F941463346220E07464846FFF727
:1042C0000DFF40460FF00EFDC4F307450F2D0146CC
:1042D0000AD91349104840F2E113124A19F0F7FFC6
:1042E00040F2E1110F48D7E70F4BAD0049F0004213
:1042F000EDB25A51484610F011FA0C4B07F1320258
:10430000009340463346019452000FF0EFFD03B096
:10431000BDE8F083D36A0200084E0200886A0200FA
:104320007D6A02004B6A020080A00250F141000049
:1043300010F0CAB82DE9F7430F4606460821C06AB7
:104340001AF06FF880463C68DFF84890241A3C6009
:1043500004EA0905AC4203D8002003B0BDE8F083AD
:1043600008236A462146304619F0BFFF0028F4D1E1
:10437000694630461AF05FF840B1BDF80230BDF82A
:10438000042005EA090513441D443C60A4EB08041D
:10439000E0E700BF0000FFFF2DE9F04704468EB0C4
:1043A00000F1140738461EF0B4FEA06A8368DB688B
:1043B00098470346E06230B9904A0090CDE9010287
:1043C00001228F490FE0A06A8368DB689847036881
:1043D000013B1F2B0FD98B4B029300230122184660
:1043E000CDE9003386491AF00DF86FF0150528461F
:1043F0000EB0BDE8F087A06A21680BAA1DF031FE5F
:1044000008B1814BE8E7A5892DB10C9BB5FBF3F210
:1044100003FB12550DB17D4BDEE7E389012B05D877
:104420007B4B0095CDE901532B46C9E7E36A06951E
:1044300093F804904FF0FF334FF0FF32384613F0FB
:10444000A7FD0821E06A19F0ECFFA8460646E389BB
:104450001FFA85FA534508D8E389434523D13846E6
:1044600013F066FE6FF02C05C1E7A1892B04891BB0
:1044700013FA81F14A4608232046069119F083FF7A
:1044800078B1204606A919F03EFF08F1010808237B
:104490004A46204606991FFA88F819F074FF00284A
:1044A000DAD00135D3E753450BD1069908234A46A4
:1044B0002046891B19F067FF18B9204606A919F094
:1044C00022FF204606A9FFF735FF054618B13846FA
:1044D00013F02EFE8BE7069B4FEA13484FEA08487D
:1044E0006360C4F80880D4E9011399420FD308230C
:1044F000204607AA19F0F9FE05460028E7D107ABC8
:1045000013F8012B914543D10135082DF8D163688B
:1045100020461B0C1B0406A9069319F0F4FE4A461C
:104520002046A389069919F02EFF051ECFDB63688C
:1045300000F082804FF6FF7906EB0308A3891FFA8B
:1045400088F29B1B9A42CDF818803DD3314B032251
:10455000029300232A491846CDE9003319F052FF8F
:104560002046616819F034FF05460028AFD1636822
:10457000294AA18913400B44A3EB4603636013400F
:104580002046A3601AF03BF80546002D70D09EE748
:10459000204607A919F04FFF626810B9921B6260AC
:1045A000A1E7BDF82050BDF81E10E06AC4F80880ED
:1045B000294419F036FF40449042A060EED1002D0E
:1045C000ECD06FF01C0590E008234146204609AA74
:1045D00019F08BFE054600287FF479AF204609A923
:1045E00019F029FF38B1BDF824304B4503D1BDF88F
:1045F0002830002B7FD0B044A0E700BFF96A02004A
:10460000483D02001B6B0200386B0200506B020039
:10461000646B0200C16B02000000FFFF4A462046A7
:104620005B1A19F0B0FE051EFFF651AF08D0E26A22
:10463000A36812681344A360D4E901318B42EDD81A
:104640006168A38901EB46029A429ED1DFF8D480CB
:10465000A26801EA08039A4297D0204619F0B8FEF2
:10466000054600287FF433AF636803EA0803A360BC
:10467000A389A288A3EB46039A4232D0384613F0AE
:1046800057FD012300252374A38928460493E38959
:1046900003220393244BCDE90055029323492B4673
:1046A00019F0B0FE636828469AB21B0C0393204BA6
:1046B0000492CDE9015303222B461C49009519F0C1
:1046C000A1FEA36828469AB21B0C0393194B0492CF
:1046D000CDE9015303222B461449009519F092FEAF
:1046E00085E6204619F074FF0546384613F020FD94
:1046F000002DC6D07BE6104B03222846CDE901539E
:104700000A492B46009519F07DFE636820461B0C74
:104710001B0406A9069319F0F6FD2046069919F028
:1047200057FE31E70000FFFF876B0200483D0200A3
:104730009E6B0200B06B0200E86B02002DE9F04FA7
:104740001D46037C0446894690468DB073B9674A7E
:104750001846CDE9013266490122009319F052FE54
:104760006FF00C0630460DB0BDE8F08FC26A08212C
:10477000104619F056FE82462946104619F051FEA1
:10478000A3890746A3EB8A03AB42C0F0AB801DB1FF
:10479000B8F1000F00F0A68063680793204608AACE
:1047A00007A9DDF81CB019F07EFE06460028D9D115
:1047B000BDF820304B4505D06268079B9A42EDD189
:1047C000E5B9CFE7204608A919F035FE0028F3D057
:1047D000BDF82200BDF8243075B1AB420ED14FEACE
:1047E0001B41090401442B464246204619F098FD1E
:1047F000002803DC0646B5E7002BB3D0002F3ED1DE
:1048000004F1140305934FF0FF324FF0FF3304F12E
:10481000140013F0BDFBDFF8DCB0E3899E425ED0EC
:10482000D4E90123F9188A422CD3ADF82A30FF23AA
:104830000AA88DF82E30ADF82890ADF82C5019F05C
:1048400099FD2B464246A168204619F076FE29467E
:104850008246E06A19F0E5FDA2680244A260BAF15E
:10486000000F07D120460AA919F0A1FE002814BFA5
:104870008246AA46059813F05BFC564672E75744F9
:10488000BFB2BDE70821E06A19F0CBFD4FF6FF7318
:104890000021ADF828308DF82E30A389ADF82C100A
:1048A000111802EA0B021A44101A60600AA8ADF847
:1048B0002A1019F05FFD0AA9204619F078FE20465B
:1048C000211D19F020FD6368204603EA0B03A36055
:1048D00019F095FE82460028CCD101369DE76FF095
:1048E0001B0AC7E76FF015063CE700BFE56A020048
:1048F000483D02000000FFFF2DE9F0471E46037C03
:1049000088B004460F469046BDF840906BB92F4AD8
:104910001846CDE901322E490122009319F072FDAB
:104920006FF00C0008B0BDE8F0870821C06A19F0EC
:1049300078FDA389A3EB4003B34243D30025D4F809
:1049400004A0CDF814A04D455146DDF814A009D9B6
:10495000636853451ED1BDF81830BB421AD06FF0C2
:104960000100DFE7204606AA05A919F09CFD0028F2
:10497000D8D1BDF81830BB4206D1204606A919F09F
:104980005AFD08B10135ADB26268059B9A42DAD191
:104990005146E0E7BDF81C30002BE0D0A945DED839
:1049A000BDF81A00090CB3424FEA014128BF334653
:1049B00001444246204619F098FC0028B2D1BDF8C7
:1049C0001C00AFE76FF01500ACE700BFE56A02001E
:1049D000483D02001FB5034660B9114A0090CDE979
:1049E00001021049012219F0E2FE6FF0150005B036
:1049F0005DF804FB83685BB90B4A1846CDE90132C8
:104A000008490122009319F0D2FE6FF00400EEE78E
:104A10001B681BB105B05DF804EB18471846E6E7C4
:104A2000046C0200703D0200156C020030B585B0C8
:104A300008B101B16AB9134B012202930023124954
:104A40001846CDE9003319F0B2FE6FF0150005B03D
:104A500030BD84680CB1E56865B90C4B0122029346
:104A6000002309491846CDE9003319F0A0FE6FF084
:104A70000400ECE741F8040BE36805B0BDE8304002
:104A8000184700BF336C0200703D0200156C020035
:104A900030B51346044685B060B9194B0090CDE996
:104AA000010301220346174919F081FE6FF015003A
:104AB00005B030BD006858B9134B0090CDE9010333
:104AC000012203460F4919F072FE6FF00100EFE773
:104AD00082680AB1956865B90C4B012202930023E4
:104AE00008491846CDE9003319F061FE6FF0040063
:104AF000DEE70A46AC46616805B0BDE83040604775
:104B00005F6C0200703D0200706C0200156C0200C8
:104B10000020014B186070470000072030B50C469C
:104B20000E4985B00291D0F8AC110546CDE90031AF
:104B300000F1E0014FF0FF33204612F015F950B9B3
:104B4000012384F86430D5F8A83123B1204605B09C
:104B5000BDE83040184705B030BD00BFBFE80100D8
:104B600038B50C461146054619F0ABFE034638B978
:104B70002846044919F0A5FE03460020236038BDED
:104B80000120FBE7C89D02002DE9F04F012381467B
:104B90000569466885B005F55977D7E8EF2F002AF3
:104BA00003D1C7E8E13F0029F7D10CBF1A46002224
:104BB00040F0B180B368B16A05F5E4781C1F104677
:104BC00019F004FF84425FD8013A00F09E80B2FAE7
:104BD00082F24FF00044D44072682046073222F03F
:104BE0000302C5F86022B16A19F0F0FEC5F864024C
:104BF000B36A40466343033323F0030302EB4302EB
:104C0000230103EB4403093323F0030303EBC40341
:104C1000C5F858221A440832C5F854227368C5F8FA
:104C20005C42C5F850323D4BC5E9A963316800F0DC
:104C3000BDF9044630BBD9F804A0D9F81090DAE9E0
:104C4000073409F5307B012B584608BF103C13F0A0
:104C500075FF0023DAF8240031494FF4806201EB3C
:104C6000802100935846234613F082FF09F52C70EB
:104C70002C4913F097FEDAF8140083685C682CB9AD
:104C80006FF05704002139E0013298E74B46264A7D
:104C9000DAF81810A04704460028F3D1DAF8140017
:104CA00083681B69002BEBD00122DAF818109847B3
:104CB00004460028E6D11D4B2846C5F8A8311C4BF8
:104CC000C5F8AC311B4B0393D5F810320293D5F8DD
:104CD0000832CDE90083D5F86832B26AD5F860139E
:104CE00000F02CF904460028CCD105F1E00012F0C8
:104CF000DFF90028C5F868030ADB0221384619F0FD
:104D000015FE204605B0BDE8F08F6FF00B04B9E743
:104D10006FF01504B6E76FF07704F2E715E90100CC
:104D2000882C0020FBE80100EFE80100394D00006D
:104D3000A3EA01005DE9010013B5044640B1002378
:104D40000122CDE90032074BD0E9091211F0C0FF72
:104D5000A36E1B6823B1E06E02B0BDE81040184797
:104D600002B010BDC89D020013B504460846216973
:104D700001F55971D1E8AF1F022910D193B1A0B14B
:104D80000121CDE900311346D0E9091211F0A0FF4D
:104D9000074B984208BF6FF00B0002B010BD6FF0D8
:104DA0000F00FAE76FF04C00F7E76FF00100F4E74F
:104DB0002EF8FFFF2DE9F74388461546066906F5EC
:104DC0005973D3E8AF3F022B5FD1136823B96FF05B
:104DD000150003B0BDE8F0831B78002BF7D0D6F8A0
:104DE0006093B9F1000F33D106F5D8774FF0FF3259
:104DF0004FF0FF33384613F0CBF830462A6801A94C
:104E0000FFF7AEFE019C1CB9384619F08DFDDEE7B8
:104E100005F10803A3666B6984F86490E366E463B4
:104E200060B1384619F080FD21463046236E2A686D
:104E3000FFF774FE0020C8F80040CAE72022296866
:104E400004F140001EF08FFB384619F06DFDF1E7CC
:104E500030460F4919F035FD04460028B7D005F15A
:104E6000080383666B69C063C366002380F86430FF
:104E70002022296840301EF076FB22460121304670
:104E800000F03EF80028D5D0A1E76FF00F00A0E7B2
:104E9000C89D02002DE9F04F05460E4690460027BA
:104EA000D0F8B0A085B0AAF5AE7421463046FBF725
:104EB000A9FEE0B9114BA4F1400B0293DAF81030CF
:104EC0003246CDE9008329464FF0FF335846AAF514
:104ED000CE7911F049FF60B97023012203FB0793DB
:104EE00083F86420DAF80C300BB1584698477034D8
:104EF00017B105B0BDE8F08F0127D6E705EB01003B
:104F00001FB5144690B18AB1012912D10A4B00F1A4
:104F1000E0010293D0F8AC31403201934FF0FF33FF
:104F20002046009311F020FF04B010BD6FF0150073
:104F3000FAE70020F8E700BF05EB01002DE9F04398
:104F400087B00E46DDE90E811446DDE910251F46C7
:104F500030B329B3DFF850C000F1E009002D08BFDD
:104F600065469EB9CDE9034400F5CE74204605960A
:104F70001DF0F6FF03ABCDE900432A463B46414610
:104F8000484612F0BBF807B0BDE8F0830022414666
:104F90000E9248462A4607B0BDE8F04312F0D8B951
:104FA0006FF01500EFE700BF954E0000F0B50E461C
:104FB000044689B000286FD001230246C363002352
:104FC000D0F89810364F403040F80C7C42F8301F33
:104FD000CDE901334FF0FF330093C36D1DF02BFB80
:104FE000304A06AB92E8030083E80300184611F04C
:104FF00081FD0546D8B904F1340011F05DFD054688
:10500000A8B93946284805AA1DF0F7FA054670B92F
:10501000059B9A6872B10C33D4F89400C4F8A030A0
:1050200019F0A1FDC4F8D40030B96FF00B05284683
:1050300009B0F0BD0346EFE7D4F8940019F093FDF2
:10504000C4F8D8000028F0D0D4F88C30D4F8A010E0
:10505000C4F8A8300423C4F8AC30C4F8C430022328
:10506000A362124BB4F89420D4F8D470C4F8B810EA
:10507000C4F8D010D4F89010236204F1A403A4F86B
:10508000B020C4F8A470C4F8C010A4F8C820C4F8B4
:10509000BC00A661E362CAE76FF01505C7E700BF71
:1050A0009A6C0200903E0200A46C0200B042020022
:1050B0002DE9F84FDFF8FCA03F4F8146AAEB07032C
:1050C0009F2B88460BD93D4940F219133C4A3D4875
:1050D00019F0FDF840F21911394819F0F1F83A4881
:1050E00019F083FD0646002834D13C4605464FF0B2
:1050F000010B544527D935494FF49373304A314851
:1051000019F0E5F8324819F0E2F84FF49371E3E74B
:10511000237B73B12368DB680BB120469847236873
:105120001B6943B9636804222046196800F008F936
:1051300001361034DDE7204698470028F2D00BFAFC
:1051400006F31D43F4E7E3D3B9F1000F02D04FF0AB
:10515000010A0DB9BDE8F88FA94695FAA5F4B4FA8D
:1051600084F40AFA04F3260107EB04146FEA030B34
:1051700025EA0305237B5BB1BB591B69A3B93E44F8
:10518000736804222046196809EA0B0900F0D8F870
:10519000002DE2D1B8F1000F04D04FF4A47000212B
:1051A00015F042F84D46D4E7204698470028EFD145
:1051B000E5E700BFF03D0200E03D0200D96C0200CF
:1051C000AC6C0200084E020028170020FD6C0200A3
:1051D0001E6D0200014B53F820007047DC420200B4
:1051E00008B5034608462BB1044A136000F002FBE1
:1051F000002008BD6FF01500FBE700BF7C03002016
:105200000023054A4FF400411370044A0448136018
:10521000044A1360FFF7E4BF79270020201700201D
:10522000E7EB01002417002070B5134D297809BB66
:105230000120FFF73DFF114C114EB44217D911491F
:105240004FF4C473104A114819F041F8104819F08E
:105250003EF84FF4C4710C4819F032F863685B797A
:105260001BB1236820469B6898471034E5E7F5D3C7
:1052700001232B7070BD00BF79270020E03D0200A4
:10528000F03D0200FD6C0200AC6C0200084E020012
:105290001E6D020010B50446064819F0A6FC3CB18C
:1052A000054BD3E8EF1F0139C3E8E21F002AF8D10C
:1052B00010BD00BF201700202417002070B5124B2E
:1052C00005461B689847114C114EA860B44218D986
:1052D000104940F2C513104A104818F0F8FF104862
:1052E00018F0F5FF40F2C5110B4818F0E9FF6368AC
:1052F0005B7923B12368294620461B689847103400
:10530000E4E7F4D370BD00BF7C030020E03D020061
:10531000F03D0200FD6C0200AC6C0200084E020081
:105320001E6D0200044A054B9B1AB1EBD30F34BF2C
:1053300052F8310000207047683C0200E03D020056
:105340000E4B10B5C31A1B110133DBB248B90C491F
:105350000C48DF230C4A18F0BAFFDF210A4818F086
:10536000AFFF4468237143689A7101224368196052
:1053700043685A71BDE8104019F055BCE03D020089
:10538000C16D0200084E0200896D02002DE9F04F48
:1053900085B002AF0446D7E90EA90E46934698465B
:1053A0003D6BBAF1000F15D0C7F80490CDF800900E
:1053B0001021534600207A6BFDF732FF011E0ADAF6
:1053C0001E4978231E4A1F4818F081FF78211C4887
:1053D00018F076FF51461C4A04F007040BF0070B47
:1053E000E40044EA8B1402EA4122144344EA0554DF
:1053F00017350D4425F00705ADEB050D02ADBAF1EB
:10540000000F11D0CDF8009053467A6B05F11000D3
:10541000FDF706FF002807DA08499223084A0948E1
:1054200018F055FF9221D2E74346224631462846DE
:1054300019F0FCFB0C37BD46BDE8F08F0D6E020085
:10544000E16D0200084E020000FE0F000EB403B52D
:1054500003AB53F8042B01460448019301F0CEFF3F
:1054600002B05DF804EB03B0704700BF5FEC0100D1
:10547000CA0605D48B064CBF02490349FFF7E6BFB5
:10548000704700BFC79D0200E75302002DE9F04FAF
:1054900089B09B46DDE914839DF84C700593169BFB
:1054A00004460D46179E06920493002F00F0948048
:1054B000042F0BD99A4940F2BF139A4A9A4818F020
:1054C00006FF40F2BF11974818F0FAFE06F00803F5
:1054D000079319F0A9FB06F0020A024600284AD0F9
:1054E00020469249FFF7B2FF8146BAF1000F08D07B
:1054F00016F0440F41D12A4620468D49FFF7A6FFFA
:10550000814406F0010353B18A4B204653F827200B
:10551000894B8A49002A08BF1A46FFF797FF06F011
:105520000803002B55D0864B204653F82720854989
:10553000FFF78CFF0546069B2BB11A462046824991
:10554000FFF784FF0544BBF1000F05D05A46204603
:105550007E49FFF77BFF05444D44B8F1000F4CD165
:10556000049B002B61D1F30700F1D3803146204624
:10557000FFF77EFFC7E08146B7E7754B1868002844
:10558000BED0744B4FF47A7A1B684FF46161B5FB5F
:10559000F3F5B5FBF0F300FB13550AFB05F5B3FB80
:1055A000F1F2B5FBF0FE4FF03C0C01FB123100FBB9
:1055B0001E55B1FBFCF30AFB05F5B5FBF0F50CFB42
:1055C000131120460091CDE901E56349FFF73EFF45
:1055D00096E706F00805AEE7BBF1010F08D1B8F178
:1055E000000F1CD1049B002B00F08D8000251CE0D7
:1055F000B8F1000FF6D0594812E059484346224608
:10560000584918F068FB00280CDA574940F2192372
:10561000444A454818F05BFE40F2192153E75048D0
:105620003D46EBE7049B002B6AD0DFF84091DFF8A2
:1056300040A1DDF810803146B8F1100F204628BF98
:105640004FF010084FF0000BFFF712FF5D4543DCF1
:10565000059B514620461A78FFF7F8FE4FF0010BE4
:105660001BF0070F03D149462046FFF7EFFED84550
:1056700039D9059B5146204613F80B20FFF7E6FE6B
:105680000BF1010BBBF1100FEAD14FF0000B2046DC
:105690003849FFF7DBFE5A46059B20469A5C364B9D
:1056A000995C11F0970F08BF2E223449FFF7CEFE08
:1056B0000BF1010BBBF1100F1AD01BF0070F03D138
:1056C00049462046FFF7C2FED8455A46E4D8494627
:1056D0002046FFF7BBFEEBE749462046FFF7B6FE44
:1056E0000BF1010BB2E720462549FFF7AFFEC7E7F4
:1056F000059B43440593049BB3EB0803049398D1A3
:10570000002F7FF430AF204609B0BDE8F04F19F00C
:10571000CFBA2046084A0949FFF798FE26E700BF9E
:105720004B6E02001C6E0200084E0200576E020013
:105730005B6E0200EC420200176E0200C4520200CF
:1057400000430200806E0200866E02008A6E020034
:10575000301700202C170020646E02007BEC010043
:105760005FEC0100FD7300008F6E0200FDB60200C9
:10577000986E02009E6E0200E1C40200A06E02005C
:10578000FBB602002DE9F0410F884B6805460C4638
:1057900090468E6886B0C7F382175BB1144A9B1A95
:1057A00043F3CF01002920DB2078C0F3C200FFF7CC
:1057B000B9FD0346214651F8102B6088C2F34A22F6
:1057C000002A01EB020408BF00210022C0F30B10E5
:1057D000CDE90408CDE9021428463146019700922C
:1057E000FFF754FE06B0BDE8F0810023E2E700BFFA
:1057F000683C020000210123064A904206D8064A6E
:1058000001B901231360054B18607047012140085E
:105810005B00F2E740420F002C17002030170020F9
:105820000122014B1A7070477A270020014B00209B
:1058300019607047481700200122024B02481A7075
:1058400019F036BA7B2700203043020010B5064B12
:105850000C461868FFF7BEFC2146BDE81040034621
:105860000F220248184700BF4817002030430200AB
:10587000F8B507460E460424174D32463946002037
:1058800011F0ACFDC8B101232B70144B1B782BB960
:105890003046F8BD5CB92C704FF0FF34002011F099
:1058A0000DFE0028F4D02B78002BF3D1F0E7013C5B
:1058B00041F288301DF0BFFBF0E72B7813B1013CBB
:1058C00004D12C702B78002BD7D1E1E741F288303E
:1058D0001DF0B1FBF6E700BF7A2700207B270020F0
:1058E00070B5446903460D468CB319F017FA88BBAE
:1058F0001D48227A465CB2422FD01C48405C904240
:105900002ED11846E2689047002811DA022D0DD0FA
:10591000032D0CD110F1860F08D0231DD3E8EF1F03
:1059200041F00201C3E8E21F002AF7D1267270BDE0
:10593000022D267201D00020F9E70434D4E8EF3FAD
:1059400023F00203C4E8E23F002AF4D0F6E76FF048
:105950005700ECE74FF0FF30E9E76FF07700E6E73C
:105960006FF08500E3E700BFF26E0200EE6E02000A
:1059700070B5114B0D461C68DCB1104B1968002343
:105980008B4202DB6FF0010070BD224612F8106BF3
:10599000864202D014460133F2E7E06810B96FF096
:1059A0001200F1E71DF04BFB0028F8D000202C601E
:1059B000EAE76FF00C00E7E7BC030020B843020001
:1059C00070B588B005460C46C0B269461646FFF76A
:1059D000CFFF00281BDB0098C8B143682268029300
:1059E00083680195CDE903360023CDE906230593AD
:1059F000C56819F09BF96DB12846084901AA1CF049
:105A000034FB079808B9059B236008B070BD6FF0A0
:105A10001500FAE76FF01200F7E700BF2FED010065
:105A20002DE9F0410F4B05461C680E461746ACB1F8
:105A30004FF0FF324FF0FF330B4812F0A9FA6368C2
:105A40003246D3F8088029463B462046C0470446E4
:105A5000054812F06DFB2046BDE8F0816FF00104AF
:105A6000F9E700BF4C170020000900200023036065
:105A7000044B5A6812B9C3E90000704710605860BF
:105A8000704700BF50170020014B1860704700BFDF
:105A90004C170020002330B585B00546CDE9023310
:105AA00001904FF0FF334FF0FF320B4812F070FAC5
:105AB0000A4B1C684CB9284600F0FEF8044606481C
:105AC00012F036FB204605B030BD636820461B68E7
:105AD00001A998472468EDE700090020501700202D
